:020000040800F2
:10000000D85900200180000865800008658000083C
:100010006580000865800008658000080000000019
:1000200000000000000000000000000065800008E3
:1000300065800008000000006580000865800008F9
:1000400065800008658000086580000865800008FC
:1000500065800008658000086580000865800008EC
:1000600065800008658000086580000865800008DC
:1000700065800008658000086580000865800008CC
:1000800065800008658000086580000865800008BC
:1000900065800008658000086580000865800008AC
:1000A000658000086580000865800008658000089C
:1000B000658000086580000865800008658000088C
:1000C000658000086580000865800008658000087C
:1000D000658000086580000865800008658000086C
:1000E000658000086580000865800008658000085C
:1000F000658000086580000865800008658000084C
:10010000658000086580000865800008658000083B
:100110006580000865800008D91B0108311B0108B3
:10012000658000086580000865800008658000081B
:10013000658000086580000865800008658000080B
:1001400065800008658000086580000865800008FB
:1001500065800008658000086580000865800008EB
:1001600065800008658000086580000865800008DB
:1001700065800008658000086580000865800008CB
:0801800065800008658000089D
:1080000080B582B000AF124B7B60124B3B600BE03F
:108010007B681A683B681A603B6803F104033B60A5
:108020007B6803F104037B603A680B4B9A42EFD301
:108030000A480B494FF000028842B8BF40F8042BB1
:10804000FADB00F02DF807F10807BD4680BD00BF40
:1080500080F50F080000002014000020140000200C
:10806000D851002080B400AFFEE700BF80B483B0D9
:1080700000AF0346FB71094B97F907204FEA5212F4
:10808000F97901F01F014FF0010000FA01F143F806
:10809000221007F10C07BD4680BC704700E100E0EC
:1080A0002DE9F04FADF5437D0AAF0FF0B3FD09F0B8
:1080B000CBFC08F07BFE08F045FC08F097FE0EF0C4
:1080C00047F90CF043FA9C4BA84A1A609B4BA74A0D
:1080D0001A6008F077FE0DF023FD0346B3F1FF3F71
:1080E00003D14FF001000DF073F906F0F9FE4FF0E7
:1080F00001000AF033FC92484FF008010FF0CEFB6C
:108100000DF06CF88F484FF001010AF0E9FA8D4844
:108110004FF001010AF0E4FA00E000BF8A4B1B684F
:10812000032BFAD801A050F823F000BF3D810008CE
:1081300061820008B58200088BCD00084FF0000076
:108140000AF00CFC03464FF0010214461846884919
:1081500012F0DAFC0346002B02D14FF000031C465C
:10816000E3B2002B05D0784B4FF001021A6005F006
:1081700084BC44F2FF100AF041F841F232000AF0E8
:108180003DF841F232000AF039F8704B03F5AE5376
:1081900003F110031B684FEAC3136D4A82FB0312FD
:1081A0004FEA62124FEAE373D31A9BB218460AF001
:1081B00025F868484FF001010FF062FB07F5CA721D
:1081C000654B14461D460FCD0FC42B68236007F581
:1081D000C072624B14461D460FCD0FC42B6823702E
:1081E0004FF02303C7F88432D7F8843203F1010338
:1081F000C7F884325A484FF0000109F05BFB594838
:108200004FF0010109F056FB09F0AAFB4FF0000006
:1082100006F08EFB4FF4FA6009F0AAFF4B4B03F512
:10822000A25303F11C031B684FEAC313484A82FBA5
:1082300003024FEA62124FEAE373D31AC7F880329F
:10824000D7F880329BB243F480539BB29BB218465E
:1082500009F0D4FF3C4B4FF002021A6005F00DBC50
:10826000354B424A1A60354B404A1A604FF48050F1
:1082700009F0C4FF4FF0000009F0C0FF00BF4FF04D
:1082800001000AF06BFB03464FF00102144618464A
:10829000384912F039FC0346002B02D14FF000039D
:1082A0001C46E3B2002BEAD1274B4FF000021A60C4
:1082B00005F0E3BB4FF00003C7F87C3204F05EBD6D
:1082C000294B1B684FF4BA7202FB03F303F1180247
:1082D0001E4BD31818464FF0000109F0EBFA224B61
:1082E0001B684FF4BA7202FB03F303F12802174B29
:1082F000D31803F1040318464FF0010109F0DAFA2C
:1083000009F02EFB0AF030FC024640F653339A4245
:1083100004DC0D4B4FF001021A6094E3124B1B6812
:10832000102B40F02C81114BC7F8DC324FF00003CA
:10833000C7F8D8323AE000BF1C500020205000207F
:108340000000024054500020B04F00206C0000207C
:108350001F85EB5100080240B8E80F08CCE80F0871
:1083600058500020905100206800002000000000BC
:10837000009A8D48005E97480AF0F6FB03461846BF
:1083800012F0D0F903461846E44912F01FFA0346EA
:10839000D7F8DC02194612F011F90346C7F8DC32AF
:1083A000D7F8D83203F10103C7F8D832D7F8D8226A
:1083B00040F22B139A42DFDDD7F8DC02D84912F0E5
:1083C000B9FA0346C7F8DC32D648D7F8DC1212F007
:1083D000F3F80346D448194612F0EEF8034618465F
:1083E000D24912F0A7FA03461846CC4912F0A2FA75
:1083F00003461846CE4912F0E9F903461846CD491E
:1084000012F0DCF80346C7F87832CB48D7F8DC1214
:1084100012F0D2F80346C948194612F0CDF80346C7
:108420001846C64912F086FA03461846C44912F0A7
:10843000CDF90346C7F87432D7F87802D7F874122A
:1084400012F0BCF80346C7F87832D7F8780212F079
:1084500083FB0346C7F87032D7F87802AF4912F0B1
:10846000B5F90346184612F077FB0346A34A82FB90
:1084700003124FEA62114FEAE3728A1A4FF0640165
:1084800001FB02F29B1AC7F86C32AB48D7F8DC123A
:1084900012F092F80346A948194612F08DF80346E7
:1084A0001846A84912F046FA0346C7F8DC324FF0E6
:1084B00001031C46D7F8DC02984912F043FB03463F
:1084C000002B02D14FF000031C46E3B2002B01D079
:1084D000924B01E0D7F8DC32C7F8DC324FF00103F1
:1084E0001C46D7F8DC02984912F00EFB0346002B1D
:1084F00002D14FF000031C46E3B2002B01D0924B97
:1085000001E0D7F8DC32C7F8DC32D7F8DC0212F031
:1085100023FB02467A4B03F5BA5303F104031A60B6
:10852000D7F86C32092B11DD764A754B03F5BA5337
:1085300003F104031B68D7F86C12009110467249CE
:108540001A46D7F870320FF0C1F810E06D4A6C4B44
:1085500003F5BA5303F104031B68D7F86C120091BA
:1085600010466A491A46D7F870320FF0AFF8654BDB
:1085700018464FF0010109F09DF909F0F1F964483E
:108580004FF000010AF0ACF8C7F87C02604B1B68A2
:10859000802B0ED05E4B1B68B3F5006F09D05C4B8F
:1085A0001B68B3F5805F04D0594B1B68B3F5005FBF
:1085B00003D1574B4FF000021A60D7F87C32002BE2
:1085C00004D1534B1B68002B00F03782514B1A68C3
:1085D000D7F87C32D2184F4B1A604E4B1B68162BC3
:1085E00006D14C4B1B6803F1FF324A4B1A6007E07F
:1085F000484B1B68002B03DA464B4FF000021A6011
:10860000454B1B68002B40F0B880D7F87C32002B1C
:1086100042DA3B4B03F5E85303F114031B68022BCA
:108620000DD13C4B1B68002B04D03A4B1B68012B2F
:1086300040F02D81374B4FF002021A6027E1304B9A
:1086400003F5E85303F114031B68032B0DD1314BE1
:108650001B68002B04D02F4B1B68022B40F01781A6
:108660002C4B4FF001021A6011E1254B03F5E85342
:1086700003F114031B68012B40F00981254B1B6893
:10868000012B04D0234B1B68022B40F00081214BAF
:108690004FF000021A60FAE0D7F87C32002B40F36A
:1086A000F680174B03F5E85303F114031B68022B04
:1086B0000DD1184B1B68002B04D0164B1B68012BE7
:1086C00040F0E580134B4FF003021A60DFE00C4BE3
:1086D00003F5E85303F114031B68032B36D10D4B4C
:1086E0001B68002B04D00B4B1B68022B40F0CF8083
:1086F000084B4FF003021A60C9E000BF1F85EB5121
:108700006C000020D8170020F8E30F0808E40F08D9
:108710005450002068000020CC4F00200000C842C8
:108720000000964300C8AF480050C34700007A4499
:108730009899D93F0000384100D4AD4800B8884727
:10874000E17A943D00002F4400000000784B03F5CF
:10875000E85303F114031B68012B40F09880754B1C
:108760001B68012B04D0734B1B68022B40F08F80D9
:10877000704B4FF003021A6089E06F4B1B68012BAE
:1087800040F08580D7F87C32002B3EDA684B03F549
:10879000E85303F114031B68022B0CD1654B1B68D3
:1087A000012B03D0634B1B68022B70D1614B4FF040
:1087B00000021A606BE05E4B03F5E85303F114030B
:1087C0001B68032B0CD15B4B1B68012B03D0594B4F
:1087D0001B68022B5BD1574B4FF000021A6056E02A
:1087E000534B03F5E85303F114031B68012B4ED1DF
:1087F000504B1B68012B03D04E4B1B68022B46D1FC
:108800004C4B4FF000021A6041E0D7F87C32002B4D
:108810003DDD474B03F5E85303F114031B68022BBE
:108820000CD1444B1B68012B03D0424B1B68022B1D
:108830002DD1404B4FF003021A6028E03C4B03F56A
:10884000E85303F114031B68032B0CD1394B1B684D
:10885000012B03D0374B1B68022B18D1354B4FF03F
:1088600003021A6013E0324B03F5E85303F11403DB
:108870001B68012B0BD12F4B1B68012B03D02D4BF9
:108880001B68022B03D12B4B4FF003021A60294BBC
:108890001B68092B11D1294B1B68002B0DD1D7F870
:1088A0007C32002B04DD234B4FF00A021A604BE0B0
:1088B000204B4FF008021A6046E01E4B1B680C2B41
:1088C00013D11B4B03F580531B68002B0DD1D7F838
:1088D0007C32002B04DD174B4FF00D021A6033E0A1
:1088E000144B4FF00B021A602EE0124B1B68142B36
:1088F00008D1114B1B68012B04D10E4B4FF0130212
:108900001A6021E00B4B1B68152B1DD1084B03F59A
:10891000E85303F114031B68032B15D0064B1B68A7
:10892000012B0DD1034B4FF013021A600CE000BF76
:108930006C00002068000020CC4F0020A84F0020D1
:10894000954B4FF014021A60D7F87C32002B21D0DF
:10895000914B1B684FF4BA7202FB03F303F1180248
:108960008E4BD31818464FF0000108F0A3FF8A4B36
:108970001B684FF4BA7202FB03F303F12802874B22
:10898000D31803F1040318464FF0010108F092FFD9
:1089900008F0E6FF814BD3F8BC38052B08D1804B9B
:1089A0001B68802B13D07E4B1B68B3F5006F0ED075
:1089B0007A4BD3F8303A052B0CD1794B1B68B3F5C1
:1089C000805F04D0764B1B68B3F5005F02D10CF0DA
:1089D00005FC16E0724B1B68802B0ED0704B1B6899
:1089E000B3F5006F09D06E4B1B68B3F5805F04D000
:1089F0006B4B1B68B3F5005F03D1694B4FF000026E
:108A00001A60664B03F5DD531B68012B16D1644BCE
:108A10001B68012B0CD0624B1B68102B08D0604BDD
:108A20001B68202B04D05E4B1B68B3F5807F05D1FB
:108A30005B4B4FF000021A6000E000BF584B1B6810
:108A4000002B3FF45FAC564B1B68012B02D10CF09E
:108A5000C5FB1FE1524B1B68102B48D1514B4FF007
:108A600000021A60504B5B68002B30D04FF064005E
:108A70004FF0010109F0F4FB4C484FF0000145F6BE
:108A8000EA524FF0010309F0C3FC474B5A68484BC8
:108A9000A3FB02034FEAD30318464FF000010AF08C
:108AA0007FF8414B1B7C002B1DD042484FF000014A
:108AB00040F6C7524FF0010309F0AAFC3A4B9A68FE
:108AC000394BDB68104619460BF0D2F80BE0364BF9
:108AD0001B7C002B07D0344B9A68334BDB68104665
:108AE00019460BF0C5F808F06DF904F047B92C4BA6
:108AF0001B68202B04F03981294B1B68B3F5807F5C
:108B000040F0C280254B03F5A25303F11C031B6800
:108B1000C7F86832D7F86832092B08DC1F4B03F519
:108B2000A25303F11C034FF00A021A604CE0D7F87D
:108B30006832132B08DC194B03F5A25303F11C0315
:108B40004FF014021A603FE0D7F86832272B08DC98
:108B5000124B03F5A25303F11C034FF028021A60D5
:108B600032E0D7F868323B2B08DC0C4B03F5A253FC
:108B700003F11C034FF03C021A6025E0D7F868327D
:108B80004F2B19DC054B03F5A25303F11C034FF0E7
:108B900050021A6018E000BF680000206C0000203E
:108BA00054500020B44F0020C8200020E4610E087B
:108BB000CDCCCCCC68C80F08BC4B03F5A25303F155
:108BC0001C034FF00A021A60B94AB84B03F5A253CE
:108BD00003F11C031B681046B6491A460EF076FDD9
:108BE000B24B03F5A25303F11C031B6807F5B672E1
:108BF0001046B0491A460EF069FD07F5B6731846DF
:108C00004FF0010108F056FE08F0AAFEA74B03F54D
:108C1000A25303F11C031B684FEAC313A64A82FB4D
:108C200003124FEA62124FEAE373D31AC7F86432B1
:108C3000D7F864329BB243F480539BB29BB2184680
:108C400009F0DCFA4FF064004FF0000109F008FB76
:108C50009A484FF0000143F687024FF0010309F0F4
:108C6000D7FB924B03F5A25303F11C031B684EF68E
:108C7000602202FB03F318464FF0010109F090FF58
:108C800008F0A0F804F07FB88D4B1B68002B01D0D2
:108C900009F050FE8B4B1B68152B04F26F8001A26C
:108CA00052F823F0FD8C0008498F0008818F0008DE
:108CB000BF8F0008FB920008FB9200081399000880
:108CC00013990008E1A200080BAE000811AF0008DC
:108CD0000DB0000835B000085FB100089DB2000873
:108CE00039B400087DCD0008B3B50008B3BE000854
:108CF00021C5000825C600084FC70008704B1B6837
:108D0000B3F5004F06D0694B03F5DD531B68012B0B
:108D100004F02D80654B03F5E85303F114031B6841
:108D2000022B15D1684B1B68002B11D167484FF0FF
:108D3000000108F0BFFD66484FF0010108F0BAFDE0
:108D400008F00EFE40F6B83009F012FA04F016B83A
:108D5000564BD3F8D435002B40F3C9805D484FF013
:108D6000000108F0A7FD07F5AC725B4B14461D46E9
:108D70000FCD0FC42B6823604C4BD3F8D43542F28F
:108D8000107202FB03F31A46544B1B68D31803F509
:108D90001C5303F10F03C7F860324FF00003C7F80C
:108DA000D43279E04D4B1B68D7F86022D21A4C4B75
:108DB000A3FB02034FEA5333C7F85C32D7F85C32A7
:108DC000002B71D0D7F85C323C2B0CDD434B1B6879
:108DD000D7F86022D31A18464FF000014FF0010275
:108DE00009F0B0FB22E0D7F85C32012B0FDD07F56C
:108DF000AC7318463B49D7F85C220EF067FC07F5C8
:108E0000AC7318464FF0010108F054FD0EE007F571
:108E1000AC7318463449D7F85C220EF057FC07F5BE
:108E2000AC7318464FF0010108F044FD08F098FDBE
:108E30001E4BD3F84837C7F85832D7F8D432002B36
:108E400020D1D7F85832002B1CD0D7F85C22D7F8A5
:108E500058329A4216D14FF064004FF0010109F0E8
:108E6000FFF9D7F858324FF47A7202FB03F3184631
:108E70004FF0000109F094FE07F0A4FF4FF001034A
:108E8000C7F8D4320E484FF0000109F029FC0C4B12
:108E90001B68B3F5004F29D0104B1A68D7F8603221
:108EA0009A42FFF47FAF22E000BF20E06C00002078
:108EB000F01400201CE40F081F85EB51D4F00D08BE
:108EC0005450002068000020CC4F002024E40F08FC
:108ED00034E40F0840E40F08E0E80F0864000020C5
:108EE0005917B7D154E40F0860E40F0800BF08F029
:108EF00051FA4FF0000004F0CFFD9C484FF0000104
:108F000009F0EEFB994B4FF000021A6005F0E8FF04
:108F1000974BD3F8BC38022B0ED0954BD3F8BC3806
:108F2000032B09D0924BD3F8303A022B04D0904B4C
:108F3000D3F8303A032B03D18E4B4FF003021A6063
:108F40000CF04CF903F01ABF8B484FF0000108F009
:108F5000B1FC8A484FF0010108F0ACFC08F000FDBC
:108F600009F066FB09F0D2F808F058F84FF4C87021
:108F700009F0FEF8824B4FF000021A6003F0FEBECB
:108F80007B4B03F5E85303F114031B68022B43F0FA
:108F9000F0867C484FF0000108F08CFC7A484FF0D6
:108FA000010108F087FC08F0DBFC09F0AFF809F0DC
:108FB0003FFB734B4FF000021A6003F0DFBE6C4BB7
:108FC000D3F86034C7F85432D7F85432772B31D8FD
:108FD000D7F85432002B07D16C4B18466C494FF030
:108FE000080211F0FFFD1EE0D7F85432052B07D11F
:108FF000664B18466749D7F854220EF067FB12E01B
:10900000D7F85432632B07D8604B18466249D7F81B
:1090100054220EF05BFB06E05C4B18465F49D7F824
:1090200054220EF053FB594B18464FF0010108F043
:1090300041FCCCE0D7F85432EF2B48D8D7F8543263
:10904000782B07D1514B184655494FF00F0211F0BC
:10905000C9FD29E0D7F854327D2B0AD14B4AD7F805
:109060005432A3F1780310464E491A460EF02EFBF7
:109070001AE0D7F85432A3F17803632B0AD8434A95
:10908000D7F85432A3F17803104647491A460EF038
:109090001DFB09E03D4AD7F85432A3F1780310468E
:1090A00042491A460EF012FB314B4FF0010283F891
:1090B0008824364B184611F0F5FE034603F1FF33C2
:1090C0002B4AD3184FF0020283F888247FE0D7F8A8
:1090D000542240F267139A4272D8D7F85432F02BD8
:1090E00007D12A4B184632494FF00F0211F07AFD92
:1090F00029E0D7F85432F52B0AD1244AD7F8543254
:10910000A3F1F00310462B491A460EF0DFFA1AE0DD
:10911000D7F85432A3F1F003632B0AD81B4AD7F8CF
:109120005432A3F1F003104623491A460EF0CEFA4A
:1091300009E0164AD7F85432A3F1F00310461F494C
:109140001A460EF0C3FA0A4B4FF0010283F8882446
:109150000E4B184611F0A6FE034603F1FF33044AF6
:10916000D3184FF0020283F8882430E054500020D6
:109170006C000020B04F00206CE40F0878E40F086A
:10918000680000206C03002088E40F08F40400202D
:1091900098E40F08A0E40F08B4E40F08C4E40F0833
:1091A000D4E40F08E4E40F08FCE40F0814E50F080A
:1091B00028E50F0838E50F0850E50F0868E50F08A7
:1091C000944B184694494FF00A0211F00BFD914B55
:1091D00018464FF0010108F06DFB08F0C1FB8F4805
:1091E0004FF0000109F07CFAC7F87C02D7F87C3216
:1091F000002B03D1894B1B68002BF0D0D7F87C32B1
:10920000002B2BD0864BD3F86014D7F87C22134662
:109210004FEA83039B18CA18814BC3F86024804B24
:10922000D3F86034002B05DA7D4B4FF00002C3F811
:1092300060240AE07A4BD3F86034B3F5B47F04DDE0
:10924000774B4FF4B472C3F86024724B18464FF05A
:10925000010108F02FFB08F083FBB0E609F06AFB80
:109260004FF00003C7F8D03226E06D4AD7F8D0326D
:10927000D31803F5906303F104031B79012B0AD083
:10928000674AD7F8D032D31803F5906303F104038B
:109290001B79022B0AD1624AD7F8D032D31803F5D2
:1092A000906303F104034FF020021A71D7F8D03213
:1092B00003F10103C7F8D032D7F8D042554B184616
:1092C00011F0F0FD03469C42CFD3524B18464FF0AD
:1092D000010108F0EFFA08F043FB4FF000000CF03A
:1092E00077F84E484FF0000109F0FAF94B4B4FF078
:1092F00000021A6003F042BD00BF4A4B1B68484A97
:109300004FF4BA7101FB03F3D31803F104031B6894
:10931000002B29D1434B1B68042B12D1414B1B68F6
:109320004FF4BA7202FB03F303F128023C4BD3184B
:1093300003F1040318463C494FF00D0211F052FCB2
:10934000A0E0384B1B684FF4BA7202FB03F303F141
:109350002802334BD31803F10403184633494FF066
:109360000F0211F03FFC8DE02E4B1B682C4A4FF48E
:10937000BA7101FB03F3D31803F104031B68012B3B
:109380001DD1284B1B684FF4BA7202FB03F303F1A3
:109390002802234BD31803F104031A46214B1B6800
:1093A0001F494FF4BA7000FB03F3CB1803F1040319
:1093B0001B6810461E491A460EF088F962E0194BE8
:1093C0001B68174A4FF4BA7101FB03F3D31803F17A
:1093D00004031B68772B2FDC124B1B684FF4BA7207
:1093E00002FB03F303F128020D4BD31803F104032E
:1093F0001A460C4B1B680A494FF4BA7000FB03F382
:10940000CB1803F104031B6810460A491A460EF0F4
:109410005DF937E0F40400207CE50F08545000208B
:109420006C0000206800002088E50F0898E50F0810
:10943000A8E50F08B8E50F08AD4B1B684FF4BA72EA
:1094400002FB03F303F12802AA4BD31803F1040330
:109450001A46A74B1B68A7494FF4BA7000FB03F3E9
:10946000CB1803F104031B68A34981FB0301C9184E
:109470004FEA61114FEAE373CB1A10469F491A462F
:109480000EF024F99A4B1B684FF4BA7202FB03F3F7
:1094900003F12802974BD31803F1040318464FF049
:1094A000010108F007FA08F05BFA95484FF0000157
:1094B00009F016F9C7F87C02D7F87C32002B03D1EB
:1094C0008F4B1B68002BF0D0D7F87C32002B00F0BC
:1094D0005481874B1B68874A4FF4BA7101FB03F331
:1094E000D31803F104031B683B2B38DC804B1B684B
:1094F0007F4A12687F494FF4BA7000FB02F28A1863
:1095000002F104021168D7F87C228A1879494FF4D5
:10951000BA7000FB03F3CB1803F104031A60744B19
:109520001B68052B40F00D81724BD3F84837042B94
:1095300000F30781D7F87C32012B04D16D4B4FF03B
:109540000502C3F84827D7F87C32B3F1FF3F40F05B
:10955000F880684B4FF00002C3F84827F1E0644BF5
:109560001B68644A4FF4BA7101FB03F3D31803F18B
:1095700004031B683C2B3DD1D7F87C32002B19DA51
:109580005B4B1B685A4A12685A494FF4BA7000FB89
:1095900002F28A1802F104021168D7F87C228A18B4
:1095A00054494FF4BA7000FB03F3CB1803F10403E2
:1095B0001A60C6E04E4B18684D4B1B684D4A4FF47D
:1095C000BA7101FB03F3D31803F104031968D7F848
:1095D0007C2213464FEA83039B184FEA4303CA18C1
:1095E00044494FF4BA7303FB00F3CB1803F10403AF
:1095F0001A60A6E03E4B1B683E4A4FF4BA7101FB6D
:1096000003F3D31803F104031B68782B43D1D7F875
:109610007C32002B1FDA364B1868354B1B68354AF5
:109620004FF4BA7101FB03F3D31803F10403196873
:10963000D7F87C2213464FEA83039B184FEA430373
:10964000CA182C494FF4BA7303FB00F3CB1803F18B
:1096500004031A6075E0264B1868254B1B68254AE1
:109660004FF4BA7101FB03F3D31803F10403196833
:10967000D7F87C2213464FEA03139B1A4FEA830361
:10968000CA181C494FF4BA7303FB00F3CB1803F15B
:1096900004031A6055E0164B1B68164A4FF4BA7162
:1096A00001FB03F3D31803F104031B68772B29DDB7
:1096B0000F4B18680E4B1B680E4A4FF4BA7101FB32
:1096C00003F3D31803F104031968D7F87C22134677
:1096D0004FEA03139B1A4FEA8303CA1805494FF454
:1096E000BA7303FB00F3CB1803F104031A6028E0FC
:1096F000680000206C00002089888888C8E50F0871
:1097000054500020B44B1868B34B1B68B34A4FF455
:10971000BA7101FB03F3D31803F104031968D7F8F6
:109720007C2213464FEA83039B184FEA4303CA186F
:10973000AA494FF4BA7303FB00F3CB1803F10403F7
:109740001A60A54B1B68A54A4FF4BA7101FB03F3DD
:10975000D31803F104031B68002BBFF6CDAD9E4B5D
:109760001B689E4A4FF4BA7101FB03F3D31803F14F
:1097700004034FF000021A60BFE509F0DBF8964BD6
:109780001B68964A4FF4BA7101FB03F3D31803F137
:1097900004031B68002B1ED18F4B1B68052B07D1C0
:1097A0008F4B18468F494FF00B0211F01BFA8EE0D9
:1097B000894B1B684FF4BA7202FB03F303F12802D2
:1097C000864BD31803F10403184687494FF009026A
:1097D00011F008FA7BE0804B1B68804A4FF4BA71A5
:1097E00001FB03F3D31803F104031B68012B1DD104
:1097F000794B1B684FF4BA7202FB03F303F12802A2
:10980000764BD31803F104031A46734B1B68734954
:109810004FF4BA7000FB03F3CB1803F104031B6889
:10982000104672491A460DF051FF50E06A4B1B6812
:109830006A4A4FF4BA7101FB03F3D31803F104032E
:109840001B68772B1DDC644B1B684FF4BA7202FB5C
:1098500003F303F12802614BD31803F104031A4602
:109860005D4B1B685D494FF4BA7000FB03F3CB18E6
:1098700003F104031B6810465D491A460DF026FFEC
:1098800025E0554B1B684FF4BA7202FB03F303F15A
:109890002802524BD31803F104031A464E4B1B689F
:1098A0004E494FF4BA7000FB03F3CB1803F10403E5
:1098B0001B68504981FB0301C9184FEA61114FEA47
:1098C000E373CB1A10464C491A460DF0FFFE424B8B
:1098D0001B684FF4BA7202FB03F303F128023F4BFB
:1098E000D31803F1040318464FF0010107F0E2FF1B
:1098F00008F036F84FF000000BF06AFD3F484FF0DB
:10990000000108F0EDFE3D4B4FF000021A6003F03D
:1099100035BA314B1B684FF4BA7202FB03F303F103
:1099200028022E4BD31803F1040319462A4B1B6857
:109930002A4A4FF4BA7000FB03F3D31803F104036F
:109940001B681A4613464FEA83039B184FEA8303AA
:10995000CB1818464FF0010107F0ACFF08F000F8F3
:1099600026484FF0000108F0BBFEC7F87C02D7F88C
:109970007C32002B03D1214B1B68002BF0D0D7F891
:109980007C32002B00F0F580134B1B68134A4FF418
:10999000BA7101FB03F3D31803F5B8731A68D7F84B
:1099A0007C32D318C7F850320B4B1B680B4A4FF46C
:1099B000BA7101FB03F3D31803F5B6731A68D7F82D
:1099C00050329A4201DA00F087BCD7F85032002BAF
:1099D00016DC00F081BC00BF680000206C00002095
:1099E000DC070020D8E50F08E4E50F0860E40F0865
:1099F00054E40F0889888888F0E50F085450002047
:109A0000994B1B68994A4FF4BA7101FB03F3D318C1
:109A100003F5B873D7F850221A60D7F8503203F123
:109A2000FF33092B00F2A48001A151F823F000BFFD
:109A3000599A0008759A0008919A0008AD9A000892
:109A4000C99A0008E59A0008019B00081D9B0008C0
:109A5000399B0008559B0008834B1B68834A4FF4D1
:109A6000BA7101FB03F3D31803F104034FF00102B1
:109A70001A607DE07C4B1B687C4A4FF4BA7101FB95
:109A800003F3D31803F104034FF002021A606FE0EE
:109A9000754B1B68754A4FF4BA7101FB03F3D31879
:109AA00003F104034FF003021A6061E06E4B1B6880
:109AB0006E4A4FF4BA7101FB03F3D31803F10403A8
:109AC0004FF004021A6053E0674B1B68674A4FF47B
:109AD000BA7101FB03F3D31803F104034FF005023D
:109AE0001A6045E0604B1B68604A4FF4BA7101FB95
:109AF00003F3D31803F104034FF006021A6037E0B2
:109B0000594B1B68594A4FF4BA7101FB03F3D31840
:109B100003F104034FF007021A6029E0524B1B685F
:109B2000524A4FF4BA7101FB03F3D31803F1040353
:109B30004FF008021A601BE04B4B1B684B4A4FF476
:109B4000BA7101FB03F3D31803F104034FF00902C8
:109B50001A600DE0444B1B68444A4FF4BA7101FB94
:109B600003F3D31803F104034FF00A021A6000BF95
:109B7000B2E308F0DFFE3C4B1B683C4A4FF4BA717D
:109B800001FB03F3D31803F104031B68042B54D126
:109B9000374B4FF001021A60334B1B68184606F032
:109BA00099FA334B4FF000021A6008F0C3FE2E4BB7
:109BB0001B681A462C4B1B682C494FF4BA7000FBEB
:109BC00003F3CB1803F104031B68104619464FF04A
:109BD00000024FF001030CF04DFB234B1B684FF4C8
:109BE000BA7202FB03F303F11802204BD318184694
:109BF0004FF0000107F05EFE1B4B1B684FF4BA727A
:109C000002FB03F303F12802184BD31803F10403FA
:109C100018464FF0010107F04DFE07F0A1FE4FF08E
:109C200000000BF0D5FB13484FF0000108F058FD81
:109C3000104B4FF000021A6050E30B4B1B680B4AAD
:109C40004FF4BA7101FB03F3D31803F104031B684B
:109C5000062B40F0AB8008484FF0000107F02AFEC9
:109C60000DE000BF0BE000BF680000206C0000208A
:109C7000E84F002054500020FCE50F0800BF914B36
:109C80001B684FF4BA7202FB03F303F128028E4BF8
:109C9000D31803F104031A468A4B1B688A494FF410
:109CA000BA7000FB03F3CB1803F108031B681046DE
:109CB00086491A460DF00AFD824B1B684FF4BA72B2
:109CC00002FB03F303F128027F4BD31803F10403D3
:109CD00018464FF0010107F0EDFD07F041FE7C480A
:109CE0004FF0000108F0FCFCC7F87C02D7F87C328A
:109CF000002B03D1764B1B68002BF0D0D7F87C32B9
:109D0000002B32D06F4B1B686F4A4FF4BA7101FBC6
:109D100003F3D31803F108031A68D7F87C32D31879
:109D2000C7F84C32D7F84C320B2B9ADDD7F84C32AF
:109D3000482BA3DC634B1B68634A4FF4BA7101FBE9
:109D400003F3D31803F10803D7F84C221A605D4BD4
:109D50001B68062B04D1D7F84C225E4B1A608EE7A5
:109D6000D7F84C225C4B1A6089E708F0E3FD554BAD
:109D70001B684FF4BA7202FB03F303F11802524B53
:109D8000D31818464FF0000107F094FD07F0E8FDE6
:109D90004FF000000BF01CFB4D484FF0000108F0A5
:109DA0009FFC4B4B4FF000021A6095E2454B1B683D
:109DB000454A4FF4BA7101FB03F3D31803F10403CE
:109DC0001B68072B40F08E8044484FF0000107F0DD
:109DD00071FD02E000BF00E000BF4149394B1B6844
:109DE000394A4FF4BA7000FB03F3D31803F10C03A4
:109DF0001B681A4613464FEA83039B184FEA8303F6
:109E0000CB1818464FF0010107F054FD07F0A8FDEC
:109E10002F484FF0000108F063FCC7F87C02D7F828
:109E20007C32002B03D12A4B1B68002BF0D0D7F8D3
:109E30007C32002B25D0234B1B68234A4FF4BA7188
:109E400001FB03F3D31803F10C031A68D7F87C3233
:109E5000D318C7F84832D7F84832002BBADBD7F806
:109E60004832042BB8DC174B1B68174A4FF4BA7101
:109E700001FB03F3D31803F10C03D7F848221A604F
:109E8000ABE708F057FD0F4B1B684FF4BA7202FBAB
:109E900003F303F118020C4BD31818464FF00001DE
:109EA00007F008FD07F05CFD4FF000000BF090FAA2
:109EB00007484FF0000108F013FC054B4FF000027B
:109EC0001A6009E2680000206C0000200CE60F0810
:109ED00054500020FC4F0020005000201CE60F08CA
:109EE00064200020974B1B68974A4FF4BA7101FB1E
:109EF00003F3D31803F104031B68082B0DD0914B17
:109F00001B68914A4FF4BA7101FB03F3D31803F1B4
:109F100004031B68092B40F0008106F053FF4FF04B
:109F200064004FF0010108F09BF988484FF00001F0
:109F300008F0D6FBC7F87C02854B1B6903F0800351
:109F4000002B14BF00230123C7F84032804B1B694C
:109F500003F48073002B14BF00230123C7F83C32A5
:109F60007B4B1B6903F01003002B14BF002301235C
:109F7000C7F83832764B1B6903F02003002B14BF5F
:109F800000230123C7F83432D7F84032002B0BD11D
:109F9000D7F83C32002B07D1D7F83832002B03D149
:109FA000D7F83432002B72D0664B1B68062B35D1A4
:109FB000D7F84032002B16D0624B1B68624A4FF430
:109FC000BA7101FB03F3D31803F104031B68082BD8
:109FD00009D14FF014005F4940F6F4624FF00103DD
:109FE00008F08EF953E0D7F83C32002B4CD0554B9B
:109FF0001B68554A4FF4BA7101FB03F3D31803F100
:10A0000004031B68092B41D14FF01400514940F65D
:10A01000F4624FF0010308F073F938E0D7F83832F2
:10A02000002B16D0474B1B68474A4FF4BA7101FB0F
:10A0300003F3D31803F104031B68082B09D14FF075
:10A040001400444940F6F4624FF0010308F058F957
:10A050001DE0D7F83432002B19D03A4B1B683A4A2E
:10A060004FF4BA7101FB03F3D31803F104031B6827
:10A07000092B0CD14FF01400364940F6F4624FF032
:10A08000010308F03DF902E000BF00E000BFD7F88F
:10A090007C32002B04D12D4B1B68002B3FF445AFC5
:10A0A00006F090FE08F046FC264B1B681A46254B2E
:10A0B0001B6825494FF4BA7000FB03F3CB1803F17A
:10A0C00004031B68104619464FF000024FF00103CD
:10A0D0000CF0D0F81B4B1B684FF4BA7202FB03F371
:10A0E00003F11802184BD31818464FF0000107F07F
:10A0F000E1FB144B1B684FF4BA7202FB03F303F14C
:10A100002802114BD31803F1040318464FF0010144
:10A1100007F0D0FB07F024FCE0E00A4B1B680A4A7A
:10A120004FF4BA7101FB03F3D31803F104031B6866
:10A130000A2B40F09A8008484FF0000107F0BAFB64
:10A140000DE000BF680000206C000020545000208B
:10A150000004024098C6010828E60F0800BF9E4B85
:10A160001B684FF4BA7202FB03F303F128029B4B06
:10A17000D31803F104031A46974B1B6897494FF411
:10A18000BA7000FB03F3CB1803F110031B681046F1
:10A1900093491A460DF09AFA8F4B1B684FF4BA7226
:10A1A00002FB03F303F128028C4BD31803F10403E1
:10A1B00018464FF0010107F07DFB07F0D1FB8948FD
:10A1C0004FF0000108F08CFAC7F87C02D7F87C3217
:10A1D000002B03D1834B1B68002BF0D0D7F87C32C7
:10A1E000002B21D07C4B1B687C4A4FF4BA7101FBD9
:10A1F00003F3D31803F110031A68D7F87C32D3188D
:10A20000C7F84432D7F84432002BA7DB724B1B68E7
:10A21000724A4FF4BA7101FB03F3D31803F1100330
:10A22000D7F844221A609AE708F084FB6A4B1B684F
:10A230004FF4BA7202FB03F303F11802674BD31811
:10A2400018464FF0000107F035FB07F089FB4FF08F
:10A2500000000BF0BDF863484FF0000108F040FA31
:10A26000604B4FF000021A6036E05B4B1B681A46E9
:10A27000594B1B6859494FF4BA7000FB03F3CB18D4
:10A2800003F104031B68104619464FF000024FF01B
:10A2900001030BF0EFFF504B1B684FF4BA7202FB47
:10A2A00003F303F128024D4BD31803F104031846BE
:10A2B0004FF0010107F0FEFA07F052FB4FF00000EB
:10A2C0000BF086F847484FF0000108F009FA454BBB
:10A2D0004FF000021A6001E0FFF71BBB02F04EBD19
:10A2E000414B1B68002B0DD1404B184640490CF0E8
:10A2F00011F83F484FF0010107F0DCFA07F030FB9E
:10A3000002F03CBD07F5A2723A4B14461D460FCD34
:10A310000FC42B68236007F59872364B14461D4610
:10A320000FCD0FC42B68236007F58E72314B144696
:10A330001D460FCD0FC42B68236007F584722D4B8B
:10A3400014461D460FCD0FC42B682360234BD3F852
:10A35000A43BC7F83032214BD3F8A43B03F10103EF
:10A36000C7F82C322449D7F8302213464FEA83032A
:10A370009B184FEA0313CB1803F110035B78062BED
:10A3800012D11D49D7F8302213464FEA83039B1898
:10A390004FEA0313CB181B6807F58E721046174956
:10A3A0001A460DF093F911E01349D7F830221346FD
:10A3B0004FEA83039B184FEA0313CB181B6807F57A
:10A3C0008E7210460E491A460DF080F94FF00003C8
:10A3D000C7F8CC3228E000BF680000206C000020E5
:10A3E00034E60F0854500020A84F0020380C0020FD
:10A3F00040E60F08E0E80F08C82000204CE60F08F0
:10A4000058E60F0807F58E72D7F8CC32D3181A78B1
:10A4100007F5A271D7F8CC32CB181A70D7F8CC3226
:10A4200003F10103C7F8CC3207F58E73184610F01C
:10A4300039FD0246D7F8CC329A42E3D8B449D7F86E
:10A44000302213464FEA83039B184FEA0313CB18BD
:10A4500003F110031B78002B40F01781AC49D7F8AB
:10A460002C2213464FEA83039B184FEA0313CB18A1
:10A4700003F110031B78002B00F00781D7F830227E
:10A4800013464FEA83039B184FEA031303F11002AC
:10A490009F4BD31803F1020307F584721046194647
:10A4A00010F0A2FC4FF00003C7F8CC3207F584731C
:10A4B000184610F0F7FC0346C3F11203C7F8C83280
:10A4C00017E007F58472D7F8CC32D3181A7807F55D
:10A4D000A271D7F8C832CB181A70D7F8C83203F176
:10A4E0000103C7F8C832D7F8CC3203F10103C7F82B
:10A4F000CC32D7F8C832132BE3D907F5A2734FF04B
:10A5000020029A7407F5A2734FF02002DA74804992
:10A51000D7F82C2213464FEA83039B184FEA031304
:10A52000CB1803F110035B78062B12D17849D7F8CA
:10A530002C2213464FEA83039B184FEA0313CB18D0
:10A540001B6807F58E72104672491A460DF0BEF868
:10A5500011E06F49D7F82C2213464FEA83039B186A
:10A560004FEA0313CB181B6807F58E7210466A4931
:10A570001A460DF0ABF84FF00003C7F8CC3211E0EB
:10A5800007F58E72D7F8CC32D3181A7807F5987180
:10A59000D7F8CC32CB181A70D7F8CC3203F10103BC
:10A5A000C7F8CC3207F58E73184610F07BFC0246D4
:10A5B000D7F8CC329A42E3D85549D7F82C22134623
:10A5C0004FEA83039B184FEA0313CB1803F10403EC
:10A5D0001B68002B49D0D7F82C2213464FEA83037F
:10A5E0009B184FEA031303F11002494BD31803F1F0
:10A5F000020307F584721046194610F0F5FB4FF080
:10A600000003C7F8CC3207F58473184610F04AFCF3
:10A610000346C3F11203C7F8C83217E007F5847286
:10A62000D7F8CC32D3181A7807F59871D7F8C83212
:10A63000CB181A70D7F8C83203F10103C7F8C83233
:10A64000D7F8CC3203F10103C7F8CC32D7F8C832BF
:10A65000132BE3D907F598734FF020029A7407F58E
:10A6600098734FF02002DA7490E207F5987303F1C3
:10A670000C03184629494FF0070210F0B3FA07F50A
:10A6800098734FF020029A7480E22149D7F8302263
:10A6900013464FEA83039B184FEA0313CB1803F1C9
:10A6A00010031B78002B40F026811949D7F82C2283
:10A6B00013464FEA83039B184FEA0313CB1803F1A9
:10A6C00010031B78002B40F01681D7F83022134678
:10A6D0004FEA83039B184FEA031303F110020C4B5C
:10A6E000D31803F1020307F584721046194610F0DF
:10A6F0007BFB4FF00003C7F8CC3207F58473184694
:10A7000010F0D0FB0346C3F11203C7F8C8321FE0B4
:10A71000C82000204CE60F0858E60F0864E60F0832
:10A7200007F58472D7F8CC32D3181A7807F5A271DE
:10A73000D7F8C832CB181A70D7F8C83203F1010322
:10A74000C7F8C832D7F8CC3203F10103C7F8CC32CE
:10A75000D7F8C832132BE3D907F5A2734FF02002C4
:10A760009A7407F5A2734FF02002DA749149D7F872
:10A770002C2213464FEA83039B184FEA0313CB188E
:10A780001B68002B00F09F808A49D7F82C221346C3
:10A790004FEA83039B184FEA0313CB1803F110030E
:10A7A0005B78062B12D18349D7F82C2213464FEA47
:10A7B00083039B184FEA0313CB181B6807F58E72AF
:10A7C00010467D491A460CF081FF11E07949D7F80F
:10A7D0002C2213464FEA83039B184FEA0313CB182E
:10A7E0001B6807F58E72104674491A460CF06EFF0E
:10A7F0004FF00003C7F8CC3211E007F58E72D7F89E
:10A80000CC32D3181A7807F59871D7F8CC32CB1818
:10A810001A70D7F8CC3203F10103C7F8CC3207F530
:10A820008E73184610F03EFB0246D7F8CC329A429F
:10A83000E3D8D7F82C2213464FEA83039B184FEA3C
:10A84000031303F110025B4BD31803F1020307F566
:10A8500084721046194610F0C7FA4FF00003C7F88B
:10A86000CC3207F58473184610F01CFB0346C3F185
:10A870001203C7F8C83217E007F58472D7F8CC3254
:10A88000D3181A7807F59871D7F8C832CB181A7010
:10A89000D7F8C83203F10103C7F8C832D7F8CC3271
:10A8A00003F10103C7F8CC32D7F8C832132BE3D930
:10A8B00007F598734FF020029A7407F598734FF0DC
:10A8C0002002DA7462E14FF00003C7F8CC320DE0E9
:10A8D00007F59872D7F8CC32D3184FF020021A70CF
:10A8E000D7F8CC3203F10103C7F8CC32D7F8CC3219
:10A8F000132BEDD94AE12F49D7F8302213464FEAFE
:10A9000083039B184FEA0313CB1803F110031B7842
:10A91000002B00F0C4802749D7F8302213464FEAB5
:10A9200083039B184FEA0313CB1803F104031B683E
:10A93000002B1CD107F5A27303F10C031846204924
:10A940004FF0070210F04EF907F5A2734FF0200206
:10A950009A7407F5987318461A494FF0070210F0D9
:10A9600041F907F598734FF020029A715FE0D7F82C
:10A97000302213464FEA83039B184FEA031303F177
:10A9800010020C4BD31803F1020307F58472104632
:10A99000194610F029FA4FF00003C7F8CC3207F53A
:10A9A0008473184610F07EFA0346C3F11203C7F809
:10A9B000C83221E0C82000204CE60F0858E60F08F6
:10A9C00064E60F086CE60F0807F58472D7F8CC32FE
:10A9D000D3181A7807F5A271D7F8C832CB181A70B5
:10A9E000D7F8C83203F10103C7F8C832D7F8CC3220
:10A9F00003F10103C7F8CC32D7F8C832132BE3D9DF
:10AA000007F5A2734FF020029A7407F5A2734FF076
:10AA10002002DA7407F598731846AD494FF0070223
:10AA200010F0E0F807F598734FF020029A71D7F80C
:10AA3000302213464FEA83039B184FEA031303F1B6
:10AA40002002A44BD31803F10603184610F02AFA8B
:10AA50000346C3F11203C7F8C83207F59872D7F856
:10AA6000C832D118D7F8302213464FEA83039B1817
:10AA70004FEA031303F12002964BD31803F10603A8
:10AA80000846194610F0B0F907F598734FF0200208
:10AA90009A7407F598734FF02002DA7476E0D7F8CD
:10AAA000302213464FEA83039B184FEA031303F146
:10AAB0001002884BD31803F1020307F58472104685
:10AAC000194610F091F94FF00003C7F8CC320DE0B1
:10AAD00007F5A272D7F8CC32D3184FF020021A70C3
:10AAE000D7F8CC3203F10103C7F8CC32D7F8CC3217
:10AAF000132BEDD94FF00003C7F8CC3207F5847360
:10AB0000184610F0CFF90346C3F11203C7F8C83254
:10AB100017E007F58472D7F8CC32D3181A7807F506
:10AB2000A271D7F8C832CB181A70D7F8C83203F11F
:10AB30000103C7F8C832D7F8CC3203F10103C7F8D4
:10AB4000CC32D7F8C832132BE3D907F5A2734FF0F4
:10AB500020029A7407F5A2734FF02002DA744FF0C6
:10AB60000003C7F8CC320DE007F59872D7F8CC3265
:10AB7000D3184FF020021A70D7F8CC3203F101033A
:10AB8000C7F8CC32D7F8CC32132BEDD9524B1B6817
:10AB9000012B00F0EA80504B1B68032B28D9D7F813
:10ABA000303203F1FF324B4913464FEA83039B18BF
:10ABB0004FEA0313CB181B68002B19D0D7F82C329F
:10ABC00003F10102434913464FEA83039B184FEAFE
:10ABD0000313CB181B68002B0AD007F5A2734FF0A4
:10ABE0000302DA7407F598734FF00402DA74BCE0DC
:10ABF000394B1B68022B0DD1D7F83032002B09D10D
:10AC0000344B1B7C002B05D007F598734FF00402E2
:10AC1000DA74AAE0D7F830222F4B1B689A4205D08D
:10AC2000D7F82C222C4B1B689A4214D12949D7F80B
:10AC3000302213464FEA83039B184FEA0313CB18C5
:10AC400003F110031B78002B05D007F5A2734FF01A
:10AC50000302DA7489E0204B1B68022B1DD9D7F858
:10AC60003032002B19DD1B49D7F8302213464FEA4A
:10AC700083039B184FEA0313CB1803F110031B78CF
:10AC8000002B0AD007F5A2734FF00302DA7407F520
:10AC900098734FF00402DA7467E0D7F83032002B73
:10ACA0001CD10C49D7F82C2213464FEA83039B187A
:10ACB0004FEA0313CB181B68002B0FD0064B1B6801
:10ACC000022B0BD007F598734FF00402DA744CE0B6
:10ACD0006CE60F08C8200020A84F0020D7F83032BB
:10ACE000002B03D1D7F82C32012B3ED0D7F82C22E1
:10ACF000D7F830329A420EDDD7F8303203F1FF3206
:10AD0000B44913464FEA83039B184FEA0313CB1849
:10AD10001B68002B16D1B04B1B6803F1FF32D7F82C
:10AD200030329A4214D1AC4B1B68A3F10202A949FC
:10AD300013464FEA83039B184FEA0313CB181B6893
:10AD4000002B05D007F5A2734FF00302DA740CE074
:10AD5000D7F83032002B08D19E4B1B6D002B04D04E
:10AD600007F598734FF00402DA7407F5A2731846DA
:10AD70004FF0000106F06EFD07F5987318464FF08E
:10AD8000010106F067FD06F0EBFD94484FF000016D
:10AD900007F0A6FCC7F87C02D7F87C32002B03D161
:10ADA0008E4B1B68002BF0D0D7F87C32002B28D0BC
:10ADB0008B4BD3F8A42BD7F87C32D31AC7F82832A0
:10ADC000D7F82832002B0ADBD7F82822824B1B68E1
:10ADD0009A4204D2824BD7F82822C3F8A42B07F555
:10ADE000A27318464FF0000106F034FD07F5987382
:10ADF00018464FF0010106F02DFD06F0B1FDFFF7FA
:10AE000081BA07F097FD01F0B9BF734B1B68002BA7
:10AE100001F0B18773484FF0000106F04BFD724816
:10AE20004FF0010106F046FD06F09AFD00E000BF7C
:10AE30006A484FF0000107F053FCC7F87C02D7F8CE
:10AE40007C32002B03D1654B1B68002BF0D0D7F868
:10AE50007C32B3F1FF3F0CD1614B4FF00102C3F8DC
:10AE6000182D62484FF0010106F024FD06F078FD30
:10AE70000FE0D7F87C32012B0BD1594B4FF0000279
:10AE8000C3F8182D58484FF0010106F013FD06F0E5
:10AE900067FD524B1B68B3F5004FC8D1504BD3F838
:10AEA000183D012B2ED1524B184652490BF032FA65
:10AEB00051484FF0010106F0FDFC06F051FD0AF08B
:10AEC000D1F94FF000000AF083FA44484FF0000136
:10AED00007F006FC414B4FF000021A6047484FF064
:10AEE000000106F0E7FC46484FF0010106F0E2FCE5
:10AEF00006F036FD4FF4FA6007F03AF9414B4FF097
:10AF000008021A6000BF01F039BF00BF00E000BFB7
:10AF10003D49334BD3F88C3E1A4613464FEA830320
:10AF20009B184FEA8303CB1818464FF0010106F037
:10AF3000C1FC06F015FD29484FF0000107F0D0FBD9
:10AF4000C7F87C02D7F87C32002B03D1234B1B6857
:10AF5000002BF0D0D7F87C32002B15D0204BD3F843
:10AF60008C2ED7F87C32D318C7F82432D7F8243285
:10AF7000002BCADDD7F82432022BC8DC184BD7F8D7
:10AF80002422C3F88C2EC3E707F0D4FC144BD3F86B
:10AF90008C3E4FF00A0019464FF000024FF00103BB
:10AFA0000BF068F9184B18464FF0010106F082FCCF
:10AFB00006F0D6FC4FF000000AF00AFA07484FF0FE
:10AFC000000107F08DFB054B4FF000021A6001F005
:10AFD000D5BE00BFC8200020A84F0020545000203C
:10AFE0006C00002074E60F0884E60F0890E60F0856
:10AFF000380C002040E60F089CE60F08A8E60F0872
:10B00000BCE60F0868000020200F0020974A984BEC
:10B0100003F580531B68104696491A460CF056FB00
:10B02000924B18464FF0010106F044FC06F098FCE4
:10B0300001F0A4BE8E4B03F580531B68002B01F07A
:10B040009C868D484FF0000106F034FC8B484FF091
:10B05000010106F02FFC06F083FC854B03F58A53B3
:10B0600003F134034FF000021A6000E000BF84488F
:10B070004FF0000107F034FBC7F87C02D7F87C32B0
:10B08000002B03D17E4B1B68002BF0D0D7F87C320D
:10B09000B3F1FF3F0FD1764B03F58A5303F134032D
:10B0A0004FF001021A6077484FF0010106F002FCF0
:10B0B00006F056FC12E0D7F87C32012B0ED16C4B17
:10B0C00003F58A5303F134034FF000021A606B4812
:10B0D0004FF0010106F0EEFB06F042FC684B1B68E6
:10B0E000B3F5004FC2D1624B03F58A5303F1340329
:10B0F0001B68002B00D130E05D4B03F58A5303F150
:10B1000034031B68002B27DD584B18465E490BF0B3
:10B1100001F9574B03F580534FF000021A6058486D
:10B120004FF0000107F0DCFA554B4FF000021A60B7
:10B1300056484FF0000106F0BDFB55484FF00101A5
:10B1400006F0B8FB06F00CFC4FF4FA6007F010F8BC
:10B15000504B4FF00B021A6000BF01F00FBE464883
:10B160004FF0000106F0A6FB44484FF0010106F045
:10B17000A1FB06F0F5FB3E4B03F5965303F12803C4
:10B180004FF000021A6000E000BF3D484FF00001A0
:10B1900007F0A6FAC7F87C02D7F87C32002B03D15F
:10B1A000374B1B68002BF0D0D7F87C32B3F1FF3F50
:10B1B0000FD12F4B03F5965303F128034FF00102F3
:10B1C0001A6030484FF0010106F074FB06F0C8FB2E
:10B1D00012E0D7F87C32012B0ED1254B03F59653A4
:10B1E00003F128034FF000021A6024484FF00101D8
:10B1F00006F060FB06F0B4FB214B1B68B3F5004F73
:10B20000C2D11B4B03F5965303F128031B68002B97
:10B2100000D129E0164B03F5965303F128031B6870
:10B22000002B20DD4FF000000AF0D2F814484FF058
:10B23000000107F055FA124B4FF000021A60134854
:10B240004FF0000106F036FB13484FF0010106F005
:10B2500031FB06F085FB4FF4FA6006F089FF0D4BD9
:10B260004FF00D021A6000BF01F088BD941000205D
:10B270006C000020C4E60F0874E60F0884E60F088F
:10B280005450002090E60F08C8E60F08CCE60F08DF
:10B29000E0E60F0868000020E8E60F08BB4ABC4B58
:10B2A00003F5A25303F11C031B681046B9491A4663
:10B2B0000CF00CFAB84B1B684FF4BA7202FB03F3A4
:10B2C00003F12802B24BD31803F1040318464FF0E0
:10B2D000010106F0EFFA06F043FBB0484FF0000121
:10B2E00007F0FEF9C7F87C02D7F87C32002B03D1B7
:10B2F000AA4B1B68002BF0D0D7F87C32002B4BD028
:10B30000A34B03F5A25303F11C031A68D7F87C3250
:10B31000D2189F4B03F5A25303F11C031A609C4BF8
:10B3200003F5A25303F11C031B68C7F8C432D7F816
:10B33000C432642B03DD4FF06403C7F8C432D7F87E
:10B34000C432002B03DA4FF00003C7F8C432904B2D
:10B3500003F5A25303F11C03D7F8C4221A608C4BE7
:10B3600003F5A25303F11C031B684FEAC3138C4A75
:10B3700082FB03024FEA62124FEAE373D31AC7F863
:10B380002032D7F820329BB243F480539BB29BB259
:10B39000184606F033FF81E707F0CCFA7B4A7C4B76
:10B3A00003F5A25303F11C031B6810467D491A469E
:10B3B0000CF08CF9784B1B684FF4BA7202FB03F364
:10B3C00003F12802724BD31803F1040318464FF01F
:10B3D000010106F06FFA06F0C3FA4FF064004FF077
:10B3E000000106F03DFF70484FF0000143F6870270
:10B3F0004FF0010307F00CF8654B03F5A25303F17E
:10B400001C031B684EF6602202FB03F318464FF044
:10B41000010107F0C5FB05F0D5FC4FF0000009F075
:10B42000D7FF5E484FF0000107F05AF95B4B4FF031
:10B4300000021A6001F0A2BC5C4A554B03F5AE5302
:10B4400003F110031B68104652491A460CF03EF9EE
:10B45000514B1B684FF4BA7202FB03F303F128024D
:10B460004B4BD31803F1040318464FF0010106F0CB
:10B4700021FA06F075FA49484FF0000107F030F95B
:10B48000C7F87C02D7F87C32002B03D1434B1B68F2
:10B49000002BF0D0D7F87C32002B47D03C4B03F583
:10B4A000AE5303F110031A68D7F87C32D218384B28
:10B4B00003F5AE5303F110031A60354B03F5AE5399
:10B4C00003F110031B68C7F8C032D7F8C032642BF1
:10B4D00003DD4FF06403C7F8C032D7F8C032002B49
:10B4E00003DA4FF00003C7F8C032294B03F5AE531F
:10B4F00003F11003D7F8C0221A60254B03F5AE53B1
:10B5000003F110031B684FEAC313254A82FB0312A1
:10B510004FEA62124FEAE373D31AC7F81C32D7F826
:10B520001C329BB2184606F069FE85E707F002FA66
:10B530001E4A174B03F5AE5303F110031B68104668
:10B5400018491A460CF0C2F8134B1B684FF4BA7234
:10B5500002FB03F303F128020D4BD31803F104039C
:10B5600018464FF0010106F0A5F906F0F9F94FF081
:10B57000000009F02DFF09484FF0000107F0B0F876
:10B58000064B4FF000021A6001F0F8BBF0140020E7
:10B590006C000020F8E60F086800002054500020DE
:10B5A0001F85EB511CE40F08D4F00D086416002031
:10B5B00000BFB449B44B03F5C45303F138031B680F
:10B5C0001A4613464FEA83039B184FEA8303CB18AE
:10B5D00018464FF0010106F06DF906F0C1F9AB48CD
:10B5E0004FF0010107F07CF8C7F87C02D7F87C32F5
:10B5F000002B03D1A54B1B68002BF0D0D7F87C3271
:10B60000002B00F08680A04B03F5D05303F12403F8
:10B610001A68D7F87C32D318C7F818329A4B03F55A
:10B62000D1531A68D7F818329A4201DA00F03CBCBC
:10B63000D7F81832002B01DC00F036BC924B03F532
:10B64000D05303F12403D7F818221A60D7F8183220
:10B6500003F1FF33072B5BD801A252F823F000BFA0
:10B6600081B6000893B60008A5B60008B7B6000872
:10B67000C9B60008DBB60008EDB60008FFB6000842
:10B68000814B03F5C45303F138034FF001021A60F4
:10B690003EE07D4B03F5C45303F138034FF0020243
:10B6A0001A6035E0784B03F5C45303F138034FF0CB
:10B6B00003021A602CE0744B03F5C45303F1380302
:10B6C0004FF004021A6023E06F4B03F5C45303F1FB
:10B6D00038034FF005021A601AE06B4B03F5C453B0
:10B6E00003F138034FF006021A6011E0664B03F5D0
:10B6F000C45303F138034FF007021A6008E0624BAD
:10B7000003F5C45303F138034FF008021A6000BF79
:10B71000CAE307F00FF95C4B03F5C45303F1380398
:10B720001B68012B4FD15A484FF480510CF0A8F8F8
:10B7300057484FF400510CF0A3F855484FF480419E
:10B740000CF09EF852484FF400410CF099F84F4825
:10B750004FF0010106F0C4FFC7F87C02D7F87C3235
:10B76000002B03D1494B1B68002BF0D048484FF405
:10B7700080510CF093F846484FF400510CF08EF8CD
:10B7800043484FF480410CF089F841484FF40041A0
:10B790000CF084F83C4B03F5C45303F138031B68E9
:10B7A0004FF0110019464FF000024FF001030AF06C
:10B7B00061FD38484FF0000106F07CF806F0D0F843
:10B7C00007F0B8F872E3304B03F5C45303F13803C4
:10B7D0001B68022B26D12E484FF480510CF050F8F4
:10B7E0004FF0020003F034FA29484FF480510CF076
:10B7F00055F8254B03F5C45303F138031B684FF08C
:10B80000110019464FF000024FF001030AF032FD1B
:10B8100020484FF0000106F04DF806F0A1F807F0BF
:10B8200089F843E3184B03F5C45303F138031B684D
:10B83000032B31D116484FF400510CF021F84FF092
:10B84000030003F005FA12484FF400510CF026F8FB
:10B850000D4B03F5C45303F138031B684FF011007F
:10B8600019464FF000024FF001030AF003FD0948AA
:10B870004FF0000106F01EF806F072F807F05AF8D3
:10B8800014E300BF4C1900206C000020545000202D
:10B89000000C024038190020AA4B03F5C45303F1F1
:10B8A00038031B68042B26D1A7484FF480410BF0C6
:10B8B000E7FF4FF0040003F0CBF9A3484FF48041B9
:10B8C0000BF0ECFF9F4B03F5C45303F138031B68E7
:10B8D0004FF0110019464FF000024FF001030AF03B
:10B8E000C9FC9A484FF0000105F0E4FF06F038F873
:10B8F00007F020F8DAE2934B03F5C45303F1380361
:10B900001B68052B26D190484FF400410BF0B8FF7F
:10B910004FF0050003F09CF98B484FF400410BF009
:10B92000BDFF884B03F5C45303F138031B684FF088
:10B93000110019464FF000024FF001030AF09AFC83
:10B9400082484FF0000105F0B5FF06F009F806F057
:10B95000F1FFABE27B4B03F5C45303F138031B68E3
:10B96000062B35D14FF00003C7F8143278484FF05A
:10B97000010106F0B5FEC7F87C024FF0010002F0AD
:10B98000D7FFC7F81402D7F81432002B07D1D7F825
:10B990007C32002B03D16E4B1B68002BE6D0694B29
:10B9A00003F5C45303F138031B684FF01100194627
:10B9B0004FF000024FF001030AF05CFC63484FF0C7
:10B9C000000105F077FF05F0CBFF06F0B3FF6DE255
:10B9D0005C4B03F5C45303F138031B68072B40F09D
:10B9E000C3805C4BC7F810325B4BC7F80C325A4B24
:10B9F000C7F80832594BC7F8BC3255484FF001011F
:10BA000006F06EFEC7F87C02D7F8BC0254490EF06F
:10BA1000D5FD0346C7F8BC32D7F8100251490EF0E5
:10BA2000D5FE034618460EF05DFA04460D46D7F8DB
:10BA300010024C490EF0CAFE034618460EF052FAA8
:10BA400080468946D7F8BC020EF04CFA02460B46F7
:10BA5000104619460CF03AFE02460B46404649464F
:10BA60000EF094FA02460B46204629460EF0DAF80C
:10BA700002460B46104619460EF04AFD0346C7F82B
:10BA80000C32D7F81002D7F80C120EF095FD0346D1
:10BA9000C7F808322C484FF480510BF0F1FE2A48C9
:10BAA0004FF400510BF0ECFE27484FF480410BF0AF
:10BAB000E7FE25484FF400410BF0E2FED7F80C02F8
:10BAC0000FF04AF80346184606F03CFB1E484FF4B8
:10BAD00080510BF0E3FE1C484FF400510BF0DEFEEA
:10BAE00019484FF480410BF0D9FE17484FF400413C
:10BAF0000BF0D4FED7F808020FF02EF803461846D4
:10BB000006F020FBD7F87C32002B04D1104B1B68C9
:10BB1000002B3FF472AF0B4B03F5C45303F1380312
:10BB20001B684FF0110019464FF000024FF001035F
:10BB30000AF0A0FB05484FF0000105F0BBFE05F040
:10BB40000FFFB3E16C000020000C02403819002008
:10BB5000545000200000204200000000DB0FC93FCD
:10BB60001B2F5D3C0000003FB84B03F5C45303F1AD
:10BB700038031B68082B7FF41BADB74BC7F80432A2
:10BB8000B3484FF0010106F0ABFDC7F87C02D7F8CF
:10BB9000B402B2490EF012FD0346C7F8B432D7F82A
:10BBA000AC02AF490EF00AFD0346C7F8AC32D7F835
:10BBB000A402AC490EF000FD0346C7F8A432D7F842
:10BBC000A002A9490EF0F8FC0346C7F8A032D7F846
:10BBD00004020EF087F904460D46D7F8B4020EF0C1
:10BBE00081F902460B46104619460CF06FFD0246DD
:10BBF0000B46204629460EF0C9F902460B46104670
:10BC000019460EF085FC0346C7F8B832D7F804028F
:10BC10000EF068F904460D46D7F8AC020EF062F952
:10BC200002460B46104619460CF050FD02460B46E4
:10BC3000204629460EF0AAF902460B461046194640
:10BC40000EF066FC0346C7F8B032D7F804020EF0D7
:10BC500049F904460D46D7F8A4020EF043F902460E
:10BC60000B46104619460CF031FD02460B462046A5
:10BC700029460EF08BF902460B46104619460EF087
:10BC800047FC0346C7F8A832D7F804020EF02AF999
:10BC900004460D46D7F8A0020EF024F902460B46E2
:10BCA000104619460CF012FD02460B462046294666
:10BCB0000EF06CF902460B46104619460EF028FCB1
:10BCC0000346C7F800324FF001031C46D7F8B8020C
:10BCD00066490EF019FF0346002B02D14FF0000316
:10BCE0001C46E3B2002B05D0D7F8B83283F00043EE
:10BCF000C7F8B8324FF001031C46D7F8B0025B49D1
:10BD00000EF002FF0346002B02D14FF000031C4649
:10BD1000E3B2002B05D0D7F8B03283F00043C7F868
:10BD2000B0324FF001031C46D7F8A8024F490EF07D
:10BD3000EBFE0346002B02D14FF000031C46E3B29A
:10BD4000002B05D0D7F8A83283F00043C7F8A832FB
:10BD50004FF001031C46D7F8000244490EF0D4FE10
:10BD60000346002B02D14FF000031C46E3B2002B28
:10BD700005D0D7F8B83283F00043C7F8B832D7F807
:10BD80000402D7F8B8120EF017FC0346C7F8FC31CE
:10BD9000D7F80402D7F8B0120EF00EFC0346C7F82D
:10BDA000F831D7F80402D7F8A8120EF005FC0346C4
:10BDB000C7F8F431D7F80402D7F800120EF0FCFBF4
:10BDC0000346C7F8F03123484FF480510BF058FD7B
:10BDD000D7F8B8020EF0C0FE0346184606F0B2F9D6
:10BDE0001C484FF480510BF059FDD7F8FC010EF0C0
:10BDF000B3FE0346184606F0A5F916484FF4005165
:10BE00000BF03EFD13484FF480410BF039FD114813
:10BE10004FF400410BF034FD0E484FF480510BF00D
:10BE20003DFD0C484FF400510BF038FD09484FF42C
:10BE300080410BF033FD07484FF400410BF02EFD1D
:10BE4000D7F87C32002B18D112E000BF6C00002024
:10BE500054500020000C02400000C842CDCC4C3CA5
:10BE6000EC51B83CB6F37D3C77BE9F3C000000002F
:10BE7000754B1B68002B3FF483AE744B03F5C45322
:10BE800003F138031B684FF0110019464FF0000210
:10BE90004FF001030AF0EEF96D484FF0000105F094
:10BEA00009FD05F05DFD01E0FFF783BB00F066BF13
:10BEB00000BF6849654B03F5D05303F12C031B68A1
:10BEC0001A4613464FEA83039B184FEA8303CB18A5
:10BED00018464FF0010105F0EDFC05F041FD5A4810
:10BEE0004FF0010106F0FCFBC7F87C02D7F87C326A
:10BEF000002B03D1544B1B68002BF0D0D7F87C32B9
:10BF0000002B58D0514B03F5DC5303F118031A688A
:10BF1000D7F87C32D318C7F8EC314C4B03F5DC531F
:10BF200003F114031A68D7F8EC319A4200DAF1E20F
:10BF3000D7F8EC31002B00DCECE2444B03F5DC538A
:10BF400003F11803D7F8EC211A60D7F8EC3103F1AC
:10BF5000FF33032B2ED801A050F823F06DBF00084B
:10BF60007FBF000891BF0008A3BF0008374B03F54F
:10BF7000D05303F12C034FF001021A601AE0334B47
:10BF800003F5D05303F12C034FF002021A6011E0C5
:10BF90002E4B03F5D05303F12C034FF003021A602C
:10BFA00008E02A4B03F5D05303F12C034FF00402B1
:10BFB0001A6000BFAEE206F0BDFC244B03F5D0537F
:10BFC00003F12C031B68012B1AD14FF0010002F082
:10BFD0001DF81E4B03F5D05303F12C031B684FF0E3
:10BFE000120019464FF000024FF001030AF042F927
:10BFF00019484FF0000105F05DFC05F0B1FC8AE244
:10C00000124B03F5D05303F12C031B68022B25D1EF
:10C010004FF0020001F0FAFF0C4B03F5D05303F18F
:10C020002C031B684FF0120019464FF000024FF02E
:10C0300001030AF01FF908484FF0000105F03AFC2F
:10C0400005F08EFC67E200BF545000206C00002019
:10C0500038190020C01A0020AC1A0020B44B03F598
:10C06000D05303F12C031B68032B40F0778107F5B5
:10C0700082734FF000021A6007F580734FF00002E0
:10C080001A6007F1FC034FF000021A6007F1F80391
:10C090004FF000021A6007F1F4034FF000021A603B
:10C0A00007F1F0034FF000021A6007F1EC034FF0C4
:10C0B00000021A6007F1E8034FF000021A6007F16E
:10C0C000E4034FF000021A6007F1E0034FF00002B2
:10C0D0001A6007F1DC034FF000021A6007F1D80381
:10C0E0004FF000021A6007F1D4034FF000021A600B
:10C0F00007F1D0034FF000021A6007F1CC034FF0B4
:10C1000000021A608B4B186807F5827107F5807280
:10C1100007F1FC0307F1F804009407F1F40401941B
:10C1200002F0E4FF844B186807F1F00107F1EC021C
:10C1300007F1E80307F1E404009407F1E004019437
:10C1400002F0D4FF7D4B186807F1DC0107F1D8023B
:10C1500007F1D40307F1D004009407F1CC04019453
:10C1600002F0C4FF07F580731A6807F1FC031B682F
:10C1700007F1F801D1F800B007F1F401D1F800A0FF
:10C1800007F1EC01D1F8009007F1E801D1F8008047
:10C1900007F1E401D1F800C007F1E001D1F800E0B7
:10C1A00007F1D8010E6807F1D4010D6807F1D0013D
:10C1B0000C6807F1CC01086807F1B801CDF800B0B0
:10C1C000CDF804A0CDF80890CDF80C80CDF810C0C3
:10C1D000CDF814E00696079508940990084658494A
:10C1E0000BF074FA07F1B80318464FF0000105F0A0
:10C1F00031FB544B186807F5827107F5807207F11F
:10C20000FC0307F1F804009407F1F404019402F030
:10C210006DFF4D4B186807F1F00107F1EC0207F1D3
:10C22000E80307F1E404009407F1E004019402F04C
:10C230005DFF464B186807F1DC0107F1D80207F1F2
:10C24000D40307F1D004009407F1CC04019402F068
:10C250004DFF07F580731A6807F1FC031B6807F1AF
:10C26000F801D1F800B007F1F401D1F800A007F10E
:10C27000EC01D1F8009007F1E801D1F8008007F156
:10C28000E401D1F800C007F1E001D1F800E007F1C6
:10C29000D8010E6807F1D4010D6807F1D0010C68D0
:10C2A00007F1CC01086807F1A401CDF800B0CDF882
:10C2B00004A0CDF80890CDF80C80CDF810C0CDF8D2
:10C2C00014E00696079508940990084620490BF05B
:10C2D000FDF907F1A40318464FF0010105F0BAFA81
:10C2E00005F03EFB1B484FF0000106F0F9F9C7F8D6
:10C2F0007C02D7F87C32002B03D1164B1B68002B35
:10C30000F0D00B4B03F5D05303F12C031B684FF017
:10C31000120019464FF000024FF0010309F0AAFF86
:10C320000D484FF0000105F0C5FA05F019FBF2E0E9
:10C330006C000020285000202C500020305000209D
:10C3400004E70F0834500020385000203C500020F3
:10C3500028E70F0854500020AC1A0020A24B03F528
:10C36000D05303F12C031B68042B7FF4A1AD9F4B2A
:10C370001B68002B33D19E4B1B68002B2FD19D4B8C
:10C380001B68002B2BD19C4B1B68002B27D19B4B90
:10C390001B68002B23D19A4B1B68002B1FD1924B9B
:10C3A00003F5D05303F12C031B684FF0120019461C
:10C3B0004FF000024FF0010309F05CFF91484FF08D
:10C3C000000105F077FA90484FF0010105F072FA8C
:10C3D00005F0C6FA4FF4FA6005F0CAFE9BE08B4800
:10C3E0004FF0000105F066FA89484FF0010105F0B1
:10C3F00061FA05F0B5FA00E000BF86484FF0000191
:10C4000006F06EF9C7F87C02D7F87C32002B03D116
:10C41000804B1B68002BF0D0D7F87C32B3F1FF3F84
:10C420000FD1714B03F5D05303F130034FF00102EC
:10C430001A6079484FF0010105F03CFA05F090FAD6
:10C4400012E0D7F87C32012B0ED1674B03F5D053A5
:10C4500003F130034FF000021A606D484FF0010104
:10C4600005F028FA05F07CFA6A4B1B68B3F5004F1B
:10C47000C2D15D4B03F5D05303F130031B68012B90
:10C4800038D1594B03F5D05303F130034FF000027C
:10C490001A60564B4FF000021A60554B4FF00002E5
:10C4A0001A60544B4FF000021A60534B4FF00002D9
:10C4B0001A60524B4FF000021A60514B4FF00002CD
:10C4C0001A6054484FF0000106F00AF9514B4FF042
:10C4D00000021A604B484FF0000105F0EBF94F489D
:10C4E0004FF0010105F0E6F905F03AFA4FF4FA6071
:10C4F00005F03EFE3C4B03F5D05303F12C031B68C3
:10C500004FF0120019464FF000024FF0010309F0FE
:10C51000B1FE00E0CDE400F031BC00BF00E000BFA0
:10C520003F49314B03F5DD531B681A4613464FEA6A
:10C5300083039B184FEA8303CB1818464FF0010181
:10C5400005F0B8F905F00CFA32484FF0000106F09A
:10C55000C7F8C7F87C02D7F87C32002B03D12D4BEB
:10C560001B68002BF0D0D7F87C32002B17D01E4B65
:10C5700003F5DD531A68D7F87C32D318C7F8E831D1
:10C58000D7F8E831002BC8DDD7F8E831022BC6DC3C
:10C59000154B03F5DD53D7F8E8211A60C0E706F024
:10C5A000C9F9114B03F5DD531B684FF01300194611
:10C5B0004FF000024FF0010309F05CFE184B1846E3
:10C5C0004FF0010105F076F905F0CAF94FF00000CF
:10C5D00008F0FEFE0F484FF0000106F081F80D4B09
:10C5E0004FF000021A60C9E36C00002028500020C0
:10C5F0002C500020305000203450002038500020B3
:10C600003C500020AC1A00204CE70F0874E60F08DD
:10C6100084E60F085450002090E60F085CE70F08EE
:10C62000341C0020B349B44B03F5E85303F1140361
:10C630001B681A4613464FEA83039B184FEA83038D
:10C64000CB1818464FF0010105F034F905F088F9D0
:10C65000AA484FF0000106F043F8C7F87C02D7F86B
:10C660007C32002B03D1A54B1B68002BF0D0D7F8F0
:10C670007C32002B43D0A04B03F5F4531A68D7F853
:10C680007C32D318C7F8E4319B4B03F5F25303F126
:10C690003C031A68D7F8E4319A4200DA56E0D7F83A
:10C6A000E431002B00DC51E0934B03F5F453D7F851
:10C6B000E4211A60D7F8E431022B0DD0032B14D0FB
:10C6C000012B00D01AE08C4B03F5E85303F114035F
:10C6D0004FF001021A6011E0874B03F5E85303F1B4
:10C6E00014034FF002021A6008E0834B03F5E8538D
:10C6F00003F114034FF003021A6000BF26E006F0B6
:10C7000019F97D4B03F5E85303F114031B684FF04F
:10C71000140019464FF000024FF0010309F0AAFD82
:10C72000744B18464FF0010105F0C4F805F018F9F4
:10C730004FF0000008F04CFE70484FF0000105F08B
:10C74000CFFF6E4B4FF000021A6017E36AE76A4BA7
:10C7500003F5F45303F10C031A68674B03F5F45324
:10C7600003F108031A60644B03F5F45303F10C035F
:10C770001A68614B03F5FE5303F134031A605E4BF4
:10C7800003F5F45303F10C031B684FF01500194631
:10C790004FF000024FF0010309F06CFD564B03F51A
:10C7A000F45303F118031B6803F1FF33032B1BD869
:10C7B00001A151F823F000BFC9C70008D1C7000884
:10C7C000D9C70008E1C700084D4B4F4A1A600BE07B
:10C7D0004B4B4E4A1A6007E0494B4D4A1A6003E042
:10C7E000474B4C4A1A6000BF4649434B03F5F4538C
:10C7F00003F108031B681A4613464FEA83039B188C
:10C800004FEA8303CB1818464FF0010105F052F8A8
:10C8100005F0A6F839484FF0010105F061FFC7F8AF
:10C820007C02D7F87C32002B03D1344B1B68002BE1
:10C83000F0D0D7F87C32002B00F093802E4B03F51C
:10C84000FE5303F13403196807F5F073D7F87C221F
:10C850008A181A60284B03F5FE5303F130031A6857
:10C8600007F5F0731B689A4200DA7DE207F5F07372
:10C870001B68002B00DC77E21F4B03F5FE5303F12E
:10C88000340307F5F07212681A6007F5F0731B683D
:10C8900003F1FF33062B63D801A252F823F000BF47
:10C8A000BDC80008CFC80008E1C8000819C90008C1
:10C8B0002BC900083DC900084FC900080E4B03F5FD
:10C8C000F45303F108034FF001021A6048E00A4BE9
:10C8D00003F5F45303F108034FF002021A603FE03E
:10C8E000054B03F5F45303F108034FF003021A60FC
:10C8F00036E000BFA81D00206C000020545000202E
:10C90000E04F00201C1F002000007A440000C842B5
:10C91000000020410000803FA74B03F5F45303F1D2
:10C9200008034FF004021A601AE0A34B03F5F45316
:10C9300003F108034FF005021A6011E09E4B03F566
:10C94000F45303F108034FF006021A6008E09A4B13
:10C9500003F5F45303F108034FF007021A6000BF18
:10C9600002E205F0E7FF944B03F5F45303F10803EB
:10C970001B68012B08D1904B03F5F45303F10C0312
:10C980004FF001021A60C8E18B4B03F5F45303F139
:10C9900008031B68022B08D1874B03F5F45303F1FE
:10C9A0000C034FF002021A60B7E1834B03F5F45316
:10C9B00003F108031B68032B02D105F0A7FBACE1D0
:10C9C0007D4B03F5F45303F108031B68042B04D1DA
:10C9D0004FF0010001F060F89FE1774B03F5F4534D
:10C9E00003F108031B68052B08D0734B03F5F453C0
:10C9F00003F108031B68062B40F0CD806F4BC7F88E
:10CA00009C326D4B03F5F45303F108031B68052BAF
:10CA100008D16B484FF0000104F04CFF674BC7F89A
:10CA20009C3213E0644B03F5F45303F108031B68D5
:10CA3000062B0BD163484FF0000104F03BFF624B23
:10CA4000C7F89C3202E000BF00E000BFD7F89C327C
:10CA50001B68092B09DC5D4AD7F89C321B6810461D
:10CA60005B491A460AF032FE2FE0D7F89C321B6869
:10CA7000632B09DC554AD7F89C321B681046554990
:10CA80001A460AF023FE20E0D7F89C321A6840F2DA
:10CA9000E7339A4209DC4D4AD7F89C321B681046AE
:10CAA0004D491A460AF012FE0FE0D7F89C321A6878
:10CAB00042F20F739A4208DC444AD7F89C321B6852
:10CAC000104646491A460AF001FE404B18464FF000
:10CAD000010104F0EFFE04F043FF41484FF0000174
:10CAE00005F0FEFDC7F87C02D7F87C32002B03D19D
:10CAF0003B4B1B68002BF0D0D7F87C32002B33D097
:10CB0000D7F89C321B6818460DF00CFE0446D7F887
:10CB10007C020DF007FE0246324B1B681046194698
:10CB20000DF054FE0346204619460DF047FD03461E
:10CB300007F5EC7418460EF00FF80346236007F56E
:10CB4000EC731B68002BFFF67EAF07F5EC731A68D9
:10CB500042F210739A423FF778AFD7F89C3207F54C
:10CB6000EC7212681A6071E705F0E4FE1E484FF09F
:10CB7000000104F09FFE04F0F3FE4FF0000008F007
:10CB800027FC17484FF0000105F0AAFD144B4FF0A9
:10CB900000021A60E8E0084B03F5F45303F10803C0
:10CBA0001B68072B40F0B98010484FF0000104F0DB
:10CBB00081FE1EE000BF1CE06C000020FC1E002077
:10CBC0006CE70F087CE70F08001F00201C1F0020E7
:10CBD0008CE70F08A0E70F08B4E70F08C8E70F08B5
:10CBE00054500020E04F0020081F0020DCE70F0811
:10CBF00000BFB74B03F5F45303F118031B6803F1AF
:10CC0000FF33032B36D801A050F823F01DCC0008C9
:10CC100033CC000849CC00085FCC0008AD4B184667
:10CC2000AD494FF008020DF0DDFFAC4BB74A1A607A
:10CC300020E0A84B1846AA494FF009020DF0D2FF98
:10CC4000A64BB34A1A6015E0A24B1846A5494FF00F
:10CC50000A020DF0C7FFA14BAE4A1A600AE09D4BD5
:10CC60001846A1494FF00B020DF0BCFF9B4BAA4A9E
:10CC70001A6000BF974B18464FF0010104F01AFEEE
:10CC800004F06EFE99484FF0000105F029FDC7F849
:10CC90007C02D7F87C32002B03D1944B1B68002B0D
:10CCA000F0D0D7F87C32002B20D0894B03F5F45319
:10CCB00003F11803196807F5EE73D7F87C228A1878
:10CCC0001A6007F5EE731B68002B7FF773AF07F54B
:10CCD000EE731B68042B8BDC7D4B03F5F45303F1DF
:10CCE000180307F5EE7212681A6082E705F022FE5B
:10CCF0007F484FF0000104F0DDFD04F031FE4FF0FD
:10CD0000000008F065FB79484FF0000105F0E8FCF1
:10CD1000764B4FF000021A6026E005F00BFE6C4BDC
:10CD200003F5F45303F10C031B684FF0150019468B
:10CD30004FF000024FF0010309F09CFA654B1846D2
:10CD40004FF0010104F0B6FD04F00AFE4FF00000C0
:10CD500008F03EFB65484FF0000105F0C1FC634B55
:10CD60004FF000021A6009E03EE500BF06E000BF98
:10CD700004E000BF02E000BF00E000BF5D4B1B68A5
:10CD8000022B3BF49DAA00F078BE5B4B1B68012B85
:10CD900009D15A4B4FF000021A60564B4FF0020275
:10CDA0001A6000F06ABE07F1A0034FF000021A609B
:10CDB0004FF00003C7F898324FF00003C7F89432E1
:10CDC00007F19C034FF000021A604FF00003C7F810
:10CDD00090323F4BD3F8BC2807F5EA731A603C4BFE
:10CDE000D3F8302A07F5E8731A60394BD3F8BC380A
:10CDF000042B04D1364B4FF00102C3F8BC28344B4E
:10CE0000D3F8303A042B04D1314B4FF00102C3F870
:10CE1000302A07F1A00318464FF0010105F060FC2D
:10CE200007F5E6744FF0800002F02EF9206007F558
:10CE3000E4744FF4006002F027F9206007F5E27413
:10CE40004FF4805002F020F9206007F5E0744FF4B1
:10CE5000005002F019F920601D4BD3F8BC38012BAB
:10CE60005CD11B4BD3F8303A022B12D107F5E2729A
:10CE700007F5E073224900914FF0070011681A6826
:10CE8000204B02F077FD0346012B40F0A18500F016
:10CE90008EBD0F4BD3F8303A032B40F088851A4BE8
:10CEA0001B6807F5E27107F5E07216480090144818
:10CEB000019007F19C0002904FF00700096812688A
:10CEC00003F02CF80346012B40F0848500F06FBD81
:10CED0006C0000201C1F0020ECE70F08E04F002032
:10CEE000F4E70F0800E80F080CE80F085450002082
:10CEF000081F0020B04F0020B84F0020E84F00204E
:10CF000028E80F0818E80F080050002000007A44B5
:10CF10000000C842000020410000803FB34BD3F81E
:10CF2000303A012B36D1B14BD3F8BC38022B12D199
:10CF300007F5E67207F5E473AD4900914FF006007E
:10CF400011681A68AB4B02F015FD0346012B40F047
:10CF5000438500F02CBDA54BD3F8BC38032B40F023
:10CF60002685A54B1B6807F5E67107F5E472A14815
:10CF700000909F48019007F19C0002904FF006003E
:10CF80000968126802F0CAFF0346012B40F02685AB
:10CF900000F00DBD954BD3F8BC38022B40F0CB818F
:10CFA000924BD3F8303A022B40F0A68107F1880269
:10CFB000924B14461D460FCD0FC42B68236007F11A
:10CFC00074028E4B14461D460FCD0FC42B68236090
:10CFD000D7F89832002B13D107F5E67207F5E47302
:10CFE00012681B6842EA0303002B09D007F5E672BA
:10CFF00007F5E47312681B6842EA0303C7F8983226
:10D00000D7F89432002B13D107F5E27207F5E073DD
:10D0100012681B6842EA0303002B09D007F5E2728D
:10D0200007F5E07312681B6842EA0303C7F89432FD
:10D0300007F1880207F17403D7F89802D7F8941221
:10D0400002F04AF907F1880318464FF0000104F096
:10D0500001FC07F1740318464FF0010104F0FAFBDC
:10D0600004F07EFCD7F89832002B00F08184D7F8CA
:10D070009432002B00F07E8407F5DE7342F2D0027A
:10D080001A6007F5DC7341F64C521A6007F1600331
:10D090004FF000021A6003F104034FF000021A601F
:10D0A00003F104034FF000021A6003F104034FF090
:10D0B00000021A6003F104034FF000021A6003F14A
:10D0C000040307F14C034FF000021A6003F104035C
:10D0D0004FF000021A6003F104034FF000021A60DF
:10D0E00003F104034FF000021A6003F104034FF050
:10D0F00000021A6003F10403D7F89822D7F894329B
:10D100009A4240F2838007F14C03D7F89402194603
:10D1100002F05CF807F14C034FF00700D7F89412C7
:10D120001A4603F0BBFB07F16003D7F898021946D3
:10D1300002F04CF807F160034FF00600D7F89812A0
:10D140001A4603F0ABFB294BD3F88C3E022B40F080
:10D15000CE804FF064004FF0010105F081F807F533
:10D16000DE731B684FEA4302254BD21807F5DC73C8
:10D170001B6810464FF000011A464FF0010305F0FE
:10D1800047F94FF0010007F0F3F81E4B5A681E4BA9
:10D19000A3FB02134FEAD30318464FF0000105F03A
:10D1A000FFFC07F5DE731B684FEA4302144BD218ED
:10D1B00007F5DC731B6810464FF000011A464FF06C
:10D1C000010305F025F94FF0020007F0D1F80D4BEF
:10D1D0005A6D0D4BA3FB02034FEAD30318464FF0E1
:10D1E000000105F0DDFC03F0EDFD80E06C000020A7
:10D1F0004CE80F083CE80F08FC4F0020E0E80F085F
:10D20000E4610E08C8200020CDCCCCCC07F14C0343
:10D21000D7F89802194601F0D9FF07F14C034FF0F7
:10D220000600D7F898121A4603F038FB07F160039E
:10D23000D7F89402194601F0C9FF07F160034FF0D7
:10D240000700D7F894121A4603F028FB4C4BD3F88A
:10D250008C3E022B4BD14FF064004FF0010104F0E3
:10D26000FFFF07F5DE731B684FEA4302454BD218F8
:10D2700007F5DC731B6810464FF000011A464FF0AB
:10D28000010305F0C5F84FF0010007F071F83E4BBF
:10D290005A6D3E4BA3FB02134FEAD30318464FF0DF
:10D2A000000105F07DFC07F5DE731B684FEA4302C1
:10D2B000344BD21807F5DC731B6810464FF00001A1
:10D2C0001A464FF0010305F0A3F84FF0020007F0F3
:10D2D0004FF82D4B5A682D4BA3FB02034FEAD303A3
:10D2E00018464FF0000105F05BFC03F06BFD40F6C3
:10D2F000B83004F03DFF78E3214BD3F8303A032BEC
:10D3000040F0558307F5E67107F5E47207F5E2731F
:10D3100007F5E0700068009007F19C0001904FF065
:10D320000200096812681B6802F08AFB0346012BA1
:10D3300040F056833BE3124BD3F8303A022B27D10F
:10D340000F4BD3F8BC38032B40F0318307F5E6715F
:10D3500007F5E47207F5E27307F5E07000680090E6
:10D3600007F19C0001904FF00300096812681B68E8
:10D3700002F066FB0346012B40F0348317E300BF45
:10D380006C000020E4610E08C8200020CDCCCCCC7D
:10D39000944BD3F8BC38032B40F00983914BD3F85E
:10D3A000303A032B40F0038307F138028E4B1446CA
:10D3B0001D460FCD0FC42B68236007F124028A4B52
:10D3C00014461D460FCD0FC42B682360D7F8983242
:10D3D000002B13D107F5E67207F5E47312681B689A
:10D3E00042EA0303002B09D007F5E67207F5E47360
:10D3F00012681B6842EA0303C7F89832D7F89432E0
:10D40000002B13D107F5E27207F5E07312681B6871
:10D4100042EA0303002B09D007F5E27207F5E07337
:10D4200012681B6842EA0303C7F8943207F5E673F3
:10D430001B68002B0ED007F5E4731B68002B09D086
:10D4400007F5E2731B68002B04D007F5E0731B6837
:10D45000002B19D107F1380207F12403D7F89802FD
:10D46000D7F8941201F038FF07F1380318464FF04F
:10D47000000104F0EFF907F1240318464FF0010111
:10D4800004F0E8F904F06CFA07F19C031B68002B28
:10D490001CD107F5E6731B68002B04D107F5E47374
:10D4A0001B68002B09D107F5E6731B68002B0DD014
:10D4B00007F5E4731B68002B08D14C4B1B6803F580
:10D4C0006A5303F1180307F19C021360D7F89032F6
:10D4D000002B1BD107F5E2731B68002B04D107F565
:10D4E000E0731B68002B09D107F5E2731B68002B62
:10D4F0000CD007F5E0731B68002B07D13B4B1B6872
:10D5000003F56A5303F11803C7F89032374B1A68D2
:10D5100007F19C031B689A4216D907F5E6731B684E
:10D52000002B04D107F5E4731B68002B09D107F524
:10D53000E6731B68002B07D007F5E4731B68002B0C
:10D5400002D14FF0010301E04FF0000307F5DA725A
:10D550001360264B1A68D7F890329A4216D907F50D
:10D56000E2731B68002B04D107F5E0731B68002BE6
:10D5700009D107F5E2731B68002B07D007F5E073AC
:10D580001B68002B02D14FF0010301E04FF00003B4
:10D5900007F5D872136007F5DA731B68002B04D106
:10D5A00007F5D8731B68002B28D011484FF00001F5
:10D5B00004F080F907F5DA731B68002B05D00D48DD
:10D5C0004FF0010104F076F904E00B484FF001013F
:10D5D00004F070F904F0C4F94FF47A6004F0C8FD67
:10D5E00003E200BF6C000020E0E80F0864000020A8
:10D5F00060E80F0870E80F0884E80F0807F5E67385
:10D600001B68002B00F0B88107F5E4731B68002B42
:10D6100000F0C88107F5E2731B68002B00F0C4819D
:10D6200007F5E0731B68002B00F0C08107F12003B1
:10D630004FF000021A6007F11C034FF000021A605D
:10D6400007F118034FF000021A6007F114034FF0BE
:10D6500000021A6007F110034FF000021A6007F190
:10D660000C034FF000021A60C44B1B68002B40F003
:10D67000BB81C34B1A6807F5E67007F5E47107F143
:10D68000200307F10804009407F11C04019407F13A
:10D69000180402940068096801F05CFFB94B1A682D
:10D6A00007F5E27007F5E07107F1140307F10404D0
:10D6B000009407F11004019407F10C04029400682F
:10D6C000096801F047FF07F120031A6807F1140306
:10D6D0001B689A4236D907F114031C6807F104034A
:10D6E0001B6818460DF038FA024607F110031B6854
:10D6F00007F10C01096800914FF00700214601F085
:10D70000D5FF07F120031C6807F108031B681846C2
:10D710000DF022FA024607F11C031B6807F11801FD
:10D72000096800914FF00600214601F0BFFF9648BE
:10D730004FF0000104F0BEF894484FF0010104F0EE
:10D74000B9F835E007F120031C6807F108031B68EE
:10D7500018460DF001FA024607F11C031B6807F199
:10D760001801096800914FF00600214601F09EFF64
:10D7700007F114031C6807F104031B6818460DF039
:10D78000EBF9024607F110031B6807F10C01096869
:10D7900000914FF00700214601F088FF7B484FF0D1
:10D7A000000104F087F878484FF0010104F082F896
:10D7B00004F0D6F8764BD3F88C3E022B40F0D380A1
:10D7C00007F120031A6807F114031B689A4208D96D
:10D7D0004FF00003C7F88C324FF00103C7F88832CE
:10D7E00007E04FF00103C7F88C324FF00003C7F891
:10D7F000883207F5D67342F2D0021A6007F5D47367
:10D8000041F64C521A604FF064004FF0010104F0F1
:10D8100027FD07F5D6731B684FEA43025D4BD2180C
:10D8200007F5D4731B6810464FF000011A464FF0FD
:10D83000010304F0EDFD4FF0010006F099FD56499B
:10D84000D7F88C2213464FEA83039B184FEA031341
:10D85000CB1803F104031A68504BA3FB02134FEAE1
:10D86000D30318464FF0000105F09AF94C484FF0E9
:10D87000000140F6C7524FF0010304F0C9FD4649CC
:10D88000D7F88C2213464FEA83039B184FEA031301
:10D89000CB1803F1080319683F48D7F88C221346C8
:10D8A0004FEA83039B184FEA0313C31803F10C03D9
:10D8B0001B680846194606F0DBF907F5D6731B68A6
:10D8C0004FEA4302334BD21807F5D4731B68104656
:10D8D0004FF000011A464FF0010304F099FD4FF09C
:10D8E000020006F045FD2C49D7F8882213464FEA7E
:10D8F00083039B184FEA0313CB1803F104031A6840
:10D90000264BA3FB02034FEAD30318464FF0000156
:10D9100005F046F922484FF0000140F6C7524FF09B
:10D92000010304F075FD1C49D7F8882213464FEA1D
:10D9300083039B184FEA0313CB1803F108031968FC
:10D940001548D7F8882213464FEA83039B184FEAFD
