:020000040800F2
:1000000038580020018000086580000865800008DD
:100010006580000865800008658000080000000019
:1000200000000000000000000000000065800008E3
:1000300065800008000000006580000865800008F9
:1000400065800008658000086580000865800008FC
:1000500065800008658000086580000865800008EC
:1000600065800008658000086580000865800008DC
:1000700065800008658000086580000865800008CC
:1000800065800008658000086580000865800008BC
:1000900065800008658000086580000865800008AC
:1000A000658000086580000865800008658000089C
:1000B000658000086580000865800008658000088C
:1000C000658000086580000865800008658000087C
:1000D000658000086580000865800008658000086C
:1000E000658000086580000865800008658000085C
:1000F000658000086580000865800008658000084C
:10010000658000086580000865800008658000083B
:1001100065800008658000084D190108A5180108D0
:10012000658000086580000865800008658000081B
:10013000658000086580000865800008658000080B
:1001400065800008658000086580000865800008FB
:1001500065800008658000086580000865800008EB
:1001600065800008658000086580000865800008DB
:1001700065800008658000086580000865800008CB
:0801800065800008658000089D
:1080000080B582B000AF124B7B60124B3B600BE03F
:108010007B681A683B681A603B6803F104033B60A5
:108020007B6803F104037B603A680B4B9A42EFD301
:108030000A480B494FF000028842B8BF40F8042BB1
:10804000FADB00F02DF807F10807BD4680BD00BF40
:1080500050F10F0800000020140000201400002040
:108060003450002080B400AFFEE700BF80B483B07E
:1080700000AF0346FB71094B97F907204FEA5212F4
:10808000F97901F01F014FF0010000FA01F143F806
:10809000221007F10C07BD4680BC704700E100E0EC
:1080A0002DE9F04FADF5437D0AAF0FF007FC09F065
:1080B00085FB08F035FD08F0FFFA08F051FD0DF0E2
:1080C000A9FF0CF0F9F89C4BA84A1A609B4BA74AF1
:1080D0001A6008F031FD0DF087FB0346B3F1FF3F56
:1080E00003D14FF001000CF0EDFF06F04FFE4FF012
:1080F00001000AF0E9FA92484FF008010FF022FA65
:108100000CF0ECFE8F484FF001010AF09FF98D480A
:108110004FF001010AF09AF900E000BF8A4B1B689A
:10812000032BFAD801A050F823F000BF3D810008CE
:1081300061820008B582000835CC00084FF00000CD
:108140000AF0C2FA03464FF0010214461846884965
:1081500012F02EFB0346002B02D14FF000031C4609
:10816000E3B2002B05D0784B4FF001021A6005F006
:10817000DABB44F2FF1009F0F7FE41F2320009F0D9
:10818000F3FE41F2320009F0EFFE704B03F5A2530B
:1081900003F11C031B684FEAC3136D4A82FB0312F1
:1081A0004FEA62124FEAE373D31A9BB2184609F002
:1081B000DBFE68484FF001010FF0B6F907F5CA720F
:1081C000654B14461D460FCD0FC42B68236007F581
:1081D000C072624B14461D460FCD0FC42B6823702E
:1081E0004FF02303C7F88432D7F8843203F1010338
:1081F000C7F884325A484FF0000109F015FA59487F
:108200004FF0010109F010FA09F064FA4FF0000094
:1082100006F0DEFA4FF4FA6009F060FE4B4B03F50E
:10822000965303F128031B684FEAC313484A82FBA5
:1082300003024FEA62124FEAE373D31AC7F880329F
:10824000D7F880329BB243F480539BB29BB218465E
:1082500009F08AFE3C4B4FF002021A6005F063BB46
:10826000354B424A1A60354B404A1A604FF48050F1
:1082700009F07AFE4FF0000009F076FE00BF4FF0E3
:1082800001000AF021FA03464FF001021446184695
:10829000384912F08DFA0346002B02D14FF000034B
:1082A0001C46E3B2002BEAD1274B4FF000021A60C4
:1082B00005F039BB4FF00003C7F87C3204F0B3BCC3
:1082C000294B1B684FF4BA7202FB03F303F1180247
:1082D0001E4BD31818464FF0000109F0A5F9224BA8
:1082E0001B684FF4BA7202FB03F303F12802174B29
:1082F000D31803F1040318464FF0010109F094F973
:1083000009F0E8F90AF0E6FA024640F653339A42D9
:1083100004DC0D4B4FF001021A607AE3124B1B682C
:108320000F2B40F02C81114BC7F8DC324FF00003CB
:10833000C7F8D8323AE000BFA84E0020AC4E00206B
:1083400000000240E04E00203C4E00206C00002067
:108350001F85EB5100080240F8E40F080CE50F08F8
:10836000E44E0020045000206800002000000000BF
:10837000009A8D48005E97480AF0ACFA034618460A
:1083800012F024F803461846DF4912F073F803464A
:10839000D7F8DC02194611F065FF0346C7F8DC3256
:1083A000D7F8D83203F10103C7F8D832D7F8D8226A
:1083B00040F22B139A42DFDDD7F8DC02D34912F0EA
:1083C0000DF90346C7F8DC32D148D7F8DC1211F0BA
:1083D00047FF0346CF48194611F042FF03461846AF
:1083E000CD4912F0FBF803461846C74912F0F6F8DB
:1083F00003461846C94912F03DF803461846C849D5
:1084000011F030FF0346C7F87832C648D7F8DC12BF
:1084100011F026FF0346C448194611F021FF034618
:108420001846C14912F0DAF803461846BF4912F05F
:1084300021F80346C7F87432D7F87802D7F87412D7
:1084400011F010FF0346C7F87832D7F8780212F01F
:10845000D7F90346C7F87032D7F87802AA4912F064
:1084600009F80346184612F0CBF903469E4A82FBF0
:1084700003124FEA62114FEAE3728A1A4FF0640165
:1084800001FB02F29B1AC7F86C32A648D7F8DC123F
:1084900011F0E6FE0346A448194611F0E1FE03463A
:1084A0001846A34912F09AF80346C7F8DC324FF099
:1084B00001031C46D7F8DC02934912F097F90346F2
:1084C000002B02D14FF000031C46E3B2002B01D079
:1084D0008D4B01E0D7F8DC32C7F8DC324FF00103F6
:1084E0001C46D7F8DC02934912F062F90346002BD0
:1084F00002D14FF000031C46E3B2002B01D08D4B9C
:1085000001E0D7F8DC32C7F8DC32D7F8DC0212F031
:1085100077F90246754B03F5AE5303F110031A6069
:10852000D7F86C32092B11DD714A704B03F5AE534D
:1085300003F110031B68D7F86C12009110466D49C7
:108540001A46D7F870320EF015FF10E0684A674BF4
:1085500003F5AE5303F110031B68D7F86C120091BA
:10856000104665491A46D7F870320EF003FF604B8B
:1085700018464FF0010109F057F809F0ABF85F48D1
:108580004FF0000109F062FFC7F87C025B4B1B68EB
:10859000802B0ED0594B1B68B3F5006F09D0574B99
:1085A0001B68B3F5805F04D0544B1B68B3F5005FC4
:1085B00003D1524B4FF000021A60D7F87C32002BE7
:1085C00004D14E4B1B68002B00F01D824C4B1A68E7
:1085D000D7F87C32D2184A4B1A60494B1B68152BCE
:1085E00006D1474B1B6803F1FF32454B1A6007E089
:1085F000434B1B68002B03DA414B4FF000021A601B
:10860000404B1B68002B40F0AC80D7F87C32002B2D
:108610003CDA364B03F5DD531B68022B0DD1384B8A
:108620001B68002B04D0364B1B68012B40F01681D1
:10863000334B4FF002021A6010E12C4B03F5DD536F
:108640001B68032B0DD12E4B1B68002B04D02C4B29
:108650001B68022B40F00281294B4FF001021A6087
:10866000FCE0224B03F5DD531B68012B40F0F68044
:10867000234B1B68012B04D0214B1B68022B40F0BD
:10868000ED801F4B4FF000021A60E7E0D7F87C3214
:10869000002B40F3E380154B03F5DD531B68022BE1
:1086A0000DD1174B1B68002B04D0154B1B68012BF9
:1086B00040F0D480124B4FF003021A60CEE00B4B17
:1086C00003F5DD531B68032B36D10D4B1B68002BC4
:1086D00004D00B4B1B68022B40F0C080084B4FF0BE
:1086E00003021A60BAE000BF1F85EB516C00002046
:1086F0006416002048E00F0858E00F08E04E002004
:1087000068000020584E00200000C8420000964338
:1087100000C8AF480050C34700007A449899D93F39
:108720000000384100D4AD4800B88847E17A943D54
:1087300000002F44000000006F4B03F5DD531B6861
:10874000012B40F08B806D4B1B68012B04D06B4BD1
:108750001B68022B40F08280684B4FF003021A60C6
:108760007CE0674B1B68012B78D1D7F87C32002B5B
:1087700038DA614B03F5DD531B68022B0CD15F4BDC
:108780001B68012B03D05D4B1B68022B66D15B4B32
:108790004FF000021A6061E0574B03F5DD531B6890
:1087A000032B0CD1554B1B68012B03D0534B1B687B
:1087B000022B53D1514B4FF000021A604EE04E4B4A
:1087C00003F5DD531B68012B48D14C4B1B68012B73
:1087D00003D04A4B1B68022B40D1484B4FF000029C
:1087E0001A603BE0D7F87C32002B37DD424B03F5B3
:1087F000DD531B68022B0CD1404B1B68012B03D0AF
:108800003E4B1B68022B29D13C4B4FF003021A60F0
:1088100024E0394B03F5DD531B68032B0CD1374B98
:108820001B68012B03D0354B1B68022B16D1334B31
:108830004FF003021A6011E02F4B03F5DD531B6864
:10884000012B0BD12D4B1B68012B03D02B4B1B682D
:10885000022B03D1294B4FF003021A60274B1B68F0
:10886000092B11D1274B1B68002B0DD1D7F87C3277
:10887000002B04DD214B4FF00A021A6048E01F4B29
:108880004FF008021A6043E01C4B1B680C2B13D1FD
:10889000194B03F580531B68002B0DD1D7F87C32A0
:1088A000002B04DD154B4FF00D021A6030E0134B26
:1088B0004FF00B021A602BE0104B1B68132B08D1F2
:1088C0000F4B1B68012B04D10C4B4FF012021A60A6
:1088D0001EE00A4B1B68142B1AD1074B03F5DD531E
:1088E0001B68032B14D0064B1B68012B0CD1034BC8
:1088F0004FF012021A600BE06C00002068000020AC
:10890000584E0020344E0020964B4FF013021A6050
:10891000D7F87C32002B21D0924B1B684FF4BA72EF
:1089200002FB03F303F118028F4BD31818464FF0E4
:10893000000108F079FE8B4B1B684FF4BA7202FB02
:1089400003F303F12802884BD31803F104031846FC
:108950004FF0010108F068FE08F0BCFE824BD3F82E
:10896000BC38052B08D1814B1B68802B13D07F4B63
:108970001B68B3F5006F0ED07B4BD3F8303A052B54
:108980000CD17A4B1B68B3F5805F04D0774B1B6822
:10899000B3F5005F02D10CF0A1FA16E0734B1B682F
:1089A000802B0ED0714B1B68B3F5006F09D06F4B55
:1089B0001B68B3F5805F04D06C4B1B68B3F5005F98
:1089C00003D16A4B4FF000021A60674B03F5D05396
:1089D00003F12C031B68012B16D1644B1B68012B80
:1089E0000CD0624B1B68102B08D0604B1B68202BEF
:1089F00004D05E4B1B68B3F5807F05D15B4B4FF015
:108A000000021A6000E000BF584B1B68002B3FF4C7
:108A100079AC564B1B68012B02D10CF05FFA1FE1B9
:108A2000524B1B68102B48D1514B4FF000021A607B
:108A3000504B5B68002B30D04FF064004FF00101C9
:108A400009F0C4FA4C484FF0000145F6EA524FF0E5
:108A5000010309F093FB474B5A68484BA3FB020301
:108A60004FEAD30318464FF0000109F04FFF414B86
:108A70001B7C002B1DD042484FF0000140F6C7522E
:108A80004FF0010309F07AFB3A4B9A68394BDB68E7
:108A9000104619460AF0A2FF0BE0364B1B7C002B58
:108AA00007D0344B9A68334BDB68104619460AF0FE
:108AB00095FF08F041F804F0B6B82C4B1B68202B4A
:108AC00004F0A880294B1B68B3F5807F40F0C2807A
:108AD000254B03F5965303F128031B68C7F868324A
:108AE000D7F86832092B08DC1F4B03F5965303F1C6
:108AF00028034FF00A021A604CE0D7F86832132BB3
:108B000008DC194B03F5965303F128034FF01402C8
:108B10001A603FE0D7F86832272B08DC124B03F5C8
:108B2000965303F128034FF028021A6032E0D7F879
:108B300068323B2B08DC0C4B03F5965303F12803FA
:108B40004FF03C021A6025E0D7F868324F2B19DC51
:108B5000054B03F5965303F128034FF050021A60BA
:108B600018E000BF680000206C000020E04E0020EC
:108B7000404E0020541F0020345E0E08CDCCCCCCDB
:108B8000B8C40F08BB4B03F5965303F128034FF00D
:108B90000A021A60B84AB74B03F5965303F128034B
:108BA0001B681046B5491A460EF0E4FBB14B03F5BD
:108BB000965303F128031B6807F5B6721046AF49B8
:108BC0001A460EF0D7FB07F5B67318464FF00101B1
:108BD00008F02AFD08F07EFDA64B03F5965303F13D
:108BE00028031B684FEAC313A54A82FB03124FEA0E
:108BF00062124FEAE373D31AC7F86432D7F86432CB
:108C00009BB243F480539BB29BB2184609F0ACF977
:108C10004FF064004FF0000109F0D8F999484FF087
:108C2000000143F687024FF0010309F0A7FA914BC8
:108C300003F5965303F128031B684EF6602202FBEE
:108C400003F318464FF0010109F060FE07F074FFCE
:108C500003F0EEBF8C4B1B68002B01D009F020FD08
:108C60008A4B1B68142B03F2DE8701A252F823F013
:108C7000C58C0008198F0008518F00088B8F0008E1
:108C8000C7920008C7920008DF980008DF98000824
:108C90008DA20008B7AD0008BDAE0008B9AF00084E
:108CA000E1AF000813B10008F1B2000827CC0008BA
:108CB00047B4000867BD0008D1C30008E5C4000838
:108CC00003C60008704B1B68B3F5004F08D0694B12
:108CD00003F5D05303F12C031B68012B03F09C8791
:108CE000644B03F5DD531B68022B15D1684B1B68E1
:108CF000002B11D167484FF0000108F095FC664841
:108D00004FF0010108F090FC08F0E4FC40F6B830A8
:108D100009F0E4F803F087BF564BD3F8D435002BA5
:108D200040F3C9805D484FF0000108F07DFC07F575
:108D3000AC725B4B14461D460FCD0FC42B682360ED
:108D40004C4BD3F8D43542F2107202FB03F31A46AF
:108D5000544B1B68D31803F51C5303F10F03C7F8DA
:108D600060324FF00003C7F8D43279E04D4B1B68F6
:108D7000D7F86022D21A4C4BA3FB02034FEA5333BD
:108D8000C7F85C32D7F85C32002B71D0D7F85C3270
:108D90003C2B0CDD434B1B68D7F86022D31A1846D6
:108DA0004FF000014FF0010209F082FA22E0D7F8FB
:108DB0005C32012B0FDD07F5AC7318463B49D7F841
:108DC0005C220EF0D7FA07F5AC7318464FF001019C
:108DD00008F02AFC0EE007F5AC7318463449D7F8C2
:108DE0005C220EF0C7FA07F5AC7318464FF001018C
:108DF00008F01AFC08F06EFC1E4BD3F84837C7F891
:108E00005832D7F8D432002B20D1D7F85832002B63
:108E10001CD0D7F85C22D7F858329A4216D14FF0BE
:108E200064004FF0010109F0D1F8D7F858324FF43F
:108E30007A7202FB03F318464FF0000109F066FD59
:108E400007F07AFE4FF00103C7F8D4320E484FF016
:108E5000000109F0FBFA0C4B1B68B3F5004F29D059
:108E6000104B1A68D7F860329A42FFF47FAF22E0C5
:108E700000BF20E06C0000207C1300206CE00F0895
:108E80001F85EB5124ED0D08E04E00206800002006
:108E9000584E002074E00F0884E00F0890E00F089F
:108EA00020E50F08640000205917B7D1A4E00F088F
:108EB000B0E00F0800BF08F027F94FF0000004F001
:108EC00041FD4FF000000CF0FDF89B484FF0000111
:108ED00009F0BCFA984B4FF000021A6005F056FFFB
:108EE000964BD3F8BC38022B0ED0944BD3F8BC3839
:108EF000032B09D0914BD3F8303A022B04D08F4B7F
:108F0000D3F8303A032B03D18D4B4FF003021A6094
:108F10000BF0E4FF03F087BE8A484FF0000108F031
:108F200083FB89484FF0010108F07EFB08F0D2FB7B
:108F300009F034FA08F0A0FF07F02AFF4FF4C870D8
:108F400008F0CCFF814B4FF000021A6003F06BBEBB
:108F50007A4B03F5DD531B68022B43F05F867C4898
:108F60004FF0000108F060FB7A484FF0010108F073
:108F70005BFB08F0AFFB08F07FFF09F00FFA734BC3
:108F80004FF000021A6003F04EBE6C4BD3F8603411
:108F9000C7F85432D7F85432772B31D8D7F8543237
:108FA000002B07D16C4B18466C494FF0080211F0AA
:108FB0006DFC1EE0D7F85432052B07D1664B1846DE
:108FC0006749D7F854220EF0D5F912E0D7F8543299
:108FD000632B07D8604B18466249D7F854220EF02D
:108FE000C9F906E05C4B18465F49D7F854220EF0E9
:108FF000C1F9594B18464FF0010108F015FBCCE0C0
:10900000D7F85432EF2B48D8D7F85432782B07D101
:10901000514B184655494FF00F0211F037FC29E02B
:10902000D7F854327D2B0AD14B4AD7F85432A3F1EA
:10903000780310464E491A460EF09CF91AE0D7F80C
:109040005432A3F17803632B0AD8434AD7F8543239
:10905000A3F17803104647491A460EF08BF909E050
:109060003D4AD7F85432A3F17803104642491A46D4
:109070000EF080F9314B4FF0010283F88824364B13
:10908000184611F063FD034603F1FF332B4AD31852
:109090004FF0020283F888247FE0D7F8542240F290
:1090A00067139A4272D8D7F85432F02B07D12A4B63
:1090B000184632494FF00F0211F0E8FB29E0D7F8CB
:1090C0005432F52B0AD1244AD7F85432A3F1F003D5
:1090D00010462B491A460EF04DF91AE0D7F85432D3
:1090E000A3F1F003632B0AD81B4AD7F85432A3F13B
:1090F000F003104623491A460EF03CF909E0164ADF
:10910000D7F85432A3F1F00310461F491A460EF067
:1091100031F90A4B4FF0010283F888240E4B1846B0
:1091200011F014FD034603F1FF33044AD3184FF046
:10913000020283F8882430E0E04E00206C0000201A
:109140003C4E0020BCE00F08C8E00F08680000207B
:109150006C030020D8E00F08F4040020E8E00F08BA
:10916000F0E00F0804E10F0814E10F0824E10F08F4
:1091700034E10F084CE10F0864E10F0878E10F08B3
:1091800088E10F08A0E10F08B8E10F08944B1846DA
:1091900094494FF00A0211F079FB914B18464FF0B9
:1091A000010108F041FA08F095FA8F484FF00001EC
:1091B00009F04CF9C7F87C02D7F87C32002B03D1B8
:1091C000894B1B68002BF0D0D7F87C32002B2BD0BA
:1091D000864BD3F86014D7F87C2213464FEA8303FA
:1091E0009B18CA18814BC3F86024804BD3F86034B5
:1091F000002B05DA7D4B4FF00002C3F860240AE033
:109200007A4BD3F86034B3F5B47F04DD774B4FF479
:10921000B472C3F86024724B18464FF0010108F095
:1092200003FA08F057FAB0E609F03AFA4FF00003F3
:10923000C7F8D03226E06D4AD7F8D032D31803F5FC
:10924000906303F104031B79012B0AD0674AD7F816
:10925000D032D31803F5906303F104031B79022B7A
:109260000AD1624AD7F8D032D31803F5906303F1DC
:1092700004034FF020021A71D7F8D03203F1010332
:10928000C7F8D032D7F8D042554B184611F05EFCE3
:1092900003469C42CFD3524B18464FF0010108F0D1
:1092A000C3F908F017FA4FF000000BF00BFF4E481F
:1092B0004FF0000109F0CAF84B4B4FF000021A6062
:1092C00003F0B1BC00BF4A4B1B68484A4FF4BA7167
:1092D00001FB03F3D31803F104031B68002B29D10E
:1092E000434B1B68042B12D1414B1B684FF4BA72DD
:1092F00002FB03F303F128023C4BD31803F10403F0
:1093000018463C494FF00D0211F0C0FAA0E0384B6E
:109310001B684FF4BA7202FB03F303F12802334BCC
:10932000D31803F10403184633494FF00F0211F02C
:10933000ADFA8DE02E4B1B682C4A4FF4BA7101FB3D
:1093400003F3D31803F104031B68012B1DD1284B31
:109350001B684FF4BA7202FB03F303F12802234B9C
:10936000D31803F104031A46214B1B681F494FF41D
:10937000BA7000FB03F3CB1803F104031B6810461B
:109380001E491A460DF0F6FF62E0194B1B68174A9A
:109390004FF4BA7101FB03F3D31803F104031B6804
:1093A000772B2FDC124B1B684FF4BA7202FB03F3CE
:1093B00003F128020D4BD31803F104031A460C4B9A
:1093C0001B680A494FF4BA7000FB03F3CB1803F192
:1093D00004031B6810460A491A460DF0CBFF37E01C
:1093E000F4040020CCE10F08E04E00206C000020C7
:1093F00068000020D8E10F08E8E10F08F8E10F0845
:1094000008E20F08AD4B1B684FF4BA7202FB03F37E
:1094100003F12802AA4BD31803F104031A46A74B01
:109420001B68A7494FF4BA7000FB03F3CB1803F194
:1094300004031B68A34981FB0301C9184FEA6111AA
:109440004FEAE373CB1A10469F491A460DF092FF7C
:109450009A4B1B684FF4BA7202FB03F303F1280224
:10946000974BD31803F1040318464FF0010108F09D
:10947000DBF808F02FF995484FF0000108F0E6FFFF
:10948000C7F87C02D7F87C32002B03D18F4B1B68C6
:10949000002BF0D0D7F87C32002B00F05481874BA2
:1094A0001B68874A4FF4BA7101FB03F3D31803F129
:1094B00004031B683B2B38DC804B1B687F4A126817
:1094C0007F494FF4BA7000FB02F28A1802F10402DD
:1094D0001168D7F87C228A1879494FF4BA7000FBDA
:1094E00003F3CB1803F104031A60744B1B68052BBC
:1094F00040F00D81724BD3F84837042B00F30781FD
:10950000D7F87C32012B04D16D4B4FF00502C3F824
:109510004827D7F87C32B3F1FF3F40F0F880684B22
:109520004FF00002C3F84827F1E0644B1B68644A1F
:109530004FF4BA7101FB03F3D31803F104031B6862
:109540003C2B3DD1D7F87C32002B19DA5B4B1B68E2
:109550005A4A12685A494FF4BA7000FB02F28A184C
:1095600002F104021168D7F87C228A1854494FF49A
:10957000BA7000FB03F3CB1803F104031A60C6E0D2
:109580004E4B18684D4B1B684D4A4FF4BA7101FBA6
:1095900003F3D31803F104031968D7F87C221346A8
:1095A0004FEA83039B184FEA4303CA1844494FF418
:1095B000BA7303FB00F3CB1803F104031A60A6E0AF
:1095C0003E4B1B683E4A4FF4BA7101FB03F3D318BC
:1095D00003F104031B68782B43D1D7F87C32002BAE
:1095E0001FDA364B1868354B1B68354A4FF4BA7191
:1095F00001FB03F3D31803F104031968D7F87C22A5
:1096000013464FEA83039B184FEA4303CA182C49B9
:109610004FF4BA7303FB00F3CB1803F104031A6091
:1096200075E0264B1868254B1B68254A4FF4BA7124
:1096300001FB03F3D31803F104031968D7F87C2264
:1096400013464FEA03139B1A4FEA8303CA181C49B7
:109650004FF4BA7303FB00F3CB1803F104031A6051
:1096600055E0164B1B68164A4FF4BA7101FB03F321
:10967000D31803F104031B68772B29DD0F4B1868FF
:109680000E4B1B680E4A4FF4BA7101FB03F3D3185B
:1096900003F104031968D7F87C2213464FEA031339
:1096A0009B1A4FEA8303CA1805494FF4BA7303FBA8
:1096B00000F3CB1803F104031A6028E068000020CF
:1096C0006C0000208988888818E20F08E04E00208E
:1096D000B44B1868B34B1B68B34A4FF4BA7101FB23
:1096E00003F3D31803F104031968D7F87C22134657
:1096F0004FEA83039B184FEA4303CA18AA494FF461
:10970000BA7303FB00F3CB1803F104031A60A54BF3
:109710001B68A54A4FF4BA7101FB03F3D31803F198
:1097200004031B68002BBFF6CDAD9E4B1B689E4A01
:109730004FF4BA7101FB03F3D31803F104034FF0A4
:1097400000021A60BFE508F0ABFF964B1B68964A13
:109750004FF4BA7101FB03F3D31803F104031B6840
:10976000002B1ED18F4B1B68052B07D18F4B184642
:109770008F494FF00B0211F089F88EE0894B1B687E
:109780004FF4BA7202FB03F303F12802864BD3189D
:1097900003F10403184687494FF0090211F076F8E7
:1097A0007BE0804B1B68804A4FF4BA7101FB03F3E6
:1097B000D31803F104031B68012B1DD1794B1B68DF
:1097C0004FF4BA7202FB03F303F12802764BD3186D
:1097D00003F104031A46734B1B6873494FF4BA70C4
:1097E00000FB03F3CB1803F104031B681046724916
:1097F0001A460DF0BFFD50E06A4B1B686A4A4FF4F1
:10980000BA7101FB03F3D31803F104031B68772B30
:109810001DDC644B1B684FF4BA7202FB03F303F1C7
:109820002802614BD31803F104031A465D4B1B68F1
:109830005D494FF4BA7000FB03F3CB1803F1040346
:109840001B6810465D491A460DF094FD25E0554B06
:109850001B684FF4BA7202FB03F303F12802524B68
:10986000D31803F104031A464E4B1B684E494FF4BC
:10987000BA7000FB03F3CB1803F104031B685049D3
:1098800081FB0301C9184FEA61114FEAE373CB1A58
:1098900010464C491A460DF06DFD424B1B684FF4C3
:1098A000BA7202FB03F303F128023F4BD31803F112
:1098B000040318464FF0010107F0B6FE07F00AFF57
:1098C0004FF000000BF0FEFB3F484FF0000108F0A6
:1098D000BDFD3D4B4FF000021A6003F0A4B9314BBF
:1098E0001B684FF4BA7202FB03F303F128022E4BFC
:1098F000D31803F1040319462A4B1B682A4A4FF474
:10990000BA7000FB03F3D31803F104031B681A4673
:1099100013464FEA83039B184FEA8303CB1818467C
:109920004FF0010107F080FE07F0D4FE26484FF00B
:10993000000108F08BFDC7F87C02D7F87C32002BC1
:1099400003D1214B1B68002BF0D0D7F87C32002BC1
:1099500000F0F580134B1B68134A4FF4BA7101FBFA
:1099600003F3D31803F5B8731A68D7F87C32D31809
:10997000C7F850320B4B1B680B4A4FF4BA7101FB0E
:1099800003F3D31803F5B6731A68D7F850329A4226
:1099900001DA00F077BCD7F85032002B16DC00F06B
:1099A00071BC00BF680000206C000020DC070020B4
:1099B00028E20F0834E20F08B0E00F08A4E00F0817
:1099C0008988888840E20F08E04E0020924B1B688F
:1099D000924A4FF4BA7101FB03F3D31803F5B8733D
:1099E000D7F850221A60D7F8503203F1FF33092B11
:1099F00000F2A48001A151F823F000BF259A0008CD
:109A0000419A00085D9A0008799A0008959A000822
:109A1000B19A0008CD9A0008E99A0008059B000851
:109A2000219B00087C4B1B687C4A4FF4BA7101FBF8
:109A300003F3D31803F104034FF001021A607DE031
:109A4000754B1B68754A4FF4BA7101FB03F3D318C9
:109A500003F104034FF002021A606FE06E4B1B68C3
:109A60006E4A4FF4BA7101FB03F3D31803F10403F8
:109A70004FF003021A6061E0674B1B68674A4FF4BE
:109A8000BA7101FB03F3D31803F104034FF004028E
:109A90001A6053E0604B1B68604A4FF4BA7101FBD7
:109AA00003F3D31803F104034FF005021A6045E0F5
:109AB000594B1B68594A4FF4BA7101FB03F3D31891
:109AC00003F104034FF006021A6037E0524B1B68A3
:109AD000524A4FF4BA7101FB03F3D31803F10403A4
:109AE0004FF007021A6029E04B4B1B684B4A4FF4BA
:109AF000BA7101FB03F3D31803F104034FF008021A
:109B00001A601BE0444B1B68444A4FF4BA7101FBD6
:109B100003F3D31803F104034FF009021A600DE0B8
:109B20003D4B1B683D4A4FF4BA7101FB03F3D31858
:109B300003F104034FF00A021A6000BFA2E308F029
:109B4000AFFD354B1B68354A4FF4BA7101FB03F387
:109B5000D31803F104031B68042B47D1304B4FF09B
:109B600001021A602C4B1B68184606F06DF92C4B4D
:109B70004FF000021A6008F093FD274B1B681A464D
:109B8000254B1B6825494FF4BA7000FB03F3CB1833
:109B900003F104031B68104619464FF000024FF012
:109BA00001030CF0C9F91C4B1B684FF4BA7202FB9D
:109BB00003F303F11802194BD31818464FF00001B4
:109BC00007F032FD144B1B684FF4BA7202FB03F32B
:109BD00003F12802114BD31803F1040318464FF088
:109BE000010107F021FD07F075FD4DE30A4B1B68ED
:109BF0000A4A4FF4BA7101FB03F3D31803F10403CB
:109C00001B68062B40F0A88006484FF0000107F0C3
:109C10000BFD0AE000BF08E0680000206C00002097
:109C2000744E00204CE20F0800BF914B1B684FF4AC
:109C3000BA7202FB03F303F128028E4BD31803F12F
:109C400004031A468A4B1B688A494FF4BA7000FB1A
:109C500003F3CB1803F108031B68104686491A4624
:109C60000DF088FB824B1B684FF4BA7202FB03F3C2
:109C700003F128027F4BD31803F1040318464FF079
:109C8000010107F0D1FC07F025FD7C484FF00001F1
:109C900008F0DCFBC7F87C02D7F87C32002B03D13C
:109CA000764B1B68002BF0D0D7F87C32002B32D0DB
:109CB0006F4B1B686F4A4FF4BA7101FB03F3D31863
:109CC00003F108031A68D7F87C32D318C7F84C326E
:109CD000D7F84C320B2B9DDDD7F84C32482BA3DC48
:109CE000634B1B68634A4FF4BA7101FB03F3D3184B
:109CF00003F10803D7F84C221A605D4B1B68062B52
:109D000004D1D7F84C225E4B1A608EE7D7F84C226C
:109D10005C4B1A6089E708F0C3FC554B1B684FF495
:109D2000BA7202FB03F303F11802524BD318184620
:109D30004FF0000107F078FC07F0CCFC4FF000007A
:109D40000BF0C0F94D484FF0000108F07FFB4B4B82
:109D50004FF000021A6095E2454B1B68454A4FF4EC
:109D6000BA7101FB03F3D31803F104031B68072B3B
:109D700040F08E8044484FF0000107F055FC02E0AF
:109D800000BF00E000BF4149394B1B68394A4FF41E
:109D9000BA7000FB03F3D31803F10C031B681A46D7
:109DA00013464FEA83039B184FEA8303CB181846E8
:109DB0004FF0010107F038FC07F08CFC2F484FF002
:109DC000000108F043FBC7F87C02D7F87C32002B77
:109DD00003D12A4B1B68002BF0D0D7F87C32002B24
:109DE00025D0234B1B68234A4FF4BA7101FB03F3C0
:109DF000D31803F10C031A68D7F87C32D318C7F8CC
:109E00004832D7F84832002BBADBD7F84832042B57
:109E1000B8DC174B1B68174A4FF4BA7101FB03F308
:109E2000D31803F10C03D7F848221A60ABE708F007
:109E300037FC0F4B1B684FF4BA7202FB03F303F1BC
:109E400018020C4BD31818464FF0000107F0ECFB3A
:109E500007F040FC4FF000000BF034F907484FF0DA
:109E6000000108F0F3FA054B4FF000021A6009E216
:109E7000680000206C0000205CE20F08E04E00202B
:109E8000884E00208C4E00206CE20F08F01E00204F
:109E9000974B1B68974A4FF4BA7101FB03F3D31831
:109EA00003F104031B68082B0DD0914B1B68914AEA
:109EB0004FF4BA7101FB03F3D31803F104031B68D9
:109EC000092B40F0008106F037FE4FF064004FF0A0
:109ED000010108F07BF888484FF0000108F0B6FA5D
:109EE000C7F87C02854B1B6903F08003002B14BF6D
:109EF00000230123C7F84032804B1B6903F48073B1
:109F0000002B14BF00230123C7F83C327B4B1B6995
:109F100003F01003002B14BF00230123C7F83832CD
:109F2000764B1B6903F02003002B14BF0023012391
:109F3000C7F83432D7F84032002B0BD1D7F83C3277
:109F4000002B07D1D7F83832002B03D1D7F83432A1
:109F5000002B72D0664B1B68062B35D1D7F84032E8
:109F6000002B16D0624B1B68624A4FF4BA7101FB9A
:109F700003F3D31803F104031B68082B09D14FF036
:109F800014005F4940F6F4624FF0010308F06EF8E8
:109F900053E0D7F83C32002B4CD0554B1B68554A48
:109FA0004FF4BA7101FB03F3D31803F104031B68E8
:109FB000092B41D14FF01400514940F6F4624FF0A3
:109FC000010308F053F838E0D7F83832002B16D0E8
:109FD000474B1B68474A4FF4BA7101FB03F3D31890
:109FE00003F104031B68082B09D14FF01400444906
:109FF00040F6F4624FF0010308F038F81DE0D7F89E
:10A000003432002B19D03A4B1B683A4A4FF4BA71DC
:10A0100001FB03F3D31803F104031B68092B0CD1D4
:10A020004FF01400364940F6F4624FF0010308F097
:10A030001DF802E000BF00E000BFD7F87C32002B23
:10A0400004D12D4B1B68002B3FF445AF06F074FD87
:10A0500008F026FB264B1B681A46254B1B68254932
:10A060004FF4BA7000FB03F3CB1803F104031B6831
:10A07000104619464FF000024FF001030BF05CFF51
:10A080001B4B1B684FF4BA7202FB03F303F1180277
:10A09000184BD31818464FF0000107F0C5FA144BBF
:10A0A0001B684FF4BA7202FB03F303F12802114B51
:10A0B000D31803F1040318464FF0010107F0B4FA76
:10A0C00007F008FBE0E00A4B1B680A4A4FF4BA713C
:10A0D00001FB03F3D31803F104031B680A2B40F0C0
:10A0E0009A8008484FF0000107F09EFA0DE000BF8B
:10A0F000680000206C000020E04E002000040240B8
:10A10000E8C2010878E20F0800BF9E4B1B684FF4BD
:10A11000BA7202FB03F303F128029B4BD31803F13D
:10A1200004031A46974B1B6897494FF4BA7000FB1B
:10A1300003F3CB1803F110031B68104693491A462A
:10A140000DF018F98F4B1B684FF4BA7202FB03F342
:10A1500003F128028C4BD31803F1040318464FF087
:10A16000010107F061FA07F0B5FA89484FF00001E4
:10A1700008F06CF9C7F87C02D7F87C32002B03D1C9
:10A18000834B1B68002BF0D0D7F87C32002B21D0FA
:10A190007C4B1B687C4A4FF4BA7101FB03F3D31864
:10A1A00003F110031A68D7F87C32D318C7F8443289
:10A1B000D7F84432002BA7DB724B1B68724A4FF46E
:10A1C000BA7101FB03F3D31803F11003D7F844224B
:10A1D0001A609AE708F064FA6A4B1B684FF4BA7287
:10A1E00002FB03F303F11802674BD31818464FF034
:10A1F000000107F019FA07F06DFA4FF000000AF0BD
:10A2000061FF63484FF0000108F020F9604B4FF008
:10A2100000021A6036E05B4B1B681A46594B1B68FC
:10A2200059494FF4BA7000FB03F3CB1803F1040350
:10A230001B68104619464FF000024FF001030BF067
:10A240007BFE504B1B684FF4BA7202FB03F303F121
:10A2500028024D4BD31803F1040318464FF00101B7
:10A2600007F0E2F907F036FA4FF000000AF02AFF93
:10A2700047484FF0000108F0E9F8454B4FF0000265
:10A280001A6001E0FFF72BBB02F0CDBC414B1B680D
:10A29000002B0DD1404B184640490BF09DFE3F4826
:10A2A0004FF0010107F0C0F907F014FA02F0BBBC4F
:10A2B00007F5A2723A4B14461D460FCD0FC42B680A
:10A2C000236007F59872364B14461D460FCD0FC418
:10A2D0002B68236007F58E72314B14461D460FCD57
:10A2E0000FC42B68236007F584722D4B14461D465E
:10A2F0000FCD0FC42B682360234BD3F8A43BC7F8C2
:10A300003032214BD3F8A43B03F10103C7F82C32C0
:10A310002449D7F8302213464FEA83039B184FEAAB
:10A320000313CB1803F110035B78062B12D11D49E0
:10A33000D7F8302213464FEA83039B184FEA0313E2
:10A34000CB181B6807F58E72104617491A460DF098
:10A3500011F811E01349D7F8302213464FEA83036E
:10A360009B184FEA0313CB181B6807F58E72104633
:10A370000E491A460CF0FEFF4FF00003C7F8CC322E
:10A3800028E000BF680000206C00002084E20F0875
:10A39000E04E0020344E0020380C002090E20F08E0
:10A3A00020E50F08541F00209CE20F08A8E20F08C8
:10A3B00007F58E72D7F8CC32D3181A7807F5A27148
:10A3C000D7F8CC32CB181A70D7F8CC3203F101038E
:10A3D000C7F8CC3207F58E73184610F0B7FB02466B
:10A3E000D7F8CC329A42E3D8B449D7F83022134692
:10A3F0004FEA83039B184FEA0313CB1803F11003B2
:10A400001B78002B40F01781AC49D7F82C2213465B
:10A410004FEA83039B184FEA0313CB1803F1100391
:10A420001B78002B00F00781D7F8302213464FEA43
:10A4300083039B184FEA031303F110029F4BD318B9
:10A4400003F1020307F584721046194610F020FB51
:10A450004FF00003C7F8CC3207F58473184610F0AC
:10A4600075FB0346C3F11203C7F8C83217E007F5BE
:10A470008472D7F8CC32D3181A7807F5A271D7F8BE
:10A48000C832CB181A70D7F8C83203F10103C7F8E5
:10A49000C832D7F8CC3203F10103C7F8CC32D7F871
:10A4A000C832132BE3D907F5A2734FF020029A7438
:10A4B00007F5A2734FF02002DA748049D7F82C22F6
:10A4C00013464FEA83039B184FEA0313CB1803F19B
:10A4D00010035B78062B12D17849D7F82C2213464B
:10A4E0004FEA83039B184FEA0313CB181B6807F549
:10A4F0008E72104672491A460CF03CFF11E06F490B
:10A50000D7F82C2213464FEA83039B184FEA031314
:10A51000CB181B6807F58E7210466A491A460CF074
:10A5200029FF4FF00003C7F8CC3211E007F58E7217
:10A53000D7F8CC32D3181A7807F59871D7F8CC32FF
:10A54000CB181A70D7F8CC3203F10103C7F8CC321C
:10A5500007F58E73184610F0F9FA0246D7F8CC3298
:10A560009A42E3D85549D7F82C2213464FEA830381
:10A570009B184FEA0313CB1803F104031B68002B4D
:10A5800049D0D7F82C2213464FEA83039B184FEA91
:10A59000031303F11002494BD31803F1020307F52B
:10A5A00084721046194610F073FA4FF00003C7F892
:10A5B000CC3207F58473184610F0C8FA0346C3F18D
:10A5C0001203C7F8C83217E007F58472D7F8CC3207
:10A5D000D3181A7807F59871D7F8C832CB181A70C3
:10A5E000D7F8C83203F10103C7F8C832D7F8CC3224
:10A5F00003F10103C7F8CC32D7F8C832132BE3D9E3
:10A6000007F598734FF020029A7407F598734FF08E
:10A610002002DA7490E207F5987303F10C031846F0
:10A6200029494FF0070210F031F907F598734FF000
:10A6300020029A7480E22149D7F8302213464FEA6B
:10A6400083039B184FEA0313CB1803F110031B7805
:10A65000002B40F026811949D7F82C2213464FEAE7
:10A6600083039B184FEA0313CB1803F110031B78E5
:10A67000002B40F01681D7F8302213464FEA8303AF
:10A680009B184FEA031303F110020C4BD31803F18C
:10A69000020307F584721046194610F0F9F94FF0DD
:10A6A0000003C7F8CC3207F58473184610F04EFA51
:10A6B0000346C3F11203C7F8C8321FE0541F00203D
:10A6C0009CE20F08A8E20F08B4E20F0807F58472B5
:10A6D000D7F8CC32D3181A7807F5A271D7F8C83258
:10A6E000CB181A70D7F8C83203F10103C7F8C83283
:10A6F000D7F8CC3203F10103C7F8CC32D7F8C8320F
:10A70000132BE3D907F5A2734FF020029A7407F5D3
:10A71000A2734FF02002DA749149D7F82C22134625
:10A720004FEA83039B184FEA0313CB181B68002BD7
:10A7300000F09F808A49D7F82C2213464FEA830302
:10A740009B184FEA0313CB1803F110035B78062B19
:10A7500012D18349D7F82C2213464FEA83039B1862
:10A760004FEA0313CB181B6807F58E7210467D491C
:10A770001A460CF0FFFD11E07949D7F82C22134658
:10A780004FEA83039B184FEA0313CB181B6807F5A6
:10A790008E72104674491A460CF0ECFD4FF000031F
:10A7A000C7F8CC3211E007F58E72D7F8CC32D31847
:10A7B0001A7807F59871D7F8CC32CB181A70D7F8F9
:10A7C000CC3203F10103C7F8CC3207F58E7318467B
:10A7D00010F0BCF90246D7F8CC329A42E3D8D7F849
:10A7E0002C2213464FEA83039B184FEA031303F10D
:10A7F00010025B4BD31803F1020307F58472104675
:10A80000194610F045F94FF00003C7F8CC3207F5B0
:10A810008473184610F09AF90346C3F11203C7F87F
:10A82000C83217E007F58472D7F8CC32D3181A78FB
:10A8300007F59871D7F8C832CB181A70D7F8C83214
:10A8400003F10103C7F8C832D7F8CC3203F1010392
:10A85000C7F8CC32D7F8C832132BE3D907F5987371
:10A860004FF020029A7407F598734FF02002DA74C3
:10A8700062E14FF00003C7F8CC320DE007F59872A3
:10A88000D7F8CC32D3184FF020021A70D7F8CC3258
:10A8900003F10103C7F8CC32D7F8CC32132BEDD932
:10A8A0004AE12F49D7F8302213464FEA83039B1819
:10A8B0004FEA0313CB1803F110031B78002B00F0B1
:10A8C000C4802749D7F8302213464FEA83039B18E8
:10A8D0004FEA0313CB1803F104031B68002B1CD1B0
:10A8E00007F5A27303F10C03184620494FF0070245
:10A8F0000FF0CCFF07F5A2734FF020029A7407F512
:10A90000987318461A494FF007020FF0BFFF07F57A
:10A9100098734FF020029A715FE0D7F83022134607
:10A920004FEA83039B184FEA031303F110020C4B09
:10A93000D31803F1020307F584721046194610F08C
:10A94000A7F84FF00003C7F8CC3207F58473184618
:10A9500010F0FCF80346C3F11203C7F8C83221E037
:10A96000541F00209CE20F08A8E20F08B4E20F0871
:10A97000BCE20F0807F58472D7F8CC32D3181A78E6
:10A9800007F5A271D7F8C832CB181A70D7F8C832B9
:10A9900003F10103C7F8C832D7F8CC3203F1010341
:10A9A000C7F8CC32D7F8C832132BE3D907F5A27316
:10A9B0004FF020029A7407F5A2734FF02002DA7468
:10A9C00007F598731846AD494FF007020FF05EFF88
:10A9D00007F598734FF020029A71D7F8302213468A
:10A9E0004FEA83039B184FEA031303F12002A44BA1
:10A9F000D31803F10603184610F0A8F80346C3F174
:10AA00001203C7F8C83207F59872D7F8C832D118C0
:10AA1000D7F8302213464FEA83039B184FEA0313FB
:10AA200003F12002964BD31803F10603084619469A
:10AA300010F02EF807F598734FF020029A7407F57E
:10AA400098734FF02002DA7476E0D7F8302213467C
:10AA50004FEA83039B184FEA031303F11002884B5C
:10AA6000D31803F1020307F584721046194610F05B
:10AA70000FF84FF00003C7F8CC320DE007F5A272D3
:10AA8000D7F8CC32D3184FF020021A70D7F8CC3256
:10AA900003F10103C7F8CC32D7F8CC32132BEDD930
:10AAA0004FF00003C7F8CC3207F58473184610F056
:10AAB0004DF80346C3F11203C7F8C83217E007F593
:10AAC0008472D7F8CC32D3181A7807F5A271D7F868
:10AAD000C832CB181A70D7F8C83203F10103C7F88F
:10AAE000C832D7F8CC3203F10103C7F8CC32D7F81B
:10AAF000C832132BE3D907F5A2734FF020029A74E2
:10AB000007F5A2734FF02002DA744FF00003C7F884
:10AB1000CC320DE007F59872D7F8CC32D3184FF04D
:10AB200020021A70D7F8CC3203F10103C7F8CC32F7
:10AB3000D7F8CC32132BEDD9524B1B68012B00F008
:10AB4000EA80504B1B68032B28D9D7F8303203F129
:10AB5000FF324B4913464FEA83039B184FEA031316
:10AB6000CB181B68002B19D0D7F82C3203F1010247
:10AB7000434913464FEA83039B184FEA0313CB184C
:10AB80001B68002B0AD007F5A2734FF00302DA749A
:10AB900007F598734FF00402DA74BCE0394B1B6878
:10ABA000022B0DD1D7F83032002B09D1344B1B7C4E
:10ABB000002B05D007F598734FF00402DA74AAE071
:10ABC000D7F830222F4B1B689A4205D0D7F82C2299
:10ABD0002C4B1B689A4214D12949D7F830221346CE
:10ABE0004FEA83039B184FEA0313CB1803F11003BA
:10ABF0001B78002B05D007F5A2734FF00302DA741F
:10AC000089E0204B1B68022B1DD9D7F83032002B6E
:10AC100019DD1B49D7F8302213464FEA83039B18EE
:10AC20004FEA0313CB1803F110031B78002B0AD053
:10AC300007F5A2734FF00302DA7407F598734FF02B
:10AC40000402DA7467E0D7F83032002B1CD10C49CB
:10AC5000D7F82C2213464FEA83039B184FEA0313BD
:10AC6000CB181B68002B0FD0064B1B68022B0BD098
:10AC700007F598734FF00402DA744CE0BCE20F0859
:10AC8000541F0020344E0020D7F83032002B03D15F
:10AC9000D7F82C32012B3ED0D7F82C22D7F83032FF
:10ACA0009A420EDDD7F8303203F1FF32B449134631
:10ACB0004FEA83039B184FEA0313CB181B68002B42
:10ACC00016D1B04B1B6803F1FF32D7F830329A42ED
:10ACD00014D1AC4B1B68A3F10202A94913464FEAF9
:10ACE00083039B184FEA0313CB181B68002B05D076
:10ACF00007F5A2734FF00302DA740CE0D7F8303294
:10AD0000002B08D19E4B1B6D002B04D007F59873C8
:10AD10004FF00402DA7407F5A27318464FF00001F1
:10AD200006F052FC07F5987318464FF0010106F043
:10AD30004BFC06F0CFFC94484FF0000107F086FB77
:10AD4000C7F87C02D7F87C32002B03D18E4B1B68EE
:10AD5000002BF0D0D7F87C32002B28D08B4BD3F8C7
:10AD6000A42BD7F87C32D31AC7F82832D7F8283268
:10AD7000002B0ADBD7F82822824B1B689A4204D2A8
:10AD8000824BD7F82822C3F8A42B07F5A2731846E4
:10AD90004FF0000106F018FC07F5987318464FF0C5
:10ADA000010106F011FC06F095FCFFF781BA07F0EF
:10ADB00077FC01F038BF734B1B68002B01F0308724
:10ADC00073484FF0000106F02FFC72484FF001016C
:10ADD00006F02AFC06F07EFC00E000BF6A484FF057
:10ADE000000107F033FBC7F87C02D7F87C32002B58
:10ADF00003D1654B1B68002BF0D0D7F87C32B3F140
:10AE0000FF3F0CD1614B4FF00102C3F8182D62488F
:10AE10004FF0010106F008FC06F05CFC0FE0D7F8EB
:10AE20007C32012B0BD1594B4FF00002C3F8182D87
:10AE300058484FF0010106F0F7FB06F04BFC524B6F
:10AE40001B68B3F5004FC8D1504BD3F8183D012B08
:10AE50002ED1524B184652490BF0BEF851484FF0D4
:10AE6000010106F0E1FB06F035FC0AF075F84FF041
:10AE700000000AF027F944484FF0000107F0E6FA15
:10AE8000414B4FF000021A6047484FF0000106F0B6
:10AE9000CBFB46484FF0010106F0C6FB06F01AFC5A
:10AEA0004FF4FA6007F01AF8414B4FF008021A60AD
:10AEB00000BF01F0B8BE00BF00E000BF3D49334B0A
:10AEC000D3F88C3E1A4613464FEA83039B184FEA89
:10AED0008303CB1818464FF0010106F0A5FB06F0DE
:10AEE000F9FB29484FF0000107F0B0FAC7F87C02DF
:10AEF000D7F87C32002B03D1234B1B68002BF0D0FA
:10AF0000D7F87C32002B15D0204BD3F88C2ED7F8F5
:10AF10007C32D318C7F82432D7F82432002BCADD8C
:10AF2000D7F82432022BC8DC184BD7F82422C3F8F8
:10AF30008C2EC3E707F0B4FB144BD3F88C3E4FF0D4
:10AF40000A0019464FF000024FF001030AF0F4FF27
:10AF5000184B18464FF0010106F066FB06F0BAFBED
:10AF60004FF000000AF0AEF807484FF0000107F07C
:10AF70006DFA054B4FF000021A6001F054BE00BF9D
:10AF8000541F0020344E0020E04E00206C000020B2
:10AF9000C4E20F08D4E20F08E0E20F08380C0020EA
:10AFA00090E20F08ECE20F08F8E20F080CE30F083C
:10AFB00068000020200F0020BD4ABE4B03F58053DF
:10AFC0001B681046BC491A460CF0D4F9B84B184619
:10AFD0004FF0010106F028FB06F07CFB01F023BED8
:10AFE000B44B03F580531B68002B01F01B86B3485C
:10AFF0004FF0000106F018FBB1484FF0010106F0D8
:10B0000013FB06F067FBAB4B03F58A5303F13403E4
:10B010004FF000021A6000E000BFAA484FF00001A4
:10B0200007F014FAC7F87C02D7F87C32002B03D162
:10B03000A44B1B68002BF0D0D7F87C32B3F1FF3F54
:10B040000FD19C4B03F58A5303F134034FF00102F7
:10B050001A609D484FF0010106F0E6FA06F03AFB4F
:10B0600012E0D7F87C32012B0ED1924B03F58A53B4
:10B0700003F134034FF000021A6091484FF00101D0
:10B0800006F0D2FA06F026FB8E4B1B68B3F5004F94
:10B09000C2D1884B03F58A5303F134031B68002B9C
:10B0A00000D134E0834B03F58A5303F134031B686A
:10B0B000002B2BDD7E4B184684490AF08DFF7D4B1B
:10B0C00003F580534FF000021A604FF0000009F0C2
:10B0D000F9FF7C484FF0000107F0B8F9794B4FF0C9
:10B0E00000021A607A484FF0000106F09DFA794894
:10B0F0004FF0010106F098FA06F0ECFA4FF4FA600E
:10B1000006F0ECFE744B4FF00B021A6000BF01F02A
:10B110008ABD724A674B03F5965303F128031B68F7
:10B1200010466F491A460CF025F96B4B1B684FF41B
:10B13000BA7202FB03F303F128025E4BD31803F14A
:10B14000040318464FF0010106F06EFA06F0C2FA49
:10B150005C484FF0000107F079F9C7F87C02D7F896
:10B160007C32002B03D1574B1B68002BF0D0D7F853
:10B170007C32002B4BD04F4B03F5965303F1280341
:10B180001A68D7F87C32D2184A4B03F5965303F16C
:10B1900028031A60474B03F5965303F128031B68F5
:10B1A000C7F8C432D7F8C432642B03DD4FF0640310
:10B1B000C7F8C432D7F8C432002B03DA4FF00003CB
:10B1C000C7F8C4323B4B03F5965303F12803D7F875
:10B1D000C4221A60374B03F5965303F128031B680A
:10B1E0004FEAC3133F4A82FB03024FEA62124FEA5F
:10B1F000E373D31AC7F82032D7F820329BB243F456
:10B2000080539BB29BB2184606F0AEFE81E707F072
:10B2100047FA324A274B03F5965303F128031B687C
:10B22000104631491A460CF0A5F82B4B1B684FF419
:10B23000BA7202FB03F303F128021E4BD31803F189
:10B24000040318464FF0010106F0EEF906F042FA49
:10B250004FF064004FF0000106F0B8FE23484FF0B5
:10B26000000143F687024FF0010306F087FF114B00
:10B2700003F5965303F128031B684EF6602202FB88
:10B2800003F318464FF0010107F040FB05F054FCB2
:10B290004FF0000009F016FF0A484FF0000107F0D8
:10B2A000D5F8084B4FF000021A6001F0BCBC00BF9B
:10B2B000941000206C00002014E30F08C4E20F0873
:10B2C000D4E20F08E04E0020E0E20F0818E30F0878
:10B2D0001CE30F0830E30F08680000207C130020F7
:10B2E00038E30F081F85EB516CE00F0824ED0D08C3
:10B2F000AE4AAF4B03F5A25303F11C031B68104683
:10B30000AC491A460CF036F8AB4B1B684FF4BA72D6
:10B3100002FB03F303F12802A54BD31803F1040346
:10B3200018464FF0010106F07FF906F0D3F9A34863
:10B330004FF0000107F08AF8C7F87C02D7F87C329A
:10B34000002B03D19D4B1B68002BF0D0D7F87C322B
:10B35000002B47D0964B03F5A25303F11C031A6848
:10B36000D7F87C32D218924B03F5A25303F11C0399
:10B370001A608F4B03F5A25303F11C031B68C7F837
:10B38000C032D7F8C032642B03DD4FF06403C7F836
:10B39000C032D7F8C032002B03DA4FF00003C7F8F1
:10B3A000C032834B03F5A25303F11C03D7F8C0222C
:10B3B0001A607F4B03F5A25303F11C031B684FEA8D
:10B3C000C3137F4A82FB03124FEA62124FEAE37310
:10B3D000D31AC7F81C32D7F81C329BB2184606F0B5
:10B3E000C3FD85E707F05CF9704A714B03F5A25382
:10B3F00003F11C031B68104672491A460BF0BAFF92
:10B400006D4B1B684FF4BA7202FB03F303F1280281
:10B41000674BD31803F1040318464FF0010106F0FF
:10B4200003F906F057F94FF0000009F04BFE6348AE
:10B430004FF0000107F00AF8604B4FF000021A606D
:10B4400001F0F1BB00BF6049594B03F5BA5303F15A
:10B4500004031B681A4613464FEA83039B184FEAFE
:10B460008303CB1818464FF0010106F0DDF806F013
:10B4700031F952484FF0010106F0E8FFC7F87C02AD
:10B48000D7F87C32002B03D14C4B1B68002BF0D03B
:10B49000D7F87C32002B00F09980454B03F5C4535C
:10B4A00003F130031A68D7F87C32D318C7F8183282
:10B4B0003F4B03F5C45303F12C031A68D7F8183235
:10B4C0009A4201DA00F04ABCD7F81832002B01DCAE
:10B4D00000F044BC364B03F5C45303F13003D7F8F6
:10B4E00018221A60D7F8183203F1FF33072B5BD804
:10B4F00001A252F823F000BF19B500082BB50008CF
:10B500003DB500084FB5000861B5000873B50008E7
:10B5100085B5000897B50008254B03F5BA5303F12C
:10B5200004034FF001021A603EE0214B03F5BA53C9
:10B5300003F104034FF002021A6035E01C4B03F5DF
:10B54000BA5303F104034FF003021A602CE0184BC6
:10B5500003F5BA5303F104034FF004021A6023E029
:10B56000134B03F5BA5303F104034FF005021A60BD
:10B570001AE00F4B03F5BA5303F104034FF0060230
:10B580001A6011E00A4B03F5BA5303F104034FF0BC
:10B5900007021A6008E0064B03F5BA5303F10403EF
:10B5A0004FF008021A6000BFD8E300BFF01400207B
:10B5B0006C00002038E30F0868000020E04E0020F7
:10B5C0001F85EB516CE00F08D817002007F068F8D2
:10B5D000A84B03F5BA5303F104031B68012B4FD1A9
:10B5E000A5484FF480510BF09FFFA3484FF4005142
:10B5F0000BF09AFFA0484FF480410BF095FF9E4856
:10B600004FF400410BF090FF9C484FF0010106F011
:10B610001DFFC7F87C02D7F87C32002B03D1974B73
:10B620001B68002BF0D094484FF480510BF08AFF38
:10B6300091484FF400510BF085FF8F484FF4804143
:10B640000BF080FF8C484FF400410BF07BFF894BDF
:10B6500003F5BA5303F104031B684FF010001946B9
:10B660004FF000024FF001030AF066FC84484FF0EF
:10B67000000105F0D9FF06F02DF807F011F86FE38F
:10B680007C4B03F5BA5303F104031B68022B26D14C
:10B6900079484FF480510BF047FF4FF0020003F060
:10B6A00027FA75484FF480510BF04CFF714B03F5AE
:10B6B000BA5303F104031B684FF0100019464FF012
:10B6C00000024FF001030AF037FC6D484FF0000113
:10B6D00005F0AAFF05F0FEFF06F0E2FF40E3654B30
:10B6E00003F5BA5303F104031B68032B26D1624808
:10B6F0004FF400510BF018FF4FF0030003F0F8F97E
:10B700005D484FF400510BF01DFF5A4B03F5BA533F
:10B7100003F104031B684FF0100019464FF00002BC
:10B720004FF001030AF008FC55484FF0000105F006
:10B730007BFF05F0CFFF06F0B3FF11E34D4B03F5A0
:10B74000BA5303F104031B68042B26D14A484FF473
:10B7500080410BF0E9FE4FF0040003F0C9F94648C0
:10B760004FF480410BF0EEFE424B03F5BA5303F168
:10B7700004031B684FF0100019464FF000024FF011
:10B7800001030AF0D9FB3E484FF0000105F04CFFE1
:10B7900005F0A0FF06F084FFE2E2364B03F5BA5352
:10B7A00003F104031B68052B26D133484FF40041F5
:10B7B0000BF0BAFE4FF0050003F09AF92E484FF453
:10B7C00000410BF0BFFE2B4B03F5BA5303F104030A
:10B7D0001B684FF0100019464FF000024FF00103B4
:10B7E0000AF0AAFB26484FF0000105F01DFF05F006
:10B7F00071FF06F055FFB3E21E4B03F5BA5303F198
:10B8000004031B68062B3DD14FF00003C7F8143228
:10B810001A484FF0010106F019FEC7F87C024FF0FC
:10B82000010002F0D5FFC7F81402D7F81432002B3C
:10B8300007D1D7F87C32002B03D1104B1B68002BAB
:10B84000E6D00C4B03F5BA5303F104031B684FF029
:10B85000100019464FF000024FF001030AF06CFB94
:10B8600007484FF0000105F0DFFE05F033FF06F05A
:10B8700017FF75E26C000020000C0240E04E002033
:10B88000C41700205C4B03F5BA5303F104031B6893
:10B89000072B40F0C3805C4BC7F810325B4BC7F8F6
:10B8A0000C325A4BC7F80832594BC7F8BC325348D0
:10B8B0004FF0010106F0CAFDC7F87C02D7F8BC02C0
:10B8C00054490EF0CFFC0346C7F8BC32D7F810023B
:10B8D00051490EF0CFFD034618460EF057F90446C5
:10B8E0000D46D7F810024C490EF0C4FD0346184629
:10B8F0000EF04CF980468946D7F8BC020EF046F9A6
:10B9000002460B46104619460CF034FD02460B4623
:10B91000404649460EF08EF902460B46204629461F
:10B920000DF0D4FF02460B46104619460EF044FCBB
:10B930000346C7F80C32D7F81002D7F80C120EF0F5
:10B940008FFC0346C7F808322D484FF480510BF0A6
:10B95000EBFD2B484FF400510BF0E6FD28484FF467
:10B9600080410BF0E1FD26484FF400410BF0DCFD77
:10B97000D7F80C020EF044FF0346184606F098FA7A
:10B980001F484FF480510BF0DDFD1D484FF400516E
:10B990000BF0D8FD1A484FF480410BF0D3FD184846
:10B9A0004FF400410BF0CEFDD7F808020EF028FF4F
:10B9B0000346184606F07CFAD7F87C32002B04D1F7
:10B9C0000E4B1B68002B3FF472AF0B4B03F5BA53C1
:10B9D00003F104031B684FF0100019464FF00002FA
:10B9E0004FF001030AF0A8FA06484FF0000105F0F5
:10B9F0001BFE05F06FFEB3E16C000020E04E00205E
:10BA0000000C0240C417002000002042000000008B
:10BA1000DB0FC93F1B2F5D3C0000003FB84B03F517
:10BA2000BA5303F104031B68082B7FF40BADB74B2B
:10BA3000C7F80432B3484FF0010106F007FDC7F81C
:10BA40007C02D7F8B402B2490EF00CFC0346C7F8EA
:10BA5000B432D7F8AC02AF490EF004FC0346C7F885
:10BA6000AC32D7F8A402AC490EF0FAFB0346C7F893
:10BA7000A432D7F8A002A9490EF0F2FB0346C7F89A
:10BA8000A032D7F804020EF081F804460D46D7F82C
:10BA9000B4020EF07BF802460B46104619460CF035
:10BAA00069FC02460B46204629460EF0C3F80246C2
:10BAB0000B46104619460EF07FFB0346C7F8B83216
:10BAC000D7F804020EF062F804460D46D7F8AC022F
:10BAD0000EF05CF802460B46104619460CF04AFC84
:10BAE00002460B46204629460EF0A4F802460B46B5
:10BAF000104619460EF060FB0346C7F8B032D7F87F
:10BB000004020EF043F804460D46D7F8A4020EF0E6
:10BB10003DF802460B46104619460CF02BFC024637
:10BB20000B46204629460EF085F802460B46104685
:10BB300019460EF041FB0346C7F8A832D7F80402B5
:10BB40000EF024F804460D46D7F8A0020EF01EF8B9
:10BB500002460B46104619460CF00CFC02460B46FA
:10BB6000204629460EF066F802460B461046194656
:10BB70000EF022FB0346C7F800324FF001031C46CB
:10BB8000D7F8B80266490EF013FE0346002B02D127
:10BB90004FF000031C46E3B2002B05D0D7F8B832B3
:10BBA00083F00043C7F8B8324FF001031C46D7F8C2
:10BBB000B0025B490EF0FCFD0346002B02D14FF0B2
:10BBC00000031C46E3B2002B05D0D7F8B03283F057
:10BBD0000043C7F8B0324FF001031C46D7F8A80263
:10BBE0004F490EF0E5FD0346002B02D14FF0000354
:10BBF0001C46E3B2002B05D0D7F8A83283F00043EF
:10BC0000C7F8A8324FF001031C46D7F80002444998
:10BC10000EF0CEFD0346002B02D14FF000031C4670
:10BC2000E3B2002B05D0D7F8B83283F00043C7F851
:10BC3000B832D7F80402D7F8B8120EF011FB034659
:10BC4000C7F8FC31D7F80402D7F8B0120EF008FBA1
:10BC50000346C7F8F831D7F80402D7F8A8120EF057
:10BC6000FFFA0346C7F8F431D7F80402D7F80012F8
:10BC70000EF0F6FA0346C7F8F03123484FF480512E
:10BC80000BF052FCD7F8B8020EF0BAFD0346184686
:10BC900006F00EF91C484FF480510BF053FCD7F816
:10BCA000FC010EF0ADFD0346184606F001F91648FA
:10BCB0004FF400510BF038FC13484FF480410BF067
:10BCC00033FC11484FF400410BF02EFC0E484FF4AA
:10BCD00080510BF037FC0C484FF400510BF032FC54
:10BCE00009484FF480410BF02DFC07484FF4004108
:10BCF0000BF028FCD7F87C32002B18D112E000BFE3
:10BD00006C000020E04E0020000C02400000C84201
:10BD1000CDCC4C3CEC51B83CB6F37D3C77BE9F3C5F
:10BD200000000000744B1B68002B3FF483AE734B84
:10BD300003F5BA5303F104031B684FF010001946D2
:10BD40004FF000024FF001030AF0F6F86C484FF094
:10BD5000000105F069FC05F0BDFC01E0FFF773BBD5
:10BD600000F061BF00BF6749644B03F5C45303F1A2
:10BD700038031B681A4613464FEA83039B184FEAA1
:10BD80008303CB1818464FF0010105F04DFC05F078
:10BD9000A1FC59484FF0010106F058FBC7F87C029E
:10BDA000D7F87C32002B03D1534B1B68002BF0D00B
:10BDB000D7F87C32002B56D0504B03F5D05303F10B
:10BDC00024031A68D7F87C32D318C7F8EC314B4BF0
:10BDD00003F5D1531A68D7F8EC319A4200DAF1E250
:10BDE000D7F8EC31002B00DCECE2444B03F5D053E8
:10BDF00003F12403D7F8EC211A60D7F8EC3103F1F2
:10BE0000FF33032B2ED801A050F823F01DBE0008ED
:10BE10002FBE000841BE000853BE0008374B03F593
:10BE2000C45303F138034FF001021A601AE0334B98
:10BE300003F5C45303F138034FF002021A6011E016
:10BE40002E4B03F5C45303F138034FF003021A607D
:10BE500008E02A4B03F5C45303F138034FF0040202
:10BE60001A6000BFAEE206F01BFC244B03F5C4537E
:10BE700003F138031B68012B1AD14FF0010002F0C7
:10BE800015F81E4B03F5C45303F138031B684FF03C
:10BE9000110019464FF000024FF001030AF04CF870
:10BEA00019484FF0000105F0BFFB05F013FC8AE2D2
:10BEB000124B03F5C45303F138031B68022B25D141
:10BEC0004FF0020001F0F2FF0C4B03F5C45303F1F5
:10BED00038031B684FF0110019464FF000024FF075
:10BEE00001030AF029F808484FF0000105F09CFB17
:10BEF00005F0F0FB67E200BFE04E00206C00002080
:10BF0000C41700204C19002038190020B44B03F549
:10BF1000C45303F138031B68032B40F0778107F506
:10BF200082734FF000021A6007F580734FF0000231
:10BF30001A6007F1FC034FF000021A6007F1F803E2
:10BF40004FF000021A6007F1F4034FF000021A608C
:10BF500007F1F0034FF000021A6007F1EC034FF015
:10BF600000021A6007F1E8034FF000021A6007F1BF
:10BF7000E4034FF000021A6007F1E0034FF0000203
:10BF80001A6007F1DC034FF000021A6007F1D803D2
:10BF90004FF000021A6007F1D4034FF000021A605C
:10BFA00007F1D0034FF000021A6007F1CC034FF005
:10BFB00000021A608B4B186807F5827107F58072D2
:10BFC00007F1FC0307F1F804009407F1F40401946D
:10BFD00002F046FF844B186807F1F00107F1EC020C
:10BFE00007F1E80307F1E404009407F1E004019489
:10BFF00002F036FF7D4B186807F1DC0107F1D8022B
:10C0000007F1D40307F1D004009407F1CC040194A4
:10C0100002F026FF07F580731A6807F1FC031B681E
:10C0200007F1F801D1F800B007F1F401D1F800A050
:10C0300007F1EC01D1F8009007F1E801D1F8008098
:10C0400007F1E401D1F800C007F1E001D1F800E008
:10C0500007F1D8010E6807F1D4010D6807F1D0018E
:10C060000C6807F1CC01086807F1B801CDF800B001
:10C07000CDF804A0CDF80890CDF80C80CDF810C014
:10C08000CDF814E00696079508940990084658499B
:10C090000BF070F907F1B80318464FF0000105F0F6
:10C0A00093FA544B186807F5827107F5807207F10F
:10C0B000FC0307F1F804009407F1F404019402F082
:10C0C000CFFE4D4B186807F1F00107F1EC0207F1C4
:10C0D000E80307F1E404009407F1E004019402F09E
:10C0E000BFFE464B186807F1DC0107F1D80207F1E3
:10C0F000D40307F1D004009407F1CC04019402F0BA
:10C10000AFFE07F580731A6807F1FC031B6807F19F
:10C11000F801D1F800B007F1F401D1F800A007F15F
:10C12000EC01D1F8009007F1E801D1F8008007F1A7
:10C13000E401D1F800C007F1E001D1F800E007F117
:10C14000D8010E6807F1D4010D6807F1D0010C6821
:10C1500007F1CC01086807F1A401CDF800B0CDF8D3
:10C1600004A0CDF80890CDF80C80CDF810C0CDF823
:10C1700014E00696079508940990084620490BF0AC
:10C18000F9F807F1A40318464FF0010105F01CFA75
:10C1900005F0A0FA1B484FF0000106F057F9C7F868
:10C1A0007C02D7F87C32002B03D1164B1B68002B86
:10C1B000F0D00B4B03F5C45303F138031B684FF069
:10C1C000110019464FF000024FF0010309F0B4FED0
:10C1D0000D484FF0000105F027FA05F07BFAF2E078
:10C1E0006C000020B44E0020B84E0020BC4E002051
:10C1F00044E30F08C04E0020C44E0020C84E00206B
:10C2000068E30F08E04E002038190020A64B03F524
:10C21000C45303F138031B68042B7FF4A3ADA34B75
:10C220001B68002B33D1A24B1B68002B2FD1A14BD5
:10C230001B68002B2BD1A04B1B68002B27D19F4BD9
:10C240001B68002B23D19E4B1B68002B1FD1964BE4
:10C2500003F5C45303F138031B684FF0110019466E
:10C260004FF000024FF0010309F066FE95484FF0D1
:10C27000000105F0D9F994484FF0010105F0D4F917
:10C2800005F028FA4FF4FA6005F028FE9BE08F488D
:10C290004FF0000105F0C8F98D484FF0010105F09D
:10C2A000C3F905F017FA00E000BF8A484FF000011B
:10C2B00006F0CCF8C7F87C02D7F87C32002B03D10B
:10C2C000844B1B68002BF0D0D7F87C32B3F1FF3FD2
:10C2D0000FD1754B03F5C45303F13C034FF001023A
:10C2E0001A607D484FF0010105F09EF905F0F2F962
:10C2F00012E0D7F87C32012B0ED16B4B03F5C453FF
:10C3000003F13C034FF000021A6071484FF0010145
:10C3100005F08AF905F0DEF96E4B1B68B3F5004FA6
:10C32000C2D1614B03F5C45303F13C031B68012BDD
:10C3300038D15D4B03F5C45303F13C034FF00002C9
:10C340001A605A4B4FF000021A60594B4FF000022E
:10C350001A60584B4FF000021A60574B4FF0000222
:10C360001A60564B4FF000021A60554B4FF0000216
:10C370001A6058484FF0000106F068F8554B4FF02E
:10C3800000021A604F484FF0000105F04DF9534884
:10C390004FF0010105F048F905F09CF94FF4FA60FF
:10C3A00005F09CFD404B03F5C45303F138031B68B3
:10C3B0004FF0110019464FF000024FF0010309F051
:10C3C000BBFD00E0CFE400F02EBC00BF00E000BFEA
:10C3D0004349354B03F5D05303F12C031B681A4630
:10C3E00013464FEA83039B184FEA8303CB18184682
:10C3F0004FF0010105F018F905F06CF935484FF0E0
:10C40000000106F023F8C7F87C02D7F87C32002B35
:10C4100003D1304B1B68002BF0D0D7F87C32002BB7
:10C420001BD0214B03F5D05303F12C031A68D7F826
:10C430007C32D318C7F8E831D7F8E831002BC4DDD7
:10C44000D7F8E831022BC2DC174B03F5D05303F1C8
:10C450002C03D7F8E8211A60BAE706F021F9124B4D
:10C4600003F5D05303F12C031B684FF0120019465B
:10C470004FF000024FF0010309F05EFD184B184623
:10C480004FF0010105F0D0F805F024F94FF000005D
:10C4900008F018FE0F484FF0000105F0D7FF0D4BD4
:10C4A0004FF000021A60BEE36C000020B44E002082
:10C4B000B84E0020BC4E0020C04E0020C44E0020CC
:10C4C000C84E0020381900208CE30F08C4E20F0882
:10C4D000D4E20F08E04E0020E0E20F089CE30F08D2
:10C4E000C01A0020B149B24B03F5DD531B681A4650
:10C4F00013464FEA83039B184FEA8303CB18184671
:10C500004FF0010105F090F805F0E4F8A9484FF06C
:10C51000000105F09BFFC7F87C02D7F87C32002BA6
:10C5200003D1A44B1B68002BF0D0D7F87C32002B32
:10C5300041D09F4B03F5E85303F10C031A68D7F879
:10C540007C32D318C7F8E431994B03F5E85303F173
:10C5500008031A68D7F8E4319A4200DA50E0D7F8B5
:10C56000E431002B00DC4BE0914B03F5E85303F181
:10C570000C03D7F8E4211A60D7F8E431022B0BD072
:10C58000032B10D0012B00D014E0894B03F5DD53B1
:10C590004FF001021A600DE0854B03F5DD534FF0BB
:10C5A00002021A6006E0824B03F5DD534FF00302EE
:10C5B0001A6000BF24E006F073F87D4B03F5DD53ED
:10C5C0001B684FF0130019464FF000024FF00103B3
:10C5D00009F0B2FC754B18464FF0010105F024F844
:10C5E00005F078F84FF0000008F06CFD71484FF04E
:10C5F000000105F02BFF6F4B4FF000021A6012E3B1
:10C6000070E76B4B03F5E85303F118031A68684BA6
:10C6100003F5E85303F114031A60654B03F5E8537F
:10C6200003F118031A68624B03F5F4531A60604B68
:10C6300003F5E85303F118031B684FF01400194683
:10C640004FF000024FF0010309F076FC584B03F560
:10C65000E85303F124031B6803F1FF33032B1BD8BA
:10C6600001A151F823F000BF79C6000881C6000877
:10C6700089C6000891C600084F4B514A1A600BE06A
:10C680004D4B504A1A6007E04B4B4F4A1A6003E08B
:10C69000494B4E4A1A6000BF4849454B03F5E853E1
:10C6A00003F114031B681A4613464FEA83039B18D1
:10C6B0004FEA8303CB1818464FF0010104F0B4FF92
:10C6C00005F008F83B484FF0010105F0BFFEC7F840
:10C6D0007C02D7F87C32002B03D1364B1B68002B31
:10C6E000F0D0D7F87C32002B00F08E80304B03F571
:10C6F000F453196807F5F073D7F87C228A181A608A
:10C700002B4B03F5F25303F13C031A6807F5F07362
:10C710001B689A4200DA7CE207F5F0731B68002B75
:10C7200000DC76E2224B03F5F45307F5F072126851
:10C730001A6007F5F0731B6803F1FF33062B62D80C
:10C7400001A252F823F000BF65C7000877C70008B0
:10C7500089C700089BC70008D1C70008E3C70008C5
:10C76000F5C70008124B03F5E85303F114034FF02B
:10C7700001021A6047E00E4B03F5E85303F114037E
:10C780004FF002021A603EE0094B03F5E85303F153
:10C7900014034FF003021A6035E0054B03F5E8532C
:10C7A00003F114034FF004021A602CE0341C002043
:10C7B0006C000020E04E00206C4E0020A81D0020E0
:10C7C00000007A440000C842000020410000803F81
:10C7D000AE4B03F5E85303F114034FF005021A6062
:10C7E00011E0AA4B03F5E85303F114034FF00602DE
:10C7F0001A6008E0A54B03F5E85303F114034FF06A
:10C8000007021A6000BF04E205F04AFF9F4B03F5E0
:10C81000E85303F114031B68012B08D19B4B03F56C
:10C82000E85303F118034FF001021A60CAE1974B75
:10C8300003F5E85303F114031B68022B08D1934B53
:10C8400003F5E85303F118034FF002021A60B9E14F
:10C850008E4B03F5E85303F114031B68032B02D13D
:10C8600005F00AFBAEE1894B03F5E85303F114032D
:10C870001B68042B04D14FF0010001F063F8A1E123
:10C88000824B03F5E85303F114031B68052B08D012
:10C890007E4B03F5E85303F114031B68062B40F0AD
:10C8A000CD807B4BC7F89C32784B03F5E85303F1FE
:10C8B00014031B68052B08D176484FF0000104F0E3
:10C8C000B3FE734BC7F89C3213E0704B03F5E8538B
:10C8D00003F114031B68062B0BD16F484FF00001C6
:10C8E00004F0A2FE6D4BC7F89C3202E000BF00E0EE
:10C8F00000BFD7F89C321B68092B09DC684AD7F8BF
:10C900009C321B68104667491A460AF033FD2FE037
:10C91000D7F89C321B68632B09DC614AD7F89C323C
:10C920001B68104660491A460AF024FD20E0D7F83B
:10C930009C321A6840F2E7339A4209DC584AD7F829
:10C940009C321B68104659491A460AF013FD0FE045
:10C95000D7F89C321A6842F20F739A4208DC504AA8
:10C96000D7F89C321B68104651491A460AF002FD5E
:10C970004B4B18464FF0010104F056FE04F0AAFE9E
:10C980004C484FF0000105F061FDC7F87C02D7F874
:10C990007C32002B03D1474B1B68002BF0D0D7F81B
:10C9A0007C32002B33D0D7F89C321B6818460DF030
:10C9B0000DFD0446D7F87C020DF008FD02463E4B03
:10C9C0001B68104619460DF055FD034620461946D2
:10C9D0000DF048FC034607F5EC7418460DF010FF07
:10C9E0000346236007F5EC731B68002BFFF67EAF50
:10C9F00007F5EC731A6842F210739A423FF778AF6A
:10CA0000D7F89C3207F5EC7212681A6071E705F0EE
:10CA100047FE2A484FF0000104F006FE04F05AFEDB
:10CA20004FF0000008F04EFB22484FF0000105F0E7
:10CA30000DFD204B4FF000021A60EAE0134B03F5A6
:10CA4000E85303F114031B68072B40F0BB801C481C
:10CA50004FF0000104F0E8FD02E000BF00E000BF7D
:10CA60000A4B03F5E85303F124031B6803F1FF337A
:10CA7000032B53D801A050F823F000BFC5CA00080B
:10CA8000DBCA0008F1CA000807CB00086C000020D0
:10CA9000881D0020ACE30F08BCE30F088C1D0020AC
:10CAA000A81D0020CCE30F08E0E30F08F4E30F0813
:10CAB00008E40F08E04E00206C4E0020941D00207A
:10CAC0001CE40F08AD4B1846AD494FF008020DF0BD
:10CAD000DDFEAC4BB84A1A6020E0A84B1846AA49C4
:10CAE0004FF009020DF0D2FEA64BB44A1A6015E0D1
:10CAF000A24B1846A5494FF00A020DF0C7FEA14B04
:10CB0000AF4A1A600AE09D4B1846A1494FF00B024C
:10CB10000DF0BCFE9B4BAB4A1A6000BF974B18460A
:10CB20004FF0010104F080FD04F0D4FD99484FF06E
:10CB3000000105F08BFCC7F87C02D7F87C32002B93
:10CB400003D1944B1B68002BF0D0D7F87C32002B1C
:10CB500021D0914B03F5E85303F12403196807F53D
:10CB6000EE73D7F87C228A181A6007F5EE731B68FB
:10CB7000002B7FF772AF07F5EE731B68042B3FF7AE
:10CB80006EAF854B03F5E85303F1240307F5EE720E
:10CB900012681A6064E705F083FD80484FF00001D9
:10CBA00004F042FD04F096FD4FF0000008F08AFA10
:10CBB00078484FF0000105F049FC764B4FF0000239
:10CBC0001A6026E005F06CFD734B03F5E85303F1A2
:10CBD00018031B684FF0140019464FF000024FF085
:10CBE000010309F0A9F9654B18464FF0010104F063
:10CBF0001BFD04F06FFD4FF0000008F063FA65487C
:10CC00004FF0000105F022FC624B4FF000021A6069
:10CC100009E041E500BF06E000BF04E000BF02E01C
:10CC200000BF00E000BF5E4B1B68022B3BF448AB2B
:10CC300000F079BE5B4B1B68012B09D15A4B4FF0BA
:10CC400000021A60564B4FF002021A6000F06BBEF1
:10CC500007F1A0034FF000021A604FF00003C7F87D
:10CC600098324FF00003C7F8943207F19C034FF05D
:10CC700000021A604FF00003C7F89032464BD3F819
:10CC8000BC2807F5EA731A60434BD3F8302A07F53E
:10CC9000E8731A60404BD3F8BC38042B04D13E4BE8
:10CCA0004FF00102C3F8BC283B4BD3F8303A042BB9
:10CCB00004D1394B4FF00102C3F8302A07F1A00329
:10CCC00018464FF0010105F0C1FB07F5E6744FF07F
:10CCD000800002F093F8206007F5E4744FF40060E0
:10CCE00002F08CF8206007F5E2744FF4805002F0F7
:10CCF00085F8206007F5E0744FF4005002F07EF8EC
:10CD00002060254BD3F8BC38012B5DD1224BD3F8E2
:10CD1000303A022B12D107F5E27207F5E07323498E
:10CD200000914FF0070011681A68214B02F0DCFCFB
:10CD30000346012B40F0A28500F08FBD164BD3F8BF
:10CD4000303A032B40F089851A4B1B6807F5E271D6
:10CD500007F5E072164800901448019007F19C0016
:10CD600002904FF007000968126802F091FF034635
:10CD7000012B40F0858500F070BD00BFA81D00208C
:10CD80002CE40F086C4E002034E40F0840E40F0838
:10CD90004CE40F08E04E00206C000020941D0020A1
:10CDA0003C4E0020444E0020744E002068E40F08E2
:10CDB00058E40F088C4E002000007A440000C8425E
:10CDC000000020410000803FB34BD3F8303A012BE4
:10CDD00036D1B14BD3F8BC38022B12D107F5E6722D
:10CDE00007F5E473AD4900914FF0060011681A6829
:10CDF000AB4B02F079FC0346012B40F0438500F079
:10CE00002CBDA54BD3F8BC38032B40F02685A54B91
:10CE10001B6807F5E67107F5E472A14800909F488A
:10CE2000019007F19C0002904FF00600096812681B
:10CE300002F02EFF0346012B40F0268500F00DBDC9
:10CE4000954BD3F8BC38022B40F0CB81924BD3F8F2
:10CE5000303A022B40F0A68107F18802924B14462B
:10CE60001D460FCD0FC42B68236007F174028E4B53
:10CE700014461D460FCD0FC42B682360D7F8983297
:10CE8000002B13D107F5E67207F5E47312681B68EF
:10CE900042EA0303002B09D007F5E67207F5E473B5
:10CEA00012681B6842EA0303C7F89832D7F8943235
:10CEB000002B13D107F5E27207F5E07312681B68C7
:10CEC00042EA0303002B09D007F5E27207F5E0738D
:10CED00012681B6842EA0303C7F8943207F188021C
:10CEE00007F17403D7F89802D7F8941202F0AEF85D
:10CEF00007F1880318464FF0000104F065FB07F1C5
:10CF0000740318464FF0010104F05EFB04F0E2FBED
:10CF1000D7F89832002B00F08184D7F89432002B98
:10CF200000F07E8407F5DE7342F2D0021A6007F546
:10CF3000DC7341F64C521A6007F160034FF00002B7
:10CF40001A6003F104034FF000021A6003F10403B6
:10CF50004FF000021A6003F104034FF000021A6060
:10CF600003F104034FF000021A6003F1040307F118
:10CF70004C034FF000021A6003F104034FF000026B
:10CF80001A6003F104034FF000021A6003F1040376
:10CF90004FF000021A6003F104034FF000021A6020
:10CFA00003F10403D7F89822D7F894329A4240F25A
:10CFB000838007F14C03D7F89402194601F0C0FFB3
:10CFC00007F14C034FF00700D7F894121A4603F00C
:10CFD0001FFB07F16003D7F89802194601F0B0FF74
:10CFE00007F160034FF00600D7F898121A4603F0D5
:10CFF0000FFB294BD3F88C3E022B40F0CE804FF034
:10D0000064004FF0010104F0E1FF07F5DE731B68D7
:10D010004FEA4302254BD21807F5DC731B68104614
:10D020004FF000011A464FF0010305F0A7F84FF04A
:10D03000010007F053F81E4B5A681E4BA3FB021366
:10D040004FEAD30318464FF0000105F05FFC07F5E7
:10D05000DE731B684FEA4302144BD21807F5DC73EA
:10D060001B6810464FF000011A464FF0010305F00F
:10D0700085F84FF0020007F031F80D4B5A6D0D4B5B
:10D08000A3FB02034FEAD30318464FF0000105F05B
:10D090003DFC03F051FD80E06C0000208CE40F08A3
:10D0A0007CE40F08884E002020E50F08345E0E084F
:10D0B000541F0020CDCCCCCC07F14C03D7F89802FC
:10D0C000194601F03DFF07F14C034FF00600D7F879
:10D0D00098121A4603F09CFA07F16003D7F89402FD
:10D0E000194601F02DFF07F160034FF00700D7F854
:10D0F00094121A4603F08CFA4C4BD3F88C3E022B58
:10D100004BD14FF064004FF0010104F05FFF07F5D1
:10D11000DE731B684FEA4302454BD21807F5DC73F8
:10D120001B6810464FF000011A464FF0010305F04E
:10D1300025F84FF0010006F0D1FF3E4B5A6D3E4BF3
:10D14000A3FB02134FEAD30318464FF0000105F08A
:10D15000DDFB07F5DE731B684FEA4302344BD21840
:10D1600007F5DC731B6810464FF000011A464FF0BC
:10D17000010305F003F84FF0020006F0AFFF2D4B5E
:10D180005A682D4BA3FB02034FEAD30318464FF016
:10D19000000105F0BBFB03F0CFFC40F6B83004F013
:10D1A0009DFE78E3214BD3F8303A032B40F05583B2
:10D1B00007F5E67107F5E47207F5E27307F5E0702D
:10D1C0000068009007F19C0001904FF00200096890
:10D1D00012681B6802F0EEFA0346012B40F05683FA
:10D1E0003BE3124BD3F8303A022B27D10F4BD3F845
:10D1F000BC38032B40F0318307F5E67107F5E47284
:10D2000007F5E27307F5E0700068009007F19C00F5
:10D2100001904FF00300096812681B6802F0CAFA17
:10D220000346012B40F0348317E300BF6C0000205D
:10D23000345E0E08541F0020CDCCCCCC944BD3F8D8
:10D24000BC38032B40F00983914BD3F8303A032BC1
:10D2500040F0038307F138028E4B14461D460FCD74
:10D260000FC42B68236007F124028A4B14461D4625
:10D270000FCD0FC42B682360D7F89832002B13D141
:10D2800007F5E67207F5E47312681B6842EA0303C8
:10D29000002B09D007F5E67207F5E47312681B68E6
:10D2A00042EA0303C7F89832D7F89432002B13D11F
:10D2B00007F5E27207F5E07312681B6842EA0303A0
:10D2C000002B09D007F5E27207F5E07312681B68BE
:10D2D00042EA0303C7F8943207F5E6731B68002B94
:10D2E0000ED007F5E4731B68002B09D007F5E27335
:10D2F0001B68002B04D007F5E0731B68002B19D1C5
:10D3000007F1380207F12403D7F89802D7F89412EE
:10D3100001F09CFE07F1380318464FF0000104F0BD
:10D3200053F907F1240318464FF0010104F04CF9BA
:10D3300004F0D0F907F19C031B68002B1CD107F502
:10D34000E6731B68002B04D107F5E4731B68002B00
:10D3500009D107F5E6731B68002B0DD007F5E473C0
:10D360001B68002B08D14C4B1B6803F56A5303F173
:10D37000180307F19C021360D7F89032002B1BD1E1
:10D3800007F5E2731B68002B04D107F5E0731B68F7
:10D39000002B09D107F5E2731B68002B0CD007F5B1
:10D3A000E0731B68002B07D13B4B1B6803F56A53E6
:10D3B00003F11803C7F89032374B1A6807F19C0342
:10D3C0001B689A4216D907F5E6731B68002B04D137
:10D3D00007F5E4731B68002B09D107F5E6731B689A
:10D3E000002B07D007F5E4731B68002B02D14FF028
:10D3F000010301E04FF0000307F5DA721360264BDA
:10D400001A68D7F890329A4216D907F5E2731B686A
:10D41000002B04D107F5E0731B68002B09D107F539
:10D42000E2731B68002B07D007F5E0731B68002B25
:10D4300002D14FF0010301E04FF0000307F5D8726D
:10D44000136007F5DA731B68002B04D107F5D87356
:10D450001B68002B28D011484FF0000104F0E4F8BD
:10D4600007F5DA731B68002B05D00D484FF001015A
:10D4700004F0DAF804E00B484FF0010104F0D4F8AE
:10D4800004F028F94FF47A6004F028FD03E200BFAD
:10D490006C00002020E50F0864000020A0E40F08C5
:10D4A000B0E40F08C4E40F0807F5E6731B68002B0F
:10D4B00000F0B88107F5E4731B68002B00F0C88109
:10D4C00007F5E2731B68002B00F0C48107F5E073D9
:10D4D0001B68002B00F0C08107F120034FF0000211
:10D4E0001A6007F11C034FF000021A6007F11803DD
:10D4F0004FF000021A6007F114034FF000021A60A7
:10D5000007F110034FF000021A6007F10C034FF00F
:10D5100000021A60C44B1B68002B40F0BB81C34B58
:10D520001A6807F5E67007F5E47107F1200307F1C3
:10D530000804009407F11C04019407F118040294F4
:10D540000068096801F0C0FEB94B1A6807F5E2707F
:10D5500007F5E07107F1140307F10404009407F1E3
:10D560001004019407F10C0402940068096801F0AA
:10D57000ABFE07F120031A6807F114031B689A42F7
:10D5800036D907F114031C6807F104031B68184619
:10D590000DF036F9024607F110031B6807F10C0184
:10D5A000096800914FF00700214601F039FF07F1AB
:10D5B00020031C6807F108031B6818460DF020F9CA
:10D5C000024607F11C031B6807F118010968009166
:10D5D0004FF00600214601F023FF96484FF000016E
:10D5E00004F022F894484FF0010104F01DF835E0F2
:10D5F00007F120031C6807F108031B6818460DF0AB
:10D60000FFF8024607F11C031B6807F118010968BF
:10D6100000914FF00600214601F002FF07F11403CC
:10D620001C6807F104031B6818460DF0E9F8024670
:10D6300007F110031B6807F10C01096800914FF016
:10D640000700214601F0ECFE7B484FF0000103F09B
:10D65000EBFF78484FF0010103F0E6FF04F03AF8E1
:10D66000764BD3F88C3E022B40F0D38007F1200399
:10D670001A6807F114031B689A4208D94FF0000397
:10D68000C7F88C324FF00103C7F8883207E04FF03B
:10D690000103C7F88C324FF00003C7F8883207F552
:10D6A000D67342F2D0021A6007F5D47341F64C5299
:10D6B0001A604FF064004FF0010104F087FC07F599
:10D6C000D6731B684FEA43025D4BD21807F5D4733B
:10D6D0001B6810464FF000011A464FF0010304F09A
:10D6E0004DFD4FF0010006F0F9FC5649D7F88C22A9
:10D6F00013464FEA83039B184FEA0313CB1803F139
:10D7000004031A68504BA3FB02134FEAD3031846D5
:10D710004FF0000105F0FAF84C484FF0000140F6D8
:10D72000C7524FF0010304F029FD4649D7F88C2277
:10D7300013464FEA83039B184FEA0313CB1803F1F8
:10D74000080319683F48D7F88C2213464FEA830331
:10D750009B184FEA0313C31803F10C031B68084618
:10D76000194606F03BF907F5D6731B684FEA4302EA
:10D77000334BD21807F5D4731B6810464FF00001E5
:10D780001A464FF0010304F0F9FC4FF0020006F0D6
:10D79000A5FC2C49D7F8882213464FEA83039B182F
:10D7A0004FEA0313CB1803F104031A68264BA3FBBB
:10D7B00002034FEAD30318464FF0000105F0A6F824
:10D7C00022484FF0000140F6C7524FF0010304F029
:10D7D000D5FC1C49D7F8882213464FEA83039B18CF
:10D7E0004FEA0313CB1803F1080319681548D7F85B
:10D7F000882213464FEA83039B184FEA0313C3188A
:10D8000003F10C031B680846194606F0E7F803F01D
:10D8100093F940F6B83004F061FB3CE000BF1CE037
:10D8200000BF1AE000BF18E0444E0020884E0020E0
:10D830008C4E00208E1F0020DE1F00206C00002078
:10D84000345E0E08541F0020CDCCCCCCB8C40F08D9
:10D8500000BF02E000BF00E000BF07F1A0031B68AB
:10D86000B3F5004F17D007F1A0031B68202B12D08F
:10D870002E4B1B68012B7FF421AA0CE000BF0AE0AD
:10D8800000BF08E000BF06E000BF04E000BF02E008
:10D8900000BF00E000BF254B1B68012B0FD04FF0ED
:10D8A000000007F00FFC07F1A00318464FF000013D
:10D8B00004F0CCFD07F1A0034FF000021A6007F559
:10D8C000EA731A681A4BC3F8BC2807F5E8731A689C
:10D8D000174BC3F8302A07F1A0031B68B3F5004FBC
:10D8E00008D007F1A0031B68202B03D00F4B1B6847
:10D8F000012B0FD10F484FF0000103F095FE0E48A9
:10D900004FF0010103F090FE03F0E4FE40F6B83062
:10D9100004F0E4FA094B4FF000021A60084B4FF094
:10D9200002021A6000BFFAF7F9BB00BF444E0020A4
:10D930006C000020D8E40F08E8E40F08744E0020C3
:10D940003C4E002080B588B000AF7860AD4B4FF002
