:020000040800F2
:10000000784D012089010008ED010008ED0100088C
:10001000ED010008ED010008ED01000800000000FE
:10002000000000000000000000000000ED010008DA
:10003000ED01000800000000ED010008ED010008DE
:10004000ED010008ED010008ED010008ED010008D8
:10005000ED010008ED010008ED0100081144000861
:10006000ED010008ED010008ED010008ED010008B8
:10007000ED010008ED010008ED010008ED010008A8
:10008000ED010008ED010008ED010008ED01000898
:10009000ED010008ED010008ED010008ED01000888
:1000A000ED010008ED010008ED010008ED01000878
:1000B000ED010008ED010008ED010008ED01000868
:1000C000ED010008ED010008ED010008ED01000858
:1000D000ED010008ED010008ED010008ED01000848
:1000E000ED010008ED010008ED010008ED01000838
:1000F000ED010008ED010008ED010008ED01000828
:10010000ED010008ED010008ED010008ED01000817
:10011000ED010008ED01000811420008ED010008A2
:10012000ED010008ED010008ED010008ED010008F7
:10013000ED010008ED010008ED010008ED010008E7
:10014000ED010008ED010008ED010008ED010008D7
:10015000ED010008ED010008ED010008ED010008C7
:10016000ED010008ED010008ED010008ED010008B7
:10017000ED010008ED010008ED010008ED010008A7
:10018000ED010008ED01000880B582B000AF124B10
:100190007B60124B3B600BE07B681A683B681A601F
:1001A0003B6803F104033B607B6803F104037B605D
:1001B0003A680B4B9A42EFD30A480B494FF00002C2
:1001C0008842B8BF40F8042BFADB00F023FD07F1AA
:1001D0000807BD4680BD00BF40390108000000206F
:1001E00014000020140000207445012080B400AFEA
:1001F000FEE700BF80B483B000AF0346FB71094B3C
:1002000097F907204FEA5212F97901F01F014FF0D8
:10021000010000FA01F143F8221007F10C07BD4676
:1002200080BC704700E100E090B587B000AF786017
:10023000714B7B614FF000033B6115E004F0E2FC81
:100240000346184607F0A8F9034618466B4907F01D
:10025000F7F903467869194607F0EAF803467B6127
:100260003B6903F101033B613A6942F20F739A4221
:10027000E4DD7869624907F097FA03467B617B69A0
:10028000FB60544B1B684FF00102144618465D4951
:1002900007F074FB0346002B02D14FF000031C460D
:1002A000E3B2002B04D04B4BFA681A60524B8CE03F
:1002B000484B1B68F868194607F0B8F803461A4619
:1002C000454B1B681046194607F0B2F803461A461C
:1002D000414B1A604C48796907F0A8F803464B482F
:1002E000194607F0A3F803461846494907F05CFA97
:1002F00003467B614FF001031C4678693F4907F0D4
:100300005BFB0346002B02D14FF000031C46E3B217
:10031000002B02D04FF0640303E0786907F056FB2E
:1003200003462E4AC2F864394FF001031C46F868B0
:10033000384907F023FB0346002B02D14FF000039E
:100340001C46E3B2002B02D17B68012B3CD1244830
:100350004FF0000103F00AFE22484FF0010103F0C4
:1003600005FE1E4BD3F86439002B17DA1A4B1B68B5
:100370004FF0010214461846274907F01DFB0346BB
:10038000002B02D14FF000031C46E3B2002B19D022
:1003900015484FF0000103F0E9FD13E013484FF05A
:1003A000000103F0E3FD124A0C4BD3F86439104608
:1003B00010491A4606F056F90D4B18464FF0010148
:1003C00003F0D4FD03F028FEFB68184607F11C0774
:1003D000BD4690BD584501205C45012068000020C5
:1003E000B4330108CC330108E4330108F4330108C5
:1003F000E80900200C340108000000000000C84299
:1004000000401C460000803F00C8AF480050C34772
:1004100000007A4400E87D4800401C4580B483B069
:1004200000AF78607B68B3F5006F0FD0B3F5006F55
:1004300002D8802B07D012E0B3F5805F09D0B3F566
:10044000005F09D00BE00A4B1B680AE0094B1B68F0
:1004500007E0094B1B6804E0084B1B6801E04FF004
:100460000003184607F10C07BD4680BC704700BF6B
:100470004045012044450120484501204C450120CC
:1004800080B485B000AFF860B9607A603B60FA680C
:100490002D4BA3FB02134FEA9342BB681A60FA6824
:1004A0002A4BA3FB02134FEA5331294BA3FB012331
:1004B0004FEA531213464FEA03139B1A4FEA830382
:1004C000CA1A7B681A60FA68224BA3FB02134FEA30
:1004D0009311214BA3FB01234FEAD30213464FEAAA
:1004E00083039B184FEA4303CA1A3B681A60FA68F1
:1004F0001A4BA3FB02134FEA5311174BA3FB012323
:100500004FEAD30213464FEA83039B184FEA430393
:10051000CA1ABB691A60FA680F4BA3FB02134FEAB1
:10052000D3010D4BA3FB01234FEAD30213464FEA3D
:1005300083039B184FEA4303CA1AFB691A6007F149
:100540001407BD4680BC7047851DD96F5917B7D1B8
:1005500089888888D34D6210CDCCCCCC1F85EB51D7
:1005600090B58DB004AF786039604FF00003BB6187
:100570004FF000037B614FF000033B614FF000033D
:10058000FB604FF00003BB607B68002B11D1284B50
:100590001B68184607F1180107F1140207F1100350
:1005A00007F10C04009407F108040194FFF768FFB9
:1005B0000EE007F1180107F1140207F1100307F12B
:1005C0000C00009007F1080001907868FFF758FFD1
:1005D0004FF00003FB6109E0FB693A68D3184FF064
:1005E00020021A70FB6903F10103FB61FB69132B05
:1005F000F2DDBB69002B0CD0BA697B693C69F868F5
:10060000B96800940190029138680A4906F02AF806
:1006100009E07A693B69F868B96800900191386827
:10062000054906F01FF807F12407BD4690BD00BF3D
:10063000640000201434010824340108B0B594B0DB
:1006400004AFF860B9607A603B604FF000037B63F1
:100650004FF000033B634FF00003FB624FF00003D9
:10066000BB624FF000037B62844B07F110041D4610
:100670000FCD0FC42B682360FB68002B0CD178686A
:100680007F494FF00A0207F0C7F97B6803F10903BD
:100690004FF020021A700BE078687A494FF0080298
:1006A00007F0BAF97B6803F107034FF020021A70D4
:1006B000BB68002B0CD1386873494FF00A0207F071
:1006C000ABF93B6803F109034FF020021A700BE00D
:1006D00038686E494FF0080207F09EF93B6803F155
:1006E00007034FF020021A70FB68002B11D1684BF2
:1006F0001B68184607F1340107F1300207F12C039B
:1007000007F12804009407F124040194FFF7B8FED0
:100710000EE007F1340107F1300207F12C0307F175
:100720002800009007F124000190F868FFF7A8FE68
:100730007B6B002B0ED07A6B3B6BFD6ABC6A786AD0
:1007400007F110010095019402900846514905F007
:1007500089FF0BE03A6BFB6ABC6A786A07F110010B
:100760000094019008464C4905F07CFF4FF00003CF
:10077000FB6307F11003184607F054FA0346C3F170
:100780001403BB6310E0BB6B7A68D31807F1100148
:10079000FA6B8A1812781A70BB6B03F10103BB6302
:1007A000FB6B03F10103FB63BB6B132BEBDDBB683E
:1007B000002B11D1364B1B68184607F1340107F1A5
:1007C000300207F12C0307F12804009407F12404F8
:1007D0000194FFF755FE0EE007F1340107F13002F6
:1007E00007F12C0307F12800009007F12400019085
:1007F000B868FFF745FE7B6B002B0ED07A6B3B6B26
:10080000FD6ABC6A786A07F11001009501940290B4
:100810000846204905F026FF0BE03A6BFB6ABC6AEC
:10082000786A07F110010094019008461A4905F012
:1008300019FF4FF00003FB6307F11003184607F0A0
:10084000F1F90346C3F11403BB6310E0BB6B3A68D4
:10085000D31807F11001FA6B8A1812781A70BB6B63
:1008600003F10103BB63FB6B03F10103FB63BB6B90
:10087000132BEBDD07F14007BD46B0BDCC330108BB
:10088000303401083C340108443401085034010874
:1008900064000020143401082434010880B483B0BB
:1008A00000AF4FF000037B6040F2E7337B60EAE08B
:1008B0007B6803F1FF32784913464FEA83039B18A4
:1008C0004FEA0313CB18196873487A6813464FEA46
:1008D00083039B184FEA0313C31819607B6803F165
:1008E000FF326D4913464FEA83039B184FEA031307
:1008F000CB1803F10403196867487A6813464FEA76
:1009000083039B184FEA0313C31803F10403196010
:100910007B6803F1FF32604913464FEA83039B185B
:100920004FEA0313CB1803F1080319685A487A6891
:1009300013464FEA83039B184FEA0313C31803F1CE
:10094000080319607B6803F1FF32534913464FEAED
:1009500083039B184FEA0313CB1803F10C031968A8
:100960004D487A6813464FEA83039B184FEA0313F6
:10097000C31803F10C0319607B6803F1FF32464989
:1009800013464FEA83039B184FEA0313CB1803F176
:100990001003198840487A6813464FEA83039B186E
:1009A0004FEA0313C31803F110030A461A804FF0ED
:1009B00000033B6060E07B6803F1FF323649134679
:1009C0004FEA83039B184FEA0313CA183B68D318F6
:1009D00003F11003997830487A6813464FEA83038D
:1009E0009B184FEA0313C2183B68D31803F1100396
:1009F0000A469A707B6803F1FF32274913464FEA93
:100A000083039B184FEA0313CA183B68D31803F1FA
:100A10002003997920487A6813464FEA83039B188C
:100A20004FEA0313C2183B68D31803F120030A46A8
:100A30009A717B6803F1FF32174913464FEA83032B
:100A40009B184FEA0313CA183B68D31803F1380305
:100A5000997811487A6813464FEA83039B184FEA46
:100A60000313C2183B68D31803F138030A469A707F
:100A70003B6803F101033B603B68132B9BDD7B6804
:100A800003F1FF337B607B68002BBFF611AF07F1EA
:100A90000C07BD4680BC7047980C002090B585B00F
:100AA00000AF78603960FFF7F9FE294B1B6803F14E
:100AB0000102274B1A60264B1B68B3F57A7F34BFBF
:100AC0001A464FF47A72224B1A60224B1B6803F1CC
:100AD0000102204B1A601F4B1A681F4B9A4202D822
:100AE0001C4B1B6801E04FF001031A4A1360194BBD
:100AF0001A681A4B1A60194B7A685A60174B4FF0F4
:100B000000029A60154B4FF00002DA604FF00003CC
:100B1000FB600DE0FB683A68D3181A780F49FB6850
:100B2000CB1803F110039A70FB6803F10103FB601B
:100B3000FC68386807F076F803469C42EAD3084B15
:100B40001846084904F07AF807F11407BD4690BD2D
:100B5000184501201C45012040420F00980C002040
:100B600028060020AA0C0020B0B588B000AF78603D
:100B70003960264B07F108041D460FCD0FC42B68C2
:100B800023604FF00003FB617B68002B08D07B687B
:100B9000FB6107F10803F8691946FFF7E1FC0AE079
:100BA0003B68002B07D03B68FB6107F10803F8693D
:100BB0001946FFF7D5FC16484FF0000103F0D6F9AF
:100BC00007F1080318464FF0010103F0CFF903F0D5
:100BD00023FA07F10803F8691946FFF75FFF4FF0A2
:100BE00064004FF0000103F0B1FCF8694FF0000120
:100BF00004F042F84FF001004FF0000103F0A6FCB2
:100C000002F0E4FF07F12007BD46B0BDCC33010878
:100C100058340108B0B5DAB004AF05F06FFE03F048
:100C20006FFA02F0C7FF02F091FD02F0E3FF04F05B
:100C30002DF84FF00100FFF7F7FAB94BC44A1A60DC
:100C4000B84BC34A1A6002F0C1FFB7484FF0080121
:100C500005F0F0FDB54803F09DFEB44803F09AFEA0
:100C600000E000BFB24B1B68032BFAD801A050F87C
:100C700023F000BF850C0008790D0008CD0D000899
:100C8000BD2A00084FF00000FFF7CEFA03464FF0F0
:100C9000010214461846AF4906F070FE0346002BC9
:100CA00002D14FF000031C46E3B2002B05D0A04B4D
:100CB0004FF001021A6002F082BB44F2FF1003F011
:100CC00013FC4FF0380003F00FFC41F2320003F048
:100CD0000BFC41F2320003F007FC96484FF0010193
:100CE00005F09AFD40F2145003F0B8FB92484FF023
:100CF000000103F03BF991484FF0010103F036F990
:100D000003F08AF94FF064004FF0010103F01EFC7C
:100D10008B484FF0000144F2A5124FF0010303F09D
:100D2000EDFC4FF064004FF0010103F00FFC02F006
:100D30004DFF844BD3F884374FEAC313824A82FBBA
:100D400003124FEA62124FEAE373D31AC7F82C3149
:100D5000D7F82C319BB243F480539BB29BB2184618
:100D600003F0C2FB4FF4966003F078FB704B4FF03A
:100D700002021A6002F023BB694B754A1A60694B84
:100D8000734A1A604FF4805003F0AEFB4FF000003E
:100D900003F0AAFB00BF4FF00100FFF745FA03463E
:100DA0004FF00102144618466B4906F0E7FD034672
:100DB000002B02D14FF000031C46E3B2002BEAD116
:100DC0005B4B4FF000021A6002F0F9BA4FF00003DB
:100DD000C7F8283101F06BBE5C4B1A6813464FEA26
:100DE00003139B1A4FEA031303F10802554BD31860
:100DF00003F1040318464FF0000103F0B7F8534B1A
:100E00001A6813464FEA03139B1A4FEA031303F1C0
:100E100020024C4BD31818464FF0010103F0A6F8FE
:100E200003F0FAF803F0EEFE024640F627239A425A
:100E300004DC3F4B4FF001021A608EE1434B1B680C
:100E40000A2B40F0B280424BC7F854314FF00003F8
:100E5000C7F8503119E003F0D5FE0346184606F0F6
:100E60009BFB034618463D4906F0EAFB0346D7F8CC
:100E70005401194606F0DCFA0346C7F85431D7F896
:100E8000503103F10103C7F85031D7F8502140F237
:100E9000CF739A42DFDDD7F85401314906F084FC64
:100EA0000346C7F854312F48D7F8541106F0BEFA5C
:100EB00003462D48194606F0B9FA034618462B4951
:100EC00006F072FC0346C7F854314FF001031C468C
:100ED000D7F85401214906F06FFD0346002B02D1DB
:100EE0004FF000031C46E3B2002B01D01B4B01E086
:100EF000D7F85431C7F854314FF001031C46D7F8E6
:100F00005401134906F03AFD0346002B02D14FF07D
:100F100000031C46E3B2002B2AD00D4B2AE000BF91
:100F2000584501205C450120000002406C4501202D
:100F30002045012000080240683401087C34010883
:100F4000847C0008680000201F85EB51704501205B
:100F50000000000000E87D48004786480000C842C5
:100F60000000FA4400C8AF480050C34700007A446C
:100F7000D7F85431C7F85431D7F8540106F026FD9C
:100F800002469B4BC3F864299A4A994BD3F86439BB
:100F9000104699491A4605F065FB964B18464FF0E6
:100FA000010102F0E3FF03F037F8944803F0F2FC8C
:100FB000C7F82801D7F82831002B04D18F4B1B68C4
:100FC000002B00F0BE808E4B1A68D7F82831D2185B
:100FD0008B4B1A608A4B1B680D2B06D1884B1B6804
:100FE00003F1FF32864B1A6007E0854B1B68002B2C
:100FF00003DA834B4FF000021A60814B1B68012B10
:101000001AD17B4BD3F8443B012B08D0784BD3F853
:10101000443B032B03D07B4B1B68012B0CD1D7F82F
:101020002831002B04DD764B4FF002021A6003E0FA
:10103000734B4FF000021A60714B1B680C2B07D1E9
:10104000704B1B68012B03D16D4B4FF00B021A60E4
:10105000D7F82831002B25D0694B1A6813464FEA80
:1010600003139B1A4FEA031303F10802604BD318D2
:1010700003F1040318464FF0000102F077FF604BC4
:101080001A6813464FEA03139B1A4FEA031303F13E
:101090002002574BD31818464FF0010102F066FFAB
:1010A00002F0BAFF524BD3F8C433042B08D1534B90
:1010B0001B68802B13D0514B1B68B3F5006F0ED00B
:1010C0004B4BD3F8B434042B0ED14C4B1B68B3F507
:1010D000805F04D0494B1B68B3F5005F04D1484BD7
:1010E0004FF000021A6016E0444B1B68802B0ED0B4
:1010F000424B1B68B3F5006F09D0404B1B68B3F53A
:10110000805F04D03D4B1B68B3F5005F03D13B4BC0
:101110004FF000021A60364BD3F8543A012B17D126
:10112000364B1B68012B0ED0344B1B68102B0CD098
:10113000324B1B68202B0AD0304B1B68B3F5807FE5
:1011400006E000BF04E000BF02E000BF00E000BF17
:101150002A4B1B68002B3FF465AE284B1B68012B04
:1011600004D1274B4FF000021A6090E0234B1B681C
:10117000102B01F09184214B1B68202B0FD1214BA8
:101180001B68002B41F08A84194BD3F8443B022B97
:1011900041F086841A4B4FF001021A6077E0174B3A
:1011A0001B68B3F5807F6CD1114BD3F88437C7F837
:1011B0002431D7F82431092B05DC0D4B4FF00A02FE
:1011C000C3F8842739E0D7F82431132B05DC084B0A
:1011D0004FF01402C3F884272FE0D7F82431272BCF
:1011E00012DC034B4FF02802C3F8842725E000BF30
:1011F00068000020E80900200C3401086C4501203B
:10120000704501203C450120D7F824313B2B05DCFB
:10121000B84B4FF03C02C3F884270EE0D7F82431D6
:101220004F2B05DCB34B4FF05002C3F8842704E08A
:10123000B04B4FF00A02C3F88427AF4AAD4BD3F846
:1012400084371046AD491A4605F00CFAA94BD3F87D
:1012500084374FEAC313AA4A82FB03024FEA6212A1
:101260004FEAE373D31AC7F82031D7F820319BB285
:1012700043F480539BB29BB2184603F035F901F05A
:101280001BBCA04B1B68002B01D003F0A9FC9E4B9C
:101290001B680C2B01F20B8401A151F823F000BF55
:1012A000D512000869140008BB1400087317000861
:1012B000211A0008211A00087D1D00086529000870
:1012C000A1260008B3270008AF2A0008C328000899
:1012D000B52900088B4B1B68B3F5004F05D0854B33
:1012E000D3F8543A012B01F0DD83824BD3F8443B11
:1012F000022B15D1854B1B68002B11D184484FF070
:10130000000102F033FE83484FF0010102F02EFE8F
:1013100002F082FE40F6B83003F0A0F801F0C7BB3F
:10132000744BD3F8443B032B11D17B484FF00001A1
:1013300002F01CFE79484FF0010102F017FE02F0A6
:101340006BFE40F6B83003F089F801F0B0BB74488A
:101350004FF0000102F00AFE724B07F1B8041D467F
:101360000FCD0FC42B682360624BD3F8E43142F2F7
:10137000107202FB03F26C4B1B68D31803F51C536D
:1013800003F11003C7F81C313AE0674B1B68D7F82C
:101390001C21D21A654BA3FB02034FEA5333C7F853
:1013A0001831D7F81831002B32D0D7F81831012B6B
:1013B00008DD07F1B80318465D49D7F8182105F094
:1013C00051F907E007F1B80318465A49D7F8182130
:1013D00005F048F9474BD3F8E431002B08DD07F15D
:1013E000B80318464FF0010102F0C0FD02F014FEF0
:1013F000444803F0CFFA434B1B68B3F5004F09D0C4
:10140000494B1B681A46D7F81C319A42BDD302E0FB
:1014100000BF00E000BF43484FF0000102F076FD3E
:1014200040484FF0010102F071FD02F0F5FD01F0BE
:10143000CFFF304BD3F8C433022B0FD02D4BD3F852
:10144000C433032B0AD02B4BD3F8B434022B05D072
:10145000284BD3F8B434032B41F02683364B4FF09E
:1014600003021A6001F023BB224BD3F8443B022B4A
:1014700041F01C8331484FF0000102F077FD304805
:101480004FF0010102F072FD02F0C6FD2D484FF051
:10149000040105F0C1F92B484FF0020105F0BCF939
:1014A0001A4B4FF001021A6003F01CFA164B4FF072
:1014B00000021A6001F0FBBA00BF0E4BD3F8E43112
:1014C000002B07D1204B184620494FF00D0206F0A3
:1014D000A3FA60E0074BD3F8E431012B3AD11A4A62
:1014E000044BD3F8E431104619491A4605F0BAF80E
:1014F00051E000BF68000020080800200C340108FB
:101500001F85EB516C450120704501203C450120B1
:1015100090340108A0340108AC340108BC3401083F
:10152000C8340108CC330108640000205917B7D132
:10153000DC340108E8340108204501206401002062
:10154000F43401080000024068020020043501085C
:1015500014350108AF4BD3F8E431772B09DCAE4AE0
:10156000AC4BD3F8E4311046AC491A4605F07AF892
:1015700011E0A94AA74BD3F8E431A94981FB030143
:10158000C9184FEA61114FEAE373CB1A1046A54917
:101590001A4605F067F8A04B18464FF0010102F01B
:1015A000E5FC02F039FDA04803F0F4F9C7F8280182
:1015B000D7F82831002B03D19B4B1B68002BF2D0AE
:1015C000D7F82831002B00F08B80924BD3F8E43110
:1015D0003B2B09DC8F4BD3F8E421D7F82831D21804
:1015E0008C4BC3F8E4216FE08A4BD3F8E4313C2BF9
:1015F0001DD1D7F82831002B09DA864BD3F8E42126
:10160000D7F82831D218834BC3F8E4215CE0814B32
:10161000D3F8E411D7F8282113464FEA83039B1827
:101620004FEA4303CA187B4BC3F8E4214CE0794BE3
:10163000D3F8E431782B23D1D7F82831002B0FDAF7
:10164000744BD3F8E411D7F8282113464FEA8303EB
:101650009B184FEA4303CA186E4BC3F8E42133E0EA
:101660006C4BD3F8E411D7F8282113464FEA031343
:101670009B1A4FEA8303CA18664BC3F8E42123E0A0
:10168000644BD3F8E431772B0FDD624BD3F8E411D0
:10169000D7F8282113464FEA03139B1A4FEA830316
:1016A000CA185C4BC3F8E4210EE05A4BD3F8E4119E
:1016B000D7F8282113464FEA83039B184FEA4303C8
:1016C000CA18544BC3F8E421524BD3F8E431002B31
:1016D000BFF6F2AE4F4B4FF00002C3F8E421ECE648
:1016E00003F07EFA4B4BD3F8E431002B07D14A4B81
:1016F00018464E494FF0090206F08EF92FE0454B8F
:10170000D3F8E431012B09D1434A424BD3F8E431F9
:10171000104647491A4604F0A5FF20E03D4BD3F898
:10172000E431772B09DC3C4A3A4BD3F8E4311046DC
:1017300040491A4604F096FF11E0374A354BD3F87A
:10174000E431374981FB0301C9184FEA61114FEABF
:10175000E373CB1A104638491A4604F083FF2E4B28
:1017600018464FF0010102F001FC02F055FC01F0B7
:101770009EB9284BD3F8D432C7F81431D7F81431B6
:10178000772B25D8D7F81431002B07D12B4B1846CF
:101790002B494FF0080206F03FF912E0D7F8143158
:1017A000632B07D8254B18462649D7F8142104F097
:1017B00059FF06E0214B18462349D7F8142104F0BD
:1017C00051FF1E4B18464FF0010102F0CFFBA5E080
:1017D000D7F81431EF2B5AD8D7F81431782B07D11A
:1017E000164B184619494FF00F0206F015F93BE069
:1017F000D7F81431A3F17803632B2BD80F4AD7F80D
:101800001431A3F17803104611491A4604F02AFF57
:101810002AE000BF6800002068020020243501088B
:1018200089888888343501086C45012044350108D1
:10183000E8340108DC340108503501085803002061
:101840005C350108643501087435010884350108E8
:1018500094350108A44AD7F81431A3F1780310464F
:10186000A2491A4604F0FEFEA14B4FF0010283F894
:10187000F0229D4B184606F0D5F9034603F1FF33DD
:101880009B4AD3184FF0020283F8F02246E0D7F8C3
:10189000142140F267139A4239D8D7F81431F02B4B
:1018A00007D1914B184693494FF00F0206F0B4F858
:1018B0001AE0D7F81431A3F1F003632B0AD88A4A4F
:1018C000D7F81431A3F1F00310468B491A4604F0FF
:1018D000C9FE09E0844AD7F81431A3F1F003104699
:1018E00086491A4604F0BEFE814B4FF0010283F890
:1018F000F0227D4B184606F095F9034603F1FF33BD
:101900007B4AD3184FF0020283F8F02206E0764BB0
:1019100018467B494FF00A0206F07EF8724B1846D3
:101920004FF0010102F022FB02F076FB754803F054
:1019300031F8C7F82801D7F82831002B03D1714BB3
:101940001B68002BF2D0D7F82831002B2DD0684B24
:10195000D3F8D412D7F8282113464FEA83039B18F3
:101960004FEA4303CA18624BC3F8D422604BD3F842
:10197000D432002B05DA5E4B4FF00002C3F8D422BC
:101980000AE05B4BD3F8D432B3F5B47F04DD584B97
:101990004FF4B472C3F8D422534B18464FF00101F0
:1019A00002F0E4FA02F038FBE3E603F019F94FF035
:1019B0000003C7F84C3120E04D4AD7F84C31D3181A
:1019C00003F53C731B78012B08D0494AD7F84C31FA
:1019D000D31803F53C731B78022B08D1444AD7F87F
:1019E0004C31D31803F53C734FF020021A70D7F82E
:1019F0004C3103F10103C7F84C31D7F84C413A4B55
:101A0000184606F00FF903469C42D5D3364B1846CC
:101A10004FF0010102F0AAFA02F0FEFA01F047B815
:101A2000394B1A6813464FEA03139B1A4FEA031304
:101A300003F120022E4BD3181946334B1A682C4859
:101A400013464FEA03139B1A4FEA0313C31803F11B
:101A500004031B681A4613464FEA83039B184FEA98
:101A60008303CB1818464FF0010102F07FFA02F011
:101A7000D3FA244802F08EFFC7F82801D7F828319E
:101A8000002B03D11F4B1B68002BF2D0D7F8283155
:101A9000002B00F0AE801C4B1A68154913464FEA24
:101AA00003139B1A4FEA0313CB1803F1EC031A68D4
:101AB000D7F82831D318C7F81031134B1A680C49DE
:101AC00013464FEA03139B1A4FEA0313CB1803F193
:101AD000E8031A68D7F810319A4200DA4DE1D7F8D6
:101AE0001031002B12DC48E158030020AC3501080E
:101AF00068000020C0350108D0350108E83501082C
:101B0000FC3501086C45012070450120A44B1A6882
:101B1000A44913464FEA03139B1A4FEA0313CB1849
:101B200003F1EC03D7F810211A60D7F8103103F154
:101B3000FF33042B5CD801A151F823F0511B00089E
:101B4000711B0008911B0008B11B0008D11B000885
:101B5000934B1A68934913464FEA03139B1A4FEAB3
:101B60000313CB1803F104034FF001021A603FE0A6
:101B70008B4B1A688B4913464FEA03139B1A4FEAA3
:101B80000313CB1803F104034FF002021A602FE095
:101B9000834B1A68834913464FEA03139B1A4FEA93
:101BA0000313CB1803F104034FF003021A601FE084
:101BB0007B4B1A687B4913464FEA03139B1A4FEA83
:101BC0000313CB1803F104034FF004021A600FE073
:101BD000734B1A68734913464FEA03139B1A4FEA73
:101BE0000313CB1803F104034FF005021A6000BF82
:101BF000C3E002F0F5FF6A4B1A686A4913464FEAE0
:101C000003139B1A4FEA0313CB1803F104031B6859
:101C1000052B40F0868064484FF0000102F0A6F9E1
:101C200002E000BF00E000BF5D4B1A6813464FEAB8
:101C300003139B1A4FEA031303F12002594BD318E5
:101C40001946574B1A68574813464FEA03139B1A15
:101C50004FEA0313C31803F108031B6808465349EE
:101C60001A4604F0FFFC4E4B1A6813464FEA031362
:101C70009B1A4FEA031303F120024A4BD31818466C
:101C80004FF0010102F072F902F0C6F9484802F083
:101C900081FEC7F82801D7F82831002B03D1444B27
:101CA0001B68002BF2D0D7F82831002B36D03C4BE4
:101CB0001A683C4913464FEA03139B1A4FEA031371
:101CC000CB1803F108031A68D7F82831D318C7F8DE
:101CD0000C31D7F80C31002BA3DBD7F80C31782B63
:101CE000A1DC2F4B1A682F4913464FEA03139B1AA6
:101CF0004FEA0313CB1803F10803D7F80C211A603D
:101D0000274B1B68042B04D1D7F80C21294B1A60F0
:101D10008AE7D7F80C21284B1A6085E702F060FFAC
:101D20002BE01F4B19681E4B1A681E4813464FEADA
:101D300003139B1A4FEA0313C31803F104031B6830
:101D4000084619464FF000024FF0010303F042FB32
:101D5000134B1A6813464FEA03139B1A4FEA0313F7
:101D600003F120020F4BD31818464FF0010102F087
:101D7000FDF802F051F900F09ABE51E60F4B1B68D6
:101D8000002B21D10E4B18460E4902F057FF0D488B
:101D90004FF0010102F0EAF802F03EF900F087BED0
:101DA0007045012068000020083601081836010837
:101DB0006C45012050450120544501201845012063
:101DC0002806002028360108BD4B07F1A4041D4653
:101DD0000FCD0FC42B682360B94B07F190041D464B
:101DE0000FCD0FC42B682360B64A07F1880392E831
:101DF0000300186003F104031980B34A07F17C0360
:101E000007CA03C31A80B14BD3F8A435C7F8083109
:101E1000AE4BD3F8A43503F10103C7F80431AC4944
:101E2000D7F8082113464FEA83039B184FEA0313A0
:101E3000CB181B6807F188021046A6491A4604F021
:101E400011FC4FF00003C7F8483111E007F1880298
:101E5000D7F84831D3181A7807F1A401D7F84831D8
:101E6000CB181A70D7F8483103F10103C7F848318D
:101E700007F18803184605F0D5FE0246D7F8483129
:101E80009A42E3D89249D7F8082113464FEA8303D0
:101E90009B184FEA0313CB1803F110031B88002B88
:101EA00040F0CA808A49D7F8042113464FEA8303D9
:101EB0009B184FEA0313CB1803F110031B88002B68
:101EC00000F0BA80D7F8082113464FEA83039B1825
:101ED0004FEA031303F110027D4BD31803F1020301
:101EE00007F17C021046194605F03EFE4FF0000354
:101EF000C7F8483107F17C03184605F093FE034606
:101F0000C3F11203C7F8443117E007F17C02D7F898
:101F10004831D3181A7807F1A401D7F84431CB1807
:101F20001A70D7F8443103F10103C7F84431D7F8E8
:101F3000483103F10103C7F84831D7F84431132B76
:101F4000E3D94FF0200387F8B6306149D7F8042170
:101F500013464FEA83039B184FEA0313CB181B6801
:101F600007F1880210465B491A4604F07BFB4FF0EC
:101F70000003C7F8483111E007F18802D7F848316B
:101F8000D3181A7807F19001D7F84831CB181A7096
:101F9000D7F8483103F10103C7F8483107F1880346
:101FA000184605F03FFE0246D7F848319A42E3D87A
:101FB000D7F8042113464FEA83039B184FEA031313
:101FC00003F11002424BD31803F1020307F17C0224
:101FD0001046194605F0C8FD4FF00003C7F8483118
:101FE00007F17C03184605F01DFE0346C3F11203FA
:101FF000C7F8443117E007F17C02D7F84831D3180D
:102000001A7807F19001D7F84431CB181A70D7F835
:10201000443103F10103C7F84431D7F8483103F1E3
:102020000103C7F84831D7F84431132BE3D94FF0F7
:10203000200387F8A230FDE12549D7F8082113468F
:102040004FEA83039B184FEA0313CB1803F11003E5
:102050001B88002B40F0FC801D49D7F80421134653
:102060004FEA83039B184FEA0313CB1803F11003C5
:102070001B88002B40F0EC80D7F8082113464FEA6C
:1020800083039B184FEA031303F11002104BD3187C
:1020900003F1020307F17C021046194605F064FDC6
:1020A0004FF00003C7F8483107F17C03184605F0EC
:1020B000B9FD0346C3F11203C7F8443124E000BF61
:1020C000CC330108E8360108F0360108680000202A
:1020D000980C00203436010807F17C02D7F848310B
:1020E000D3181A7807F1A401D7F84431CB181A7025
:1020F000D7F8443103F10103C7F84431D7F8483128
:1021000003F10103C7F84831D7F84431132BE3D961
:102110004FF0200387F8B630BA49D7F804211346A8
:102120004FEA83039B184FEA0313CB181B68002B5D
:1021300076D0B449D7F8042113464FEA83039B189D
:102140004FEA0313CB181B6807F188021046AE490B
:102150001A4604F087FA4FF00003C7F8483111E03F
:1021600007F18802D7F84831D3181A7807F190019F
:10217000D7F84831CB181A70D7F8483103F101036A
:10218000C7F8483107F18803184605F04BFD0246B1
:10219000D7F848319A42E3D8D7F8042113464FEADA
:1021A00083039B184FEA031303F11002954BD318D6
:1021B00003F1020307F17C021046194605F0D4FC36
:1021C0004FF00003C7F8483107F17C03184605F0CB
:1021D00029FD0346C3F11203C7F8443117E007F1A4
:1021E0007C02D7F84831D3181A7807F19001D7F854
:1021F0004431CB181A70D7F8443103F10103C7F802
:102200004431D7F8483103F10103C7F84831D7F812
:102210004431132BE3D94FF0200387F8A23009E1B2
:102220004FF00003C7F848310DE007F19002D7F8EE
:102230004831D3184FF020021A70D7F8483103F113
:102240000103C7F84831D7F84831132BEDD9F1E035
:102250006C49D7F8082113464FEA83039B184FEACD
:102260000313CB1803F110031B88002B00F08180AF
:10227000D7F8082113464FEA83039B184FEA03134C
:1022800003F110025F4BD31803F1020307F17C0244
:102290001046194605F068FC4FF00003C7F84831B6
:1022A00007F17C03184605F0BDFC0346C3F1120399
:1022B000C7F8443117E007F17C02D7F84831D3184A
:1022C0001A7807F1A401D7F84431CB181A70D7F85F
:1022D000443103F10103C7F84431D7F8483103F121
:1022E0000103C7F84831D7F84431132BE3D94FF035
:1022F000200387F8B63007F19003184643494FF0A2
:10230000070205F089FB4FF0200387F89630D7F8D5
:10231000082113464FEA83039B184FEA031303F186
:102320002002384BD31803F10603184605F07AFC57
:102330000346C3F11203C7F8443107F19002D7F8FE
:102340004431D118D7F8082113464FEA83039B186C
:102350004FEA031303F120022A4BD31803F10603BB
:102360000846194605F000FC4FF0200387F8A2301C
:1023700060E0D7F8082113464FEA83039B184FEA21
:10238000031303F110021F4BD31803F1020307F1EB
:102390007C021046194605F0E7FB4FF00003C7F832
:1023A000483107F17C03184605F03CFC0346C3F1B5
:1023B0001203C7F8443117E007F17C02D7F848311F
:1023C000D3181A7807F1A401D7F84431CB181A7042
:1023D000D7F8443103F10103C7F84431D7F8483145
:1023E00003F10103C7F84831D7F84431132BE3D97F
:1023F0004FF0200387F8B6304FF00003C7F848319C
:1024000014E000BF980C002034360108383601086B
:1024100007F19002D7F84831D3184FF020021A7014
:10242000D7F8483103F10103C7F84831D7F84831EC
:10243000132BEDD9964B1B68012B00F0DB80944BDE
:102440001B68032B26D9D7F8083103F1FF329149D5
:1024500013464FEA83039B184FEA0313CB181B68FC
:10246000002B17D0D7F8043103F101028949134634
:102470004FEA83039B184FEA0313CB181B68002B0A
:1024800008D04FF0030387F8B7304FF0040387F804
:10249000A330AFE07E4B1B68022B0CD1D7F808317C
:1024A000002B08D17B4B1B8A002B04D04FF0040378
:1024B00087F8A3309EE0D7F80821754B1B689A4235
:1024C00005D0D7F80421724B1B689A4213D1714989
:1024D000D7F8082113464FEA83039B184FEA0313EA
:1024E000CB1803F110031B88002B04D04FF003031B
:1024F00087F8B7307EE0664B1B68022B1BD9D7F8F4
:102500000831002B17DD6349D7F8082113464FEA3D
:1025100083039B184FEA0313CB1803F110031B88A6
:10252000002B08D04FF0030387F8B7304FF00403B7
:1025300087F8A3305EE0D7F80831002B15D1554954
:10254000D7F8042113464FEA83039B184FEA03137D
:10255000CB181B68002B08D04D4B1B68022B04D0F6
:102560004FF0040387F8A33044E0D7F80831002B7C
:1025700003D1D7F80431012B3CD0D7F80421D7F888
:1025800008319A420EDDD7F8083103F1FF32414994
:1025900013464FEA83039B184FEA0313CB181B68BB
:1025A000002B16D13A4B1B6803F1FF32D7F80831E4
:1025B0009A4213D1364B1B68A3F1020235491346E8
:1025C0004FEA83039B184FEA0313CB181B68002BB9
:1025D00004D04FF0030387F8B7300BE0D7F8083189
:1025E000002B07D12B4B1B6D002B03D04FF00403A6
:1025F00087F8A33007F1A40318464FF0000101F05B
:1026000085FC07F1900318464FF0010101F07EFCB4
:1026100001F002FD204802F0BDF9C7F82801D7F803
:102620002831002B03D11C4B1B68002BF2D0D7F8AC
:102630002831002B28D0194BD3F8A425D7F82831FE
:10264000D31AC7F80031D7F80031002B0ADBD7F8CE
:1026500000210F4B1B689A4204D2104BD7F800217F
:10266000C3F8A42507F1A40318464FF0000101F0B8
:102670004DFC07F1900318464FF0010101F046FCB4
:1026800001F0CAFCFFF7A0BB02F0AAFA0FE200BFFC
:1026900018450120980C00206C450120680000209E
:1026A000B94ABA4BD3F884371046B9491A4603F0F1
:1026B000D9FFB84B1A6813464FEA03139B1A4FEA27
:1026C000031303F12002B14BD31818464FF0010158
:1026D00001F04CFC01F0A0FCAF4802F05BF9C7F838
:1026E0002801D7F82831002B03D1AB4B1B68002BF6
:1026F000F2D0D7F82831002B3CD0A44BD3F8842754
:10270000D7F82831D218A14BC3F884279F4BD3F8B0
:102710008437C7F84031D7F84031642B03DD4FF0E0
:102720006403C7F84031D7F84031002B03DA4FF08B
:102730000003C7F84031954BD7F84021C3F88427F0
:10274000924BD3F884374FEAC313944A82FB0302B7
:102750004FEA62124FEAE373D31AC7F8FC30D7F896
:10276000FC309BB243F480539BB29BB2184601F0FD
:10277000BBFE95E702F034FA834A844BD3F88437E2
:10278000104687491A4603F06DFF824B1A681346BC
:102790004FEA03139B1A4FEA031303F120027B4B0A
:1027A000D31818464FF0010101F0E0FB01F034FCB2
:1027B0007DE17C4A754BD3F87438104674491A464B
:1027C00003F050FF734B1A6813464FEA03139B1A2A
:1027D0004FEA031303F120026C4BD31818464FF055
:1027E000010101F0C3FB01F017FC6B4802F0D2F8C5
:1027F000C7F82801D7F82831002B03D1664B1B6896
:10280000002BF2D0D7F82831002B38D05F4BD3F80B
:102810007428D7F82831D2185C4BC3F874285B4B66
:10282000D3F87438C7F83C31D7F83C31642B03DD5A
:102830004FF06403C7F83C31D7F83C31002B03DA82
:102840004FF00003C7F83C31504BD7F83C21C3F898
:1028500074284E4BD3F874384FEAC3134F4A82FBA7
:1028600003124FEA62124FEAE373D31AC7F8F83043
:10287000D7F8F8309BB2184601F036FE99E702F01F
:10288000AFF9484A414BD3F87438104644491A46C8
:1028900003F0E8FE3F4B1A6813464FEA03139B1AF6
:1028A0004FEA031303F12002384BD31818464FF0B8
:1028B000010101F05BFB01F0AFFBF8E000BF00E0BD
:1028C00000BF3949314BD3F8543A1A4613464FEA00
:1028D00083039B184FEA8303CB1818464FF001017E
:1028E00001F044FB01F098FB2B4802F053F8C7F8C5
:1028F0002801D7F82831002B03D1274B1B68002B68
:10290000F2D0D7F82831002B15D0204BD3F8542A19
:10291000D7F82831D318C7F8F430D7F8F430002BA3
:10292000CCDDD7F8F430022BCADC184BD7F8F420F2
:10293000C3F8542AC5E702F053F9144BD3F8543ABC
:102940004FF00B0019464FF000024FF0010302F068
:1029500041FD154B18464FF0010101F007FB01F056
:102960005BFBA4E0114A094BD3F89436104610499A
:102970001A4603F077FE0D4B18464FF0010101F0A7
:10298000F5FA01F049FB92E00808002068000020F9
:1029900040360108704501206C4501201F85EB5130
:1029A0000C340108F8080020D80A0020180700207D
:1029B0004C3601088749884BD3F8443B1A461346E6
:1029C0004FEA83039B184FEA8303CB1818464FF056
:1029D000010101F0CBFA01F01FFB804801F0DAFFA2
:1029E000C7F82801D7F82831002B03D17B4B1B688F
:1029F000002BF2D0D7F82831002B35D0764BD3F806
:102A00002C2CD7F82831D318C7F8F030724BD3F8F4
:102A1000282CD7F8F0309A4200DA3CE0D7F8F030B2
:102A2000002B00DC37E06C4BD7F8F020C3F82C2CDF
:102A3000D7F8F030022B0AD0032B0ED0012B00D098
:102A400011E0654B4FF00102C3F8442B0BE0624BE1
:102A50004FF00202C3F8442B05E05F4B4FF0030236
:102A6000C3F8442B00BF16E002F0BAF85A4BD3F873
:102A7000443B4FF00C0019464FF000024FF00103A9
:102A800002F0A8FC534B18464FF0010101F06EFA1A
:102A900001F0C2FA0BE08DE700BF08E000BF06E0DE
:102AA00000BF04E000BF02E000BF00E000BF4C4BED
:102AB0001B68022B3EF490A900F081BC4FF000038C
:102AC000BB674FF00003C7F838314FF00003C7F879
:102AD000343107F17803184601F05CFF4FF08000B5
:102AE000FDF79CFCC7F8EC004FF40060FDF796FC86
:102AF000C7F8E8004FF48050FDF790FCC7F8E400F9
:102B00004FF40050FDF78AFCC7F8E000354B07F1A1
:102B100064041D460FCD0FC42B6823602E4BD3F8E1
:102B2000C433012B29D12C4BD3F8B434022B40F001
:102B3000F883D7F8E430002B13D1D7F8E030002B1E
:102B40000FD129484FF0000101F010FA274B1B6804
:102B500018464FF0010101F06BFE01F05DFA00F044
:102B600002BCD7F8E400D7F8E010FDF7FDFF4FF402
:102B7000FA6001F073FC00F002BC174BD3F8B434D8
:102B8000012B37D1144BD3F8C433022B40F0EB8325
:102B9000D7F8EC30002B12D1D7F8E830002B0ED14B
:102BA00013484FF0000101F0E1F9104B1B68184683
:102BB0004FF0010101F03CFE01F02EFAD3E3D7F80B
:102BC000EC00D7F8E810FDF7CFFF4FF4FA6001F002
:102BD00045FCD4E3C80B0020680000206C450120B0
:102BE00020450120CC330108503601086400002044
:102BF000603601086F4BD3F8C433022B40F0738367
:102C00006C4BD3F8B434022B40F0A28007F1500291
:102C1000694B14461D460FCD0FC42B68236007F186
:102C20003C02654B14461D460FCD0FC42B68236034
:102C3000D7F83831002B0FD1D7F8EC20D7F8E8308F
:102C400042EA0303002B07D0D7F8EC20D7F8E8308E
:102C500042EA0303C7F83831D7F83431002B0FD1DB
:102C6000D7F8E420D7F8E03042EA0303002B07D07E
:102C7000D7F8E420D7F8E03042EA0303C7F834314C
:102C800007F1500207F13C03D7F83801D7F83411A7
:102C9000FDF7D4FC07F1500318464FF0000101F096
:102CA00035F907F13C0318464FF0010101F02EF908
:102CB00001F0B2F9D7F83831002B00F03483D7F89F
:102CC0003431002B00F03183D7F83821D7F8343174
:102CD0009A421CD907F16403D7F834011946FDF76D
:102CE0003FFC07F16403D7F838011946FDF7D6FE1B
:102CF00007F16403D7F838011946FDF731FC07F1F5
:102D00006403D7F838011946FDF7C8FE1BE007F148
:102D10006403D7F838011946FDF722FC07F1640374
:102D2000D7F838011946FDF7B9FE07F16403D7F863
:102D300034011946FDF714FC07F16403D7F8340198
:102D40001946FDF7ABFE4FF4FA6001F087FB16E37E
:102D5000184BD3F8B434032B40F00583D7F8E43094
:102D6000002B03D0D7F8E030002B0ED113484FF0E2
:102D7000000101F0FBF8124B1B6818464FF00101EF
:102D800001F056FD01F048F9EDE2D7F8E020D7F860
:102D9000E4309A4238BF1346C7F8DC30D7F8E42055
:102DA000D7F8E0309A420DD2D7F8E020D7F8E430D7
:102DB000D31A0CE068000020CC330108503601081B
:102DC00064000020D7F8E420D7F8E030D31AC7F821
:102DD000D830674B1B68184604F0DAFB03461846E8
:102DE0006B4904F02DFC034618466A4904F028FCA0
:102DF00003461C46D7F8D80004F0CAFB0346184621
:102E0000654904F01DFC03462046194604F0CCFC3D
:102E10000346C7F8D430D7F8D40004F0D7FD0346F2
:102E2000C7F8D030D7F8D4005C4904F009FC034659
:102E3000184604F0CBFD02464E4B83FB02034FEADB
:102E4000A3114FEAE273CB1A4FF47A7101FB03F33B
:102E5000D31AC7F8CC3007F12802474B14461D4659
:102E60000FCD0FC42B68236007F11402424B1446A8
:102E70001D460FCD0FC42B68236007F114031846BD
:102E80003E49D7F8D020D7F8CC3003F0EBFB07F160
:102E900010034FF000021A6007F10C034FF000021C
:102EA0001A6007F108034FF000021A6007F10403EB
:102EB0004FF000021A603B464FF000021A6007F123
:102EC000100107F10C0207F1080307F1040000905C
:102ED00038460190D7F8DC00FDF7D2FA07F110036D
:102EE0001B68002B17D007F110031A6807F10C03B9
:102EF0001B6807F108010D6807F104010C683946E9
:102F0000086807F1280100950194029008461C49C1
:102F100003F0A8FB12E007F10C031A6807F108039D
:102F20001B6807F104010C683946086807F128019D
:102F3000009401900846134903F094FB07F1100335
:102F40001B68002B2CD107F10C031A6807F108034A
:102F50001B6807F10401086839460968009001916F
:102F600007F1140102910848084903F07BFB28E1AE
:102F700054450120D34D6210CC330108703601084E
:102F80001434010824340108D20C00207C360108D6
:102F90003333CB4100401C466666984300007A44B8
:102FA00007F110031B68002B1AD007F110031B68F0
:102FB000082B15D807F10C031B68092B10D84FF00C
:102FC00001031C46D7F8D400E44904F0F5FC03469D
:102FD000002B02D14FF000031C46E3B2002B50D16E
:102FE00007F110031B68092B15D807F10C031B68A8
:102FF000092B10D84FF001031C46D7F8D400D7494D
:1030000004F0DAFC0346002B02D14FF000031C460B
:10301000E3B2002B35D107F110031B68092B15D83B
:1030200007F10C031B68092B10D94FF001031C4654
:10303000D7F8D400CA4904F0A1FC0346002B02D102
:103040004FF000031C46E3B2002B1AD107F1100326
:103050001B68092B2ED907F10C031B68092B29D8F3
:103060004FF001031C46D7F8D400BD4904F086FC9C
:103070000346002B02D14FF000031C46E3B2002BA5
:1030800018D007F110031A6807F10C031B6807F149
:1030900008010C6807F104010868394609680094C2
:1030A0000190029107F114010391A148A14903F095
:1030B000D9FA86E007F110031B68092B15D807F130
:1030C0000C031B68092B10D94FF001031C46D7F8DD
:1030D000D400A24904F070FC0346002B02D14FF04B
:1030E00000031C46E3B2002B3AD107F110031B6822
:1030F000092B15D907F10C031B68092B10D94FF0C8
:1031000001031C46D7F8D400944904F037FC034669
:10311000002B02D14FF000031C46E3B2002B1FD15D
:1031200007F110031B68002B33D007F110031B6855
:10313000082B2ED807F10C031B68092B29D94FF057
:1031400001031C46D7F8D400854904F035FC03463A
:10315000002B02D14FF000031C46E3B2002B18D025
:1031600007F110031A6807F10C031B6807F1080147
:103170000C6807F104010868394609680094019059
:10318000029107F11401039169486B4903F06AFA4F
:1031900017E007F110031A6807F10C031B6807F129
:1031A00008010C6807F104010868394609680094B1
:1031B0000190029107F1140103915D485F4903F00A
:1031C00051FA5F4B18465A4901F038FD5D484FF0FF
:1031D000000100F0CBFE56484FF0010100F0C6FEA2
:1031E00000F01AFFFDF75AFB574B1B6803F1010271
:1031F000554B1A60544B1B68B3F57A7F34BF1A469F
:103200004FF47A72504B1A60504B1B6803F1010265
:103210004E4B1A604D4B1A684D4B9A4202D84B4B9D
:103220001B6801E04FF00103484A1360474B1A68DE
:10323000484B1A60474BD7F8DC205A60454BD7F80B
:10324000D0209A60434BD7F8CC20DA60D7F8D03042
:10325000002B03D1D7F8CC30002B02D04FF0010364
:1032600001E04FF000039AB23A4B1A824FF000038C
:10327000C7F8303112E007F12802D7F83031D318FF
:103280001A783449D7F83031CB1803F110039A700B
:10329000D7F8303103F10103C7F83031D7F83031B6
:1032A000132BE8DD4FF00003C7F8303112E007F1CF
:1032B0001402D7F83031D3181A782649D7F83031AC
:1032C000CB1803F120039A71D7F8303103F10103D1
:1032D000C7F83031D7F83031132BE8DD40F6B8307D
:1032E00001F0BCF84BE01C4BD3F8B434022B39D0BE
:1032F000194BD3F8C433032B09D1174BD3F8B4348B
:10330000012B30D0144BD3F8B434022B2BE0124BEA
:10331000D3F8B434032B26D10F4BD3F8C433022B8C
:1033200021E000BF1FE000BF1DE000BF1BE000BFA9
:10333000D20C00208C360108A0360108B4360108F2
:1033400028060020C4360108184501201C4501202C
:1033500040420F00980C002068000020000010413F
:103360000000204100BFBB6FB3F5004F07D0BB6F1B
:10337000202B04D0134B1B68012B7FF4AAABBB6F2F
:10338000B3F5004F06D0BB6F202B03D00D4B1B684D
:10339000012B0FD10C484FF0000100F0E7FD0A4867
:1033A0004FF0010100F0E2FD00F036FE4FF4FA604C
:1033B00001F054F8054B4FF002021A6000BFFDF710
:1033C00051BC00BF28450120D4360108204501200A
:1033D00080B584B000AFB9484FF0000100F0C6FDE1
:1033E00000F01AFEB64B4FF000021A60B54BD3F84E
:1033F00074384FEAC313B44A82FB03124FEA6212D5
:103400004FEAE373D31AFB60FB68B04A82FB0312F6
:103410004FEAE2024FEAE373D31ABB60FB68AC4A9F
:1034200082FB03124FEAE373D31A7B6029E0FB6847
:103430009BB2184601F058F84FF0500001F00EF81A
:103440007B684FEA4302FB689A4205DAA1484FF0D5
:10345000010100F08BFD0EE0FA687B689A4205DD01
:103460009D484FF0010100F081FD04E09B484FF0C2
:10347000010100F07BFD00F0CFFDFA68BB68D31AB4
:10348000FB60FB68002B03DB8D4B1B68002BCED051
:1034900093484FF0000100F069FD92484FF00101A0
:1034A00000F064FD00F0B8FD4FF0000001F01CF8E2
:1034B000834B4FF000021A608B4B4FF000021A60F2
:1034C0004FF064004FF0000101F040F87C4B1B68A6
:1034D000012B2BD1844B4FF001021A6083484FF02F
:1034E000000100F043FD7F484FF0010100F00EFDA8
:1034F00000F092FD00F06AFB4FF064004FF0010114
:1035000001F024F84FF0DC00794940F6F4624FF006
:10351000010301F06BF84FF4DC70764940F2B142E0
:103520004FF0010301F062F801F05AFB00F0A8FF30
:103530000246714BA3FB02134FEAD32340F6282126
:1035400001FB03F3D31A03F1640318464FF00001A3
:1035500000F0FCFF5A4B1B68012B16D1584B4FF063
:1035600000021A6061484FF0000100F0FFFC5D4866
:103570004FF0010100F0CAFC00F04EFD00F026FB08
:103580004FF4FA6000F06AFF84E04E4BD3F8443BFE
:10359000012B04D14FF4FA7000F0F2FD06E0494B24
:1035A000D3F8443B022B01D100F016FE53484FF4F0
:1035B000805103F031F94FF03C00514940F2A452E0
:1035C0004FF0010301F012F84FF03C004FF0000102
:1035D00000F0BCFF49484FF4005103F01DF94FF0D3
:1035E0003C00474940F2A4524FF0010300F0FEFFB7
:1035F0004FF03C004FF0000100F0A8FF3F484FF4AF
:10360000804103F009F94FF03C003D4940F2A452DB
:103610004FF0010300F0EAFF4FF03C004FF00001D3
:1036200000F094FF35484FF4004103F0F5F8354BB6
:103630004FF000021A60344B4FF000021A60334B17
:103640004FF000021A60324B4FF000021A60314B0B
:103650004FF000021A6040F6CA00294940F2A45215
:103660004FF0010300F0C2FF24484FF4704103F013
:10367000E1F8144BD3F8943603F10102114BC3F86F
:103680009426254A0F4BD3F89436104623491A4600
:1036900002F0E8FF00F09AFA0A4BD3F874384FEAC8
:1036A000C313094A82FB03124FEA62124FEAE37323
:1036B000D31A3B604FF00003FB603EE0FC3601088C
:1036C00024450120680000201F85EB51676666666F
:1036D00056555555103701081C3701082837010881
:1036E00034370108CC33010828450120443701084C
:1036F0007C140108180B0108FD33A6C9000C024018
:10370000D0FF00086400002040450120444501200E
:10371000484501204C450120180700204C3601087F
:10372000FB689BB2184600F0DFFE4FF03C0000F053
:1037300095FEFA68BB68D318FB60FA683B689A424A
:10374000EEDB07F11007BD4680BD00BF80B58EB02F
:1037500000AF4FF001004FF0010101F05FFFBA48E8
:103760004FF00E0103F066F8B7484FF0A00103F0E8
:1037700053F84FF0AE033B634FF0010387F834304A
:103780004FF0000387F836304FF0020387F83530EA
:103790004FF0000387F8373007F13003AA48194685
:1037A00002F078FF4FF041033B634FF0000387F8CE
:1037B00034304FF0000387F836304FF0020387F8BB
:1037C00035304FF0000387F8373007F130039E485B
:1037D000194602F05FFF4FF0E0033B634FF0020336
:1037E00087F834304FF0000387F836304FF002038B
:1037F00087F835304FF0000387F8373007F1300392
:103800009148194602F046FF8F484FF005014FF0EE
:10381000050203F01DF88C484FF006014FF0050239
:1038200003F016F888484FF007014FF0050203F047
:103830000FF84FF002004FF0010101F0EFFE834856
:103840004FF4205102F0F6FF80484FF4A05102F0EF
:10385000E3FF4FF470533B634FF0010387F83430BC
:103860004FF0000387F836304FF0020387F8353009
:103870004FF0000387F8373007F1300373481946DB
:1038800002F008FF4CF2B3133B634FF0000387F8DC
:1038900034304FF0000387F836304FF0020387F8DA
:1038A00035304FF0000387F8373007F130036748B1
:1038B000194602F0EFFE4FF003033B634FF00303A2
:1038C00087F834304FF0000387F8373007F13003C2
:1038D0005E48194602F0DEFE4FF004004FF0010191
:1038E00001F09CFE5A484CF2270102F0A3FF584811
:1038F0004FF0100102F090FF4CF237033B634FF0A2
:10390000010387F834304FF0000387F836304FF06A
:10391000020387F835304FF0000387F8373007F19E
:1039200030034B48194602F0B5FE4FF484733B63F5
:103930004FF0000387F834304FF0000387F836303B
:103940004FF0020387F835304FF0000387F8373027
:1039500007F130033E48194602F09CFE4FF0080084
:103960004FF0010101F05AFE3A484FF20F0102F008
:1039700061FF4FF20F033B634FF0010387F83430D0
:103980004FF0000387F836304FF0020387F83530E8
:103990004FF0000387F8373007F130032D48194600
:1039A00002F078FE4FF490733B634FF0000387F80A
:1039B00034304FF0000387F836304FF0020387F8B9
:1039C00035304FF0000387F8373007F130032148D6
:1039D000194602F05FFE4FF010004FF0010101F0B8
:1039E0001DFE1D484FF0080102F016FF4FF6087348
:1039F0003B634FF0010387F834304FF0000387F842
:103A000036304FF0020387F835304FF0000387F867
:103A1000373007F130031048194602F03BFE4FF0F3
:103A200073033B634FF0000387F834304FF000031B
:103A300087F836304FF0020387F835304FF0000337
:103A400087F837300AE000BF00000240000402405F
:103A500000080240000C02400010024007F1300351
:103A60005048194602F016FE4FF480504FF0010105
:103A700001F03AFE4FF00003BB834FF48273FB83E7
:103A80004FF400633B844FF002037B844FF001034B
:103A9000BB844FF40073FB844FF018033B854FF059
:103AA00000037B854FF00703BB8507F11C033E48ED
:103AB000194603F029F83C484FF0000103F0CAF919
:103AC00039484FF0010103F069F94FF480704FF06D
:103AD000010101F009FE4FF000037B614FF000038C
:103AE0007B604FF001037B724FF000033B614FF0AE
:103AF0000003FB604FF001033B764FF000033B7285
:103B000007F104032948194602F012F927484FF03B
:103B1000010102F06FF925484FF009014FF0010251
:103B20004FF0060302F082F94FF400704FF00101EC
:103B300001F0DAFD4FF000037B614FF000037B6082
:103B40004FF001037B724FF000033B614FF0000325
:103B5000FB604FF001033B764FF000033B7207F12F
:103B600004031348194602F0E3F811484FF001012D
:103B700002F040F90E484FF008014FF001024FF0FB
:103B8000060302F053F94FF040004FF0010101F03D
:103B900067FD4FF0010003F0E7FB07F13807BD4672
:103BA00080BD00BF001002400030014000200140F5
:103BB0000021014080B584B000AF3B46184601F0BB
:103BC0006FFC07F11007BD4680BD00BF80B500AF98
:103BD0004FF004004FF0010101F020FD01F0EAFD7B
:103BE00001F0C2FE02484FF0010103F0F7F880BD7A
:103BF000003C004080B582B000AF4FF0640000F0A0
:103C00002DFC4FF0300000F00DF94FF00A0000F0ED
:103C100025FC4FF0380000F005F94FF0050000F0EA
:103C20001DFC4FF0080000F0FDF84FF0050000F01B
:103C300015FC4FF0010000F0F5F84FF00A0000F01D
:103C40000DFC4FF0060000F0EDF84FF0050000F01D
:103C500005FC4FF00C0000F0E5F84FF0050000F017
:103C6000FDFB4FF0020000F0DDF84FF0050000F022
:103C7000F5FB00F02FF84FF000037B601FE0134AC4
:103C80007B68D3184FF020021A70104A7B68D31853
:103C900003F114034FF020021A700D4A7B68D31809
:103CA0004FF020021A700A4A7B68D31803F11403FC
:103CB0004FF020021A707B6803F101037B607B6880
:103CC000132BDCDD07F10807BD4680BD1400002082
:103CD0003C00002080B500AF4FF0400000F0A2F89B
:103CE0004FF01F0000F0D6F84FF01F0000F0D2F8A0
:103CF0004FF01F0000F0CEF84FF01F0000F0CAF8A0
:103D00004FF01F0000F0C6F84FF01F0000F0C2F89F
:103D10004FF01F0000F0BEF84FF01F0000F0BAF89F
:103D20004FF0180000F0B6F84FF01C0000F0B2F8A9
:103D30004FF01E0000F0AEF84FF01F0000F0AAF8A0
:103D40004FF01E0000F0A6F84FF01C0000F0A2F8A3
:103D50004FF0180000F09EF84FF0000000F09AF8C5
:103D60004FF0030000F096F84FF0070000F092F8D3
:103D70004FF00F0000F08EF84FF01F0000F08AF8AF
:103D80004FF00F0000F086F84FF0070000F082F8C7
:103D90004FF0030000F07EF84FF0000000F07AF8DA
:103DA0004FF0040000F076F84FF00E0000F072F8CB
:103DB0004FF01F0000F06EF84FF0040000F06AF8BA
:103DC0004FF0040000F066F84FF0040000F062F8D5
:103DD0004FF0040000F05EF84FF0040000F05AF8D5
:103DE0004FF0040000F056F84FF0040000F052F8D5
:103DF0004FF0040000F04EF84FF0040000F04AF8D5
:103E00004FF0040000F046F84FF01F0000F042F8B9
:103E10004FF00E0000F03EF84FF0040000F03AF8CA
:103E200080BD00BF80B582B000AF786017484FF406
:103E3000006102F0FFFC15484FF4005102F0FAFC5B
:103E400012484FF4805102F0F5FC10484FF4006125
:103E500002F0E2FC4FF0010000F0E8FA0C4B0C4AD3
:103E6000526902F0FF017A684FEA022241EA020237
:103E70005A614FF0010000F0D9FA04484FF00801F0
:103E800002F0D8FC07F10807BD4680BD00040240DF
:103E90000010024080B582B000AF786019484FF43E
:103EA000006102F0C7FC17484FF4005102F0B4FC67
:103EB00014484FF4805102F0BDFC134B4FF40052F4
:103EC0005A6110484FF4006102F0A6FC4FF0010067
:103ED00000F0ACFA0C4B0C4A526902F0FF017A6810
:103EE0004FEA022241EA02025A614FF0010000F05B
:103EF0009DFA04484FF0080102F09CFC07F1080706
:103F0000BD4680BD000402400010024080B485B070
:103F100000AF786039604FF00003FB604FF00003A2
:103F2000BB6018E0BB687A68D31819780E483A6805
:103F300013464FEA83039B184FEA8303FA689B18E2
:103F4000C3180A461A70FB6803F10103FB60BB68E3
:103F500003F10103BB60BB68132BE3DD07F114071A
:103F6000BD4680BC704700BF1400002090B587B0EC
:103F700000AF786039604FF000037B6111E02549A4
:103F80003A6813464FEA83039B184FEA83037A6922
:103F90009B18CB184FF020021A707B6903F10103C4
:103FA0007B617B69132BEADD786803F03BFE0346F7
:103FB0003B613B69142BA8BF14233B613B694FEA6B
:103FC000D372D3184FEA6303C3F10A03FB604FF0C7
:103FD00000037B6116E0FA687B69D4187B697A6814
:103FE000D31819780B483A6813464FEA83039B1895
:103FF0004FEA83031B19C3180A461A707B6903F141
:1040000001037B617A693B699A42E4DB07F11C0793
:10401000BD4690BD1400002080B582B000AF4FF0C7
:104020008000FFF7FFFE4FF000037B6023E0324A81
:104030007B68D3181A7831497B68CB181B789A4271
:104040000FD02D4A7B68D3181B781846FFF722FF44
:10405000294A7B68D3181A7828497B68CB181A70CC
:1040600005E07B6803F181031846FFF7DBFE7B6800
:1040700003F101037B607B68132BD8DD4FF0C00098
:10408000FFF7D0FE4FF000037B602DE01A4A7B68FB
:10409000D31803F114031A7818497B68CB1803F17D
:1040A00014031B789A4215D0134A7B68D31803F186
:1040B00014031B781846FFF7EDFE0F4A7B68D318F0
:1040C00003F114031A780D497B68CB1803F114032C
:1040D0001A7005E07B6803F1C1031846FFF7A2FEE2
:1040E0007B6803F101037B607B68132BCEDD07F156
:1040F0000807BD4680BD00BF140000203C00002022
:1041000080B500AF1B4B1B4A126C42F010021A64C0
:10411000194B40F247321A85174B4FF00902DA6209
:10412000154B154A928A92B242F0010292B29A82DB
:10413000114B114A128A92B222F0010292B21A82F3
:104140000D4B0D4A928992B242F0010292B29A81CD
:104150004FF03600FCF74EF8074B074A128892B230
:1041600042F0010292B21A80044B4FF000021A6032
:1041700080BD00BF003802400010004064000020F5
:1041800080B483B000AF78600F4BD3F8D4221346CD
:104190004FEA83039B184FEA43031A460B4B1A60FE
:1041A0007A6813464FEA83039B184FEA43031A4683
:1041B000074B1A60074B4FF001021A6007F10C071A
:1041C000BD4680BC704700BF680000202C45012020
:1041D000344501203045012080B400AF094BD3F8AD
:1041E000D42213464FEA83039B184FEA43031A462F
:1041F000054B1A60054B4FF001021A60BD4680BCAA
:10420000704700BF680000202C4501203845012080
:1042100080B500AF6F4B6F4A128A92B222F0010252
:1042200092B21A826C4B1B6803F101026A4B1A604E
:104230006A4B1B6903F08003002B08D1684B1B6895
:10424000002B04D1644B1B681A46654B1A60634B04
:104250001B6903F48073002B08D1624B1B68002B91
:1042600004D15D4B1B681A465E4B1A605B4B1B69A1
:1042700003F01003002B08D15B4B1B68002B04D10B
:10428000554B1B681A46584B1A60544B1B6903F078
:104290002003002B08D1554B1B68002B04D14E4B3B
:1042A0001B681A46514B1A60514B1B68012B2ED1CB
:1042B000504B1B68002B06D04E4B1B6803F1FF329E
:1042C0004C4B1A6044E04C4B1B68002B10D04A4BFF
:1042D0001B6803F1FF32484B1A6048484FF0040155
:1042E00002F09AFA45484FF0020102F095FA2FE0E9
:1042F00042484FF0040102F09DFA40484FF002019D
:1043000002F098FA3A4B4FF000021A6020E03C4B62
:104310001B68012B1CD1374B1B68002B06D0354B7B
:104320001B6803F1FF32334B1A6011E033484FF042
:10433000040102F07FFA31484FF0020102F07AFAEC
:104340002F4B4FF000021A602E4B4FF000021A6004
:10435000274B1B68012B38D0294B1B68012B36D00B
:104360001E4B1B6903F40043002B31D0264BD3F8BE
:10437000543A022B2CD1254B4FF001021A60224BEC
:10438000D3F8443B012B11D1194B4FF000021A60B6
:10439000194B4FF000021A6018484FF0040102F068
:1043A00049FA16484FF0020102F044FA164BD3F8CE
:1043B000443B022B07D1134B4FF001021A60104B04
:1043C0004FF000021A6000BF02E000BF00E000BF33
:1043D00080BD00BF001000406400002000040240C7
:1043E0004045012044450120484501204C4501201D
:1043F000304501202C4501203445012000000240B9
:10440000384501203C45012068000020244501205A
:1044100080B500AF4FF0020002F0DAFF0346002B38
:1044200003D04FF0020002F0C5FF80BD80B485B01C
:1044300000AF7860084B1B681A467B68D318FB6096
:1044400000BF054B1B681A46FB689A42F9D307F177
:104450001407BD4680BC70476400002080B582B060
:1044600000AF78607A6813464FEA83039B184FEADF
:1044700043031846FFF7DAFF07F10807BD4680BD82
:1044800080B582B000AF4FF000037B604FF0600357
:104490007B6012E0114B5A687B6802EA0303002B31
:1044A0000BD10E4B5B6803F00103DBB2002B04D091
:1044B00002F076FF02460A4B1A60094B1A68094B54
:1044C0001B689A42E6D0064B1A68064B1A60044BEA
:1044D0001B68184607F10807BD4680BD0008065056
:1044E000644501206845012080B582B000AF0346D5
:1044F000FB8014484FF0100102F09CF900BF1248F5
:104500004FF0020102F0C6FC0346002BF7D0FB88F7
:104510000D48194602F090FC00BF0B484FF0010116
:1045200002F0B8FC0346002BF7D0074802F076FCF7
:1045300004484FF0100102F06FF907F10807BD467B
:1045400080BD00BF000802400030014080B584B04B
:1045500000AF786039607B684BF6803202FB03F273
:104560001F4BA3FB02134FEA9313FB604FF00003B2
:104570007B8100BF02E000BF00E000BF19484FF0A0
:10458000020102F087FC0346002BF7D07B89154817
:10459000194602F051FC00BF12484FF0020102F030
:1045A00079FC0346002BF7D07B890E48194602F0B0
:1045B00043FCFB68002B0CBF00230123DBB2FA682D
:1045C00002F1FF32FA60002B06D0074B1B68012B6B
:1045D000D1D13B68002BD0D107F11007BD4680BD7B
:1045E000D34D6210003C00402445012080B588B0C6
:1045F00000AFF860B9607A603B603C4B1B68012BF0
:1046000002D13B68002B6BD0FB684BF6803202FB7B
:1046100003F2374BA3FB02134FEA9313FB614FF0F6
:104620000003BB614FF001037B61BB697A6802F153
:10463000FF32B3FBF2F102FB01F29B1A4FEA430394
:10464000BA68D3181B881AB27B6992FBF3F37B829A
:10465000BB6903F10103BB6100BF26484FF00201B3
:1046600002F018FC0346002BF7D07B8A214819463C
:1046700002F0E2FB20484FF4804102F0CDF8FB69E4
:10468000A3F10603002B04DA7B694FEA83037B6105
:1046900000E000BF17484FF0020102F0FBFB0346A9
:1046A000002BF7D07B8A1348194602F0C5FB12484D
:1046B0004FF4804102F0BEF8FB69002BD4BF002309
:1046C0000123DBB2FA6902F1FF32FA61002B08D054
:1046D000064B1B68012BA8D13B68002BA5D100E03D
:1046E00000BF07F12007BD4680BD00BF2445012063
:1046F000D34D6210003C00400008024080B588B0F5
:1047000000AFF860B9607A603B604FF00003FB8354
:104710004FF00003FB82BB68BB6179E0414B1B6833
:10472000012B02D13B68002B77D0FB8BFB82BB694E
:104730004FEA4303FA68D3181B88FB8300BF3A484B
:104740004FF0020102F0A6FB0346002BF7D0B7F9A9
:104750001E20B7F91630D31A4FEAD372D3184FEA96
:1047600063039AB2FB8AD3189BB22F48194602F012
:1047700063FB2E484FF4804102F04EF800BF2A48F8
:104780004FF0020102F086FB0346002BF7D0B7F989
:104790001E20B7F91630D31A4FEAD372D3184FEA56
:1047A00063039AB2FB8AD3189BB21F48194602F0E2
:1047B00043FB1E484FF4804102F03CF800BF1A480A
:1047C0004FF0020102F066FB0346002BF7D0FB8B93
:1047D0001548194602F030FB14484FF4804102F0AE
:1047E0001BF800BF10484FF0020102F053FB0346D4
:1047F000002BF7D0FB8B0C48194602F01DFB0B4831
:104800004FF4804102F016F8BB6903F10103BB616C
:10481000BA697B689A4281D300E000BF07F12007A4
:10482000BD4680BD24450120003C004000080240F8
:10483000B0B590B004AF786039604FF00003FB6210
:104840004FF00003BB624FF000037B624FF00003A8
:104850003B624FF00003FB6107F12C0107F12802D6
:1048600007F1240307F12000009007F11C000190DC
:104870007868FBF705FE184B07F108041D460FCDBD
:104880000FC42B682360FB6A002B0ED0FA6ABB6A48
:104890007D6A3C6AF86907F108010095019402906D
:1048A00008460E4901F0DEFE0BE0BA6A7B6A3C6AFC
:1048B000F86907F10801009401900846084901F0E1
:1048C000D1FE3B6807F1080210461946FFF74EFB80
:1048D00007F13007BD46B0BDCC33010814340108E0
:1048E0002434010880B500AF4FF0FA0028494FF09A
:1048F000A7024FF00103FFF779FE4FF0FA004FF0E7
:104900000101FFF723FE4FF0FA0021494FF0A70203
:104910004FF00103FFF76AFE4FF0FA004FF001017C
:10492000FFF714FE4FF0FA0019494FF0A7024FF0BD
:104930000103FFF75BFE4FF0FA004FF00101FFF7B4
:1049400005FE4FF0FA0012494FF0A7024FF00103A5
:10495000FFF74CFE4FF0FA004FF00101FFF7F6FDB4
:104960004FF001004FF00101FFF7F0FD4FF0FA00AA
:1049700007494FF0A7024FF00103FFF737FE4FF052
:10498000FA004FF00101FFF7E1FDFFF71FF980BDCD
:104990006432010880B487B000AF78608A4B1B692D
:1049A0003B618A4B1B69FB60894B1B69BB60FB68E1
:1049B00003F08003002B06D17B684FF080021A6061
:1049C0004FF00003FAE0FB6803F48073002B06D17C
:1049D0007B684FF400621A604FF00003EEE0FB6862
:1049E00003F01003002B06D17B684FF480521A604D
:1049F0004FF00003E2E0FB6803F02003002B06D138
:104A00007B684FF400521A604FF00003D6E03B6918
:104A100003F00103DBB2002B06D07B684FF00102EC
:104A20001A604FF00003C9E0FB6803F48043002BD9
:104A300006D07B684FF010021A604FF00003BDE013
:104A4000FB6803F40043002B06D07B684FF0200284
:104A50001A604FF00003B1E0BB6803F48073002BD1
:104A600006D07B684FF480721A604FF00003A5E017
:104A70004FF00003FB82574B1B881AB2564B1B6941
:104A800003F070039A4200F09380534B1B699BB272
:104A900003F070039AB24F4B1A804E4B1B889BB2A7
:104AA00003F01003002B06D17B684FF400421A601C
:104AB0004FF0000382E0474B1B889BB203F060037A
:104AC000002B03D14FF00203FB821FE0414B1B88F8
:104AD0009BB203F06003202B03D14FF00303FB8252
:104AE00014E03C4B1B889BB203F06003402B03D1C6
:104AF0004FF00103FB8209E0364B1B889BB203F0A9
:104B00006003602B02D14FF00003FB82B7F916302F
:104B1000012B03D1314B1B88002B1AD0B7F916306B
:104B2000022B04D12D4B1B881BB2012B11D0B7F9DE
:104B30001630032B04D1294B1B881BB2022B08D043
:104B4000B7F91630002B0AD1244B1B881BB2032B5C
:104B500005D1224BFA8A1A804FF001032EE0B7F9F3
:104B60001630022B04D11D4B1B881BB2032B19D00E
:104B7000B7F91630012B04D1184B1B881BB2022B3E
:104B800010D0B7F91630002B04D1144B1B881BB280
:104B9000012B07D0B7F91630032B09D10F4B1B8817
:104BA000002B05D10D4BFA8A1A804FF0FF3305E038
:104BB0007B684FF000021A604FF00003184607F1BF
:104BC0001C07BD4680BC7047000002400004024044
:104BD000000C02400000002000100240604501204F
:104BE00080B582B000AF4FF000037B6007F1040393
:104BF0001846FFF7CFFE7B68002BF7D107F10807B7
:104C0000BD4680BD80B582B000AF0B4801F0F6F91B
:104C100000BF09484FF0020101F00EFA0346002BD5
:104C2000F7D0054801F0FAF903467B607B68184627
:104C300007F10807BD4680BD0020014080B485B063
:104C400000AF786039604FF00003FB600BE0FB6859
:104C50007A68D318FA6839688A1812781A70FB686B
:104C600003F10103FB60FB68132BF0DD07F1140770
:104C7000BD4680BC704700BF80B483B000AF786091
:104C8000396007F10C07BD4680BC704780B582B023
:104C900000AFC04B4FF002021A60BE4B4FF0000253
:104CA0005A60BC4B4FF000029A60BA4B4FF00102C1
:104CB000C3F8E820B74B4FF00002C3F8EC20B64829
:104CC000B649FFF7BBFFB64B1846B649FFF7B6FF2C
:104CD000B04B4FF00202C3F8F020AE4B4FF0000291
:104CE000C3F8F420AB4B4FF00002C3F8F820A94BF7
:104CF0004FF00102C3F8D821A64B4FF00002C3F8D1
:104D0000DC21A948A949FFF799FFA94B1846A949F1
:104D1000FFF794FF9F4B4FF00002C3F890269D4B86
:104D20004FF00002C3F894269A4B4FF00002C3F8EC
:104D30009826984B4FF00002C3F87827954B4FF018
:104D40000002C3F87C279C489C49FFF777FF9C4AE8
:104D5000904BD3F8943610469A491A4601F082FCDB
:104D60008C4B4FF00302C3F8E0218A4B4FF0000256
:104D7000C3F8E421874B4FF00002C3F8E821854BCC
:104D80004FF00102C3F8C822824B4FF00002C3F873
:104D9000CC228D488D49FFF751FF8D4B18468D4928
:104DA000FFF74CFF7B4B4FF00302C3F8D022794B47
:104DB0004FF4B472C3F8D422764B4FF00002C3F81C
:104DC000D822744B4FF00102C3F8B823714B4FF057
:104DD0000002C3F8BC2380488049FFF72FFF804BB7
:104DE000184680494FF0060202F016FE694B4FF05C
:104DF0000402C3F8C023674B4FF00102C3F8C42379
:104E0000644B4FF01002C3F8C823624B4FF0050209
:104E1000C3F8A8245F4B4FF00102C3F8AC247248DA
:104E20007249FFF70BFF724B18467249FFF706FFF6
:104E30006F4B03F1140318466F49FFF7FFFE6C4BED
:104E400003F1280318466D49FFF7F8FE684B03F19C
:104E50003C0318466A49FFF7F1FE654B03F1500326
:104E600018466849FFF7EAFE614B03F164031846F0
:104E70006549FFF7E3FE474BD3F8C4334FF0040016
:104E800019464FF000024FF0010300F0A3FA5F4B08
:104E90004FF00C021A603F4B4FF00402C3F8B024ED
:104EA0003C4B4FF00102C3F8B4243A4B4FF01002D0
:104EB000C3F8B824374B4FF00502C3F89825354B9B
:104EC0004FF00102C3F89C2551485249FFF7B6FE46
:104ED000514B18464749FFF7B1FE4F4B03F11403FE
:104EE00018464549FFF7AAFE4B4B03F12803184625
:104EF0004249FFF7A3FE484B03F13C0318464049E3
:104F0000FFF79CFE444B03F1500318463D49FFF761
:104F100095FE414B03F1640318463B49FFF78EFEB3
:104F20001C4BD3F8B4344FF0050019464FF0000283
:104F30004FF0010300F04EFA384B4FF00C021A60AC
:104F4000144B4FF00502C3F8A025124B4FF000029E
:104F5000C3F8A4250F4B4FF00002C3F8A8250D4B52
:104F60004FF00102C3F888260A4B4FF00002C3F845
:104F70008C262B482B49FFF761FE2B4B18462B49FB
:104F8000FFF75CFE034BD3F8A4354FF0060019463B
:104F90004EE000BF68000020740000206437010864
:104FA0008800002070370108640100208037010864
:104FB000780100209037010804070020A03701087D
:104FC000180700204C36010854020020B4370108AD
:104FD000680200204435010844030020C837010856
:104FE00058030020D837010834040020E0370108B6
:104FF00048040020CC330108EC370108FC370108D5
:10500000083801081C3801083438010850450120CF
:10501000240500204C3801083805002054450120A3
:1050200014060020583801082806002068380108B6
:105030004FF000024FF0010300F0CCF9A74B4FF006
:105040000302C3F88027A54B4FF00202C3F8842760
:10505000A24B4FF00002C3F88827A04B4FF001028B
:10506000C3F868289D4B4FF00002C3F86C289C4899
:105070009C49FFF7E3FD9C4A984BD3F884371046D0
:105080009A491A4601F0EEFA944B4FF00302C3F826
:105090007028924B4FF01902C3F874288F4B4FF0D1
:1050A0000002C3F878288D4B4FF00102C3F858294D
:1050B0008A4B4FF00002C3F85C298D488D49FFF7F9
:1050C000BDFD8D4A854BD3F87438104687491A4682
:1050D00001F0C8FA814B4FF00102C3F86029FFF7D5
:1050E00091FD0346184602F057FA034618469349C5
:1050F00002F0A6FA03461846914902F055FB034612
:10510000184602F063FC0246744BC3F86429734BE3
:105110004FF00002C3F86829704B4FF00102C3F84A
:10512000482A6E4B4FF00002C3F84C2A734874496A
:10513000FFF784FD734A694BD3F8643910466B4915
:105140001A4601F08FFA654B4FF00402C3F8502A5B
:10515000624B4FF00202C3F8542A604B4FF000023A
:10516000C3F8582A5D4B4FF00202C3F8382B5B4B53
:105170004FF00102C3F83C2B63486449FFF75EFD22
:10518000634B18466349FFF759FD614B03F1140364
:1051900018466149FFF752FD5D4B03F1280318469D
:1051A0005E49FFF74BFD4D4BD3F8543A4FF00B00DF
:1051B00019464FF000024FF0010300F00BF9474B86
:1051C0004FF00402C3F8402B444B4FF00102C3F8E8
:1051D000442B424B4FF00002C3F8482B3F4B4FF09B
:1051E0000302C3F8282C3D4B4FF00102C3F82C2CCE
:1051F0004B484C49FFF722FD4B4B18464549FFF7FA
:105200001DFD494B03F1140318464849FFF716FDED
:10521000454B03F1280318464549FFF70FFD424B64
:1052200003F13C0318464349FFF708FD2B4BD3F825
:10523000443B4FF00C0019464FF000024FF00103C1
:1052400000F0C8F84FF000037B60B6E03A497A6896
:1052500013464FEA83039B184FEA0313CB184FF012
:1052600000021A6034497A6813464FEA83039B1898
:105270004FEA0313CB1803F104034FF000021A6046
:105280002D497A6813464FEA83039B184FEA0313AC
:10529000CB1803F108034FF000021A6026497A6820
:1052A00013464FEA83039B184FEA0313CB1803F10D
:1052B0000C034FF000021A601F497A6813464FEA48
:1052C00083039B184FEA0313CB1803F110034FF02D
:1052D00000021A804FF000033B6067E06800002086
:1052E000F40700207C380108080800200C3401086D
:1052F000E40800208C380108F8080020D4090020B8
:105300009C380108E8090020C40A0020AC380108D4
:10531000D80A0020CC330108EC370108BC3801085A
:10532000B40B0020C8380108C80B0020D838010889
:10533000E8380108F4380108980C00200000C84241
:105340000000614522497A6813464FEA83039B189F
:105350004FEA0313CA183B68D31803F110034FF048
:1053600000029A701A497A6813464FEA83039B1821
:105370004FEA0313CA183B68D31803F120034FF018
:1053800000029A7112497A6813464FEA83039B1808
:105390004FEA0313CA183B68D31803F138034FF0E0
:1053A00000029A703B6803F101033B603B68132BDA
:1053B000C8DD7B6803F101037B607A6840F2E73364
:1053C0009A427FF743AF07F10807BD4680BD00BF93
:1053D000980C002080B487B000AFF860B9607A60A4
:1053E0003B604FF000037B613FE02448BB68F968F5
:1053F0001A464FEA8202D2184FEA82031A460B4637
:105400004FEA03135B1A4FEA0313D318C2187B69E0
:10541000D31803F120031B78FB743B68012B08D1E0
:10542000FB7C012B02D0FB7C022B02D14FF020032E
:10543000FB7412487B68F9681A464FEA8202D21858
:105440004FEA82031A460B464FEA03135B1A4FEAF0
:105450000313D318C2187B69D31803F12003FA7C15
:105460001A707B6903F101037B617B69132BBCDD3F
:1054700007F11C07BD4680BC704700BF68000020D4
:1054800080B483B000AF0346FB71044BFA791A6015
:1054900007F10C07BD4680BC704700BF680047425B
:1054A00080B489B000AF78604FF00003BB614FF06B
:1054B00000037B614FF00003FB614FF002033B618F
:1054C0004FF00003FB604FF00203BB604F4B9B6843
:1054D00003F00C03BB61BB69042B07D0082B09D078
:1054E000002B47D17B684A4A1A6047E07B68494AEB
:1054F0001A6043E0454B5B6803F480034FEA935323
:10550000FB60424B5B6803F03F03BB60FB68002B12
:105510000FD0404ABB68B2FBF3F23C4B596847F6E8
:10552000C07301EA03034FEA931303FB02F3FB6129
:105530000EE0374ABB68B2FBF3F2344B596847F6CA
:10554000C07301EA03034FEA931303FB02F3FB6109
:105550002E4B5B6803F440334FEA134303F101031E
:105560004FEA43033B61FA693B69B2FBF3F27B68A4
:105570001A6003E07B68264A1A6000BF234B9B68D1
:1055800003F0F003BB61BB694FEA1313BB61224A0E
:10559000BB69D3181B78DBB27B617B681A687B69B7
:1055A00022FA03F27B685A60184B9B6803F4E053BD
:1055B000BB61BB694FEA9323BB61174ABB69D31830
:1055C0001B78DBB27B617B685A687B6922FA03F245
:1055D0007B689A600D4B9B6803F46043BB61BB69B9
:1055E0004FEA5333BB610C4ABB69D3181B78DBB25B
:1055F0007B617B685A687B6922FA03F27B68DA6018
:1056000007F12407BD4680BC704700BF0038024048
:105610000024F40000127A000400002080B483B05B
:1056200000AF78600B46FB70FB78002B07D00B4B6C
:105630000A4A116B7A6841EA02021A6308E0074BD2
:10564000064A116B7A686FEA020201EA02021A63E3
:1056500007F10C07BD4680BC704700BF0038024010
:1056600080B483B000AF78600B46FB70FB78002BF2
:1056700007D00B4B0A4A516B7A6841EA02025A631F
:1056800008E0074B064A516B7A686FEA020201EAAA
:1056900002025A6307F10C07BD4680BC704700BF89
:1056A0000038024080B483B000AF78600B46FB70D6
:1056B000FB78002B07D00B4B0A4A116C7A6841EA41
:1056C00002021A6408E0074B064A116C7A686FEA16
:1056D000020201EA02021A6407F10C07BD4680BC0F
:1056E000704700BF0038024080B483B000AF7860DC
:1056F0000B46FB70FB78002B07D00B4B0A4A516C12
:105700007A6841EA02025A6408E0074B064A516C83
:105710007A686FEA020201EA02025A6407F10C0792
:10572000BD4680BC704700BF0038024080B483B0E3
:1057300000AF78600B46FB70FB78002B07D00B4B5B
:105740000A4A116A7A6841EA02021A6208E0074BC3
:10575000064A116A7A686FEA020201EA02021A62D4
:1057600007F10C07BD4680BC704700BF00380240FF
:1057700080B483B000AF78600B46FB70FB78002BE1
:1057800007D00B4B0A4A516A7A6841EA02025A6210
:1057900008E0074B064A516A7A686FEA020201EA9A
:1057A00002025A6207F10C07BD4680BC704700BF79
:1057B0000038024080B58AB000AF07F120031846D8
:1057C00001F00CF84FF010033B624FF0010387F833
:1057D00024304FF0020387F827304FF0000387F89A
:1057E00026304FF0020387F825304FF00B004FF0C2
:1057F0000101FFF713FF07F120035448194600F099
:1058000049FF4FF0020387F824304FF0010387F877
:1058100026304FF410733B624FF0000387F82730B7
:105820004FF0020387F8253007F120034848194656
:1058300000F030FF46484FF006014FF0040201F03F
:1058400007F843484FF009014FF0040201F000F857
:105850004FF402104FF00101FFF724FF4FF0010059
:10586000FFF70EFE4FF0000387F826304FF4A453E5
:105870003B6207F120033748194600F00BFF4FF059
:1058800010033B6207F120033348194600F002FF82
:1058900031484FF004014FF0060200F0D9FF2D48C7
:1058A0004FF007014FF0060200F0D2FF29484FF0F9
:1058B0000A014FF0060200F0CBFF26484FF00C0122
:1058C0004FF0060200F0C4FF20484FF0100100F036
:1058D000B1FF224801F0D8F84BF68033BB614FF49A
:1058E0000073FB824FF00003BB824FF400733B82D6
:1058F0004FF000037B824FF00003BB8307F11003DE
:105900001648194601F04CF9154801F0E3FA154B19
:105910003B604FF00003BB804FF033033B814FF4FB
:1059200080637B814FF48043BB814BF6FF73FB8028
:105930000B484FF0010101F0E5FB3B4608481946D2
:1059400001F008FB07F12807BD4680BD000C0240AE
:10595000000402400008024000000240003C0040F9
:1059600000540040A086010080B584B000AF4FF025
:10597000FF03FB7274484FF0100100F04DFF734BB2
:10598000FB6003E0FB6803F1FF33FB60FB68002B67
:10599000F8D14FF00D033B714FF001037B7107F11C
:1059A000040318464FF0020100F0D2F84FF0000354
:1059B0003B714FF099037B7107F1040318464FF0D8
:1059C000020100F0C5F84FF047033B714FF0800330
:1059D0007B7107F1040318464FF0020100F0B8F89C
:1059E0004FF0320000F016F90346FB724FF032031D
:1059F0003B71FB7A63F07F03DBB27B7107F1040339
:105A000018464FF0020100F0A3F84FF0320000F00A
:105A100001F90346FB724FF032033B71FB7A03F04E
:105A20007F03DBB27B7107F1040318464FF00201DC
:105A300000F08EF84FF000033B714FF000037B71D4
:105A400007F1040318464FF0020100F081F84FF00F
:105A500004033B714FF0AF037B7107F10403184659
:105A60004FF0020100F074F84FF00D033B714FF05E
:105A700010037B7107F1040318464FF0020100F098
:105A800067F84FF005033B714FF020037B7107F17E
:105A9000040318464FF0020100F05AF84FF00603D5
:105AA0003B714FF007037B7107F1040318464FF079
:105AB000020100F04DF84FF00A033B714FF0000374
:105AC0007B7107F1040318464FF0020100F040F823
:105AD0004FF027033B714FF000037B7107F1040384
