:020000040800F2
:100000001057002001800008658000086580000806
:100010006580000865800008658000080000000019
:1000200000000000000000000000000065800008E3
:1000300065800008000000006580000865800008F9
:1000400065800008658000086580000865800008FC
:1000500065800008658000086580000865800008EC
:1000600065800008658000086580000865800008DC
:1000700065800008658000086580000865800008CC
:1000800065800008658000086580000865800008BC
:1000900065800008658000086580000865800008AC
:1000A000658000086580000865800008658000089C
:1000B000658000086580000865800008658000088C
:1000C000658000086580000865800008658000087C
:1000D000658000086580000865800008658000086C
:1000E000658000086580000865800008658000085C
:1000F000658000086580000865800008658000084C
:10010000658000086580000865800008658000083B
:100110006580000865800008190C0108710B010852
:10012000658000086580000865800008658000081B
:10013000658000086580000865800008658000080B
:1001400065800008658000086580000865800008FB
:1001500065800008658000086580000865800008EB
:1001600065800008658000086580000865800008DB
:1001700065800008658000086580000865800008CB
:0801800065800008658000089D
:1080000080B582B000AF124B7B60124B3B600BE03F
:108010007B681A683B681A603B6803F104033B60A5
:108020007B6803F104037B603A680B4B9A42EFD301
:108030000A480B494FF000028842B8BF40F8042BB1
:10804000FADB00F02DF807F10807BD4680BD00BF40
:10805000B8C6010800000020140000201400002011
:108060000C4F002080B400AFFEE700BF80B483B0A7
:1080700000AF0346FB71094B97F907204FEA5212F4
:10808000F97901F01F014FF0010000FA01F143F806
:10809000221007F10C07BD4680BC704700E100E0EC
:1080A0002DE9F04FADF52F7D0AAF0DF017F808F070
:1080B000EBFC07F09BFE07F065FC07F0B7FE0BF04A
:1080C000F3FB09F043FD8E4B984A1A608D4B974A9B
:1080D0001A6007F097FE0AF0D1FF0346B3F1FF3FA5
:1080E00003D14FF001000AF037FC06F0EDF94FF034
:1080F000010009F0B5FB84484FF008010CF032FE96
:108100000AF036FB81484FF0010109F06BFA7F4815
:108110004FF0010109F066FA00E000BF7C4B1B68DC
:10812000032BFAD801A050F823F000BF3D810008CE
:10813000298200087D8200084BCA00084FF0000029
:1081400009F08EFB03464FF00102144618467849A9
:108150000FF03EFF0346002B02D14FF000031C46F8
:10816000E3B2002B05D06A4B4FF001021A6005F014
:1081700030B944F2FF1009F05DF841F2320009F025
:1081800059F841F2320009F055F8624B03F5A25359
:1081900003F11C031B684FEAC3135F4A82FB0312FF
:1081A0004FEA62124FEAE373D31A9BB2184609F002
:1081B00041F85A484FF001010CF0C6FD58484FF005
:1081C000000108F097FB57484FF0010108F092FBBF
:1081D00008F0E6FB4FF0000005F0E4FE4FF4FA6013
:1081E00008F0E2FF4B4B03F5965303F128031B689D
:1081F0004FEAC313484A82FB03024FEA62124FEA76
:10820000E373D31AC7F84032D7F840329BB243F435
:1082100080539BB29BB2184609F00CF83C4B4FF0D0
:1082200002021A6005F0D5B8354B404A1A60354B4A
:108230003E4A1A604FF4805008F0FCFF4FF00000F7
:1082400008F0F8FF00BF4FF0010009F009FB0346FA
:108250004FF001021446184636490FF0B9FE0346A6
:10826000002B02D14FF000031C46E3B2002BEAD1F1
:10827000274B4FF000021A6005F0ABB84FF0000337
:10828000C7F83C3204F0DABB274B1B684FF4BA72D4
:1082900002FB03F303F118021E4BD31818464FF0EC
:1082A000000108F027FB204B1B684FF4BA7202FB59
:1082B00003F303F12802174BD31803F10403184604
:1082C0004FF0010108F016FB08F06AFB09F0CEFB45
:1082D000024640F653339A4204DC0D4B4FF0010244
:1082E0001A6076E3104B1B680F2B40F028810F4B70
:1082F000C7F88C324FF00003C7F8883236E000BF71
:10830000A84E0020AC4E002000000240E04E0020AD
:108310003C4E00206C0000201F85EB5100080240FD
:10832000E44E0020F84E002068000020000000000D
:10833000009A8D48005E974809F098FB034618465E
:108340000FF054FC03461846DF490FF0A3FC034628
:10835000D7F88C0219460FF095FB0346C7F88C320C
:10836000D7F8883203F10103C7F88832D7F888229A
:1083700040F22B139A42DFDDD7F88C02D3490FF07D
:108380003DFD0346C7F88C32D148D7F88C120FF068
:1083900077FB0346CF4819460FF072FB0346184699
:1083A000CD490FF02BFD03461846C7490FF026FDB7
:1083B00003461846C9490FF06DFC03461846C849E4
:1083C0000FF060FB0346C7F83832C648D7F88C1266
:1083D0000FF056FB0346C44819460FF051FB034605
:1083E0001846C1490FF00AFD03461846BF490FF071
:1083F00051FC0346C7F83432D7F83802D7F83412A4
:108400000FF040FB0346C7F83832D7F838020FF0B8
:1084100007FE0346C7F83032D7F83802AA490FF0F2
:1084200039FC034618460FF0FBFD03469E4A82FBCB
:1084300003124FEA62114FEAE3728A1A4FF06401A5
:1084400001FB02F29B1AC7F82C32A648D7F88C120F
:108450000FF016FB0346A44819460FF011FB034624
:108460001846A3490FF0CAFC0346C7F88C324FF0F8
:1084700001031C46D7F88C0293490FF0C7FD034651
:10848000002B02D14FF000031C46E3B2002B01D0B9
:108490008D4B01E0D7F88C32C7F88C324FF00103D6
:1084A0001C46D7F88C0293490FF092FD0346002B2F
:1084B00002D14FF000031C46E3B2002B01D08D4BDC
:1084C00001E0D7F88C32C7F88C32D7F88C020FF065
:1084D000A7FD0246754B03F5AE5303F110031A6076
:1084E000D7F82C32092B11DD714A704B03F5AE53CE
:1084F00003F110031B68D7F82C12009110466D4948
:108500001A46D7F830320CF045FB10E0684A674B4A
:1085100003F5AE5303F110031B68D7F82C1200913A
:10852000104665491A46D7F830320CF033FB604BE1
:1085300018464FF0010108F0DDF908F031FA5F4804
:108540004FF0000109F04EF8C7F83C025B4B1B6886
:10855000802B0ED0594B1B68B3F5006F09D0574BD9
:108560001B68B3F5805F04D0544B1B68B3F5005F04
:1085700003D1524B4FF000021A60D7F83C32002B67
:1085800004D14E4B1B68002B00F01D824C4B1A6827
:10859000D7F83C32D2184A4B1A60494B1B68152B4E
:1085A00006D1474B1B6803F1FF32454B1A6007E0C9
:1085B000434B1B68002B03DA414B4FF000021A605B
:1085C000404B1B68002B40F0AC80D7F83C32002BAE
:1085D0003CDA364B03F5DD531B68022B0DD1384BCB
:1085E0001B68002B04D0364B1B68012B40F0168112
:1085F000334B4FF002021A6010E12C4B03F5DD53B0
:108600001B68032B0DD12E4B1B68002B04D02C4B69
:108610001B68022B40F00281294B4FF001021A60C7
:10862000FCE0224B03F5DD531B68012B40F0F68084
:10863000234B1B68012B04D0214B1B68022B40F0FD
:10864000ED801F4B4FF000021A60E7E0D7F83C3294
:10865000002B40F3E380154B03F5DD531B68022B21
:108660000DD1174B1B68002B04D0154B1B68012B39
:1086700040F0D480124B4FF003021A60CEE00B4B57
:1086800003F5DD531B68032B36D10D4B1B68002B04
:1086900004D00B4B1B68022B40F0C080084B4FF0FE
:1086A00003021A60BAE000BF1F85EB516C00002086
:1086B0006416002004B8010814B80108E04E002038
:1086C00068000020584E00200000C8420000964379
:1086D00000C8AF480050C34700007A449899D93F7A
:1086E0000000384100D4AD4800B88847E17A943D95
:1086F00000002F44000000006F4B03F5DD531B68A2
:10870000012B40F08B806D4B1B68012B04D06B4B11
:108710001B68022B40F08280684B4FF003021A6006
:108720007CE0674B1B68012B78D1D7F83C32002BDB
:1087300038DA614B03F5DD531B68022B0CD15F4B1C
:108740001B68012B03D05D4B1B68022B66D15B4B72
:108750004FF000021A6061E0574B03F5DD531B68D0
:10876000032B0CD1554B1B68012B03D0534B1B68BB
:10877000022B53D1514B4FF000021A604EE04E4B8A
:1087800003F5DD531B68012B48D14C4B1B68012BB3
:1087900003D04A4B1B68022B40D1484B4FF00002DC
:1087A0001A603BE0D7F83C32002B37DD424B03F533
:1087B000DD531B68022B0CD1404B1B68012B03D0EF
:1087C0003E4B1B68022B29D13C4B4FF003021A6031
:1087D00024E0394B03F5DD531B68032B0CD1374BD9
:1087E0001B68012B03D0354B1B68022B16D1334B72
:1087F0004FF003021A6011E02F4B03F5DD531B68A5
:10880000012B0BD12D4B1B68012B03D02B4B1B686D
:10881000022B03D1294B4FF003021A60274B1B6830
:10882000092B11D1274B1B68002B0DD1D7F83C32F7
:10883000002B04DD214B4FF00A021A6048E01F4B69
:108840004FF008021A6043E01C4B1B680C2B13D13D
:10885000194B03F580531B68002B0DD1D7F83C3220
:10886000002B04DD154B4FF00D021A6030E0134B66
:108870004FF00B021A602BE0104B1B68132B08D132
:108880000F4B1B68012B04D10C4B4FF012021A60E6
:108890001EE00A4B1B68142B1AD1074B03F5DD535E
:1088A0001B68032B14D0064B1B68012B0CD1034B08
:1088B0004FF012021A600BE06C00002068000020EC
:1088C000584E0020344E0020964B4FF013021A6091
:1088D000D7F83C32002B21D0924B1B684FF4BA7270
:1088E00002FB03F303F118028F4BD31818464FF025
:1088F000000107F0FFFF8B4B1B684FF4BA7202FBBD
:1089000003F303F12802884BD31803F1040318463C
:108910004FF0010107F0EEFF08F042F8824BD3F868
:10892000BC38052B08D1814B1B68802B13D07F4BA3
:108930001B68B3F5006F0ED07B4BD3F8303A052B94
:108940000CD17A4B1B68B3F5805F04D0774B1B6862
:10895000B3F5005F02D109F00BFF16E0734B1B6803
:10896000802B0ED0714B1B68B3F5006F09D06F4B95
:108970001B68B3F5805F04D06C4B1B68B3F5005FD8
:1089800003D16A4B4FF000021A60674B03F5D053D6
:1089900003F12C031B68012B16D1644B1B68012BC0
:1089A0000CD0624B1B68102B08D0604B1B68202B2F
:1089B00004D05E4B1B68B3F5807F05D15B4B4FF055
:1089C00000021A6000E000BF584B1B68002B3FF408
:1089D0007DAC564B1B68012B02D109F0C9FEB3E0F8
:1089E000524B1B68102B04F01E80504B1B68202B31
:1089F00004F01B804D4B1B68B3F5807F40F09E80D8
:108A0000494B03F5965303F128031B68C7F8283236
:108A1000D7F82832092B08DC434B03F5965303F1B2
:108A200028034FF00A021A603BE0D7F82832132BD4
:108A300008DC3D4B03F5965303F128034FF0140275
:108A40001A602EE0D7F82832272B08DC364B03F5C6
:108A5000965303F128034FF028021A6021E0D7F85B
:108A600028323B2B08DC304B03F5965303F12803E7
:108A70004FF03C021A6014E0D7F828324F2B08DC84
:108A8000294B03F5965303F128034FF050021A6067
:108A900007E0254B03F5965303F128034FF00A0234
:108AA0001A60234A204B03F5965303F128031B68F1
:108AB000104620491A460CF06DF81B4B03F59653EF
:108AC00003F128031B6807F5B472104619491A46CA
:108AD0000CF060F807F5B47318464FF0010107F089
:108AE00009FF07F05DFF104B03F5965303F12803D0
:108AF0001B684FEAC313104A82FB03024FEA62125B
:108B00004FEAE373D31AC7F82432D7F824329BB262
:108B100043F480539BB29BB2184608F08BFB03F0E2
:108B200092BF00BF680000206C000020E04E0020D3
:108B30007C13002028B801081F85EB51BB4B1B6834
:108B4000002B01D008F078FEB94B1B68142B03F200
:108B5000758701A151F823F0AD8B0008618D0008E5
:108B6000998D0008D38D00084391000843910008B7
:108B70006597000865970008F5A000081FAC00087D
:108B800025AD000821AE000849AE00087BAF000803
:108B900015B100083DCA00086BB200088BBB000885
:108BA000F5C1000809C3000827C400089F4B1B68D3
:108BB000B3F5004F08D09F4B03F5D05303F12C03BE
:108BC0001B68012B03F033879A4B03F5DD531B68B9
:108BD000022B15D1984B1B68002B11D197484FF0F1
:108BE000000107F087FE96484FF0010107F082FE72
:108BF00007F0D6FE40F6B83008F0D6FA03F01EBFF4
:108C00008C4BD3F8D435002B79DD8E484FF0000122
:108C100007F070FE07F5AA728B4B14461D460FCD68
:108C20000FC42B682360834BD3F8D43542F2107203
:108C300002FB03F31A46854B1B68D31803F51C533C
:108C400003F10F03C7F820324FE0804B1B68D7F8C1
:108C50002022D21A7E4BA3FB02034FEA5333C7F8FC
:108C60001C32D7F81C32002B46D0D7F81C323C2BD4
:108C70000CDD764B1B68D7F82022D31A18464FF02C
:108C800000014FF0010208F0DFFB22E0D7F81C32B0
:108C9000012B0FDD07F5AA7318466E49D7F81C2281
:108CA0000BF078FF07F5AA7318464FF0010107F0A3
:108CB00021FE0EE007F5AA7318466749D7F81C2273
:108CC0000BF068FF07F5AA7318464FF0010107F093
:108CD00011FE07F065FE55484FF0000108F082FCD8
:108CE000524B1B68B3F5004F08D0584B1A68D7F8A1
:108CF00020329A42A9D302E000BF00E000BF07F093
:108D000069FB4FF0000004F07BFB4FF0000009F01E
:108D100023FE46484FF0000108F064FC434B4FF03F
:108D200000021A6005F0D0FB424BD3F8BC38022B8E
:108D30000ED0404BD3F8BC38032B09D03D4BD3F8B1
:108D4000303A022B04D03B4BD3F8303A032B03D1FB
:108D5000424B4FF003021A6009F00AFD03F06EBEA9
:108D60003F484FF0000107F0C5FD3E484FF00101BC
:108D700007F0C0FD07F014FE08F0DCFB08F0E2F994
:108D800007F06CF94FF4C87008F00EFA284B4FF05A
:108D900000021A6003F052BE264B03F5DD531B6838
:108DA000022B43F0468630484FF0000107F0A2FD49
:108DB0002E484FF0010107F09DFD07F0F1FD08F08E
:108DC000C1F908F0B7FB1A4B4FF000021A6003F02C
:108DD00035BE184BD3F86034C7F81832D7F81832BC
:108DE000772B5BD8D7F81832002B07D1204B1846C9
:108DF00020494FF008020FF059F948E0D7F818322F
:108E0000052B07D11A4B18461B49D7F818220BF02F
:108E1000C1FE3CE0D7F81832632B31D8144B18460A
:108E20001649D7F818220BF0B5FE30E0E04E0020CE
:108E3000680000206C000020584E002030B8010867
:108E400040B801084CB80108B4BC01086400002017
:108E50005917B7D160B801086CB801083C4E002022
:108E600078B8010884B801086C03002094B80108A0
:108E7000F4040020A4B80108ACB80108C0B8010887
:108E8000A24B1846A249D7F818220BF083FE9F4B3D
:108E900018464FF0010107F02DFDA2E0D7F8183277
:108EA000EF2B48D8D7F81832782B07D1974B1846B4
:108EB00098494FF00F020FF0F9F829E0D7F818326F
:108EC0007D2B0AD1914AD7F81832A3F178031046C6
:108ED00091491A460BF05EFE1AE0D7F81832A3F15A
:108EE0007803632B0AD8894AD7F81832A3F178039C
:108EF00010468A491A460BF04DFE09E0834AD7F81E
:108F00001832A3F17803104685491A460BF042FE49
:108F1000844B4FF0010283F888247C4B18460FF0F5
:108F200025FA034603F1FF337E4AD3184FF00202BD
:108F300083F8882455E0D7F8182240F267139A4244
:108F400048D8D7F81832F02B07D1704B184676491D
:108F50004FF00F020FF0AAF829E0D7F81832F52BDE
:108F60000AD16A4AD7F81832A3F1F00310466F49C4
:108F70001A460BF00FFE1AE0D7F81832A3F1F003EF
:108F8000632B0AD8614AD7F81832A3F1F0031046D0
:108F900067491A460BF0FEFD09E05C4AD7F8183223
:108FA000A3F1F003104663491A460BF0F3FD5D4B45
:108FB0004FF0010283F88824544B18460FF0D6F97D
:108FC000034603F1FF33574AD3184FF0020283F8E8
:108FD000882406E04D4B184657494FF00A020FF01F
:108FE00065F84A4B18464FF0010107F083FC07F083
:108FF000D7FC52484FF0000108F0F4FAC7F83C02E1
:10900000D7F83C32002B03D14C4B1B68002BF0D01F
:10901000D7F83C32002B2BD0424BD3F86014D7F852
:109020003C2213464FEA83039B18CA183D4BC3F8F2
:1090300060243C4BD3F86034002B05DA394B4FF0F9
:109040000002C3F860240AE0364BD3F86034B3F56D
:10905000B47F04DD334B4FF4B472C3F860242B4B60
:1090600018464FF0010107F045FC07F099FCB0E607
:1090700008F0E2FB4FF00003C7F8843226E0294AEB
:10908000D7F88432D31803F5906303F104031B79F6
:10909000012B0AD0234AD7F88432D31803F5906302
:1090A00003F104031B79022B0AD11E4AD7F884323C
:1090B000D31803F5906303F104034FF020021A71F3
:1090C000D7F8843203F10103C7F88432D7F8844219
:1090D0000E4B18460FF04AF903469C42CFD30B4B78
:1090E00018464FF0010107F005FC07F059FC4FF05E
:1090F000000009F031FC11484FF0000108F072FA4D
:109100000E4B4FF000021A6003F098BCF4040020EC
:10911000D0B80108E0B80108F0B8010808B90108A2
:1091200020B901086C00002034B9010844B90108D5
:109130005CB9010874B9010888B90108E04E002043
:1091400000BFB54B1B68B54A4FF4BA7101FB03F37E
:10915000D31803F104031B68002B29D1AE4B1B6805
:10916000042B12D1AC4B1B684FF4BA7202FB03F311
:1091700003F12802A94BD31803F104031846A849A8
:109180004FF00D020EF092FF8EE0A34B1B684FF4E0
:10919000BA7202FB03F303F12802A04BD31803F1C8
:1091A000040318469F494FF00F020EF07FFF7BE04B
:1091B000994B1B68994A4FF4BA7101FB03F3D3181A
:1091C00003F104031B68012B1DD1934B1B684FF463
:1091D000BA7202FB03F303F12802904BD31803F198
:1091E00004031A468C4B1B688C494FF4BA7000FB81
:1091F00003F3CB1803F104031B6810468A491A468F
:109200000BF0C8FC50E0844B1B68844A4FF4BA71E1
:1092100001FB03F3D31803F104031B68772B1DDC58
:109220007D4B1B684FF4BA7202FB03F303F1280273
:109230007A4BD31803F104031A46774B1B6877491E
:109240004FF4BA7000FB03F3CB1803F104031B685F
:10925000104676491A460BF09DFC25E06E4B1B68C4
:109260004FF4BA7202FB03F303F128026B4BD318DD
:1092700003F104031A46684B1B6868494FF4BA703F
:1092800000FB03F3CB1803F104031B68684981FB5F
:109290000301C9184FEA61114FEAE373CB1A104674
:1092A00064491A460BF076FC5B4B1B684FF4BA72AC
:1092B00002FB03F303F12802584BD31803F1040314
:1092C00018464FF0010107F015FB07F069FB5A48FB
:1092D0004FF0000108F086F9C7F83C02D7F83C329D
:1092E000002B03D1544B1B68002BF0D0D7F83C3235
:1092F000002B00F05C81484B1B68484A4FF4BA7160
:1093000001FB03F3D31803F104031B683B2B38DC88
:10931000414B1B68404A126840494FF4BA7000FB49
:1093200002F28A1802F104021168D7F83C228A1866
:109330003A494FF4BA7000FB03F3CB1803F104036E
:109340001A60354B1B68052B40F01581334BD3F861
:109350004837042B00F30F81D7F83C32012B04D19E
:109360002E4B4FF00502C3F84827D7F83C32B3F133
:10937000FF3F40F00081294B4FF00002C3F848271F
:10938000F9E0254B1B68254A4FF4BA7101FB03F342
:10939000D31803F104031B683C2B4FD1D7F83C32A0
:1093A000002B19DA1C4B1B681B4A12681B494FF42F
:1093B000BA7000FB02F28A1802F104021168D7F8B1
:1093C0003C228A1815494FF4BA7000FB03F3CB18FE
:1093D00003F104031A60CEE00F4B18680E4B1B68B4
:1093E0000E4A4FF4BA7101FB03F3D31803F10403DF
:1093F0001968D7F83C2213464FEA83039B184FEABB
:109400004303CA1805494FF4BA7303FB00F3CB18A2
:1094100003F104031A60AEE0680000206C00002035
:1094200094B90108A4B90108B4B90108C4B9010884
:1094300089888888D4B90108E04E00209E4B1B68BB
:109440009E4A4FF4BA7101FB03F3D31803F10403EE
:109450001B68782B43D1D7F83C32002B1FDA964B90
:109460001868954B1B68954A4FF4BA7101FB03F3DA
:10947000D31803F104031968D7F83C2213464FEAC6
:1094800083039B184FEA4303CA188C494FF4BA73FD
:1094900003FB00F3CB1803F104031A606BE0864B67
:1094A0001868854B1B68854A4FF4BA7101FB03F3BA
:1094B000D31803F104031968D7F83C2213464FEA86
:1094C00003139B1A4FEA8303CA187C494FF4BA73FB
:1094D00003FB00F3CB1803F104031A604BE0764B57
:1094E0001B68764A4FF4BA7101FB03F3D31803F1FA
:1094F00004031B68772B1FDD6F4B18686E4B1B68CE
:109500006E4A4FF4BA7101FB03F3D31803F104035D
:109510001968D7F83C2213464FEA03139B1A4FEA07
:109520008303CA1865494FF4BA7303FB00F3CB18E1
:1095300003F104031A601EE05F4B18685E4B1B6862
:109540005E4A4FF4BA7101FB03F3D31803F104032D
:109550001968D7F83C2213464FEA83039B184FEA59
:109560004303CA1855494FF4BA7303FB00F3CB18F1
:1095700003F104031A60504B1B68504A4FF4BA7150
:1095800001FB03F3D31803F104031B68002BBFF6A0
:10959000D7AD494B1B68494A4FF4BA7101FB03F33D
:1095A000D31803F104034FF000021A60C9E508F074
:1095B00043F9414B1B68414A4FF4BA7101FB03F375
:1095C000D31803F104031B68002B1ED13A4B1B6810
:1095D000052B07D13A4B18463A494FF00B020EF0D3
:1095E00065FD9DE0344B1B684FF4BA7202FB03F338
:1095F00003F12802314BD31803F104031846324912
:109600004FF009020EF052FD8AE02B4B1B682B4AEB
:109610004FF4BA7101FB03F3D31803F104031B6881
:10962000012B1DD1244B1B684FF4BA7202FB03F3CC
:1096300003F12802214BD31803F104031A461E4BF1
:109640001B681E494FF4BA7000FB03F3CB1803F1FB
:1096500004031B6810461D491A460BF09BFA5FE095
:10966000154B1B68154A4FF4BA7101FB03F3D3186D
:1096700003F104031B68772B2CDC0F4B1B684FF4A2
:10968000BA7202FB03F303F128020C4BD31803F167
:1096900004031A46084B1B6808494FF4BA7000FBD4
:1096A00003F3CB1803F104031B68104608491A465C
:1096B0000BF070FA34E000BF680000206C0000205E
:1096C000DC070020E4B90108F0B901086CB8010812
:1096D00060B80108B14B1B684FF4BA7202FB03F388
:1096E00003F12802AE4BD31803F104031A46AB4B27
:1096F0001B68AB494FF4BA7000FB03F3CB1803F1BE
:1097000004031B68A74981FB0301C9184FEA6111D3
:109710004FEAE373CB1A1046A3491A460BF03AFA04
:109720009E4B1B684FF4BA7202FB03F303F128024D
:109730009B4BD31803F1040318464FF0010107F0C7
:10974000D9F807F02DF94FF0000009F005F9974816
:109750004FF0000107F046FF944B4FF000021A60F3
:1097600003F06CB98D4B1B684FF4BA7202FB03F324
:1097700003F128028A4BD31803F104031946874BDF
:109780001B68874A4FF4BA7000FB03F3D31803F148
:1097900004031B681A4613464FEA83039B184FEADB
:1097A0008303CB1818464FF0010107F0A3F807F028
:1097B000F7F87E484FF0000107F014FFC7F83C02AD
:1097C000D7F83C32002B03D1784B1B68002BF0D02C
:1097D000D7F83C32002B00F0EB80704B1B68704ACE
:1097E0004FF4BA7101FB03F3D31803F5B8731A6889
:1097F000D7F83C32D318C7F81432684B1B68684A54
:109800004FF4BA7101FB03F3D31803F5B6731A686A
:10981000D7F814329A4201DA00F068BCD7F8143253
:10982000002B01DC00F062BC5C4B1B685C4A4FF40F
:10983000BA7101FB03F3D31803F5B873D7F81422F8
:109840001A60D7F8143203F1FF33092B00F2A48019
:1098500001A151F823F000BF819800089D980008ED
:10986000B9980008D5980008F19800080D990008EB
:109870002999000845990008619900087D99000818
:10988000464B1B68464A4FF4BA7101FB03F3D318E9
:1098900003F104034FF001021A607DE03F4B1B68A7
:1098A0003F4A4FF4BA7101FB03F3D31803F10403E9
:1098B0004FF002021A606FE0384B1B68384A4FF4D1
:1098C000BA7101FB03F3D31803F104034FF0030251
:1098D0001A6061E0314B1B68314A4FF4BA7101FBE9
:1098E00003F3D31803F104034FF004021A6053E0AA
:1098F0002A4B1B682A4A4FF4BA7101FB03F3D318B1
:1099000003F104034FF005021A6045E0234B1B6886
:10991000234A4FF4BA7101FB03F3D31803F1040394
:109920004FF006021A6037E01C4B1B681C4A4FF4CC
:10993000BA7101FB03F3D31803F104034FF00702DC
:109940001A6029E0154B1B68154A4FF4BA7101FBE8
:1099500003F3D31803F104034FF008021A601BE06D
:109960000E4B1B680E4A4FF4BA7101FB03F3D31878
:1099700003F104034FF009021A600DE0074B1B6866
:10998000074A4FF4BA7101FB03F3D31803F1040340
:109990004FF00A021A6000BFA8E300BF6800002071
:1099A0006C00002089888888FCB90108E04E0020FE
:1099B00007F042FFB64B1B68B64A4FF4BA7101FB81
:1099C00003F3D31803F104031B68042B47D1B24BF4
:1099D0004FF001021A60AE4B1B68184605F05CFCA4
:1099E000AD4B4FF000021A6007F026FFA84B1B6832
:1099F0001A46A74B1B68A7494FF4BA7000FB03F344
:109A0000CB1803F104031B68104619464FF00002FF
:109A10004FF0010309F0DAFE9D4B1B684FF4BA7258
:109A200002FB03F303F118029A4BD31818464FF0C8
:109A3000000106F05FFF964B1B684FF4BA7202FB01
:109A400003F303F12802934BD31803F104031846E0
:109A50004FF0010106F04EFF06F0A2FF48E38C4BE9
:109A60001B688C4A4FF4BA7101FB03F3D31803F15E
:109A700004031B68062B40F0A08088484FF00001CB
:109A800006F038FF02E000BF00E000BF804B1B681B
:109A90004FF4BA7202FB03F303F128027D4BD31893
:109AA00003F104031A467A4B1B687A494FF4BA70E3
:109AB00000FB03F3CB1803F108031B681046784939
:109AC0001A460BF067F8724B1B684FF4BA7202FB30
:109AD00003F303F128026F4BD31803F10403184674
:109AE0004FF0010106F006FF06F05AFF6D484FF0F7
:109AF000000107F077FDC7F83C02D7F83C32002B95
:109B000003D1684B1B68002BF0D0D7F83C32002BF8
:109B100032D05F4B1B685F4A4FF4BA7101FB03F30D
:109B2000D31803F108031A68D7F83C32D318C7F8E2
:109B30001032D7F810320B2BA5DDD7F81032482B96
:109B4000A3DC534B1B68534A4FF4BA7101FB03F378
:109B5000D31803F10803D7F810221A604C4B1B6886
:109B6000062B04D1D7F810224F4B1A608EE7D7F896
:109B700010224E4B1A6089E707F05EFE444B1B68CB
:109B80004FF4BA7202FB03F303F11802414BD318EE
:109B900018464FF0000106F0ADFE06F001FF4FF051
:109BA000000008F0D9FE3F484FF0000107F01AFD11
:109BB0003C4B4FF000021A6098E2354B1B68354A67
:109BC0004FF4BA7101FB03F3D31803F104031B68CC
:109BD000072B40F0928036484FF0000106F08AFED5
:109BE00002E000BF00E000BF3249294B1B68294A50
:109BF0004FF4BA7000FB03F3D31803F10C031B6896
:109C00001A4613464FEA83039B184FEA8303CB1887
:109C100018464FF0010106F06DFE06F0C1FE214826
:109C20004FF0000107F0DEFCC7F83C02D7F83C32E9
:109C3000002B03D11B4B1B68002BF0D0D7F83C3214
:109C4000002B39D0124B1B68124A4FF4BA7101FB3A
:109C500003F3D31803F10C031A68D7F83C32D31876
:109C6000C7F80C32D7F80C32002BBADBD7F80C321D
:109C7000042BB8DC064B1B68064A4FF4BA7101FB93
:109C800003F3D31803F10C03D7F80C221A60ABE7E7
:109C9000680000206C000020744E002008BA010803
:109CA00018BA0108E04E0020884E00208C4E00209B
:109CB00028BA0108F01E002007F0BEFDA64B1B6865
:109CC0004FF4BA7202FB03F303F11802A34BD3184B
:109CD00018464FF0000106F00DFE06F061FE4FF051
:109CE000000008F039FE9E484FF0000107F07AFCB2
:109CF0009B4B4FF000021A60F8E1974B1B68974AA4
:109D00004FF4BA7101FB03F3D31803F104031B688A
:109D1000082B0DD0904B1B68904A4FF4BA7101FB91
:109D200003F3D31803F104031B68092B40F00081EF
:109D300006F068F84FF064004FF0010107F0ACFA4C
:109D400087484FF0000107F04DFCC7F83C02854BF7
:109D50001B6903F08003002B14BF00230123C7F805
:109D60000432804B1B6903F48073002B14BF002363
:109D70000123C7F800327B4B1B6903F01003002B53
:109D800014BF00230123C7F8FC31764B1B6903F095
:109D90002003002B14BF00230123C7F8F831D7F8A4
:109DA0000432002B0BD1D7F80032002B07D1D7F8A3
:109DB000FC31002B03D1D7F8F831002B72D0664B61
:109DC0001B68062B35D1D7F80432002B16D0624B16
:109DD0001B68624A4FF4BA7101FB03F3D31803F115
:109DE00004031B68082B09D14FF014005E4940F6AC
:109DF000F4624FF0010307F09FFA53E0D7F8003206
:109E0000002B4CD0544B1B68544A4FF4BA7101FBE1
:109E100003F3D31803F104031B68092B41D14FF05E
:109E20001400514940F6F4624FF0010307F084FA40
:109E300038E0D7F8FC31002B16D0474B1B68474A57
:109E40004FF4BA7101FB03F3D31803F104031B6849
:109E5000082B09D14FF01400434940F6F4624FF04B
:109E6000010307F069FA1DE0D7F8F831002B19D08B
:109E7000394B1B68394A4FF4BA7101FB03F3D3180D
:109E800003F104031B68092B0CD14FF01400364971
:109E900040F6F4624FF0010307F04EFA02E000BF13
:109EA00000E000BFD7F83C32002B04D12C4B1B68DC
:109EB000002B3FF445AF05F0A5FF07F0BDFC264B96
:109EC0001B681A46244B1B6824494FF4BA7000FBE8
:109ED00003F3CB1803F104031B68104619464FF037
:109EE00000024FF0010309F071FC1B4B1B684FF49B
:109EF000BA7202FB03F303F11802184BD318184689
:109F00004FF0000106F0F6FC134B1B684FF4BA72D9
:109F100002FB03F303F12802104BD31803F10403EF
:109F200018464FF0010106F0E5FC06F039FDDFE0D0
:109F3000094B1B68094A4FF4BA7101FB03F3D318AC
:109F400003F104031B680A2B40F0998007484FF087
:109F5000000106F0CFFC0CE0680000206C0000203F
:109F6000E04E002000040240CC98010834BA0108F9
:109F700000BF9E4B1B684FF4BA7202FB03F303F160
:109F800028029B4BD31803F104031A46974B1B6816
:109F900097494FF4BA7000FB03F3CB1803F1100399
:109FA0001B68104693491A460AF0F4FD8F4B1B6854
:109FB0004FF4BA7202FB03F303F128028C4BD3185F
:109FC00003F1040318464FF0010106F093FC06F07C
:109FD000E7FC89484FF0000107F004FBC7F83C029A
:109FE000D7F83C32002B03D1834B1B68002BF0D0F9
:109FF000D7F83C32002B21D07C4B1B687C4A4FF4B5
:10A00000BA7101FB03F3D31803F110031A68D7F8F0
:10A010003C32D318C7F80832D7F80832002BA7DB38
:10A02000724B1B68724A4FF4BA7101FB03F3D318E9
:10A0300003F11003D7F808221A609AE707F0FCFB37
:10A040006A4B1B684FF4BA7202FB03F303F1180268
:10A05000674BD31818464FF0000106F04BFC06F092
:10A060009FFC4FF0000008F077FC63484FF00001C0
:10A0700007F0B8FA604B4FF000021A6036E05B4B15
:10A080001B681A46594B1B6859494FF4BA7000FBBC
:10A0900003F3CB1803F104031B68104619464FF075
:10A0A00000024FF0010309F091FB504B1B684FF485
:10A0B000BA7202FB03F303F128024D4BD31803F1EC
:10A0C000040318464FF0010106F014FC06F068FC8A
:10A0D0004FF0000008F040FC47484FF0000107F047
:10A0E00081FA454B4FF000021A6001E0FFF73ABBDE
:10A0F00002F0A4BC414B1B68002B0DD1404B18460D
:10A10000404909F0B3FB3F484FF0010106F0F2FB74
:10A1100006F046FC02F092BC07F5A0723A4B1446DA
:10A120001D460FCD0FC42B68236007F59672364B82
:10A1300014461D460FCD0FC42B68236007F58C72A3
:10A14000314B14461D460FCD0FC42B68236007F515
:10A1500082722D4B14461D460FCD0FC42B68236011
:10A16000234BD3F8A43BC7F8F431214BD3F8A43BDD
:10A1700003F10103C7F8F0312449D7F8F42113465D
:10A180004FEA83039B184FEA0313CB1803F1100324
:10A190005B78062B12D11D49D7F8F42113464FEAFC
:10A1A00083039B184FEA0313CB181B6807F58C72C7
:10A1B000104617491A460AF0EDFC11E01349D7F88A
:10A1C000F42113464FEA83039B184FEA0313CB187D
:10A1D0001B6807F58C7210460E491A460AF0DAFC25
:10A1E0004FF00003C7F8803228E000BF680000206D
:10A1F0006C00002040BA0108E04E0020344E0020E0
:10A20000380C00204CBA0108B4BC0108541F0020CF
:10A2100058BA010864BA010807F58C72D7F8803281
:10A22000D3181A7807F5A071D7F88032CB181A70B6
:10A23000D7F8803203F10103C7F8803207F58C7339
:10A2400018460EF093F80246D7F880329A42E3D8C7
:10A25000B449D7F8F42113464FEA83039B184FEA19
:10A260000313CB1803F110031B78002B40F0178168
:10A27000AC49D7F8F02113464FEA83039B184FEA05
:10A280000313CB1803F110031B78002B00F0078198
:10A29000D7F8F42113464FEA83039B184FEA0313C0
:10A2A00003F110029F4BD31803F1020307F58272EA
:10A2B000104619460DF0FCFF4FF00003C7F880323E
:10A2C00007F5827318460EF051F80346C3F11203E6
:10A2D000C7F87C3217E007F58272D7F88032D318BE
:10A2E0001A7807F5A071D7F87C32CB181A70D7F816
:10A2F0007C3203F10103C7F87C32D7F8803203F1D6
:10A300000103C7F88032D7F87C32132BE3D907F565
:10A31000A0734FF020029A7407F5A0734FF020024B
:10A32000DA748049D7F8F02113464FEA83039B186B
:10A330004FEA0313CB1803F110035B78062B12D1FD
:10A340007849D7F8F02113464FEA83039B184FEA68
:10A350000313CB181B6807F58C72104672491A4616
:10A360000AF018FC11E06F49D7F8F02113464FEAC4
:10A3700083039B184FEA0313CB181B6807F58C72F5
:10A3800010466A491A460AF005FC4FF00003C7F868
:10A39000803211E007F58C72D7F88032D3181A7822
:10A3A00007F59671D7F88032CB181A70D7F880323B
:10A3B00003F10103C7F8803207F58C7318460DF0DE
:10A3C000D5FF0246D7F880329A42E3D85549D7F8EC
:10A3D000F02113464FEA83039B184FEA0313CB186F
:10A3E00003F104031B68002B49D0D7F8F021134672
:10A3F0004FEA83039B184FEA031303F11002494B02
:10A40000D31803F1020307F58272104619460DF0C6
:10A410004FFF4FF00003C7F8803207F582731846EC
:10A420000DF0A4FF0346C3F11203C7F87C3217E016
:10A4300007F58272D7F88032D3181A7807F596712B
:10A44000D7F87C32CB181A70D7F87C3203F10103AD
:10A45000C7F87C32D7F8803203F10103C7F88032A5
:10A46000D7F87C32132BE3D907F596734FF020020F
:10A470009A7407F596734FF02002DA7490E207F5AC
:10A48000967303F10C03184629494FF007020DF0AB
:10A490000DFE07F596734FF020029A7480E2214971
:10A4A000D7F8F42113464FEA83039B184FEA0313AE
:10A4B000CB1803F110031B78002B40F026811949BB
:10A4C000D7F8F02113464FEA83039B184FEA031392
:10A4D000CB1803F110031B78002B40F01681D7F83E
:10A4E000F42113464FEA83039B184FEA031303F149
:10A4F00010020C4BD31803F1020307F582721046C9
:10A5000019460DF0D5FE4FF00003C7F8803207F56D
:10A51000827318460DF02AFF0346C3F11203C7F8F1
:10A520007C321FE0541F002058BA010864BA0108A9
:10A5300070BA010807F58272D7F88032D3181A78FA
:10A5400007F5A071D7F87C32CB181A70D7F87C3297
:10A5500003F10103C7F87C32D7F8803203F101031D
:10A56000C7F88032D7F87C32132BE3D907F5A073F4
:10A570004FF020029A7407F5A0734FF02002DA74AE
:10A580009149D7F8F02113464FEA83039B184FEA0D
:10A590000313CB181B68002B00F09F808A49D7F863
:10A5A000F02113464FEA83039B184FEA0313CB189D
:10A5B00003F110035B78062B12D18349D7F8F02101
:10A5C00013464FEA83039B184FEA0313CB181B680B
:10A5D00007F58C7210467D491A460AF0DBFA11E045
:10A5E0007949D7F8F02113464FEA83039B184FEAC5
:10A5F0000313CB181B6807F58C72104674491A4672
:10A600000AF0C8FA4FF00003C7F8803211E007F5EE
:10A610008C72D7F88032D3181A7807F59671D7F86C
:10A620008032CB181A70D7F8803203F10103C7F8D3
:10A63000803207F58C7318460DF098FE0246D7F865
:10A6400080329A42E3D8D7F8F02113464FEA8303C9
:10A650009B184FEA031303F110025B4BD31803F16D
:10A66000020307F58272104619460DF021FE4FF0E5
:10A670000003C7F8803207F5827318460DF076FEA6
:10A680000346C3F11203C7F87C3217E007F5827264
:10A69000D7F88032D3181A7807F59671D7F87C323C
:10A6A000CB181A70D7F87C3203F10103C7F87C325B
:10A6B000D7F8803203F10103C7F88032D7F87C3233
:10A6C000132BE3D907F596734FF020029A7407F520
:10A6D00096734FF02002DA7462E14FF00003C7F87E
:10A6E00080320DE007F59672D7F88032D3184FF01C
:10A6F00020021A70D7F8803203F10103C7F88032C4
:10A70000D7F88032132BEDD94AE12F49D7F8F4213D
:10A7100013464FEA83039B184FEA0313CB1803F148
:10A7200010031B78002B00F0C4802749D7F8F421D0
:10A7300013464FEA83039B184FEA0313CB1803F128
:10A7400004031B68002B1CD107F5A07303F10C0355
:10A75000184620494FF007020DF0A8FC07F5A0733A
:10A760004FF020029A7407F5967318461A494FF075
:10A7700007020DF09BFC07F596734FF020029A71CB
:10A780005FE0D7F8F42113464FEA83039B184FEAA2
:10A79000031303F110020C4BD31803F1020307F566
:10A7A0008272104619460DF083FD4FF00003C7F882
:10A7B000803207F5827318460DF0D8FD0346C3F1C9
:10A7C0001203C7F87C3221E0541F002058BA010858
:10A7D00064BA010870BA010878BA010807F58272F4
:10A7E000D7F88032D3181A7807F5A071D7F87C32E1
:10A7F000CB181A70D7F87C3203F10103C7F87C320A
:10A80000D7F8803203F10103C7F88032D7F87C32E1
:10A81000132BE3D907F5A0734FF020029A7407F5C4
:10A82000A0734FF02002DA7407F596731846AD490D
:10A830004FF007020DF03AFC07F596734FF0200237
:10A840009A71D7F8F42113464FEA83039B184FEA15
:10A85000031303F12002A44BD31803F10603184697
:10A860000DF084FD0346C3F11203C7F87C3207F5EF
:10A870009672D7F87C32D118D7F8F42113464FEAF4
:10A8800083039B184FEA031303F12002964BD3185E
:10A8900003F10603084619460DF00AFD07F5967305
:10A8A0004FF020029A7407F596734FF02002DA7485
:10A8B00076E0D7F8F42113464FEA83039B184FEA5A
:10A8C000031303F11002884BD31803F1020307F5B9
:10A8D0008272104619460DF0EBFC4FF00003C7F8EA
:10A8E00080320DE007F5A072D7F88032D3184FF010
:10A8F00020021A70D7F8803203F10103C7F88032C2
:10A90000D7F88032132BEDD94FF00003C7F880320F
:10A9100007F5827318460DF029FD0346C3F11203B3
:10A92000C7F87C3217E007F58272D7F88032D31867
:10A930001A7807F5A071D7F87C32CB181A70D7F8BF
:10A940007C3203F10103C7F87C32D7F8803203F17F
:10A950000103C7F88032D7F87C32132BE3D907F50F
:10A96000A0734FF020029A7407F5A0734FF02002F5
:10A97000DA744FF00003C7F880320DE007F59672E5
:10A98000D7F88032D3184FF020021A70D7F88032EF
:10A9900003F10103C7F88032D7F88032132BEDD9C9
:10A9A000524B1B68012B00F0EA80504B1B68032BB5
:10A9B00028D9D7F8F43103F1FF324B4913464FEA57
:10A9C00083039B184FEA0313CB181B68002B19D085
:10A9D000D7F8F03103F10102434913464FEA8303EC
:10A9E0009B184FEA0313CB181B68002B0AD007F5FE
:10A9F000A0734FF00302DA7407F596734FF0040268
:10AA0000DA74BCE0394B1B68022B0DD1D7F8F43156
:10AA1000002B09D1344B1B7C002B05D007F5967316
:10AA20004FF00402DA74AAE0D7F8F4212F4B1B6828
:10AA30009A4205D0D7F8F0212C4B1B689A4214D1CA
:10AA40002949D7F8F42113464FEA83039B184FEAAC
:10AA50000313CB1803F110031B78002B05D007F567
:10AA6000A0734FF00302DA7489E0204B1B68022BBD
:10AA70001DD9D7F8F431002B19DD1B49D7F8F42183
:10AA800013464FEA83039B184FEA0313CB1803F1D5
:10AA900010031B78002B0AD007F5A0734FF00302B8
:10AAA000DA7407F596734FF00402DA7467E0D7F8AA
:10AAB000F431002B1CD10C49D7F8F02113464FEA92
:10AAC00083039B184FEA0313CB181B68002B0FD08E
:10AAD000064B1B68022B0BD007F596734FF0040250
:10AAE000DA744CE078BA0108541F0020344E00207C
:10AAF000D7F8F431002B03D1D7F8F031012B3ED039
:10AB0000D7F8F021D7F8F4319A420EDDD7F8F431B6
:10AB100003F1FF32B44913464FEA83039B184FEA0F
:10AB20000313CB181B68002B16D1B04B1B6803F125
:10AB3000FF32D7F8F4319A4214D1AC4B1B68A3F121
:10AB40000202A94913464FEA83039B184FEA0313F5
:10AB5000CB181B68002B05D007F5A0734FF003023C
:10AB6000DA740CE0D7F8F431002B08D19E4B1B6D42
:10AB7000002B04D007F596734FF00402DA7407F542
:10AB8000A07318464FF0000105F084FE07F5967398
:10AB900018464FF0010105F07DFE05F001FF9448D5
:10ABA0004FF0000106F01EFDC7F83C02D7F83C321A
:10ABB000002B03D18E4B1B68002BF0D0D7F83C3212
:10ABC000002B28D08B4BD3F8A42BD7F83C32D31AC8
:10ABD000C7F8EC31D7F8EC31002B0ADBD7F8EC21C1
:10ABE000824B1B689A4204D2824BD7F8EC21C3F8FF
:10ABF000A42B07F5A07318464FF0000105F04AFE9C
:10AC000007F5967318464FF0010105F043FE05F075
:10AC1000C7FEFFF781BA06F00FFE01F00FBF734BBE
:10AC20001B68002B01F0078773484FF0000105F007
:10AC300061FE72484FF0010105F05CFE05F0B0FEC8
:10AC400000E000BF6A484FF0000106F0CBFCC7F8F7
:10AC50003C02D7F83C32002B03D1654B1B68002B1C
:10AC6000F0D0D7F83C32B3F1FF3F0CD1614B4FF03D
:10AC70000102C3F8182D62484FF0010105F03AFEB9
:10AC800005F08EFE0FE0D7F83C32012B0BD1594B6B
:10AC90004FF00002C3F8182D58484FF0010105F09D
:10ACA00029FE05F07DFE524B1B68B3F5004FC8D15D
:10ACB000504BD3F8183D012B2ED1524B1846524918
:10ACC00008F0D4FD51484FF0010105F013FE05F0E6
:10ACD00067FE07F08BFD4FF0000007F03DFE444893
:10ACE0004FF0000106F07EFC414B4FF000021A606D
:10ACF00047484FF0000105F0FDFD46484FF00101C7
:10AD000005F0F8FD05F04CFE4FF4FA6006F04CFA41
:10AD1000414B4FF008021A6000BF01F08FBE00BF28
:10AD200000E000BF3D49334BD3F88C3E1A46134632
:10AD30004FEA83039B184FEA8303CB1818464FF062
:10AD4000010105F0D7FD05F02BFE29484FF0000169
:10AD500006F048FCC7F83C02D7F83C32002B03D180
:10AD6000234B1B68002BF0D0D7F83C32002B15D0BA
:10AD7000204BD3F88C2ED7F83C32D318C7F8E831E3
:10AD8000D7F8E831002BCADDD7F8E831022BC8DC50
:10AD9000184BD7F8E821C3F88C2EC3E706F04CFD1A
:10ADA000144BD3F88C3E4FF00A0019464FF00002C6
:10ADB0004FF0010308F00AFD184B18464FF001014F
:10ADC00005F098FD05F0ECFD4FF0000007F0C4FD24
:10ADD00007484FF0000106F005FC054B4FF000025C
:10ADE0001A6001F02BBE00BF541F0020344E00201B
:10ADF000E04E00206C00002080BA010890BA0108E3
:10AE00009CBA0108380C00204CBA0108A8BA010805
:10AE1000B4BA0108C8BA010868000020200F002059
:10AE2000AD4AAE4B03F580531B681046AC491A4639
:10AE300009F0B0FEA84B18464FF0010105F05AFD8D
:10AE400005F0AEFD01F0FABDA44B03F580531B687D
:10AE5000002B01F0F285A3484FF0000105F04AFDF8
:10AE6000A1484FF0010105F045FD05F099FD9B4B10
:10AE700003F58A5303F134034FF000021A6000E037
:10AE800000BF9A484FF0000106F0ACFBC7F83C0247
:10AE9000D7F83C32002B03D1944B1B68002BF0D029
:10AEA000D7F83C32B3F1FF3F0FD18C4B03F58A53F7
:10AEB00003F134034FF001021A608D484FF0010195
:10AEC00005F018FD05F06CFD12E0D7F83C32012BBF
:10AED0000ED1824B03F58A5303F134034FF0000285
:10AEE0001A6081484FF0010105F004FD05F058FD9E
:10AEF0007E4B1B68B3F5004FC2D1784B03F58A53E4
:10AF000003F134031B68002B00D134E0734B03F5CD
:10AF10008A5303F134031B68002B2BDD6E4B18465C
:10AF2000744908F0A3FC6D4B03F580534FF0000209
:10AF30001A604FF0000007F00FFD6C484FF0000161
:10AF400006F050FB694B4FF000021A606A484FF060
:10AF5000000105F0CFFC69484FF0010105F0CAFC83
:10AF600005F01EFD4FF4FA6006F01EF9644B4FF039
:10AF70000B021A6000BF01F061BD624A574B03F536
:10AF8000965303F128031B6810465F491A4609F0DF
:10AF900001FE5B4B1B684FF4BA7202FB03F303F133
:10AFA00028024E4BD31803F1040318464FF0010159
:10AFB00005F0A0FC05F0F4FC4C484FF0000106F051
:10AFC00011FBC7F83C02D7F83C32002B03D1474BAA
:10AFD0001B68002BF0D0D7F83C32002B4BD03F4BF6
:10AFE00003F5965303F128031A68D7F83C32D218B8
:10AFF0003A4B03F5965303F128031A60374B03F5D8
:10B00000965303F128031B68C7F87832D7F87832D3
:10B01000642B03DD4FF06403C7F87832D7F8783239
:10B02000002B03DA4FF00003C7F878322B4B03F5FF
:10B03000965303F12803D7F878221A60274B03F5BB
:10B04000965303F128031B684FEAC3132F4A82FB70
:10B0500003024FEA62124FEAE373D31AC7F8E431EE
:10B06000D7F8E4319BB243F480539BB29BB21846AD
:10B0700006F0E0F881E706F0DFFB224A174B03F504
:10B08000965303F128031B68104621491A4609F01C
:10B0900081FD1B4B1B684FF4BA7202FB03F303F1F3
:10B0A00028020E4BD31803F1040318464FF0010198
:10B0B00005F020FC05F074FC4FF0000007F04CFC9C
:10B0C0000A484FF0000106F08DFA084B4FF00002DD
:10B0D0001A6001F0B3BC00BF941000206C00002087
:10B0E000D0BA010880BA010890BA0108E04E0020E9
:10B0F0009CBA0108D4BA0108D8BA0108ECBA010810
:10B10000680000207C130020F4BA01081F85EB5171
:10B1100028B80108AE4AAF4B03F5A25303F11C0354
:10B120001B681046AC491A4609F034FDAB4B1B684E
:10B130004FF4BA7202FB03F303F12802A54BD318B4
:10B1400003F1040318464FF0010105F0D3FB05F0AD
:10B1500027FCA3484FF0000106F044FAC7F83C0270
:10B16000D7F83C32002B03D19D4B1B68002BF0D04D
:10B17000D7F83C32002B47D0964B03F5A25303F18E
:10B180001C031A68D7F83C32D218924B03F5A2532D
:10B1900003F11C031A608F4B03F5A25303F11C0348
:10B1A0001B68C7F87432D7F87432642B03DD4FF094
:10B1B0006403C7F87432D7F87432002B03DA4FF007
:10B1C0000003C7F87432834B03F5A25303F11C0349
:10B1D000D7F874221A607F4B03F5A25303F11C03C6
:10B1E0001B684FEAC3137F4A82FB03124FEA6212C5
:10B1F0004FEAE373D31AC7F8E031D7F8E0319BB2D6
:10B20000184606F017F885E706F016FB704A714BF2
:10B2100003F5A25303F11C031B68104672491A463A
:10B2200009F0B8FC6D4B1B684FF4BA7202FB03F3D4
:10B2300003F12802674BD31803F1040318464FF0BB
:10B24000010105F057FB05F0ABFB4FF0000007F0E4
:10B2500083FB63484FF0000106F0C4F9604B4FF0E8
:10B2600000021A6001F0EABB00BF6049594B03F5C8
:10B27000BA5303F104031B681A4613464FEA8303CB
:10B280009B184FEA8303CB1818464FF0010105F0D5
:10B2900031FB05F085FB52484FF0010106F0A2F9A1
:10B2A000C7F83C02D7F83C32002B03D14C4B1B684B
:10B2B000002BF0D0D7F83C32002B00F09980454BA2
:10B2C00003F5C45303F130031A68D7F83C32D3189E
:10B2D000C7F8DC313F4B03F5C45303F12C031A6864
:10B2E000D7F8DC319A4201DA00F04ABCD7F8DC31F9
:10B2F000002B01DC00F044BC364B03F5C45303F1D2
:10B300003003D7F8DC211A60D7F8DC3103F1FF33C2
:10B31000072B5BD801A252F823F000BF3DB3000811
:10B320004FB3000861B3000873B3000885B3000889
:10B3300097B30008A9B30008BBB30008254B03F579
:10B34000BA5303F104034FF001021A603EE0214BAF
:10B3500003F5BA5303F104034FF002021A6035E01B
:10B360001C4B03F5BA5303F104034FF003021A60B8
:10B370002CE0184B03F5BA5303F104034FF0040219
:10B380001A6023E0134B03F5BA5303F104034FF0A3
:10B3900005021A601AE00F4B03F5BA5303F10403D8
:10B3A0004FF006021A6011E00A4B03F5BA5303F19D
:10B3B00004034FF007021A6008E0064B03F5BA5386
:10B3C00003F104034FF008021A6000BFD8E300BF86
:10B3D000F01400206C000020F4BA0108680000207E
:10B3E000E04E00201F85EB5128B80108D817002037
:10B3F00006F022FAA84B03F5BA5303F104031B68C5
:10B40000012B4FD1A5484FF4805109F09DFCA34872
:10B410004FF4005109F098FCA0484FF4804109F026
:10B4200093FC9E484FF4004109F08EFC9C484FF07D
:10B43000010106F0D7F8C7F83C02D7F83C32002BE0
:10B4400003D1974B1B68002BF0D094484FF48051E8
:10B4500009F088FC91484FF4005109F083FC8F48B3
:10B460004FF4804109F07EFC8C484FF4004109F014
:10B4700079FC894B03F5BA5303F104031B684FF0C1
:10B48000100019464FF000024FF0010308F09EF93A
:10B4900084484FF0000105F02DFA05F081FA06F01E
:10B4A000CBF96FE37C4B03F5BA5303F104031B683C
:10B4B000022B26D179484FF4805109F045FC4FF01A
:10B4C000020002F0FFFE75484FF4805109F04AFC7B
:10B4D000714B03F5BA5303F104031B684FF01000DE
:10B4E00019464FF000024FF0010308F06FF96D4864
:10B4F0004FF0000105F0FEF905F052FA06F09CF954
:10B5000040E3654B03F5BA5303F104031B68032BB7
:10B5100026D162484FF4005109F016FC4FF00300A9
:10B5200002F0D0FE5D484FF4005109F01BFC5A4B6D
:10B5300003F5BA5303F104031B684FF010001946DA
:10B540004FF000024FF0010308F040F955484FF06A
:10B55000000105F0CFF905F023FA06F06DF911E3CB
:10B560004D4B03F5BA5303F104031B68042B26D19A
:10B570004A484FF4804109F0E7FB4FF0040002F025
:10B58000A1FE46484FF4804109F0ECFB424B03F525
:10B59000BA5303F104031B684FF0100019464FF033
:10B5A00000024FF0010308F011F93E484FF000018E
:10B5B00005F0A0F905F0F4F906F03EF9E2E2364BA9
:10B5C00003F5BA5303F104031B68052B26D1334856
:10B5D0004FF4004109F0B8FB4FF0050002F072FE95
:10B5E0002E484FF4004109F0BDFB2B4B03F5BA5335
:10B5F00003F104031B684FF0100019464FF00002DE
:10B600004FF0010308F0E2F826484FF0000105F082
:10B6100071F905F0C5F906F00FF9B3E21E4B03F519
:10B62000BA5303F104031B68062B3DD14FF000030E
:10B63000C7F8D8311A484FF0010105F0D3FFC7F819
:10B640003C024FF0010002F0ADFCC7F8D801D7F87A
:10B65000D831002B07D1D7F83C32002B03D1104B47
:10B660001B68002BE6D00C4B03F5BA5303F104031F
:10B670001B684FF0100019464FF000024FF0010315
:10B6800008F0A4F807484FF0000105F033F905F081
:10B6900087F906F0D1F875E26C000020000C02403A
:10B6A000E04E0020C41700205C4B03F5BA5303F1B1
:10B6B00004031B68072B40F0C3805C4BC7F8D431F0
:10B6C0005B4BC7F8D0315A4BC7F8CC31594BC7F850
:10B6D000703253484FF0010105F084FFC7F83C0277
:10B6E000D7F8700254490CF0CDF90346C7F8703210
:10B6F000D7F8D40151490CF0CDFA034618460BF0A7
:10B7000055FE04460D46D7F8D4014C490CF0C2FA58
:10B71000034618460BF04AFE80468946D7F8700269
:10B720000BF044FE02460B46104619460AF032FA68
:10B7300002460B46404649460BF08CFE02460B463D
:10B74000204629460BF0D2FC02460B46104619460D
:10B750000CF042F90346C7F8D031D7F8D401D7F836
:10B76000D0110CF08DF90346C7F8CC312D484FF4B9
:10B77000805109F0E9FA2B484FF4005109F0E4FA3E
:10B7800028484FF4804109F0DFFA26484FF4004181
:10B7900009F0DAFAD7F8D0010CF042FC034618465B
:10B7A00005F0ECFC1F484FF4805109F0DBFA1D480E
:10B7B0004FF4005109F0D6FA1A484FF4804109F0CD
:10B7C000D1FA18484FF4004109F0CCFAD7F8CC016F
:10B7D0000CF026FC0346184605F0D0FCD7F83C32A6
:10B7E000002B04D10E4B1B68002B3FF472AF0B4BA8
:10B7F00003F5BA5303F104031B684FF01000194618
:10B800004FF000024FF0010307F0E0FF06484FF051
:10B81000000105F06FF805F0C3F8B3E16C000020FB
:10B82000E04E0020000C0240C4170020000020421F
:10B8300000000000DB0FC93F1B2F5D3C0000003FF4
:10B84000B84B03F5BA5303F104031B68082B7FF4CC
:10B850000BADB74BC7F8C831B3484FF0010105F045
:10B86000C1FEC7F83C02D7F86802B2490CF00AF9E9
:10B870000346C7F86832D7F86002AF490CF002F906
:10B880000346C7F86032D7F85802AC490CF0F8F814
:10B890000346C7F85832D7F85402A9490CF0F0F81B
:10B8A0000346C7F85432D7F8C8010BF07FFD0446B1
:10B8B0000D46D7F868020BF079FD02460B4610469C
:10B8C00019460AF067F902460B46204629460BF056
:10B8D000C1FD02460B46104619460CF07DF80346A2
:10B8E000C7F86C32D7F8C8010BF060FD04460D466E
:10B8F000D7F860020BF05AFD02460B461046194677
:10B900000AF048F902460B46204629460BF0A2FDF4
:10B9100002460B46104619460CF05EF80346C7F87F
:10B920006432D7F8C8010BF041FD04460D46D7F844
:10B9300058020BF03BFD02460B46104619460AF032
:10B9400029F902460B46204629460BF083FD0246A4
:10B950000B46104619460CF03FF80346C7F85C3218
:10B96000D7F8C8010BF022FD04460D46D7F8540263
:10B970000BF01CFD02460B46104619460AF00AF968
:10B9800002460B46204629460BF064FD02460B4654
:10B99000104619460CF020F80346C7F8C4314FF0A2
:10B9A00001031C46D7F86C0266490CF011FB0346F4
:10B9B000002B02D14FF000031C46E3B2002B05D050
:10B9C000D7F86C3283F00043C7F86C324FF00103B4
:10B9D0001C46D7F864025B490CF0FAFA0346002BC8
:10B9E00002D14FF000031C46E3B2002B05D0D7F87C
:10B9F000643283F00043C7F864324FF001031C4601
:10BA0000D7F85C024F490CF0E3FA0346002B02D151
:10BA10004FF000031C46E3B2002B05D0D7F85C3290
:10BA200083F00043C7F85C324FF001031C46D7F89F
:10BA3000C40144490CF0CCFA0346002B02D14FF06C
:10BA400000031C46E3B2002B05D0D7F86C3283F01C
:10BA50000043C7F86C32D7F8C801D7F86C120CF065
:10BA60000FF80346C7F8C031D7F8C801D7F86412F9
:10BA70000CF006F80346C7F8BC31D7F8C801D7F870
:10BA80005C120BF0FDFF0346C7F8B831D7F8C801C8
:10BA9000D7F8C4110BF0F4FF0346C7F8B4312348BC
:10BAA0004FF4805109F050F9D7F86C020CF0B8FA55
:10BAB0000346184605F062FB1C484FF4805109F01C
:10BAC00051F9D7F8C0010CF0ABFA0346184605F05F
:10BAD00055FB16484FF4005109F036F913484FF45E
:10BAE000804109F031F911484FF4004109F02CF977
:10BAF0000E484FF4805109F035F90C484FF40051CD
:10BB000009F030F909484FF4804109F02BF9074852
:10BB10004FF4004109F026F9D7F83C32002B18D138
:10BB200012E000BF6C000020E04E0020000C02403C
:10BB30000000C842CDCC4C3CEC51B83CB6F37D3C47
:10BB400077BE9F3C00000000744B1B68002B3FF445
:10BB500083AE734B03F5BA5303F104031B684FF034
:10BB6000100019464FF000024FF0010307F02EFEBF
:10BB70006C484FF0000104F0BDFE04F011FF01E03D
:10BB8000FFF773BB00F05ABF00BF6749644B03F572
:10BB9000C45303F138031B681A4613464FEA830364
:10BBA0009B184FEA8303CB1818464FF0010104F0AD
:10BBB000A1FE04F0F5FE59484FF0010105F012FD19
:10BBC000C7F83C02D7F83C32002B03D1534B1B681B
:10BBD000002BF0D0D7F83C32002B56D0504B03F559
:10BBE000D05303F124031A68D7F83C32D318C7F8AE
:10BBF000B0314B4B03F5D1531A68D7F8B0319A42A4
:10BC000000DAF1E2D7F8B031002B00DCECE2444B73
:10BC100003F5D05303F12403D7F8B0211A60D7F805
:10BC2000B03103F1FF33032B2ED801A050F823F0DD
:10BC300041BC000853BC000865BC000877BC000884
:10BC4000374B03F5C45303F138034FF001021A6078
:10BC50001AE0334B03F5C45303F138034FF00202EB
:10BC60001A6011E02E4B03F5C45303F138034FF073
:10BC700003021A6008E02A4B03F5C45303F13803AA
:10BC80004FF004021A6000BFAEE205F0D5FD244B70
:10BC900003F5C45303F138031B68012B1AD14FF08D
:10BCA000010001F02BFD1E4B03F5C45303F13803D3
:10BCB0001B684FF0110019464FF000024FF00103CE
:10BCC00007F084FD19484FF0000104F013FE04F062
:10BCD00067FE8AE2124B03F5C45303F138031B6875
:10BCE000022B25D14FF0020001F008FD0C4B03F5AB
:10BCF000C45303F138031B684FF0110019464FF08D
:10BD000000024FF0010307F061FD08484FF0000109
:10BD100004F0F0FD04F044FE67E200BFE04E0020B6
:10BD20006C000020C41700204C1900203819002096
:10BD3000B44B03F5C45303F138031B68032B40F0E5
:10BD4000778107F580734FF000021A6007F1FC035A
:10BD50004FF000021A6007F1F8034FF000021A607A
:10BD600007F1F4034FF000021A6007F1F0034FF0FF
:10BD700000021A6007F1EC034FF000021A6007F1AD
:10BD8000E8034FF000021A6007F1E4034FF00002ED
:10BD90001A6007F1E0034FF000021A6007F1DC03BC
:10BDA0004FF000021A6007F1D8034FF000021A604A
:10BDB00007F1D4034FF000021A6007F1D0034FF0EF
:10BDC00000021A6007F1CC034FF000021A6007F17D
:10BDD000C8034FF000021A608B4B186807F580719A
:10BDE00007F1FC0207F1F80307F1F404009407F1EE
:10BDF000F004019402F0D2FB844B186807F1EC01C7
:10BE000007F1E80207F1E40307F1E004009407F109
:10BE1000DC04019402F0C2FB7D4B186807F1D801E5
:10BE200007F1D40207F1D00307F1CC04009407F125
:10BE3000C804019402F0B2FB07F1FC031A6807F191
:10BE4000F8031B6807F1F401D1F800B007F1F00125
:10BE5000D1F800A007F1E801D1F8009007F1E40162
:10BE6000D1F8008007F1E001D1F800C007F1DC0152
:10BE7000D1F800E007F1D4010E6807F1D0010D6898
:10BE800007F1CC010C6807F1C801086807F1B4019B
:10BE9000CDF800B0CDF804A0CDF80890CDF80C8016
:10BEA000CDF810C0CDF814E00696079508940990D7
:10BEB0000846584908F06EFE07F1B40318464FF0E3
:10BEC000000104F0E7FC544B186807F5807107F196
:10BED000FC0207F1F80307F1F404009407F1F00401
:10BEE000019402F05BFB4D4B186807F1EC0107F180
:10BEF000E80207F1E40307F1E004009407F1DC0431
:10BF0000019402F04BFB464B186807F1D80107F18A
:10BF1000D40207F1D00307F1CC04009407F1C80460
:10BF2000019402F03BFB07F1FC031A6807F1F803E8
:10BF30001B6807F1F401D1F800B007F1F001D1F866
:10BF400000A007F1E801D1F8009007F1E401D1F871
:10BF5000008007F1E001D1F800C007F1DC01D1F861
:10BF600000E007F1D4010E6807F1D0010D6807F178
:10BF7000CC010C6807F1C801086807F1A001CDF8F1
:10BF800000B0CDF804A0CDF80890CDF80C80CDF825
:10BF900010C0CDF814E0069607950894099008465D
:10BFA000204908F0F7FD07F1A00318464FF0010102
:10BFB00004F070FC04F0F4FC1B484FF0000105F0A5
:10BFC00011FBC7F83C02D7F83C32002B03D1164BCB
:10BFD0001B68002BF0D00B4B03F5C45303F138035F
:10BFE0001B684FF0110019464FF000024FF001039B
:10BFF00007F0ECFB0D484FF0000104F07BFC04F06F
:10C00000CFFCF2E06C000020B44E0020B84E0020BF
:10C01000BC4E002000BB0108C04E0020C44E0020D2
:10C02000C84E002024BB0108E04E00203819002033
:10C03000A64B03F5C45303F138031B68042B7FF4AC
:10C04000A3ADA34B1B68002B33D1A24B1B68002B65
:10C050002FD1A14B1B68002B2BD1A04B1B68002BB1
:10C0600027D19F4B1B68002B23D19E4B1B68002BB5
:10C070001FD1964B03F5C45303F138031B684FF0EF
:10C08000110019464FF000024FF0010307F09EFB2C
:10C0900095484FF0000104F02DFC94484FF0010149
:10C0A00004F028FC04F07CFC4FF4FA6005F07CF806
:10C0B0009BE08F484FF0000104F01CFC8D484FF0CE
:10C0C000010104F017FC04F06BFC00E000BF8A489B
:10C0D0004FF0000105F086FAC7F83C02D7F83C3271
:10C0E000002B03D1844B1B68002BF0D0D7F83C32D7
:10C0F000B3F1FF3F0FD1754B03F5C45303F13C037C
:10C100004FF001021A607D484FF0010104F0F2FB8C
:10C1100004F046FC12E0D7F83C32012B0ED16B4BF9
:10C1200003F5C45303F13C034FF000021A60714859
:10C130004FF0010104F0DEFB04F032FC6E4B1B6893
:10C14000B3F5004FC2D1614B03F5C45303F13C0377
:10C150001B68012B38D15D4B03F5C45303F13C033D
:10C160004FF000021A605A4B4FF000021A60594B10
:10C170004FF000021A60584B4FF000021A60574B04
:10C180004FF000021A60564B4FF000021A60554BF8
:10C190004FF000021A6058484FF0000105F022FAF3
:10C1A000554B4FF000021A604F484FF0000104F069
:10C1B000A1FB53484FF0010104F09CFB04F0F0FB9D
:10C1C0004FF4FA6004F0F0FF404B03F5C45303F161
:10C1D00038031B684FF0110019464FF000024FF072
:10C1E000010307F0F3FA00E0CFE400F027BC00BF42
:10C1F00000E000BF4349354B03F5D05303F12C0356
:10C200001B681A4613464FEA83039B184FEA8303C1
:10C21000CB1818464FF0010104F06CFB04F0C0FB92
:10C2200035484FF0000105F0DDF9C7F83C02D7F8BA
:10C230003C32002B03D1304B1B68002BF0D0D7F8D9
:10C240003C32002B1BD0214B03F5D05303F12C03C0
:10C250001A68D7F83C32D318C7F8AC31D7F8AC31EC
:10C26000002BC4DDD7F8AC31022BC2DC174B03F531
:10C27000D05303F12C03D7F8AC211A60BAE705F0CC
:10C28000DBFA124B03F5D05303F12C031B684FF07C
:10C29000120019464FF000024FF0010307F096FA22
:10C2A000184B18464FF0010104F024FB04F078FB12
:10C2B0004FF0000006F050FB0F484FF0000105F072
:10C2C00091F90D4B4FF000021A60B7E36C000020AB
:10C2D000B44E0020B84E0020BC4E0020C04E0020BE
:10C2E000C44E0020C84E00203819002048BB010869
:10C2F00080BA010890BA0108E04E00209CBA0108FB
:10C3000058BB0108C01A0020B349B44B03F5DD53F4
:10C310001B681A4613464FEA83039B184FEA8303B0
:10C32000CB1818464FF0010104F0E4FA04F038FB92
:10C33000AB484FF0000105F055F9C7F83C02D7F8BB
:10C340003C32002B03D1A64B1B68002BF0D0D7F852
:10C350003C32002B41D0A14B03F5E85303F10C0311
:10C360001A68D7F83C32D318C7F8A8319B4B03F5AD
:10C37000E85303F108031A68D7F8A8319A4200DAA3
:10C3800050E0D7F8A831002B00DC4BE0934B03F5CD
:10C39000E85303F10C03D7F8A8211A60D7F8A831A5
:10C3A000022B0BD0032B10D0012B00D014E08B4BB1
:10C3B00003F5DD534FF001021A600DE0874B03F5E2
:10C3C000DD534FF002021A6006E0844B03F5DD53A3
:10C3D0004FF003021A6000BF24E005F02DFA7F4BF6
:10C3E00003F5DD531B684FF0130019464FF00002B0
:10C3F0004FF0010307F0EAF9774B18464FF00101BF
:10C4000004F078FA04F0CCFA4FF0000006F0A4FA39
:10C4100073484FF0000105F0E5F8714B4FF0000252
:10C420001A600BE370E76D4B03F5E85303F1180353
:10C430001A686A4B03F5E85303F114031A60674B5B
:10C4400003F5E85303F118031A68644B03F5F4533A
:10C450001A60624B03F5E85303F118031B684FF0B1
:10C46000140019464FF000024FF0010307F0AEF937
:10C470005A4B03F5E85303F124031B6803F1FF3320
:10C48000032B1BD801A151F823F000BF9DC4000865
:10C49000A5C40008ADC40008B5C40008514B534AF8
:10C4A0001A600BE04F4B524A1A6007E04D4B514A5D
:10C4B0001A6003E04B4B504A1A6000BF4A49474B91
:10C4C00003F5E85303F114031B681A4613464FEAB9
:10C4D00083039B184FEA8303CB1818464FF00101E2
:10C4E00004F008FA04F05CFA3D484FF0010105F051
:10C4F00079F8C7F83C02D7F83C32002B03D1384B0F
:10C500001B68002BF0D0D7F83C32002B00F089805C
:10C51000324B03F5F4531A68D7F83C32D318C7F8F6
:10C52000A4312E4B03F5F25303F13C031A68D7F8FC
:10C53000A4319A4200DA75E2D7F8A431002B00DC6E
:10C5400070E2264B03F5F453D7F8A4211A60D7F80C
:10C55000A43103F1FF33062B62D801A252F823F075
:10C560007DC500088FC50008A1C50008B3C5000837
:10C57000C5C50008FDC500080FC60008174B03F528
:10C58000E85303F114034FF001021A6048E0134B23
:10C5900003F5E85303F114034FF002021A603FE081
:10C5A0000E4B03F5E85303F114034FF003021A6036
:10C5B00036E00A4B03F5E85303F114034FF004028D
:10C5C0001A602DE0054B03F5E85303F114034FF017
:10C5D00005021A6024E000BF341C00206C0000201B
:10C5E000E04E00206C4E0020A81D002000007A4480
:10C5F0000000C842000020410000803FAD4B03F521
:10C60000E85303F114034FF006021A6008E0A94B47
:10C6100003F5E85303F114034FF007021A6000BF5B
:10C6200000E205F009F9A34B03F5E85303F1140305
:10C630001B68012B08D19F4B03F5E85303F1180346
:10C640004FF001021A60C6E19A4B03F5E85303F17B
:10C6500014031B68022B08D1964B03F5E85303F132
:10C6600018034FF002021A60B5E1924B03F5E8534C
:10C6700003F114031B68032B02D104F063FDAAE14C
:10C680008C4B03F5E85303F114031B68042B04D10E
:10C690004FF0010000F0B4FE9DE1864B03F5E85336
:10C6A00003F114031B68052B08D0824B03F5E853F4
:10C6B00003F114031B68062B40F0C8807E4BC7F8BB
:10C6C00050327C4B03F5E85303F114031B68052B30
:10C6D00008D17A484FF0000104F00CF9764BC7F806
:10C6E000503213E0734B03F5E85303F114031B6856
:10C6F000062B0BD172484FF0000104F0FBF8714B90
:10C70000C7F8503202E000BF00E000BFD7F8503257
:10C710001B68092B09DC6C4AD7F850321B6810469D
:10C720006A491A4608F036FA2FE0D7F850321B68EB
:10C73000632B09DC644AD7F850321B681046644901
:10C740001A4608F027FA20E0D7F850321A6840F26B
:10C75000E7339A4209DC5C4AD7F850321B6810462E
:10C760005C491A4608F016FA0FE0D7F850321A68FA
:10C7700042F20F739A4208DC534AD7F850321B68D2
:10C78000104655491A4608F005FA4F4B18464FF027
:10C79000010104F0AFF804F003F950484FF0000134
:10C7A00004F020FFC7F83C02D7F83C32002B03D13D
:10C7B0004A4B1B68002BF0D0D7F83C32002B2ED010
:10C7C000D7F850321B6818460BF010FA0446D7F819
:10C7D0003C020BF00BFA0246414B1B68104619460F
:10C7E0000BF058FA0346204619460BF04BF9034666
:10C7F00018460BF015FC0346C7F89C31D7F89C315E
:10C80000002B80DBD7F89C2142F210739A423FF74D
:10C810007CAFD7F85032D7F89C211A6076E705F044
:10C820000BF830484FF0000104F064F804F0B8F859
:10C830004FF0000006F090F828484FF0000104F097
:10C84000D1FE264B4FF000021A60EBE0194B03F5C6
:10C85000E85303F114031B68072B40F0BC80224807
:10C860004FF0000104F046F802E000BF00E000BF16
:10C87000104B03F5E85303F124031B6803F1FF3366
:10C88000032B58D801A050F823F000BF9DC8000822
:10C89000F5C800080BC9000821C900080A4B184652
:10C8A00012494FF008020BF001FC0D4B104A1A60C0
:10C8B00041E000BF6C000020881D002068BB01081B
:10C8C00078BB01088C1D0020A81D002088BB010832
:10C8D0009CBB0108B0BB0108C4BB0108E04E0020AE
:10C8E0006C4E0020941D0020D8BB0108E8BB010855
:10C8F00000007A44B24B1846B2494FF009020BF0DF
:10C90000D5FBB14BBE4A1A6015E0AD4B1846AF4996
:10C910004FF00A020BF0CAFBAB4BBA4A1A600AE0AE
:10C92000A74B1846AA494FF00B020BF0BFFBA64BD2
:10C93000B54A1A6000BFA24B18464FF0010103F040
:10C94000D9FF04F02DF8A3484FF0000104F04AFE8F
:10C95000C7F83C02D7F83C32002B03D19D4B1B6833
:10C96000002BF0D0D7F83C32002B1DD09A4B03F5AA
:10C97000E85303F124031A68D7F83C32D318C7F8F8
:10C98000A031D7F8A031002B7FF76FAFD7F8A031D7
:10C99000042B3FF76CAF904B03F5E85303F12403EE
:10C9A000D7F8A0211A6063E704F046FF8B484FF0E8
:10C9B000000103F09FFF03F0F3FF4FF0000005F0CC
:10C9C000CBFF84484FF0000104F00CFE814B4FF088
:10C9D00000021A6026E004F02FFF7F4B03F5E853B6
:10C9E00003F118031B684FF0140019464FF00002C2
:10C9F0004FF0010306F0EAFE714B18464FF00101BB
:10CA000003F078FF03F0CCFF4FF0000005F0A4FF27
:10CA100070484FF0000104F0E5FD6E4B4FF000024E
:10CA20001A600BE04AE500BF08E000BF06E000BF67
:10CA300004E000BF02E000BF00E000BF684B1B68DD
:10CA4000022B3BF421AC00F0C4BC664B1B68012BED
:10CA500009D1654B4FF000021A60614B4FF00202A2
:10CA60001A6000F0B6BC07F19C034FF000021A6098
:10CA70004FF00003C7F84C324FF00003C7F84832BC
:10CA800007F198034FF000021A604FF00003C7F857
:10CA90004432514BD3F8BC38C7F898314E4BD3F8D9
:10CAA000303AC7F894314C4BD3F8BC38042B04D13E
:10CAB000494B4FF00102C3F8BC28474BD3F8303A3A
:10CAC000042B04D1444B4FF00102C3F8302A07F184
:10CAD0009C0318464FF0010104F084FD07F5C8746B
:10CAE0004FF0800001F028FD206007F5C6744FF478
:10CAF000006001F021FD206007F5C4744FF4805000
:10CB000001F01AFD206007F5C2744FF4005001F0E7
:10CB100013FD2060304BD3F8BC38012B34D12E4BA1
:10CB2000D3F8303A022B11D107F5C47207F5C2735E
:10CB30002E4900914FF0070011681A682C4B02F043
:10CB400071F90346012B40F0F183DEE3224BD3F869
:10CB5000303A032B40F0D983264B1B6807F5C4718C
:10CB600007F5C272224800902048019007F1980012
:10CB700002904FF007000968126802F0EDFA0346D0
:10CB8000012B40F0D583C0E3134BD3F8303A012B8F
:10CB90005AD1114BD3F8BC38022B37D107F5C872E4
:10CBA00007F5C673144900914FF0060011681A6822
:10CBB000124B02F037F90346012B40F0BB83A4E38C
:10CBC000A81D0020F0BB01086C4E0020FCBB010832
:10CBD00008BC0108E04E00206C000020941D0020DD
:10CBE0003C4E0020444E0020744E002024BC01081E
:10CBF00014BC01088C4E002048BC010838BC010858
:10CC00000000C842000020410000803FAA4BD3F83A
:10CC1000BC38032B40F07983A84B1B6807F5C8711B
:10CC200007F5C672A6480090A648019007F1980043
:10CC300002904FF006000968126802F08DFA034670
:10CC4000012B40F0798360E39B4BD3F8BC38022B77
:10CC500040F00D81984BD3F8303A022B40F0E88039
:10CC600007F18402984B14461D460FCD0FC42B6864
:10CC7000236007F17002944B14461D460FCD0FC47C
:10CC80002B682360D7F84C32002B13D107F5C872FC
:10CC900007F5C67312681B6842EA0303002B09D02C
:10CCA00007F5C87207F5C67312681B6842EA0303EA
:10CCB000C7F84C32D7F84832002B13D107F5C472AD
:10CCC00007F5C27312681B6842EA0303002B09D000
:10CCD00007F5C47207F5C27312681B6842EA0303C2
:10CCE000C7F8483207F1840207F17003D7F84C0205
:10CCF000D7F8481201F048FD07F1840318464FF0B9
:10CD0000000103F0C7FD07F1700318464FF0010161
:10CD100003F0C0FD03F044FED7F84C32002B00F0C6
:10CD2000E982D7F84832002B00F0E68207F15C0375
:10CD30004FF000021A6003F104034FF000021A6082
:10CD400003F104034FF000021A6003F104034FF0F3
:10CD500000021A6003F104034FF000021A6003F1AD
:10CD6000040307F148034FF000021A6003F10403C3
:10CD70004FF000021A6003F104034FF000021A6042
:10CD800003F104034FF000021A6003F104034FF0B3
:10CD900000021A6003F10403D7F84C22D7F8483296
:10CDA0009A4220D907F14803D7F84802194601F002
:10CDB00065FC07F148034FF00700D7F848121A4600
:10CDC00002F08CFD07F15C03D7F84C02194601F024
:10CDD00055FC07F15C034FF00600D7F84C121A46D9
:10CDE00002F07CFD1FE007F14803D7F84C0219461A
:10CDF00001F044FC07F148034FF00600D7F84C124D
:10CE00001A4602F06BFD07F15C03D7F84802194699
:10CE100001F034FC07F15C034FF00700D7F848122B
:10CE20001A4602F05BFD40F6B83004F0BDF98AE224
:10CE3000214BD3F8303A032B40F0678207F5C871D5
:10CE400007F5C67207F5C47307F5C2700068009055
:10CE500007F1980001904FF00200096812681B6802
:10CE600002F020F80346012B40F068824DE2124B9D
:10CE7000D3F8303A022B29D10F4BD3F8BC38032B0F
:10CE800040F0438207F5C87107F5C67207F5C47311
:10CE900007F5C2700068009007F1980001904FF00C
:10CEA0000300096812681B6801F0FCFF0346012BB0
:10CEB00040F0468229E200BF6C000020884E00202E
:10CEC00038BC010848BC0108B4BC0108944BD3F835
:10CED000BC38032B40F01982914BD3F8303A032B26
:10CEE00040F0138207F134028E4B14461D460FCDDD
:10CEF0000FC42B68236007F120028A4B14461D469D
:10CF00000FCD0FC42B682360D7F84C32002B13D100
:10CF100007F5C87207F5C67312681B6842EA030377
:10CF2000002B09D007F5C87207F5C67312681B6895
:10CF300042EA0303C7F84C32D7F84832002B13D12A
:10CF400007F5C47207F5C27312681B6842EA03034F
:10CF5000002B09D007F5C47207F5C27312681B686D
:10CF600042EA0303C7F8483207F5C8731B68002B71
:10CF70000ED007F5C6731B68002B09D007F5C473E4
:10CF80001B68002B04D007F5C2731B68002B19D156
:10CF900007F1340207F12003D7F84C02D7F8481202
:10CFA00001F0F2FB07F1340318464FF0000103F0E3
:10CFB00071FC07F1200318464FF0010103F06AFCF1
:10CFC00003F0EEFC07F198031B68002B1CD107F55A
:10CFD000C8731B68002B04D107F5C6731B68002BB0
:10CFE00009D107F5C8731B68002B0DD007F5C67370
:10CFF0001B68002B08D14C4B1B6803F56A5303F1E7
:10D00000180307F198021360D7F84432002B1BD1A4
:10D0100007F5C4731B68002B04D107F5C2731B68A6
:10D02000002B09D107F5C4731B68002B0CD007F542
:10D03000C2731B68002B07D13B4B1B6803F56A5377
:10D0400003F11803C7F84432374B1A6807F1980305
:10D050001B689A4216D907F5C8731B68002B04D1C8
:10D0600007F5C6731B68002B09D107F5C8731B6849
:10D07000002B07D007F5C6731B68002B02D14FF0B9
:10D08000010301E04FF0000307F5C0721360264B67
:10D090001A68D7F844329A4216D907F5C4731B6848
:10D0A000002B04D107F5C2731B68002B09D107F5CB
:10D0B000C4731B68002B07D007F5C2731B68002BD5
:10D0C00002D14FF0010301E04FF0000307F5BE72FB
:10D0D000136007F5C0731B68002B04D107F5BE73FE
:10D0E0001B68002B28D011484FF0000103F002FC10
:10D0F00007F5C0731B68002B05D00D484FF00101E8
:10D1000003F0F8FB04E00B484FF0010103F0F2FBE1
:10D1100003F046FC4FF47A6004F046F813E100BFD8
:10D120006C000020B4BC0108640000205CBC010855
:10D130006CBC010880BC010807F5C8731B68002B94
:10D1400000F0DC8007F5C6731B68002B00F0D88068
:10D1500007F5C4731B68002B00F0D48007F5C27379
:10D160001B68002B00F0D08007F11C034FF0000279
:10D170001A6007F118034FF000021A6007F1140358
:10D180004FF000021A6007F110034FF000021A601E
:10D1900007F10C034FF000021A6007F108034FF08B
:10D1A00000021A608C4B1B68002B40F0CB808B4B2D
:10D1B0001A6807F5C87007F5C67107F11C0307F177
:10D1C0000404009407F11804019407F11404029474
:10D1D0000068096801F016FC814B1A6807F5C470F5
:10D1E00007F5C27107F110033C46009407F10C04E7
:10D1F000019407F1080402940068096801F002FC38
:10D2000007F11C031A6807F110031B689A4235D90D
:10D2100007F110031C683B461B6818460AF000FF24
:10D22000024607F10C031B6807F108010968009129
:10D230004FF00700214601F091FC07F11C031C6828
:10D2400007F104031B6818460AF0EAFE024607F1DC
:10D2500018031B6807F11401096800914FF00600DC
:10D26000214601F07BFC5F484FF0000103F042FBD8
:10D270005D484FF0010103F03DFB34E007F11C0372
:10D280001C6807F104031B6818460AF0C9FE024631
:10D2900007F118031B6807F11401096800914FF0AA
:10D2A0000600214601F05AFC07F110031C683B46BA
:10D2B0001B6818460AF0B4FE024607F10C031B680F
:10D2C00007F10801096800914FF00700214601F0BD
:10D2D00045FC45484FF0000103F00CFB41484FF07E
:10D2E000010103F007FB03F05BFB40F6B83003F0ED
:10D2F0005BFF28E000BF08E000BF06E000BF04E0DD
:10D3000000BF02E000BF00E000BF07F19C031B6804
:10D31000B3F5004F17D007F19C031B68202B12D0E8
:10D320002D4B1B68012B7FF4D2AB0CE000BF0AE051
:10D3300000BF08E000BF06E000BF04E000BF02E05D
:10D3400000BF00E000BF244B1B68012B0FD04FF043
:10D35000000005F001FB07F19C0318464FF00001A7
:10D3600004F040F907F19C034FF000021A60D7F86F
:10D3700098211E4BC3F8BC28D7F894211B4BC3F847
:10D38000302A07F19C031B68B3F5004F08D007F162
:10D390009C031B68202B03D00F4B1B68012B0FD164
:10D3A00013484FF0000103F0A5FA12484FF00101B5
:10D3B00003F0A0FA03F0F4FA40F6B83003F0F4FEFC
:10D3C0000D4B4FF000021A600C4B4FF002021A6036
:10D3D00000BFFAF7A3BE00BF444E0020884E0020D5
:10D3E0008C4E00208E1F0020DE1F00206C000020CD
:10D3F00094BC0108A4BC0108744E00203C4E0020DF
:10D4000080B582B000AF7860A44B4FF001021A6083
:10D41000A34B4FF000021A60A24B4FF000021A60BB
:10D420007B68002B61D1A0484FF0000103F062FA45
:10D430009E484FF0010103F05DFA03F0B1FA4FF09E
:10D44000000003F0F7FE964B4FF000021A60954B78
:10D450004FF000021A604FF064004FF0000103F03B
:10D460001BFF8F4B1B68012B2BD18E4B4FF0010202
:10D470001A608F484FF0000103F03CFA8B484FF0E0
:10D48000010103F007FA03F08BFA02F0BBFC4FF046
:10D4900064004FF0010103F0FFFE4FF0DC0085490E
:10D4A00040F6F4624FF0010303F046FF4FF4DC70E6
:10D4B000814940F2B1424FF0010303F03DFF04F017
:10D4C000BBF903F083FE02467C4BA3FB02134FEA39
:10D4D000D32340F6282101FB03F3D31A03F164039D
:10D4E00018464FF0000103F0D7FE6D4B1B68012B6F
:10D4F0001AD16C4B4FF001021A60694B4FF00002D9
:10D500001A606B484FF0000103F0F4F967484FF0E0
:10D51000010103F0BFF903F043FA02F073FC4FF48A
:10D52000FA6003F041FEAFE0654B03F5DD531B6885
:10D53000012B04D14FF4FA7003F0A0FD19E0604B09
:10D5400003F5DD531B68022B02D103F0C3FD10E08D
:10D550005B4B03F5DD531B68032B0AD103F0BAFDC7
:10D560007B68012B05D14FF03C004FF0000103F028
:10D5700093FE54484FF4805107F0E6FB4FF03C0017
:10D58000514940F2A4524FF0010303F0D5FE4FF091
:10D590003C004FF0000103F07FFE4A484FF4005179
:10D5A00007F0D2FB4FF03C00474940F2A4524FF045
:10D5B000010303F0C1FE4FF03C004FF0000103F007
:10D5C0006BFE40484FF4804107F0BEFB4FF03C003B
:10D5D0003D4940F2A4524FF0010303F0ADFE4FF07D
:10D5E0003C004FF0000103F057FE36484FF4004175
:10D5F00007F0AAFB354B4FF000021A60344B4FF096
:10D6000000021A60334B4FF000021A60324B4FF0A9
:10D6100000021A60314B4FF000021A60304B4FF09D
:10D6200000021A602F4B4FF000021A602E4B4FF091
:10D6300000021A602D4B4FF000021A602C4B4FF085
:10D6400001021A6040F6CA001F4940F2A4524FF08E
:10D65000010303F071FE1B484FF4704107F082FB99
:10D66000174B03F580531B6803F10102144B03F5BC
:10D6700080531A601F4A124B03F580531B681046F3
:10D680001D491A4607F086FA02F0BCFB034B4FF027
:10D6900000021A6007F10807BD4680BD5C4E0020FD
:10D6A000404E0020444E0020CCBC0108B4BC010810
:10D6B000DCBC0108CC980108688F0108FD33A6C9BD
:10D6C0006C000020000C024020840108640000204F
:10D6D000904E0020944E0020784E00207C4E00207A
:10D6E000804E0020844E0020984E00209C4E00204A
:10D6F000744E002094100020D0BA01082DE9F04F9C
:10D70000ADB00AAF78604FF00103C7F884304FF036
:10D710000103C7F880304FF00003FB674FF00003B0
:10D72000BB67B64B4FF001021A60B5484FF00001DD
:10D7300003F0E0F8B3484FF0010103F0DBF803F029
:10D740002FF94FF4FA7003F02FFD4FF064004FF003
:10D75000000103F0A1FD03F039FD0246AA4BA3FB33
:10D7600002134FEAD32340F6282101FB03F3D31A17
:10D7700003F1640318464FF0000103F08DFDA34B45
:10D780004FF000021A60A24B4FF000021A60A14B4A
:10D790004FF000021A60A04B4FF000021A609F4B3E
:10D7A0004FF000021A609E4BD3F8602413464FEAF4
:10D7B00083039B184FEA43031A469A4B1A609A4B0D
:10D7C0004FF001021A6099484FF4805107F0BCFAFB
:10D7D0004FF03C00964940F2A4524FF0010303F091
:10D7E000ABFD4FF03C004FF0000103F055FD8F48BA
:10D7F0004FF4005107F0A8FA4FF03C008C4940F27A
:10D80000A4524FF0010303F097FD4FF03C004FF09E
:10D81000000103F041FD85484FF4804107F094FA80
:10D820004FF03C00824940F2A4524FF0010303F054
:10D8300083FD4FF03C004FF0000103F02DFD7B48CD
:10D840004FF4004107F080FA40F6CA00784940F2F0
:10D85000A4524FF0010303F06FFD02F0D3FA7348B6
:10D860004FF4704107F07EFA684B1A68684B1B68EA
:10D8700042EA03037B67674B1A68674B1B6842EAFF
:10D8800003033B677B68012B28D17B6F002B05D1FD
:10D8900068484FF0000103F02DF86FE07A6F4DF605
:10D8A000AD639A4202D07B6F012B05D862484FF0DE
:10D8B000000103F01FF861E0594BD3F860346FF0BA
:10D8C000090202FB03F37A6FD3187B67786F4FF07E
:10D8D00001014FF0000203F0B7FD4FE07B6F002B1A
:10D8E00005D154484FF0000103F004F81EE07A6FB0
:10D8F0004DF6AD639A4202D07B6F012B05D84E489E
:10D900004FF0000102F0F6FF10E0454BD3F8603411
:10D910006FF0090202FB03F37A6FD3187B67786F0D
:10D920004FF001014FF0000203F08EFD3B6F002B22
:10D9300005D140484FF0010102F0DCFF1EE03A6FD4
:10D940004DF6AD639A4202D03B6F012B05D83A48A1
