:020000040800F2
:10000000C05F00200180000865800008658000084E
:100010006580000865800008658000080000000019
:1000200000000000000000000000000065800008E3
:10003000658000080000000065800008C5290108EF
:1000400065800008658000086580000865800008FC
:1000500065800008658000086580000865800008EC
:1000600065800008658000086580000865800008DC
:1000700065800008658000086580000865800008CC
:1000800065800008658000086580000865800008BC
:1000900065800008658000086580000865800008AC
:1000A000658000086580000865800008658000089C
:1000B000658000086580000865800008658000088C
:1000C000658000086580000865800008658000087C
:1000D000658000086580000865800008658000086C
:1000E000658000086580000865800008658000085C
:1000F000658000086580000865800008658000084C
:10010000658000086580000865800008658000083B
:1001100065800008658000086D240108C52301087A
:10012000658000086580000865800008658000081B
:10013000658000086580000865800008658000080B
:1001400065800008658000086580000865800008FB
:1001500065800008658000086580000865800008EB
:1001600065800008658000086580000865800008DB
:1001700065800008658000086580000865800008CB
:0801800065800008658000089D
:1080000080B582B000AF124B7B60124B3B600BE03F
:108010007B681A683B681A603B6803F104033B60A5
:108020007B6803F104037B603A680B4B9A42EFD301
:108030000A480B494FF000028842B8BF40F8042BB1
:10804000FADB00F02DF807F10807BD4680BD00BF40
:10805000E0930F080000002014000020180000200A
:10806000BC57002080B400AFFEE700BF80B483B0EF
:1080700000AF0346FB71094B97F907204FEA5212F4
:10808000F97901F01F014FF0010000FA01F143F806
:10809000221007F10C07BD4680BC704700E100E0EC
:1080A0002DE9F04FADF54F7D0AAF10F047FD0AF016
:1080B00015F909F0C9FA09F093F809F0E5FA0FF09B
:1080C000DBF80CF09BFFA64BB34A1A60A54BB24AF3
:1080D0001A600AF055FC09F0C3FA0EF015FC0346CD
:1080E000B3F1FF3F03D14FF001000DF0BFFF07F0E8
:1080F0002FFB4FF001000BF057F99B484FF00801A0
:1081000010F060FB0DF0B8FE4FF0030097490BF044
:1081100003F84FF0030095490AF0FEFF00E000BFAE
:10812000934B1B68032BFAD801A050F823F000BF33
:10813000418100088B820008DF82000853D40008C8
:108140004FF000000BF030F903464FF001021446E7
:108150001846924913F06CFC0346002B02D14FF0F5
:1081600000031C46E3B2002B05D0814B4FF0010207
:108170001A6006F02CB844F2FF100AF013FD41F229
:1081800032000AF00FFD41F232000AF00BFD794B8C
:1081900003F5DD531B684FEAC313774A82FB0312D2
:1081A0004FEA62124FEAE373D31A9BB218460AF001
:1081B000F9FC72484FF0010110F0F6FA07F5D6729B
:1081C0006F4B14461D460FCD0FC495E80300206089
:1081D00004F10404217007F5CA726A4B14461D4667
:1081E0000FCD0FC495E80300206004F10404217052
:1081F00007F5BE72644B14461D460FCD0FC495E8BB
:108200000300206004F1040421704FF03C03C7F820
:10821000A432D7F8A43203F10103C7F8A4325B48B3
:108220004FF0000109F090FF59484FF0010109F0AB
:108230008BFF09F0DFFF4FF0000006F0AFFF4FF4B7
:10824000FA600AF069FC4B4B03F5BA5303F10403DF
:108250001B684FEAC313484A82FB03024FEA6212CB
:108260004FEAE373D31AC7F8A032D7F8A0329BB213
:1082700043F480539BB29BB218460AF093FC3C4BEC
:108280004FF002021A6005F0A2BF354B424A1A6055
:10829000344B414A1A604FF480500AF083FC4FF08F
:1082A00000000AF07FFC00BF4FF001000BF07CF8EB
:1082B00003464FF0010214461846394913F0B8FB43
:1082C0000346002B02D14FF000031C46E3B2002B03
:1082D000EAD1274B4FF000021A6005F078BF4FF04B
:1082E0000003C7F80C3305F0ADB82A4B1B684FF4F8
:1082F000BA7202FB03F303F118021E4BD31818469F
:108300004FF0000109F020FF224B1B684FF4BA72B6
:1083100002FB03F303F12802164BD31803F1040305
:1083200018464FF0010109F00FFF09F063FF0BF051
:1083300073F9024640F63F339A4204DC0C4B4FF08F
:1083400001021A6095E3134B1B68142B40F0008167
:108350004FF00003C7F808330F4BC7F8043336E07B
:10836000F0550020F4550020000002403456002053
:1083700084550020700000201F85EB51000802404A
:10838000CC860F08E4860F08FC860F08585600209C
:108390008C5700206C0000200000000000003445D5
:1083A00000C04B450BF038F90346184613F04EF960
:1083B0000346D7F80403194613F094F80346C7F8A8
:1083C0000433D7F8083303F10103C7F80833D7F8AB
:1083D000082340F22B139A42E4DDD7F80403BD4989
:1083E00013F03CFA0346C7F80433D7F80403BA493C
:1083F00013F078F803461846B84913F02FFA0346ED
:108400001846B74913F06EF80346C7F89C32D7F800
:108410009C0213F035FB0346C7F89832D7F89C024C
:10842000B04913F067F90346184613F029FB0346D9
:108430009F4A82FB03124FEA62114FEAE3728A1AE3
:108440004FF0640101FB02F29B1AC7F89432A64870
:10845000D7F89C1213F044F803461846A14913F0CC
:1084600049F903461846A14913F0F8F903469D4817
:10847000194613F035F80346C7F890324FF0010360
:108480001C46D7F89002974913F0F0FA0346002BE8
:1084900002D14FF000031C46E3B2002B01D0914BF8
:1084A00001E0D7F89032C7F89032D7F8900213F075
:1084B000E7FA02467F4B03F5E85303F114031A6011
:1084C0004FF001031C46D7F80403894913F0C4FA9E
:1084D0000346002B02D14FF000031C46E3B2002BF1
:1084E00007D0754B184675494FF0120213F00EFB7A
:1084F00026E0D7F89432092B11DD6F4A6D4B03F556
:10850000E85303F114031B68D7F894120091104646
:108510006B491A46D7F8983210F06CF810E0664AAA
:10852000644B03F5E85303F114031B68D7F8941266
:108530000091104663491A46D7F8983210F05AF85D
:108540005D4B18464FF0010109F0FEFD09F052FEA7
:108550004FF003005C490AF0DFFDC7F80C03554BF0
:1085600003F5045303F170031B68012B07D1564B2D
:108570001B6823F4987323F00103534A13604D4B97
:10858000D3F8A43B052B10D14F4B1B6803F080039D
:10859000002B05D14C4B1B6803F40063002B0AD061
:1085A000494B4FF001021A6005E0474B1B6823F46A
:1085B0000862454B1A603F4BD3F8183D052B10D18C
:1085C000414B1B6803F48053002B05D13E4B1B68C5
:1085D00003F40053002B0AD03B4B4FF001021A600A
:1085E00005E0394B1B6823F44052374B1A60D7F82B
:1085F0000C33002B04D1344B1B68002B00F033826A
:10860000324B1A68D7F80C33D218304B1A602F4B04
:108610001B681A2B06D12D4B1B6803F1FF322B4B25
:108620001A6007E0294B1B68002B03DA274B4FF039
:1086300000021A60264B1B68002B40F0D580D7F84B
:108640000C33002B76DA1B4B03F50A5303F164035A
:108650001B68022B16D11D4B1B68002B03D01B4B34
:108660001B68012B04D1194B4FF002021A60A4E1E0
:10867000164B1B68192B40F08381144B4FF01802E6
:108680001A609AE10B4B03F50A5303F164031B686C
:10869000032B2FD10D4B1B68002B04D00B4B1B68F9
:1086A000022B40F06F81094B4FF001021A6084E108
:1086B0001F85EB5170000020AC1D0020F8810F08D1
:1086C0000C820F081C820F08345600206C0000201A
:1086D000A0550020000096435C3B564542E8034409
:1086E000B81E053D0000C842333353419899993F65
:1086F00000F07F45904B03F50A5303F164031B68B8
:10870000012B40F041818D4B1B68012B03D08B4B1B
:108710001B68022B04D1894B4FF000021A604CE118
:10872000864B1B68192B40F03181844B4FF01802A7
:108730001A6042E1D7F80C33002B40F329817E4BBD
:1087400003F50A5303F164031B68022B16D17B4B1C
:108750001B68002B03D0794B1B68012B04D1774B8E
:108760004FF003021A6028E1744B1B68192B40F08C
:108770001181724B4FF018021A601EE16E4B03F527
:108780000A5303F164031B68032B0DD16B4B1B6869
:10879000002B04D0694B1B68022B40F0FD80674B17
:1087A0004FF003021A6008E1634B03F50A5303F12B
:1087B00064031B68012B40F0F180604B1B68012BA8
:1087C00003D05E4B1B68022B04D15C4B4FF00302BD
:1087D0001A60F2E0594B1B68192B40F0E180574BAF
:1087E0004FF018021A60E8E0554B1B68012B40F06F
:1087F000E480D7F80C33002B5DDA4F4B03F50A53B6
:1088000003F164031B68022B16D14C4B1B68012B30
:1088100003D04A4B1B68022B04D1484B4FF0000297
:108820001A60CAE0454B1B68192B40F0BB80434BD4
:108830004FF017021A60C0E03F4B03F50A5303F1F3
:1088400064031B68032B16D13C4B1B68012B03D020
:108850003A4B1B68022B04D1384B4FF000021A60D0
:10886000ABE0364B1B68182B40F09E80334B4FF02B
:1088700017021A60A1E0304B03F50A5303F16403B9
:108880001B68012B40F092802C4B1B68012B03D0FE
:108890002A4B1B68022B04D1284B4FF000021A60B0
:1088A0008BE0264B1B68192B40F08280234B4FF046
:1088B00017021A6081E0D7F80C33002B7DDD1E4BC8
:1088C00003F50A5303F164031B68022B15D11B4BFC
:1088D0001B68012B03D0194B1B68022B04D1174BCB
:1088E0004FF003021A6068E0144B1B68182B61D12B
:1088F000124B4FF017021A605FE00F4B03F50A535B
:1089000003F164031B68032B1CD10C4B1B68012B68
:1089100003D00A4B1B68022B04D1084B4FF0030213
:108920001A604AE0054B1B68182B45D1034B4FF0EA
:1089300019021A6041E000BF700000206C000020A6
:10894000A0550020774B03F50A5303F164031B681D
:10895000012B32D1744B1B68012B03D0724B1B6867
:10896000022B04D1704B4FF003021A6025E06E4BCE
:108970001B68192B21D16C4B4FF017021A601CE0B9
:1089800000BF1AE000BF18E000BF16E000BF14E00F
:1089900000BF12E000BF10E000BF0EE000BF0CE01F
:1089A00000BF0AE000BF08E000BF06E000BF04E02F
:1089B00000BF02E000BF00E000BF5B4B1B680B2B59
:1089C00011D15A4B1B68002B0DD1D7F80C33002B5B
:1089D00004DD554B4FF00C021A601DE0524B4FF076
:1089E0000A021A6018E0504B1B680E2B14D14D4B35
:1089F00003F5965303F128031B68002B0CD1D7F81D
:108A00000C33002B04DD484B4FF00F021A6003E0DB
:108A1000454B4FF00D021A60D7F80C33002B23D0D2
:108A2000414B1B684FF4BA7202FB03F303F11802C7
:108A30003C4BD31818464FF0000109F085FB3A4B28
:108A40001B684FF4BA7202FB03F303F12802354BA3
:108A5000D31803F1040318464FF0010109F074FB29
:108A600009F0C8FB00E000BF314B1B68002B3FF44E
:108A70005EAC2F4B1B6803F00103DBB2002B02D06E
:108A80000DF0FAF9D8E12A4B1B6803F01003002B14
:108A90005AD0284B4FF000021A60274B5B68002B1E
:108AA00030D04FF064004FF001010AF0ADF82348D8
:108AB0004FF0000145F6EA524FF001030AF0A0F929
:108AC0001D4B5A681E4BA3FB02034FEAD303184603
:108AD0004FF000010AF0BCFD174B1B7C002B1DD092
:108AE00018484FF0000140F6C7524FF001030AF05A
:108AF00087F9114B9A68104BDB68104619460BF04A
:108B00000FFE0BE00C4B1B7C002B07D00A4B9A6826
:108B1000094BDB68104619460BF002FE08F0A0FD79
:108B200004F090BC700000206C0000207C550020F8
:108B300034560020885500209C260020E4FF0D08B4
:108B4000CDCCCCCC68660F08B14B1B68202B40F015
:108B5000AC80B04B1B68B3F5407F40F09E804FF077
:108B600064004FF001010AF04FF8AB484FF00001EC
:108B70004FF0A7024FF001030AF042F908F070FD30
:108B800040F2DC5009F0C8FF4FF00200A0490AF0A3
:108B9000C3FA9F4B1B6803F01003002B79D04FF0F2
:108BA00064004FF001010AF02FF89B484FF00001DC
:108BB0004FF0A7024FF001030AF022F908F050FD30
:108BC00040F2DC5009F0A8FF4FF0020090490AF093
:108BD000A3FA8F4B1B6803F00103DBB2002B58D0C4
:108BE0004FF064004FF001010AF00EF88A484FF090
:108BF00000014FF0A7024FF001030AF001F908F05D
:108C00002FFD40F2DC5009F087FF4FF00200804951
:108C10000AF082FA7E4B1B6803F48073002B38D075
:108C20004FF064004FF0010109F0EEFF7A484FF079
:108C300000014FF0A7024FF001030AF0E1F808F03D
:108C40000FFD40F2DC5009F067FF4FF00200704961
:108C50000AF062FA6E4B1B6803F02003002B18D059
:108C60004FF064004FF0010109F0CEFF6A484FF069
:108C700000014FF0A7024FF001030AF0C1F808F01D
:108C8000EFFC4FF002000DF0F1F9624B4FF00002E3
:108C90001A60604B4FF000021A605E4B1B6803F1D4
:108CA00001025C4B1A6004F0CDBB594B1B6803F406
:108CB0008073002B00F0BA80584B03F5BA5303F1D0
:108CC00004031B68C7F88C32D7F88C32092B08DCF8
:108CD000524B03F5BA5303F104034FF00A021A6032
:108CE0003BE0D7F88C32132B08DC4C4B03F5BA531E
:108CF00003F104034FF014021A602EE0D7F88C320F
:108D0000272B08DC454B03F5BA5303F104034FF05E
:108D100028021A6021E0D7F88C323B2B08DC3F4B4D
:108D200003F5BA5303F104034FF03C021A6014E058
:108D3000D7F88C324F2B08DC384B03F5BA5303F1CC
:108D400004034FF050021A6007E0344B03F5BA53A6
:108D500003F104034FF00A021A60314A2F4B03F566
:108D6000BA5303F104031B6810462E491A460FF04C
:108D700041FC2A4B03F5BA5303F104031B6807F5C2
:108D8000B472104627491A460FF034FC07F5B47345
:108D900018464FF0010109F0D7F909F02BFA1F4BE3
:108DA00003F5BA5303F104031B684FEAC3131E4AC9
:108DB00082FB03124FEA62124FEAE373D31AC7F839
:108DC0008832D7F888329BB243F480539BB29BB26F
:108DD000184609F0E7FE4FF064004FF0000109F07B
:108DE00013FF0E4B03F5BA5303F104031B684EF651
:108DF000602202FB03F318464FF001010AF028FC41
:108E000008F02EFC4FF000000DF030F904F01FBB0D
:108E1000345600203856002090F3010870000020DE
:108E2000DC17002030820F081F85EB51BA4B1B68FE
:108E3000002B01D00AF09CFAB84B1B68192B04F2E6
:108E4000018301A252F823F0B18E0008C1900008FE
:108E50005991000897910008CD940008CD9400081E
:108E6000DFB10008A7B20008EF9A0008EF9A0008E7
:108E700097A40008BDAF0008FFB0000869B3000860
:108E800095B30008EDB4000829B60008B3B7000890
:108E900025B900086BBA000845D40008A5BB000836
:108EA000D3C400083FCB00085DCC000899CD000872
:108EB000994B1B68002B08D1994B03F5045303F120
:108EC00070031B68012B04F0B682954B03F50A531F
:108ED00003F164031B68022B15D1924B1B68002B16
:108EE00011D191484FF0000109F02EF98F484FF051
:108EF000010109F029F909F07DF940F6B83009F0CF
:108F00000BFE04F09FBA864BD3F8D435002B40F308
:108F1000AA8087484FF0000109F016F907F5AA72F8
:108F2000844B14461D460FCD0FC42B6823607C4B29
:108F3000D3F8D43542F2107202FB03F31A467E4B8B
:108F40001B68D31803F51C5303F10F03C7F88432D1
:108F50004FF00003C7F800337AE0774B1B68D7F86F
:108F60008422D21A754BA3FB02034FEA5333C7F88E
:108F70008032D7F88032002B72D0D7F880323C2B69
:108F80000CDD6D4B1B68D7F88422D31A18464FF0BE
:108F900000014FF0010209F0F1FF22E0D7F8803222
:108FA000012B0FDD07F5AA7318466549D7F8802213
:108FB0000FF020FB07F5AA7318464FF0010109F0E6
:108FC000C3F80EE007F5AA7318465E49D7F8802269
:108FD0000FF010FB07F5AA7318464FF0010109F0D6
:108FE000B3F809F007F94E4BD3F84837C7F87C328D
:108FF000D7F80033002B20D1D7F87C32002B1CD0BF
:10900000D7F88022D7F87C329A4216D14FF064000C
:109010004FF0010109F0F8FDD7F87C324FF47A7275
:1090200002FB03F318464FF000010AF011FB08F0B1
:1090300017FB4FF00103C7F800334FF00200364929
:109040000AF06AF8344B1B6803F40043002B09D183
:10905000394B1A68D7F884329A42FFF47EAF02E0A7
:1090600000BF00E000BF08F0E3FD4FF0000005F096
:10907000BFF84FF0020028490AF04EF8264B4FF097
:1090800000021A6006F064FB254BD3F8A43B022BC8
:109090000ED0234BD3F8A43B032B09D0204BD3F89D
:1090A000183D022B04D01E4BD3F8183D032B03D1DF
:1090B000254B4FF003021A600CF0DEFE04F0C2B93B
:1090C00022484FF0000109F03FF8154BD3F8BC38A7
:1090D000022B05D11E484FF0010109F035F804E0DC
:1090E0001C484FF0010109F02FF809F083F80C4BF0
:1090F000D3F8BC38022B01D109F0B6FF09F0DAFC35
:1091000008F0DAFB4FF4C87009F006FD034B4FF08E
:1091100000021A6004F096B9345600206C0000205A
:1091200070000020A055002038820F0848820F08E8
:1091300054820F0814870F08680000205917B7D110
:1091400068820F0874820F088455002080820F08FF
:109150008C820F089C820F08A54B03F50A5303F17C
:1091600064031B68022B44F06881A2484FF00001A1
:1091700008F0EAFFA0484FF0010108F0E5FF09F010
:1091800039F809F097FC09F06FFF9C4B4FF0000293
:109190001A6004F057B9964BD3F86034C7F87832A8
:1091A000D7F87832772B31D8D7F87832002B07D11F
:1091B000934B184693494FF0080212F0A7FC1EE0AB
:1091C000D7F87832052B07D18D4B18468E49D7F842
:1091D00078220FF00FFA12E0D7F87832632B07D815
:1091E000874B18468949D7F878220FF003FA06E032
:1091F000834B18468649D7F878220FF0FBF9804B4D
:1092000018464FF0010108F09FFFA2E0D7F878322E
:10921000EF2B48D8D7F87832782B07D1784B1846FF
:109220007C494FF00F0212F071FC29E0D7F8783238
:109230007D2B0AD1724AD7F87832A3F17803104611
:1092400075491A460FF0D6F91AE0D7F87832A3F12B
:109250007803632B0AD86A4AD7F87832A3F17803E7
:1092600010466E491A460FF0C5F909E0644AD7F86E
:109270007832A3F17803104669491A460FF0BAF91B
:109280005B4B4FF0010283F888245D4B184612F0C7
:109290009DFD034603F1FF33554AD3184FF00202F8
:1092A00083F8882455E0D7F8782240F267139A4271
:1092B00048D8D7F87832F02B07D1514B1846594986
:1092C0004FF00F0212F022FC29E0D7F87832F52B8C
:1092D0000AD14B4AD7F87832A3F1F003104652492D
:1092E0001A460FF087F91AE0D7F87832A3F1F003A5
:1092F000632B0AD8424AD7F87832A3F1F00310461C
:109300004A491A460FF076F909E03D4AD7F8783213
:10931000A3F1F003104646491A460FF06BF9344B9F
:109320004FF0010283F88824354B184612F04EFDA9
:10933000034603F1FF332E4AD3184FF0020283F89D
:10934000882406E02E4B18463A494FF00A0212F0E4
:10935000DDFB2B4B18464FF0010108F0F5FE08F03D
:1093600049FF4FF00200344909F0D6FEC7F80C035C
:10937000D7F80C33002B03D12F4B1B68002BF0D0F8
:10938000D7F80C33002B2BD0194BD3F86014D7F837
:109390000C2313464FEA83039B18CA18144BC3F8D7
:1093A0006024134BD3F86034002B05DA104B4FF0D8
:1093B0000002C3F860240AE00D4BD3F86034B3F523
:1093C000B47F04DD0A4B4FF4B472C3F860240C4B35
:1093D00018464FF0010108F0B7FE08F00BFFDAE67F
:1093E00009F0C6FF4FF00003C7F8FC324DE000BFA4
:1093F0007000002070030020A8820F086C0000207D
:10940000F8040020B8820F08C0820F08D4820F0829
:10941000E4820F08F4820F0804830F081C830F08EE
:1094200034830F0848830F0858830F0870830F0890
:1094300088830F089C830F0834560020B34AD7F85E
:10944000FC32D31803F5906303F104031B79012B5D
:109450000AD0AE4AD7F8FC32D31803F5906303F173
:1094600004031B79022B0AD1A84AD7F8FC32D3187F
:1094700003F5906303F104034FF020021A71D7F84B
:10948000FC3203F10103C7F8FC32D7F8FC42A04BD1
:10949000184612F09BFC03469C42CFD39C4B1846C7
:1094A0004FF0010108F050FE08F0A4FE4FF000005C
:1094B0000CF0DCFD4FF00200964909F02DFE954BB3
:1094C0004FF000021A6003F0BDBF00BF924B1B6853
:1094D0008E4A4FF4BA7101FB03F3D31803F104036E
:1094E0001B68002B29D18C4B1B68042B12D18A4B93
:1094F0001B684FF4BA7202FB03F303F12802834B9B
:10950000D31803F10403184684494FF00D0212F0FA
:10951000FDFA8EE0804B1B684FF4BA7202FB03F336
:1095200003F12802794BD31803F1040318467C4950
:109530004FF00F0212F0EAFA7BE0774B1B68734A98
:109540004FF4BA7101FB03F3D31803F104031B6852
:10955000012B1DD1704B1B684FF4BA7202FB03F351
:1095600003F12802694BD31803F104031A466A4B2E
:109570001B6866494FF4BA7000FB03F3CB1803F184
:1095800004031B68104667491A460FF033F850E091
:10959000614B1B685D4A4FF4BA7101FB03F3D318AA
:1095A00003F104031B68772B1DDC5B4B1B684FF436
:1095B000BA7202FB03F303F12802544BD31803F1F0
:1095C00004031A46544B1B6850494FF4BA7000FB11
:1095D00003F3CB1803F104031B68104652491A46E3
:1095E0000FF008F825E04C4B1B684FF4BA7202FBF1
:1095F00003F303F12802454BD31803F104031A4681
:10960000454B1B6841494FF4BA7000FB03F3CB187C
:1096100003F104031B68454981FB0301C9184FEAA4
:1096200061114FEAE373CB1A104641491A460EF016
:10963000E1FF394B1B684FF4BA7202FB03F303F1ED
:109640002802324BD31803F1040318464FF00101EE
:1096500008F07AFD08F0CEFD4FF002002D4909F028
:109660005BFDC7F80C03D7F80C33002B03D1294B53
:109670001B68002BF0D0D7F80C33002B00F05E8174
:10968000254B1B68214A4FF4BA7101FB03F3D31831
:1096900003F104031B683B2B4CDC1F4B1B681E4A69
:1096A00012681A494FF4BA7000FB02F28A1802F1EC
:1096B00004021168D7F80C238A1814494FF4BA70C1
:1096C00000FB03F3CB1803F104031A60124B1B6871
:1096D000052B40F017810D4BD3F84837042B00F3CE
:1096E0001181D7F80C33012B04D1084B4FF0050240
:1096F000C3F84827D7F80C33B3F1FF3F40F002819D
:10970000024B4FF00002C3F84827FBE07000002036
:10971000F8040020345600206C000020A8830F08B5
:10972000B8830F08C8830F08D8830F0889888888F2
:10973000E8830F08AE4B1B68AE4A4FF4BA7101FBC9
:1097400003F3D31803F104031B683C2B3DD1D7F876
:109750000C33002B19DAA64B1B68A54A1268A549E1
:109760004FF4BA7000FB02F28A1802F10402116889
:10977000D7F80C238A189F494FF4BA7000FB03F303
:10978000CB1803F104031A60BCE0994B1868984B9E
:109790001B68984A4FF4BA7101FB03F3D31803F125
:1097A00004031968D7F80C2313464FEA83039B1868
:1097B0004FEA4303CA188F494FF4BA7303FB00F30F
:1097C000CB1803F104031A609CE0894B1B68894A9B
:1097D0004FF4BA7101FB03F3D31803F104031B68C0
:1097E000782B43D1D7F80C33002B1FDA804B186845
:1097F0007F4B1B687F4A4FF4BA7101FB03F3D31808
:1098000003F104031968D7F80C2313464FEA8303C6
:109810009B184FEA4303CA1876494FF4BA7303FB07
:1098200000F3CB1803F104031A606BE0704B186867
:109830006F4B1B686F4A4FF4BA7101FB03F3D318E7
:1098400003F104031968D7F80C2313464FEA0313F6
:109850009B1A4FEA8303CA1866494FF4BA7303FB95
:1098600000F3CB1803F104031A604BE0604B1B6854
:10987000604A4FF4BA7101FB03F3D31803F10403F8
:109880001B68772B1FDD5A4B1868594B1B68594AC8
:109890004FF4BA7101FB03F3D31803F10403196801
:1098A000D7F80C2313464FEA03139B1A4FEA83039E
:1098B000CA1850494FF4BA7303FB00F3CB1803F1F5
:1098C00004031A601EE04A4B1868494B1B68494A5A
:1098D0004FF4BA7101FB03F3D31803F104031968C1
:1098E000D7F80C2313464FEA83039B184FEA430330
:1098F000CA1840494FF4BA7303FB00F3CB1803F1C5
:1099000004031A603A4B1B683A4A4FF4BA7101FBE0
:1099100003F3D31803F104031B68002BBFF6D5AD86
:10992000334B1B68334A4FF4BA7101FB03F3D3186E
:1099300003F104034FF000021A60C7E509F018FDB7
:109940002B4B1B682B4A4FF4BA7101FB03F3D3185E
:1099500003F104031B68002B1ED1254B1B68052B4C
:1099600007D1254B184625494FF00B0212F0CEF8CF
:109970009BE01F4B1B684FF4BA7202FB03F303F129
:1099800028021C4BD31803F1040318461C494FF05E
:10999000090212F0BBF888E0154B1B68154A4FF41A
:1099A000BA7101FB03F3D31803F104031B68012B05
:1099B0002AD10F4B1B684FF4BA7202FB03F303F179
:1099C00028020C4BD31803F104031A46084B1B68FA
:1099D00008494FF4BA7000FB03F3CB1803F10403FA
:1099E0001B68104607491A460EF004FE5DE000BFF2
:1099F0006C00002070000020E00700209C820F080F
:109A0000F8830F0874820F08B74B1B68B74A4FF4EE
:109A1000BA7101FB03F3D31803F104031B68772B1E
:109A20001DDCB14B1B684FF4BA7202FB03F303F168
:109A30002802AE4BD31803F104031A46AA4B1B6845
:109A4000AA494FF4BA7000FB03F3CB1803F10403E7
:109A50001B681046A6491A460EF0CCFD25E0A24B25
:109A60001B684FF4BA7202FB03F303F128029F4B09
:109A7000D31803F104031A469B4B1B689B494FF410
:109A8000BA7000FB03F3CB1803F104031B68994978
:109A900081FB0301C9184FEA61114FEAE373CB1A46
:109AA000104695491A460EF0A5FD8F4B1B684FF4E2
:109AB000BA7202FB03F303F128028C4BD31803F1B3
:109AC000040318464FF0010108F03EFB08F092FB3A
:109AD0004FF000000CF0CAFA4FF00200874909F07D
:109AE0001BFB864B4FF000021A6003F0ABBC7E4BB1
:109AF0001B684FF4BA7202FB03F303F128027B4B9D
:109B0000D31803F104031946774B1B68774A4FF4C7
:109B1000BA7000FB03F3D31803F104031B681A4661
:109B200013464FEA83039B184FEA8303CB1818466A
:109B30004FF0010108F008FB08F05CFB4FF0020059
:109B40006E4909F0E9FAC7F80C03D7F80C33002B7B
:109B500003D16A4B1B68002BF0D0D7F80C33002BD5
:109B600000F0EB80604B1B68604A4FF4BA7101FB58
:109B700003F3D31803F5B8731A68D7F80C33D31866
:109B8000C7F87432584B1B68584A4FF4BA7101FB3E
:109B900003F3D31803F5B6731A68D7F874329A42F0
:109BA00001DA00F074BCD7F87432002B01DC00F04D
:109BB0006EBC4D4B1B684D4A4FF4BA7101FB03F369
:109BC000D31803F5B873D7F874221A60D7F8743233
:109BD00003F1FF33092B00F2AF8001A151F823F00C
:109BE000099C0008259C0008419C00085D9C000819
:109BF000799C0008959C0008B19C0008CD9C000849
:109C0000019D00081D9D0008374B1B68374A4FF423
:109C1000BA7101FB03F3D31803F104034FF00102FF
:109C20001A6089E0304B1B68304A4FF4BA7101FB6F
:109C300003F3D31803F104034FF002021A607BE030
:109C4000294B1B68294A4FF4BA7101FB03F3D3185F
:109C500003F104034FF003021A606DE0224B1B680E
:109C6000224A4FF4BA7101FB03F3D31803F1040342
:109C70004FF004021A605FE01B4B1B681B4A4FF455
:109C8000BA7101FB03F3D31803F104034FF005028B
:109C90001A6051E0144B1B68144A4FF4BA7101FB6F
:109CA00003F3D31803F104034FF006021A6043E0F4
:109CB0000D4B1B680D4A4FF4BA7101FB03F3D31827
:109CC00003F104034FF007021A6035E0064B1B68EE
:109CD000064A4FF4BA7101FB03F3D31803F10403EE
:109CE0004FF008021A6027E06C000020700000208E
:109CF00068820F088988888804840F0834560020F9
:109D0000A24B1B68A24A4FF4BA7101FB03F3D318AC
:109D100003F104034FF009021A600DE09B4B1B682E
:109D20009B4A4FF4BA7101FB03F3D31803F1040308
:109D30004FF00A021A6000BFA9E309F019FB934B28
:109D40001B68934A4FF4BA7101FB03F3D31803F174
:109D500004031B68042B54D18E4B4FF001021A6090
:109D60008A4B1B68184606F0F3FD8A4B4FF0000241
:109D70001A6009F0FDFA854B1B681A46834B1B6875
:109D800083494FF4BA7000FB03F3CB1803F10403CB
:109D90001B68104619464FF000024FF001030DF00A
:109DA000FDF97A4B1B684FF4BA7202FB03F303F11F
:109DB0001802774BD31818464FF0000108F0C4F989
:109DC000724B1B684FF4BA7202FB03F303F12802D3
:109DD0006F4BD31803F1040318464FF0010108F04C
:109DE000B3F908F007FA4FF000000CF03FF94FF01C
:109DF0000200694909F090F9674B4FF000021A60C0
:109E000047E3624B1B68624A4FF4BA7101FB03F3EC
:109E1000D31803F104031B68062B40F0A0805F48B1
:109E20004FF0000108F090F902E000BF00E000BF31
:109E3000564B1B684FF4BA7202FB03F303F128027E
:109E4000534BD31803F104031A46504B1B68504977
:109E50004FF4BA7000FB03F3CB1803F108031B683F
:109E600010464F491A460EF0C5FB484B1B684FF48D
:109E7000BA7202FB03F303F12802454BD31803F136
:109E8000040318464FF0010108F05EF908F0B2F93A
:109E90004FF00200404909F03FF9C7F80C03D7F82A
:109EA0000C33002B03D13C4B1B68002BF0D0D7F8B0
:109EB0000C33002B32D0354B1B68354A4FF4BA7146
:109EC00001FB03F3D31803F108031A68D7F80C3326
:109ED000D318C7F87032D7F870320B2BA5DDD7F83E
:109EE0007032482BA3DC294B1B68294A4FF4BA7106
:109EF00001FB03F3D31803F10803D7F870221A60AB
:109F0000224B1B68082B04D1D7F87022254B1A600E
:109F10008EE7D7F87022244B1A6089E709F028FAF7
:109F20001A4B1B684FF4BA7202FB03F303F11802D9
:109F3000174BD31818464FF0000108F005F908F048
:109F400059F94FF000000CF091F84FF0020012495F
:109F500009F0E2F8104B4FF000021A6097E20B4B49
:109F60001B680B4A4FF4BA7101FB03F3D31803F1DA
:109F700004031B68072B40F091800C484FF0000150
:109F800008F0E2F815E000BF13E000BF6C0000200D
:109F900070000020BC5500203456002010840F08AB
:109FA00020840F08D0550020D455002030840F089D
:109FB00000BFA449A44B1B68A44A4FF4BA7000FB2D
:109FC00003F3D31803F10C031B681A4613464FEA38
:109FD00083039B184FEA8303CB1818464FF0010107
:109FE00008F0B2F808F006F94FF00200984909F0BD
:109FF00093F8C7F80C03D7F80C33002B03D1944B1C
:10A000001B68002BF0D0D7F80C33002B25D08E4BDB
:10A010001B688E4A4FF4BA7101FB03F3D31803F1A6
:10A020000C031A68D7F80C33D318C7F86C32D7F87A
:10A030006C32002BA7DBD7F86C32042BB8DC824BD8
:10A040001B68824A4FF4BA7101FB03F3D31803F182
:10A050000C03D7F86C221A60ABE709F089F97A4B48
:10A060001B684FF4BA7202FB03F303F11802774B3B
:10A07000D31818464FF0000108F066F808F0BAF857
:10A080004FF000000BF0F2FF4FF00200704909F0B2
:10A0900043F86F4B4FF000021A60F8E16A4B1B68FF
:10A0A0006A4A4FF4BA7101FB03F3D31803F10403B6
:10A0B0001B68082B0DD0644B1B68644A4FF4BA71BF
:10A0C00001FB03F3D31803F104031B68092B40F0D1
:10A0D0000C8107F0C5FA4FF064004FF0010108F061
:10A0E00093FD4FF002005A4909F016F8C7F80C0327
:10A0F000584B1B6903F08003002B14BF002301237E
:10A10000C7F86432534B1B6903F48073002B14BFF0
:10A1100000230123C7F860324E4B1B6903F0100384
:10A12000002B14BF00230123C7F85C32494B1B6985
:10A1300003F02003002B14BF00230123C7F858327B
:10A14000D7F86432002B0BD1D7F86032002B07D13F
:10A15000D7F85C32002B03D1D7F85832002B7ED0D1
:10A16000394B1B68082B35D1D7F86432002B16D039
:10A17000354B1B68354A4FF4BA7101FB03F3D31812
:10A1800003F104031B68082B09D14FF01400324976
:10A1900040F6F4624FF0010308F086FD5FE0D7F867
:10A1A0006032002B4CD0284B1B68284A4FF4BA7100
:10A1B00001FB03F3D31803F104031B68092B4DD1F2
:10A1C0004FF01400244940F6F4624FF0010308F008
:10A1D0006BFD44E0D7F85C32002B16D01A4B1B689D
:10A1E0001A4A4FF4BA7101FB03F3D31803F10403C5
:10A1F0001B68082B09D14FF01400174940F6F46290
:10A200004FF0010308F050FD29E0D7F85832002B39
:10A2100025D00D4B1B680D4A4FF4BA7101FB03F3B7
:10A22000D31803F104031B68092B18D14FF0140055
:10A23000094940F6F4624FF0010308F035FD0EE0E5
:10A2400000BF0CE0382600206C00002070000020C9
:10A250003456002000040240A8D5010800BFD7F8FA
:10A260000C33002B04D1954B1B68002B3FF439AF06
:10A2700007F0F6F909F07CF8914B1B681A46904BF1
:10A280001B6890494FF4BA7000FB03F3CB1803F13D
:10A2900004031B68104619464FF000024FF00103FB
:10A2A0000CF07CFF864B1B684FF4BA7202FB03F381
:10A2B00003F11802834BD31818464FF0000107F042
:10A2C00043FF7F4B1B684FF4BA7202FB03F303F1A9
:10A2D00028027C4BD31803F1040318464FF0010108
:10A2E00007F032FF07F086FFD3E0754B1B68754A15
:10A2F0004FF4BA7101FB03F3D31803F104031B6895
:10A300000A2B40F08D8070484FF0000107F01CFFD1
:10A3100000E000BF6A4B1B684FF4BA7202FB03F304
:10A3200003F12802674BD31803F104031A46644B68
:10A330001B6864494FF4BA7000FB03F3CB1803F1B8
:10A3400010031B68104661491A460EF053F95C4B26
:10A350001B684FF4BA7202FB03F303F12802594B56
:10A36000D31803F1040318464FF0010107F0ECFE87
:10A3700007F040FF4FF00200504908F0CDFEC7F84B
:10A380000C03D7F80C33002B03D14C4B1B68002B6C
:10A39000F0D0D7F80C33002B21D0494B1B68494A29
:10A3A0004FF4BA7101FB03F3D31803F110031A68D9
:10A3B000D7F80C33D318C7F86832D7F86832002BB7
:10A3C000A7DB3F4B1B683F4A4FF4BA7101FB03F315
:10A3D000D31803F11003D7F868221A609AE708F03F
:10A3E000C7FF374B1B684FF4BA7202FB03F303F14C
:10A3F0001802344BD31818464FF0000107F0A4FEA2
:10A4000007F0F8FE4FF000000BF030FE4FF00200B6
:10A410002A4908F081FE294B4FF000021A6036E00D
:10A42000274B1B681A46264B1B6826494FF4BA7007
:10A4300000FB03F3CB1803F104031B681046194615
:10A440004FF000024FF001030CF0A8FE1C4B1B68FC
:10A450004FF4BA7202FB03F303F12802194BD3182D
:10A4600003F1040318464FF0010107F06DFE07F0F9
:10A47000C1FE4FF000000BF0F9FD4FF002000F4954
:10A4800008F04AFE0D4B4FF000021A6001E0FFF7A2
:10A490002EBB02F0D7BF0E4B1B68002B1ED10D4BFD
:10A4A00018460D490CF0CAFE0B484FF0010107F0A9
:10A4B0004BFE07F09FFE02F0C5BF00BF34560020E0
:10A4C0006C000020700000203C840F0848840F08B6
:10A4D0007C550020240F002054840F0807F5A0723B
:10A4E000B94B14461D460FCD0FC42B68236007F5EA
:10A4F0009672B54B14461D460FCD0FC42B682360D2
:10A5000007F58C72B04B14461D460FCD0FC42B6857
:10A51000236007F58272AC4B14461D460FCD0FC465
:10A520002B682360A94BD3F88C3EC7F85432A74B55
:10A53000D3F88C3E03F10103C7F85032A449D7F891
:10A54000542213464FEA83039B184FEA0313CB1898
:10A5500003F110035B78082B12D19D49D7F85422E0
:10A5600013464FEA83039B184FEA0313CB181B686B
:10A5700007F58C72104697491A460EF03BF811E029
:10A580009349D7F8542213464FEA83039B184FEAA6
:10A590000313CB181B6807F58C7210468E491A46B8
:10A5A0000EF028F84FF00003C7F8F83211E007F575
:10A5B0008C72D7F8F832D3181A7807F5A071D7F84B
:10A5C000F832CB181A70D7F8F83203F10103C7F844
:10A5D000F83207F58C73184611F0F8FB0246D7F8ED
:10A5E000F8329A42E3D87A49D7F8542213464FEA10
:10A5F00083039B184FEA0313CB1803F110031B7856
:10A60000002B40F022817249D7F8502213464FEABE
:10A6100083039B184FEA0313CB1803F110031B7835
:10A62000002B00F01281D7F8542213464FEA83031F
:10A630009B184FEA031303F11002654BD31803F183
:10A64000020307F582721046194611F061FB4FF0C4
:10A650000003C7F8F83207F58273184611F0B6FB0D
:10A660000346C3F11203C7F8F43217E007F582720C
:10A67000D7F8F832D3181A7807F5A071D7F8F43262
:10A68000CB181A70D7F8F43203F10103C7F8F4328B
:10A69000D7F8F83203F10103C7F8F832D7F8F432EB
:10A6A000132BE3D907F5A0734FF020029A7407F536
:10A6B000A0734FF02002DA744549D7F850221346B0
:10A6C0004FEA83039B184FEA0313CB1803F11003DF
:10A6D0005B78082B12D13E49D7F8502213464FEA37
:10A6E00083039B184FEA0313CB181B6807F58C7282
:10A6F000104638491A460DF07DFF11E03449D7F86D
:10A70000502213464FEA83039B184FEA0313CB18DA
:10A710001B6807F58C7210462F491A460DF06AFF28
:10A720004FF00003C7F8F83211E007F58C72D7F844
:10A73000F832D3181A7807F59671D7F8F832CB1893
:10A740001A70D7F8F83203F10103C7F8F83207F5A9
:10A750008C73184611F03AFB0246D7F8F8329A4249
:10A76000E3D81B49D7F8502213464FEA83039B18BE
:10A770004FEA0313CB1803F104031B68002B54D0DA
:10A78000D7F8502213464FEA83039B184FEA03136E
:10A7900003F110020E4BD31803F1020307F5827286
:10A7A0001046194611F0B4FA4FF00003C7F8F8321A
:10A7B00007F58273184611F009FB0346C3F1120333
:10A7C000C7F8F43222E000BF14870F0870000020A1
:10A7D0009C26002060840F086C840F0807F58272A5
:10A7E000D7F8F832D3181A7807F59671D7F8F432FB
:10A7F000CB181A70D7F8F43203F10103C7F8F4321A
:10A80000D7F8F83203F10103C7F8F832D7F8F43279
:10A81000132BE3D907F596734FF020029A7407F5CE
:10A8200096734FF02002DA7489E207F5967303F10C
:10A830000C031846BA494FF0070211F067F907F503
:10A8400096734FF020029A7479E2B649D7F85422F1
:10A8500013464FEA83039B184FEA0313CB1803F107
:10A8600010031B78002B40F01E81AE49D7F8502210
:10A8700013464FEA83039B184FEA0313CB1803F1E7
:10A8800010031B78002B40F00E81D7F8542213469A
:10A890004FEA83039B184FEA031303F11002A14B05
:10A8A000D31803F1020307F582721046194611F01E
:10A8B0002FFA4FF00003C7F8F83207F582731846F5
:10A8C00011F084FA0346C3F11203C7F8F43217E01B
:10A8D00007F58272D7F8F832D3181A7807F5A07105
:10A8E000D7F8F432CB181A70D7F8F43203F1010319
:10A8F000C7F8F432D7F8F83203F10103C7F8F83299
:10A90000D7F8F432132BE3D907F5A0734FF02002E8
:10A910009A7407F5A0734FF02002DA748149D7F8D2
:10A92000502213464FEA83039B184FEA0313CB18B8
:10A930001B68002B00F09F807A49D7F850221346FD
:10A940004FEA83039B184FEA0313CB1803F110035C
:10A950005B78082B12D17349D7F8502213464FEA7F
:10A9600083039B184FEA0313CB181B6807F58C72FF
:10A9700010466D491A460DF03DFE11E06949D7F8C1
:10A98000502213464FEA83039B184FEA0313CB1858
:10A990001B6807F58C72104664491A460DF02AFEB2
:10A9A0004FF00003C7F8F83211E007F58C72D7F8C2
:10A9B000F832D3181A7807F59671D7F8F832CB1811
:10A9C0001A70D7F8F83203F10103C7F8F83207F527
:10A9D0008C73184611F0FAF90246D7F8F8329A4209
:10A9E000E3D8D7F8502213464FEA83039B184FEA67
:10A9F000031303F110024B4BD31803F1020307F5C5
:10AA000082721046194611F083F94FF00003C7F81F
:10AA1000F83207F58273184611F0D8F90346C3F1EE
:10AA20001203C7F8F43217E007F58272D7F8F8324C
:10AA3000D3181A7807F59671D7F8F432CB181A7034
:10AA4000D7F8F43203F10103C7F8F432D7F8F8323B
:10AA500003F10103C7F8F832D7F8F432132BE3D926
:10AA600007F596734FF020029A7407F596734FF02E
:10AA70002002DA7463E14FF00003C7F8F8320DE00A
:10AA800007F59672D7F8F832D3184FF020021A70F3
:10AA9000D7F8F83203F10103C7F8F832D7F8F832E3
:10AAA000132BEDD94BE11F49D7F8542213464FEA37
:10AAB00083039B184FEA0313CB1803F110031B7891
:10AAC000002B00F0C5801749D7F8542213464FEAEF
:10AAD00083039B184FEA0313CB1803F104031B688D
:10AAE000002B27D107F5A07303F10C0318460C497E
:10AAF0004FF0070211F00AF807F5A0734FF020029B
:10AB00009A7407F59673184609494FF0070210F03A
:10AB1000FDFF07F596734FF020029A7160E000BFC9
:10AB200078840F089C26002060840F086C840F082E
:10AB300080840F08D7F8542213464FEA83039B18EA
:10AB40004FEA031303F11002AF4BD31803F10203D2
:10AB500007F582721046194611F0DAF84FF000033B
:10AB6000C7F8F83207F58273184611F02FF903463B
:10AB7000C3F11203C7F8F43217E007F58272D7F871
:10AB8000F832D3181A7807F5A071D7F8F432CB1839
:10AB90001A70D7F8F43203F10103C7F8F432D7F88A
:10ABA000F83203F10103C7F8F832D7F8F432132B67
:10ABB000E3D907F5A0734FF020029A7407F5A0734C
:10ABC0004FF02002DA7407F5967318468F494FF05C
:10ABD000070210F09BFF07F596734FF020029A7161
:10ABE000D7F8542213464FEA83039B184FEA031306
:10ABF00003F12002844BD31803F10603184611F029
:10AC0000E5F80346C3F11203C7F8F43207F596726C
:10AC1000D7F8F432D118D7F8542213464FEA8303F9
:10AC20009B184FEA031303F12002774BD31803F16B
:10AC300006030846194611F06BF807F596734FF0B6
:10AC400020029A7407F596734FF02002DA7476E0CA
:10AC5000D7F8542213464FEA83039B184FEA031395
:10AC600003F11002684BD31803F1020307F5827257
:10AC70001046194611F04CF84FF00003C7F8F832AF
:10AC80000DE007F5A072D7F8F832D3184FF0200284
:10AC90001A70D7F8F83203F10103C7F8F832D7F881
:10ACA000F832132BEDD94FF00003C7F8F83207F54F
:10ACB0008273184611F08AF80346C3F11203C7F8ED
:10ACC000F43217E007F58272D7F8F832D3181A7801
:10ACD00007F5A071D7F8F432CB181A70D7F8F43210
:10ACE00003F10103C7F8F432D7F8F83203F1010396
:10ACF000C7F8F832D7F8F432132BE3D907F5A0736D
:10AD00004FF020029A7407F5A0734FF02002DA7416
:10AD10004FF00003C7F8F8320DE007F59672D7F848
:10AD2000F832D3184FF020021A70D7F8F83203F136
:10AD30000103C7F8F832D7F8F832132BEDD9344BAA
:10AD40001B68012B00F0EA80314B1B68032B28D9CC
:10AD5000D7F8543203F1FF322B4913464FEA8303ED
:10AD60009B184FEA0313CB181B68002B19D0D7F898
:10AD7000503203F10102244913464FEA83039B1822
:10AD80004FEA0313CB181B68002B0AD007F5A073FA
:10AD90004FF00302DA7407F596734FF00402DA7489
:10ADA000BCE01B4B1B68022B0DD1D7F85432002B93
:10ADB00009D1154B1B7C002B05D007F596734FF07E
:10ADC0000402DA74AAE0D7F85422114B1B689A42A5
:10ADD00005D0D7F850220E4B1B689A421AD10A4967
:10ADE000D7F8542213464FEA83039B184FEA031304
:10ADF000CB1803F110031B78002B0BD007F5A073C1
:10AE00004FF00302DA7489E09C26002080840F084A
:10AE10007C550020AC4B1B68022B1DD9D7F854324F
:10AE2000002B19DDA949D7F8542213464FEA8303B2
:10AE30009B184FEA0313CB1803F110031B78002B68
:10AE40000AD007F5A0734FF00302DA7407F5967382
:10AE50004FF00402DA7461E0D7F85432002B16D1B7
:10AE60009A49D7F8502213464FEA83039B184FEABA
:10AE70000313CB181B68002B09D0934B1B68022BC4
:10AE800005D007F596734FF00402DA7446E0D7F860
:10AE90005432002B03D1D7F85032012B3ED0D7F8D3
:10AEA0005022D7F854329A420EDDD7F8543203F1CB
:10AEB000FF32864913464FEA83039B184FEA031378
:10AEC000CB181B68002B16D17F4B1B6803F1FF3298
:10AED000D7F854329A4214D17B4B1B68A3F102027B
:10AEE0007A4913464FEA83039B184FEA0313CB18A2
:10AEF0001B68002B05D007F5A0734FF00302DA742E
:10AF00000CE0D7F85432002B08D1704B1B6D002B8E
:10AF100004D007F596734FF00402DA7407F5A073B6
:10AF200018464FF0000107F0DFF807F59673184652
:10AF30004FF0010107F0D8F807F05CF94FF002007C
:10AF4000634908F0E9F8C7F80C03D7F80C33002B75
:10AF500003D15F4B1B68002BF0D0D7F80C33002BCC
:10AF600028D05C4BD3F88C2ED7F80C33D31AC7F803
:10AF70004C32D7F84C32002B0ADBD7F84C22524B1C
:10AF80001B689A4204D2534BD7F84C22C3F88C2E3C
:10AF900007F5A07318464FF0000107F0A5F807F574
:10AFA000967318464FF0010107F09EF807F022F95A
:10AFB000FFF794BA08F0DCF902F044BA424B1B6880
:10AFC000002B02F03C8244484FF0000107F0BCF82F
:10AFD00042484FF0010107F0B7F807F00BF900E025
:10AFE00000BF4FF002003A4908F096F8C7F80C038A
:10AFF000D7F80C33002B03D1354B1B68002BF0D056
:10B00000D7F80C33B3F1FF3F0DD1324B03F580532A
:10B010004FF001021A6032484FF0010107F094F836
:10B0200007F0E8F810E0D7F80C33012B0CD1294BCE
:10B0300003F580534FF000021A6028484FF00101D9
:10B0400007F082F807F0D6F8214B1B6803F40043A1
:10B05000002BC5D01F4B03F580531B68012B2ED14D
:10B06000204B184620490CF0E9F820484FF0010128
:10B0700007F06AF807F0BEF80AF042FF4FF0000050
:10B080000AF0F4FF4FF00200114908F045F8104BA8
:10B090004FF000021A6016484FF0000107F054F814
:10B0A00014484FF0010107F04FF807F0A3F84FF4F0
:10B0B000FA6007F031FD104B4FF00A021A6000BF32
:10B0C00002F0C0B900BF1AE07C5500209C26002089
:10B0D000345600207000002088840F0898840F08E0
:10B0E000A4840F08240F002054840F08B0840F0894
:10B0F000BC840F08D0840F086C00002000BFB44946
:10B10000B44B03F58A5303F134031B681A46134604
:10B110004FEA83039B184FEA8303CB1818464FF07E
:10B12000010107F011F807F065F84FF00200AA4995
:10B1300007F0F2FFC7F80C03D7F80C33002B03D14C
:10B14000A54B1B68002BF0D0D7F80C33002B1BD07D
:10B15000A04B03F58A5303F134031A68D7F80C3374
:10B16000D318C7F84832D7F84832002BAADDD7F8F1
:10B170004832022BC2DC974B03F58A5303F13403A8
:10B18000D7F848221A60BAE708F0F2F8914B03F5B5
:10B190008A5303F134031B684FF00C0019464FF03B
:10B1A00000024FF001030BF0F9FF894B18464FF0F6
:10B1B000010106F0C9FF07F01DF84FF000000AF08A
:10B1C00055FF4FF00200844907F0A6FF824B4FF075
:10B1D00000021A6002F036B900BF00E000BF7F49EC
:10B1E0007C4BD3F8BC381A4613464FEA83039B18AE
:10B1F0004FEA8303CB1818464FF0010106F0A4FF75
:10B2000006F0F8FF4FF00200734907F085FFC7F81A
:10B210000C03D7F80C33002B03D16F4B1B68002BAA
:10B22000F0D0D7F80C33002B15D06A4BD3F8BC28DC
:10B23000D7F80C33D318C7F84432D7F84432002B70
:10B24000CADDD7F84432022BC8DC624BD7F844225F
:10B25000C3F8BC28C3E708F08BF85E4BD3F8BC38C2
:10B260004FF0060019464FF000024FF001030BF0BB
:10B2700095FF5A4B18464FF0010106F065FF06F0A6
:10B28000B9FF4FF000000AF0F1FE4FF00200524902
:10B2900007F042FF504B4FF000021A6002F0D2B8A4
:10B2A00000BF00E000BF4E494A4BD3F8303A1A467F
:10B2B00013464FEA83039B184FEA8303CB181846C3
:10B2C0004FF0010106F040FF06F094FF4FF002003E
:10B2D000414907F021FFC7F80C03D7F80C33002BC6
:10B2E00003D13D4B1B68002BF0D0D7F80C33002B5B
:10B2F00015D0384BD3F8302AD7F80C33D318C7F809
:10B300004032D7F84032002BCADDD7F84032022B4A
:10B31000C8DC304BD7F84022C3F8302AC3E708F026
:10B3200027F82C4BD3F8303A4FF0070019464FF06E
:10B3300000024FF001030BF031FF294B18464FF08C
:10B34000010106F001FF06F055FF4FF000000AF082
:10B350008DFE4FF00200204907F0DEFE1E4B4FF03D
:10B3600000021A6002F06EB81E4A1A4B03F596539B
:10B3700003F128031B6810461B491A460DF03AF9E1
:10B38000184B18464FF0010106F0DEFE06F032FFC2
:10B3900002F058B80F4B03F5965303F128031B68CE
:10B3A000002B02F04E8011484FF0000106F0CCFE59
:10B3B0000F484FF0010106F0C7FE06F01BFF054BDA
:10B3C00003F5A25303F11C034FF000021A6012E0D0
:10B3D0000C12002070000020345600205409002078
:10B3E000C80A002080130020D8840F0888840F0822
:10B3F00098840F0800BF4FF00200804907F08CFED0
:10B40000C7F80C03D7F80C33002B03D17B4B1B6818
:10B41000002BF0D0D7F80C33B3F1FF3F0FD1784BAE
:10B4200003F5A25303F11C034FF001021A607548A3
:10B430004FF0010106F088FE06F0DCFE12E0D7F8BE
:10B440000C33012B0ED16E4B03F5A25303F11C03F9
:10B450004FF000021A606C484FF0010106F074FED4
:10B4600006F0C8FE654B1B6803F40043002BC1D0F7
:10B47000634B03F5A25303F11C031B68002B00D19F
:10B4800032E05F4B03F5A25303F11C031B68002B52
:10B4900029DD5E4B18465E490BF0D0FE584B03F594
:10B4A000965303F128034FF000021A604FF0020098
:10B4B000524907F031FE514B4FF000021A605548D7
:10B4C0004FF0000106F040FE53484FF0010106F036
:10B4D0003BFE06F08FFE4FF4FA6007F01DFB4F4B6A
:10B4E0004FF00D021A6000BF01F0ACBF4C484FF0A6
:10B4F000000106F029FE44484FF0010106F024FE49
:10B5000006F078FE3E4B03F5AE5303F110034FF007
:10B5100000021A6000E000BF4FF00200374907F058
:10B52000FBFDC7F80C03D7F80C33002B03D1334BCA
:10B530001B68002BF0D0D7F80C33B3F1FF3F0FD1CD
:10B540002F4B03F5AE5303F110034FF001021A60C5
:10B550002C484FF0010106F0F7FD06F04BFE12E01B
:10B56000D7F80C33012B0ED1254B03F5AE5303F165
:10B5700010034FF000021A6023484FF0010106F05B
:10B58000E3FD06F037FE1D4B1B6803F40043002B60
:10B59000C1D01B4B03F5AE5303F110031B68002B06
:10B5A00000D129E0164B03F5AE5303F110031B68DD
:10B5B000002B20DD4FF000000AF058FD4FF0020094
:10B5C0000E4907F0A9FD0D4B4FF000021A6011481B
:10B5D0004FF0000106F0B8FD12484FF0010106F0EF
:10B5E000B3FD06F007FE4FF4FA6007F095FA0B4B37
:10B5F0004FF00F021A6000BF01F024BF3456002044
:10B6000070000020A4840F0898840F088013002085
:10B61000DC840F08E0840F08F4840F086C0000201D
:10B6200088840F08FC840F08B64AB74B03F5BA5359
:10B6300003F104031B681046B4491A460CF0DAFF04
:10B64000B34B1B684FF4BA7202FB03F303F12802F9
:10B65000AD4BD31803F1040318464FF0010106F077
:10B6600073FD06F0C7FD4FF00200AA4907F054FD34
:10B67000C7F80C03D7F80C33002B03D1A54B1B687C
:10B68000002BF0D0D7F80C33002B4BD09E4B03F59A
:10B69000BA5303F104031A68D7F80C33D2189A4B43
:10B6A00003F5BA5303F104031A60974B03F5BA5339
:10B6B00003F104031B68C7F8F032D7F8F032642BAB
:10B6C00003DD4FF06403C7F8F032D7F8F032002BF7
:10B6D00003DA4FF00003C7F8F0328B4B03F5BA538F
:10B6E00003F10403D7F8F0221A60874B03F5BA532D
:10B6F00003F104031B684FEAC313874A82FB03026A
:10B700004FEA62124FEAE373D31AC7F83C32D7F814
:10B710003C329BB243F480539BB29BB2184607F075
:10B7200041FA81E707F024FE764A774B03F5BA53D6
:10B7300003F104031B68104678491A460CF05AFFBF
:10B74000734B1B684FF4BA7202FB03F303F1280238
:10B750006D4BD31803F1040318464FF0010106F0B6
:10B76000F3FC06F047FD4FF064004FF0000107F0D6
:10B770004BFA654B03F5BA5303F104031B684EF60D
:10B78000602202FB03F318464FF0010107F060FF4F
:10B7900005F066FF4FF000000AF068FC4FF0020071
:10B7A0005C4907F0B9FC5B4B4FF000021A6001F0F6
:10B7B00049BE5B4A544B03F5C45303F138031B687D
:10B7C000104652491A460CF015FF514B1B684FF4B6
:10B7D000BA7202FB03F303F128024B4BD31803F1B7
:10B7E000040318464FF0010106F0AEFC06F002FD1E
:10B7F0004FF00200474907F08FFCC7F80C03D7F859
:10B800000C33002B03D1434B1B68002BF0D0D7F82F
:10B810000C33002B2FD03C4B03F5C45303F13803FA
:10B820001A68D7F80C33D218374B03F5C45303F119
:10B8300038031A60344B03F5C45303F138031B6813
:10B84000C7F8EC32D7F8EC32642B03DD4FF0640319
:10B85000C7F8EC32D7F8EC32002B03DA4FF00003D4
:10B86000C7F8EC32284B03F5C45303F13803D7F87B
:10B87000EC221A609DE707F07BFD294A224B03F575
:10B88000C45303F138031B68104624491A460CF0D0
:10B89000B1FE1F4B1B684FF4BA7202FB03F303F1B6
:10B8A0002802194BD31803F1040318464FF0010185
:10B8B00006F04AFC06F09EFC4FF064004FF00001D9
:10B8C00007F0A2F9104B03F5C45303F138031B68CA
:10B8D0004EF6602202FB03F318464FF0010107F019
:10B8E000B7FE05F0BDFE4FF000000AF0BFFB4FF0C1
:10B8F0000200084907F010FC064B4FF000021A60E6
:10B9000001F0A0BDDC170020700000200C850F089E
:10B910006C000020345600201F85EB5130820F0848
:10B9200050190020C04AC14B03F5D05303F12C033A
:10B930001B681046BE491A460CF05CFEBD4B1B68E6
:10B940004FF4BA7202FB03F303F12802B74BD3188A
:10B9500003F1040318464FF0010106F0F5FB06F071
:10B9600049FC4FF00200B44907F0D6FBC7F80C03BE
:10B97000D7F80C33002B03D1AF4B1B68002BF0D052
:10B98000D7F80C33002B2FD0A84B03F5D05303F17D
:10B990002C031A68D7F80C33D218A44B03F5D053F4
:10B9A00003F12C031A60A14B03F5D05303F12C03D0
:10B9B0001B68C7F8E832D7F8E832642B03DD4FF094
:10B9C0006403C7F8E832D7F8E832002B03DA4FF007
:10B9D0000003C7F8E832954B03F5D05303F12C036D
:10B9E000D7F8E8221A609DE707F0C2FC8E4A8F4B19
:10B9F00003F5D05303F12C031B6810468F491A46F8
:10BA00000CF0F8FD8B4B1B684FF4BA7202FB03F38A
:10BA100003F12802854BD31803F1040318464FF0B5
:10BA2000010106F091FB06F0E5FB4FF064004FF0DA
:10BA3000010107F0E9F84FF4FA70814940F2B14290
:10BA40004FF0010307F030F905F00AFE4FF0000057
:10BA50000AF00CFB4FF00200774907F05DFB764BD4
:10BA60004FF000021A6001F0EDBC764A6F4B03F50F
:10BA7000DD531B6810466E491A460CF0BBFD6D4B3A
:10BA80001B684FF4BA7202FB03F303F12802674B01
:10BA9000D31803F1040318464FF0010106F054FBDC
:10BAA00006F0A8FB4FF00200634907F035FBC7F82A
:10BAB0000C03D7F80C33002B03D15F4B1B68002B12
:10BAC000F0D0D7F80C33002B3DD0584B03F5DD53A5
:10BAD0001A68D7F80C33D218544B03F5DD531A60AB
:10BAE000524B03F5DD531B68C7F8E432D7F8E43254
:10BAF000642B03DD4FF06403C7F8E432D7F8E43277
:10BB0000002B03DA4FF00003C7F8E432474B03F58C
:10BB1000DD53D7F8E4221A60444B03F5DD531B686C
:10BB20004FEAC313484A82FB03124FEA62124FEAFC
:10BB3000E373D31AC7F83832D7F838329BB21846B5
:10BB400007F030F891E707F013FC3E4A374B03F556
:10BB5000DD531B68104639491A460CF04BFD354B36
:10BB60001B684FF4BA7202FB03F303F128022F4B58
:10BB7000D31803F1040318464FF0010106F0E4FA6C
:10BB800006F038FB4FF000000AF070FA4FF00200A8
:10BB9000294907F0C1FA284B4FF000021A6001F062
:10BBA00051BC00BF2949214B03F5F45303F10803AD
:10BBB0001B681A4613464FEA83039B184FEA830318
:10BBC000CB1818464FF0010106F0BEFA06F012FB42
:10BBD0004FF00200184907F09FFAC7F80C03D7F896
:10BBE0000C33002B03D1144B1B68002BF0D0D7F87B
:10BBF0000C33002B00F09D800C4B03F5FE5303F13A
:10BC000034031A68D7F80C33D318C7F83432074B0B
:10BC100003F5FE5303F130031A68D7F834329A4221
:10BC200016DA00F051BC00BFC41A002070000020DA
:10BC30000C850F086C0000203456002030820F085D
:10BC400044CC0108381C00201F85EB51201F002028
:10BC5000D7F83432002B01DC00F036BCC04B03F5C2
:10BC6000FE5303F13403D7F834221A60D7F8343284
:10BC700003F1FF33072B5BD801A252F823F000BF7A
:10BC8000A1BC0008B3BC0008C5BC0008D7BC0008B4
:10BC9000E9BC0008FBBC00080DBD00081FBD000882
:10BCA000AF4B03F5F45303F108034FF001021A60A0
:10BCB0003EE0AB4B03F5F45303F108034FF00202EF
:10BCC0001A6035E0A64B03F5F45303F108034FF077
:10BCD00003021A602CE0A24B03F5F45303F10803AE
:10BCE0004FF004021A6023E09D4B03F5F45303F177
:10BCF00008034FF005021A601AE0994B03F5F4535C
:10BD000003F108034FF006021A6011E0944B03F5AB
:10BD1000F45303F108034FF007021A6008E0904B58
:10BD200003F5F45303F108034FF008021A6000BF53
:10BD3000CAE307F01DFB8A4B03F5F45303F1080334
:10BD40001B68012B4FD187484FF480510CF02CFD1C
:10BD500084484FF400510CF027FD82484FF4804195
:10BD60000CF022FD7F484FF400410CF01DFD4FF018
:10BD700002007D4907F0D0F9C7F80C03D7F80C335F
:10BD8000002B03D1784B1B68002BF0D075484FF483
:10BD900080510CF017FD73484FF400510CF012FD68
:10BDA00070484FF480410CF00DFD6E484FF4004197
:10BDB0000CF008FD6A4B03F5F45303F108031B680C
:10BDC0004FF0150019464FF000024FF001030BF041
:10BDD000E5F966484FF0000106F0B6F906F00AFAF8
:10BDE00007F0C6FA72E35E4B03F5F45303F1080360
:10BDF0001B68022B26D15B484FF480510CF0D4FC19
:10BE00004FF0020003F05AFB56484FF480510CF0FB
:10BE1000D9FC534B03F5F45303F108031B684FF0AF
:10BE2000150019464FF000024FF001030BF0B6F970
:10BE30004E484FF0000106F087F906F0DBF907F0F5
:10BE400097FA43E3464B03F5F45303F108031B68E9
:10BE5000032B26D143484FF400510CF0A5FC4FF0C2
:10BE6000030003F02BFB3F484FF400510CF0AAFCF9
:10BE70003B4B03F5F45303F108031B684FF0150027
:10BE800019464FF000024FF001030BF087F93748D5
:10BE90004FF0000106F058F906F0ACF907F068FA27
:10BEA00014E32F4B03F5F45303F108031B68042B31
:10BEB00026D12C484FF480410CF076FC4FF0040062
:10BEC00003F0FCFA27484FF480410CF07BFC244B34
:10BED00003F5F45303F108031B684FF015001946EE
:10BEE0004FF000024FF001030BF058F91F484FF0DC
:10BEF000000106F029F906F07DF907F039FAE5E2CC
:10BF0000174B03F5F45303F108031B68052B2FD1DE
:10BF100014484FF400410CF047FC4FF0050003F0CB
:10BF2000CDFA10484FF400410CF04CFC0C4B03F5DB
:10BF3000F45303F108031B684FF0150019464FF046
:10BF400000024FF001030BF029F908484FF00001FF
:10BF500006F0FAF806F04EF907F00AFAB6E200BF6A
:10BF600070000020000C0240345600200C1F0020FE
:10BF70007B4B03F5F45303F108031B68062B35D103
:10BF80004FF00003C7F830324FF00200754907F058
:10BF9000C3F8C7F80C034FF0010003F0FFF8C7F82F
:10BFA0003002D7F83032002B07D1D7F80C33002BF2
:10BFB00003D16C4B1B68002BE6D0694B03F5F4539F
:10BFC00003F108031B684FF0150019464FF00002FB
:10BFD0004FF001030BF0E2F863484FF0000106F068
:10BFE000B3F806F007F907F0C3F96FE25C4B03F50D
:10BFF000F45303F108031B68072B40F0C3805C4B2C
:10C00000C7F82C325B4BC7F828325A4BC7F824329A
:10C01000594BC7F8E0324FF00200524907F07CF864
:10C02000C7F80C03D7F8E00254490FF05BFA034657
:10C03000C7F8E032D7F82C0251490FF05BFB0346FA
:10C0400018460EF0E3FE04460D46D7F82C024C4984
:10C050000FF050FB034618460EF0D8FE8046894686
:10C06000D7F8E0020EF0D2FE02460B461046194603
:10C070000DF0C0FA02460B46404649460EF01AFF44
:10C0800002460B46204629460EF060FD02460B464E
:10C09000104619460FF0D0F90346C7F82832D7F8F2
:10C0A0002C02D7F828120FF01BFA0346C7F82432E7
:10C0B0002E484FF480510CF077FB2C484FF4005180
:10C0C0000CF072FB29484FF480410CF06DFB2748BF
:10C0D0004FF400410CF068FBD7F828020FF0D0FCB9
:10C0E0000346184606F002FD20484FF480510CF03C
:10C0F00069FB1E484FF400510CF064FB1B484FF4E1
:10C1000080410CF05FFB19484FF400410CF05AFBE2
:10C11000D7F824020FF0B4FC0346184606F0E6FCFC
:10C12000D7F80C33002B04D10E4B1B68002B3FF4C7
:10C1300072AF0B4B03F5F45303F108031B684FF088
:10C14000150019464FF000024FF001030BF026F8DE
:10C1500005484FF0000105F0F7FF06F04BF8B5E198
:10C1600070000020345600200C1F0020000C0240FC
:10C170000000204200000000DB0FC93F1B2F5D3C88
:10C180000000003FB84B03F5F45303F108031B68AC
:10C19000082B7FF406ADB74BC7F820324FF00200F2
:10C1A000B24906F0B9FFC7F80C03D7F8D802B24974
:10C1B0000FF098F90346C7F8D832D7F8D002AF4944
:10C1C0000FF090F90346C7F8D032D7F8C802AC494F
:10C1D0000FF086F90346C7F8C832D7F8C402A94958
:10C1E0000FF07EF90346C7F8C432D7F820020EF0EC
:10C1F0000DFE04460D46D7F8D8020EF007FE0246A3
:10C200000B46104619460DF0F5F902460B4620463E
:10C2100029460EF04FFE02460B46104619460FF017
:10C220000BF90346C7F8DC32D7F820020EF0EEFD1A
:10C2300004460D46D7F8D0020EF0E8FD02460B4644
:10C24000104619460DF0D6F902460B4620462946FF
:10C250000EF030FE02460B46104619460FF0ECF881
:10C260000346C7F8D432D7F820020EF0CFFD0446BB
:10C270000D46D7F8C8020EF0C9FD02460B4610461F
:10C2800019460DF0B7F902460B46204629460EF036
:10C2900011FE02460B46104619460FF0CDF8034634
:10C2A000C7F8CC32D7F820020EF0B0FD04460D4698
:10C2B000D7F8C4020EF0AAFD02460B4610461946F6
:10C2C0000DF098F902460B46204629460EF0F2FD85
:10C2D00002460B46104619460FF0AEF80346C7F863
:10C2E0001C324FF001031C46D7F8DC0266490FF000
:10C2F0009FFB0346002B02D14FF000031C46E3B224
:10C30000002B05D0D7F8DC3283F00043C7F8DC32CD
:10C310004FF001031C46D7F8D4025B490FF088FBAD
:10C320000346002B02D14FF000031C46E3B2002B62
:10C3300005D0D7F8D43283F00043C7F8D4324FF099
:10C3400001031C46D7F8CC024F490FF071FB03469E
:10C35000002B02D14FF000031C46E3B2002B05D0A6
:10C36000D7F8CC3283F00043C7F8CC324FF001034A
:10C370001C46D7F81C0244490FF05AFB0346002B19
:10C3800002D14FF000031C46E3B2002B05D0D7F8D2
:10C39000DC3283F00043C7F8DC32D7F82002D7F84C
:10C3A000DC120FF09DF80346C7F81832D7F82002C8
:10C3B000D7F8D4120FF094F80346C7F8143207F5F3
:10C3C0000474D7F82002D7F8CC120FF089F803468E
:10C3D000236007F50374D7F82002D7F81C120FF07A
:10C3E0007FF80346236022484FF480510CF0DCF9BB
:10C3F000D7F8DC020FF044FB0346184606F076FB44
:10C400001B484FF480510CF0DDF9D7F818020FF0FB
:10C4100037FB0346184606F069FB15484FF40051F8
:10C420000CF0C2F912484FF480410CF0BDF91048ED
:10C430004FF400410CF0B8F90D484FF480510CF066
:10C44000C1F90B484FF400510CF0BCF908484FF407
:10C4500080410CF0B7F906484FF400410CF0B2F9F6
:10C46000D7F80C3312E000BF7000002034560020D3
:10C47000000C02400000C842CDCC4C3CEC51B83C12
:10C48000B6F37D3C77BE9F3C00000000002B04D13A
:10C49000784B1B68002B3FF481AE774B03F5F453C8
:10C4A00003F108031B684FF0150019464FF0000216
:10C4B0004FF001030AF072FE70484FF0000105F0E2
:10C4C00043FE05F097FE01E0FFF76CBB00F0BABF3A
:10C4D00000BF6B49684B03F5FE5303F13C031B6837
:10C4E0001A4613464FEA83039B184FEA8303CB187F
:10C4F00018464FF0010105F027FE05F07BFE4FF0D6
:10C5000003005C4906F008FEC7F80C03D7F80C33AB
:10C51000002B03D1574B1B68002BF0D0D7F80C33FE
:10C52000002B5ED0544B03F5045303F168031968E4
:10C5300007F50273D7F80C238A181A604E4B03F5DF
:10C54000045303F164031A6807F502731B689A42E7
:10C5500000DAEEE207F502731B68002B00DCE8E26C
:10C56000454B03F5045303F1680307F502721268A3
:10C570001A6007F502731B6803F1FF33032B2FD8F2
:10C5800001A050F823F000BF99C50008ABC5000812
:10C59000BDC50008CFC50008374B03F5FE5303F1B6
:10C5A0003C034FF001021A601AE0334B03F5FE53CF
:10C5B00003F13C034FF002021A6011E02E4B03F529
:10C5C000FE5303F13C034FF003021A6008E02A4BCC
:10C5D00003F5FE5303F13C034FF004021A6000BF61
:10C5E000A7E206F0C5FE244B03F5FE5303F13C031E
:10C5F0001B68012B1AD14FF0010002F03BF91E4BD2
:10C6000003F5FE5303F13C031B684FF01600194677
:10C610004FF000024FF001030AF0C0FD19484FF03F
:10C62000000105F091FD05F0E5FD83E2124B03F5F5
:10C63000FE5303F13C031B68022B25D14FF002008F
:10C6400002F018F90C4B03F5FE5303F13C031B6891
:10C650004FF0160019464FF000024FF001030AF0A8
:10C660009DFD08484FF0000105F06EFD05F0C2FD8C
:10C6700060E200BF34560020700000200C1F002034
:10C680009420002080200020B44B03F5FE5303F1DA
:10C690003C031B68032B40F0778107F580734FF054
:10C6A00000021A6007F1FC034FF000021A6007F164
:10C6B000F8034FF000021A6007F1F4034FF0000294
:10C6C0001A6007F1F0034FF000021A6007F1EC0363
:10C6D0004FF000021A6007F1E8034FF000021A6001
:10C6E00007F1E4034FF000021A6007F1E0034FF096
:10C6F00000021A6007F1DC034FF000021A6007F134
:10C70000D8034FF000021A6007F1D4034FF0000283
:10C710001A6007F1D0034FF000021A6007F1CC0352
:10C720004FF000021A6007F1C8034FF000021A60D0
:10C730008B4B186807F5807107F1FC0207F1F803CD
:10C7400007F1F404009407F1F004019403F006F9F2
:10C75000844B186807F1EC0107F1E80207F1E403E4
:10C7600007F1E004009407F1DC04019403F0F6F80B
:10C770007D4B186807F1D80107F1D40207F1D00307
:10C7800007F1CC04009407F1C804019403F0E6F823
:10C7900007F1FC031A6807F1F8031B6807F1F401BD
:10C7A000D1F800B007F1F001D1F800A007F1E801DD
:10C7B000D1F8009007F1E401D1F8008007F1E00121
:10C7C000D1F800C007F1DC01D1F800E007F1D40195
:10C7D0000E6807F1D0010D6807F1CC010C6807F174
:10C7E000C801086807F1B401CDF800B0CDF804A085
:10C7F000CDF80890CDF80C80CDF810C0CDF814E03D
:10C800000696079508940990084658490BF0F2FEE1
:10C8100007F1B40318464FF0000105F065FC544BD6
:10C82000186807F5807107F1FC0207F1F80307F1BA
:10C83000F404009407F1F004019403F08FF84D4BD9
:10C84000186807F1EC0107F1E80207F1E40307F1CA
:10C85000E004009407F1DC04019403F07FF8464BF8
:10C86000186807F1D80107F1D40207F1D00307F1E6
:10C87000CC04009407F1C804019403F06FF807F1A9
:10C88000FC031A6807F1F8031B6807F1F401D1F8FB
:10C8900000B007F1F001D1F800A007F1E801D1F8EC
:10C8A000009007F1E401D1F8008007F1E001D1F830
:10C8B00000C007F1DC01D1F800E007F1D4010E68F7
:10C8C00007F1D0010D6807F1CC010C6807F1C80130
:10C8D000086807F1A001CDF800B0CDF804A0CDF8AC
:10C8E0000890CDF80C80CDF810C0CDF814E0069675
:10C8F000079508940990084620490BF07BFE07F144
:10C90000A00318464FF0010105F0EEFB05F072FCA4
:10C910004FF002001A4906F0FFFBC7F80C03D7F8E6
:10C920000C33002B03D1164B1B68002BF0D00B4BA4
:10C9300003F5FE5303F13C031B684FF01600194644
:10C940004FF000024FF001030AF028FC0D484FF0B1
:10C95000000105F0F9FB05F04DFCEBE07000002054
:10C96000FC550020005600200456002018850F08B2
:10C97000085600200C560020105600203C850F0859
:10C980003456002080200020A54B03F5FE5303F110
:10C990003C031B68042B7FF49BADA24B1B68002B50
:10C9A00033D1A14B1B68002B2FD1A04B1B68002B50
:10C9B0002BD19F4B1B68002B27D19E4B1B68002B54
:10C9C00023D19D4B1B68002B1FD1954B03F5FE53C4
:10C9D00003F13C031B684FF0160019464FF00002AC
:10C9E0004FF001030AF0DAFB94484FF0000105F024
:10C9F000ABFB93484FF0010105F0A6FB05F0FAFBF5
:10CA00004FF4FA6006F088F894E08E484FF0000189
:10CA100005F09AFB8C484FF0010105F095FB05F0FD
:10CA2000E9FB00E000BF4FF00200884906F074FB0C
:10CA3000C7F80C03D7F80C33002B03D1834B1B68CA
:10CA4000002BF0D0D7F80C33B3F1FF3F0DD1744B6E
:10CA500003F500534FF001021A607D484FF00101C9
:10CA600005F072FB05F0C6FB10E0D7F80C33012B84
:10CA70000CD16B4B03F500534FF000021A60724863
:10CA80004FF0010105F060FB05F0B4FB6F4B1B6834
:10CA900003F40043002BC5D0614B03F500531B6822
:10CAA000012B36D15E4B03F500534FF000021A60A4
:10CAB0005C4B4FF000021A605B4B4FF000021A60B3
:10CAC0005A4B4FF000021A60594B4FF000021A60A7
:10CAD000584B4FF000021A60574B4FF000021A609B
:10CAE0004FF00200594906F017FB584B4FF0000277
:10CAF0001A6052484FF0000105F026FB55484FF0F0
:10CB0000010105F021FB05F075FB4FF4FA6006F01A
:10CB100003F8434B03F5FE5303F13C031B684FF04E
:10CB2000160019464FF000024FF001030AF036FBE1
:10CB300000E0CEE400F086BC00BF00E000BF464944
:10CB4000374B03F5045303F170031B681A46134671
:10CB50004FEA83039B184FEA8303CB1818464FF024
:10CB6000010105F0F1FA05F045FB4FF002003749ED
:10CB700006F0D2FAC7F80C03D7F80C33002B03D118
:10CB8000324B1B68002BF0D0D7F80C33002B1FD092
:10CB9000234B03F5045303F17003196807F5017380
:10CBA000D7F80C238A181A6007F501731B68002B4D
:10CBB000C2DD07F501731B68022BBFDC184B03F5C0
:10CBC000045303F1700307F5017212681A60B6E7A7
:10CBD00006F0CEFB124B03F5045303F170031B6800
:10CBE0004FF0170019464FF000024FF001030AF012
:10CBF000D5FA194B18464FF0010105F0A5FA05F0DA
:10CC0000F9FA4FF0000009F031FA4FF002000F4935
:10CC100006F082FA0D4B4FF000021A6000F012BCD1
:10CC200070000020FC550020005600200456002013
:10CC3000085600200C5600201056002080200020AE
:10CC400060850F0888840F0898840F0834560020E8
:10CC5000A4840F0870850F0808220020B649B74B3E
:10CC600003F50A5303F164031B681A4613464FEA9F
:10CC700083039B184FEA8303CB1818464FF001013A
:10CC800005F062FA05F0B6FA4FF00200AC4906F082
:10CC900043FAC7F80C03D7F80C33002B03D1A84B89
:10CCA0001B68002BF0D0D7F80C33002B4CD0A34BD3
:10CCB00003F5105303F15003196807F50073D7F813
:10CCC0000C238A181A609D4B03F5105303F14C0393
:10CCD0001A6807F500731B689A4200DA5BE007F5F3
:10CCE00000731B68002B00DC55E0944B03F51053D8
:10CCF00003F1500307F5007212681A6007F500731C
:10CD00001B68022B0DD0032B14D0012B00D01AE08E
:10CD10008A4B03F50A5303F164034FF001021A60D2
:10CD200011E0864B03F50A5303F164034FF002024E
:10CD30001A6008E0814B03F50A5303F164034FF0D6
:10CD400003021A6000BF26E006F012FB7B4B03F5DE
:10CD50000A5303F164031B684FF0180019464FF0A3
:10CD600000024FF001030AF019FA734B18464FF016
:10CD7000010105F0E9F905F03DFA4FF0000009F076
:10CD800075F94FF002006E4906F0C6F96C4B4FF092
:10CD900000021A6056E361E7684B03F5105303F194
:10CDA0005C031A68654B03F5105303F158031A60CE
:10CDB000624B03F5105303F15C031A685F4B03F5F4
:10CDC000165303F144031A605C4B03F5105303F14F
:10CDD0005C031B684FF0190019464FF000024FF03A
:10CDE00001030AF0DBF9554B03F5105303F1680317
:10CDF0001B6803F1FF33032B1AD801A151F823F06C
:10CE000011CE000819CE000821CE000829CE000856
:10CE10004C4B4E4A1A600BE04A4B4D4A1A6007E0F1
:10CE2000484B4C4A1A6003E0464B4B4A1A6000BF1D
:10CE30004549424B03F5105303F158031B681A464A
:10CE400013464FEA83039B184FEA8303CB18184617
:10CE50004FF0010105F078F905F0CCF94FF0020030
:10CE6000374906F059F9C7F80C03D7F80C33002BF3
:10CE700003D1334B1B68002BF0D0D7F80C33002BB9
:10CE800000F091802D4B03F5165303F1440319680C
:10CE900007F5FE73D7F80C238A181A60274B03F5A1
:10CEA00017531A6807F5FE731B689A4200DAC1E24D
:10CEB00007F5FE731B68002B00DCBBE21F4B03F57C
:10CEC000165303F1440307F5FE7212681A6007F562
:10CED000FE731B6803F1FF33062B63D801A252F8DF
:10CEE00023F000BF01CF000813CF000825CF0008B2
:10CEF0005DCF00086FCF000881CF000893CF0008F6
:10CF00000E4B03F5105303F158034FF001021A6062
:10CF100048E00A4B03F5105303F158034FF00202A7
:10CF20001A603FE0054B03F5105303F158034FF02F
:10CF300003021A6036E000BF7C230020700000204E
:10CF400034560020B4550020F024002000007A441C
:10CF50000000C842000020410000803FA54B03F5BF
:10CF6000105303F158034FF004021A601AE0A14B6A
:10CF700003F5105303F158034FF005021A6011E056
:10CF80009C4B03F5105303F158034FF006021A604F
:10CF900008E0984B03F5105303F158034FF00702D4
:10CFA0001A6000BF46E206F0E3F9924B03F5105316
:10CFB00003F158031B68012B08D18E4B03F5105366
:10CFC00003F15C034FF001021A600CE2894B03F598
:10CFD000105303F158031B68022B08D1854B03F54E
:10CFE000105303F15C034FF002021A60FBE1814B26
:10CFF00003F5105303F158031B68032B02D105F00E
:10D0000059FDF0E17B4B03F5105303F158031B6806
:10D01000042B04D14FF0010001F0EAF8E3E1754B75
:10D0200003F5105303F158031B68052B08D0714B0F
:10D0300003F5105303F158031B68062B40F00981D8
:10D040006D4BC7F8C0326B4B03F5105303F1580317
:10D050001B68052B08D169484FF0000105F074F8F2
:10D06000654BC7F8C03213E0624B03F5105303F170
:10D0700058031B68062B0BD161484FF0000105F0E7
:10D0800063F8604BC7F8C03202E000BF00E000BFA9
:10D09000D7F8C0321B68092B09DC5B4AD7F8C032CD
:10D0A0001B68104659491A460BF0A4FA2FE0D7F82E
:10D0B000C0321B68632B09DC534AD7F8C0321B68A7
:10D0C000104653491A460BF095FA20E0D7F8C032C3
:10D0D0001A6840F2E7339A4209DC4B4AD7F8C0326B
:10D0E0001B6810464B491A460BF084FA0FE0D7F83C
:10D0F000C0321A6842F20F739A4208DC424AD7F8EB
:10D10000C0321B68104644491A460BF073FA3E4B76
:10D1100018464FF0010105F017F805F06BF84FF0D5
:10D1200002003E4905F0F8FFC7F80C033B4B1B68B3
:10D1300003F08003002B14D1384B1B6803F4006309
:10D14000002B0ED1354B1B6803F48052334B1B6808
:10D15000B3F5005F14BF0023012302EA0303002B91
:10D1600007D02E4B4FF000021A604FF00003C7F8B3
:10D170000C33D7F80C33002B03D1284B1B68002B42
:10D18000CDD0D7F80C33002B4CD0D7F8C0321B6869
:10D1900018460EF05BFA0446D7F80C030EF056FA68
:10D1A00002461F4B1B68104619460EF0A3FA0346B1
:10D1B000204619460EF096F9034607F5FA7418460C
:10D1C0000EF05EFC0346236007F5FA731B68002B24
:10D1D000FFF65BAF07F5FA731A6842F210739A42D2
:10D1E0003FF755AFD7F8C03207F5FA7212681A60E8
:10D1F0004EE700BF70000020D024002080850F087B
:10D2000090850F08D4240020F0240020A0850F086A
:10D21000B4850F08C8850F08DC850F083456002038
:10D22000B455002006F0A4F891484FF0000104F036
:10D230008BFF04F0DFFF4FF0000008F017FF4FF006
:10D2400002008C4905F068FF8A4B4FF000021A601B
:10D25000F0E0894B03F5105303F158031B68072BCB
:10D2600040F0C18085484FF0000104F06DFF02E0FE
:10D2700000BF00E000BF804B03F5105303F16803CB
:10D280001B6803F1FF33032B36D801A050F823F0BD
:10D29000A1D20008B7D20008CDD20008E3D200081E
:10D2A000774B184677494FF008020EF02FFC764B6B
:10D2B0007C4A1A6020E0724B184674494FF009020C
:10D2C0000EF024FC704B784A1A6015E06C4B18463F
:10D2D0006F494FF00A020EF019FC6B4B734A1A604B
:10D2E0000AE0674B18466B494FF00B020EF00EFC3C
:10D2F000654B6F4A1A6000BF614B18464FF0010141
:10D3000004F022FF04F076FF4FF00200594905F0C7
:10D3100003FFC7F80C03574B1B6803F08003002B77
:10D3200014D1544B1B6803F40063002B0ED1514BF6
:10D330001B6803F480524F4B1B68B3F5005F14BFAA
:10D340000023012302EA0303002B07D0494B4FF0CF
:10D3500000021A604FF00003C7F80C33D7F80C3303
:10D36000002B03D1434B1B68002BCDD0D7F80C33D7
:10D37000002B21D0404B03F5105303F168031968CB
:10D3800007F5FC73D7F80C238A181A6007F5FC73AD
:10D390001B68002B7FF76CAF07F5FC731B68042B31
:10D3A0003FF768AF344B03F5105303F1680307F5FB
:10D3B000FC7212681A605EE705F0DAFF2C484FF045
:10D3C000000104F0C1FE04F015FF4FF0000008F06A
:10D3D0004DFE4FF00200274905F09EFE254B4FF011
:10D3E00000021A6026E005F0C3FF234B03F510533B
:10D3F00003F15C031B684FF0190019464FF000025F
:10D400004FF0010309F0CAFE1D4B18464FF0010111
:10D4100004F09AFE04F0EEFE4FF0000008F026FE45
:10D420004FF00200134905F077FE124B4FF0000257
:10D430001A6007E0FCE400BF04E000BF02E000BFA8
:10D4400000E000BF144B1B68022B3AF44EAF00F013
:10D45000BEBE124B1B68012B2CD1114B4FF00002AA
:10D460001A600D4B4FF002021A6000F0B0BE00BF10
:10D47000DC2400203456002070000020F0850F08C6
:10D48000F024002000860F08B455002008860F08FD
:10D4900014860F0820860F08845500208C55002024
:10D4A000BC55002000007A440000C8420000204122
:10D4B0000000803F07F19C034FF000021A604FF01C
:10D4C0000003C7F8BC324FF00003C7F8B83207F1C9
:10D4D00098034FF000021A604FF00003C7F8B4320F
:10D4E000814BD3F8A42B07F5F8731A607E4BD3F861
:10D4F000182D07F5F6731A607B4BD3F8A43B042B69
:10D5000004D1794B4FF00102C3F8A42B764BD3F82A
:10D51000183D042B04D1744B4FF00102C3F8182DB1
:10D520004FF00003C7F8B03207F19C034FF003003F
:10D53000194605F0F1FD07F19C031B6803F4004355
:10D54000C7F8B032684B03F5045303F170031B684E
:10D55000022B0AD107F19C031B6803F02003D7F8C4
:10D56000B02242EA0303C7F8B0325F4BD3F8A43BC2
:10D57000052B0AD107F19C031B6803F40863D7F855
:10D58000B02242EA0303C7F8B032574BD3F8183D34
:10D59000052B0AD107F19C031B6803F44053D7F80D
:10D5A000B02242EA0303C7F8B03207F5F4744FF033
:10D5B000800002F0A1F9206007F5F2744FF40060DA
:10D5C00002F09AF9206007F5F0744FF4805002F0F1
:10D5D00093F9206007F5EE744FF4005002F08CF9D7
:10D5E0002060414BD3F8A43B012B04D03E4BD3F831
:10D5F000A43B052B36D13C4BD3F8183D022B12D15E
:10D6000007F5F07207F5EE73384900914FF0090005
:10D6100011681A68364B02F0E5FD0346012B40F015
:10D620008A8500F07EBD304BD3F8183D032B40F0C7
:10D630005585304B1B6807F5F07107F5EE722C48E5
:10D6400000902A48019007F1980002904FF00900DD
:10D650000968126803F09EF80346012B40F06D85BF
:10D6600000F05FBD204BD3F8183D012B04D01E4BBA
:10D67000D3F8183D052B45D11B4BD3F8A43B022B07
:10D6800012D107F5F47207F5F2731B4900914FF0C0
:10D69000080011681A68194B02F0A4FD0346012B1B
:10D6A00040F04D8500F03DBD0F4BD3F8A43B032B5C
:10D6B00040F01685124B1B6807F5F47107F5F272FE
:10D6C0000E4800900C48019007F1980002904FF02E
:10D6D00008000968126803F05DF80346012B40F06A
:10D6E000308500F01EBD00BF700000203C860F0892
:10D6F0002C860F08D455002060860F0850860F082E
:10D70000D0550020964BD3F8A43B022B40F0CA81A1
:10D71000934BD3F8183D022B40F0A58107F184020A
:10D72000904B14461D460FCD0FC42B68236007F1A4
:10D7300070028C4B14461D460FCD0FC42B6823601E
:10D74000D7F8BC32002B13D107F5F47207F5F2734A
:10D7500012681B6842EA0303002B09D007F5F47234
:10D7600007F5F27312681B6842EA0303C7F8BC327C
:10D77000D7F8B832002B13D107F5F07207F5EE7326
:10D7800012681B6842EA0303002B09D007F5F07208
:10D7900007F5EE7312681B6842EA0303C7F8B83254
:10D7A00007F1840207F17003D7F8BC02D7F8B8126A
:10D7B00002F0CAF907F1840318464FF0000104F0A3
:10D7C00093FC07F1700318464FF0010104F08CFC44
:10D7D00004F010FDD7F8BC32002B00F09784D7F886
:10D7E000B832002B00F0948407F5EC7342F2D002BB
:10D7F0001A6007F5EA7341F64C521A6007F15C03B0
:10D800004FF000021A6003F104034FF000021A60A7
:10D8100003F104034FF000021A6003F104034FF018
:10D8200000021A6003F104034FF000021A6003F1D2
:10D83000040307F148034FF000021A6003F10403E8
:10D840004FF000021A6003F104034FF000021A6067
:10D8500003F104034FF000021A6003F104034FF0D8
:10D8600000021A6003F10403D7F8BC22D7F8B832DB
:10D870009A427FD907F14803D7F8B802194602F057
:10D88000DDF807F148034FF00900D7F8B8121A463F
:10D8900003F052FC07F15C03D7F8BC02194602F012
:10D8A000CDF807F15C034FF00800D7F8BC121A4618
:10D8B00003F042FC2A4B03F58A5303F134031B683F
:10D8C000022B40F0CB804FF064004FF0010105F0D7
:10D8D0009BF907F5EC731B684FEA4302224BD21801
:10D8E00007F5EA731B6810464FF000011A464FF027
:10D8F000010305F085FA4FF0010007F091FA1B4B88
:10D900005A681B4BA3FB02134FEAD30318464FF090
:10D91000000105F09DFE07F5EC731B684FEA43021A
:10D92000114BD21807F5EA731B6810464FF000013F
:10D930001A464FF0010305F063FA4FF0020007F0BA
:10D940006FFA0A4B5A6D0A4BA3FB02034FEAD3034B
